{
  "_format": "hh-sol-artifact-1",
  "contractName": "LemonheadNFT",
  "sourceName": "contracts/LemonheadNFT.sol",
  "abi": [
    {
      "inputs": [
        {
          "internalType": "string",
          "name": "_name",
          "type": "string"
        },
        {
          "internalType": "string",
          "name": "_symbol",
          "type": "string"
        },
        {
          "internalType": "address",
          "name": "_lzEndpoint",
          "type": "address"
        },
        {
          "internalType": "address",
          "name": "_owner",
          "type": "address"
        },
        {
          "internalType": "address",
          "name": "_destinationVault",
          "type": "address"
        },
        {
          "internalType": "uint256",
          "name": "_mintPrice",
          "type": "uint256"
        },
        {
          "internalType": "address",
          "name": "_authorizedSigner",
          "type": "address"
        },
        {
          "internalType": "string",
          "name": "_baseURI",
          "type": "string"
        }
      ],
      "stateMutability": "nonpayable",
      "type": "constructor"
    },
    {
      "inputs": [],
      "name": "CannotTransfer",
      "type": "error"
    },
    {
      "inputs": [],
      "name": "ECDSAInvalidSignature",
      "type": "error"
    },
    {
      "inputs": [
        {
          "internalType": "uint256",
          "name": "length",
          "type": "uint256"
        }
      ],
      "name": "ECDSAInvalidSignatureLength",
      "type": "error"
    },
    {
      "inputs": [
        {
          "internalType": "bytes32",
          "name": "s",
          "type": "bytes32"
        }
      ],
      "name": "ECDSAInvalidSignatureS",
      "type": "error"
    },
    {
      "inputs": [
        {
          "internalType": "address",
          "name": "sender",
          "type": "address"
        },
        {
          "internalType": "uint256",
          "name": "tokenId",
          "type": "uint256"
        },
        {
          "internalType": "address",
          "name": "owner",
          "type": "address"
        }
      ],
      "name": "ERC721IncorrectOwner",
      "type": "error"
    },
    {
      "inputs": [
        {
          "internalType": "address",
          "name": "operator",
          "type": "address"
        },
        {
          "internalType": "uint256",
          "name": "tokenId",
          "type": "uint256"
        }
      ],
      "name": "ERC721InsufficientApproval",
      "type": "error"
    },
    {
      "inputs": [
        {
          "internalType": "address",
          "name": "approver",
          "type": "address"
        }
      ],
      "name": "ERC721InvalidApprover",
      "type": "error"
    },
    {
      "inputs": [
        {
          "internalType": "address",
          "name": "operator",
          "type": "address"
        }
      ],
      "name": "ERC721InvalidOperator",
      "type": "error"
    },
    {
      "inputs": [
        {
          "internalType": "address",
          "name": "owner",
          "type": "address"
        }
      ],
      "name": "ERC721InvalidOwner",
      "type": "error"
    },
    {
      "inputs": [
        {
          "internalType": "address",
          "name": "receiver",
          "type": "address"
        }
      ],
      "name": "ERC721InvalidReceiver",
      "type": "error"
    },
    {
      "inputs": [
        {
          "internalType": "address",
          "name": "sender",
          "type": "address"
        }
      ],
      "name": "ERC721InvalidSender",
      "type": "error"
    },
    {
      "inputs": [
        {
          "internalType": "uint256",
          "name": "tokenId",
          "type": "uint256"
        }
      ],
      "name": "ERC721NonexistentToken",
      "type": "error"
    },
    {
      "inputs": [],
      "name": "InsufficientPayment",
      "type": "error"
    },
    {
      "inputs": [],
      "name": "InvalidDelegate",
      "type": "error"
    },
    {
      "inputs": [],
      "name": "InvalidEndpointCall",
      "type": "error"
    },
    {
      "inputs": [
        {
          "internalType": "bytes",
          "name": "options",
          "type": "bytes"
        }
      ],
      "name": "InvalidOptions",
      "type": "error"
    },
    {
      "inputs": [],
      "name": "InvalidReceiver",
      "type": "error"
    },
    {
      "inputs": [],
      "name": "InvalidSignature",
      "type": "error"
    },
    {
      "inputs": [],
      "name": "LookAlreadyMinted",
      "type": "error"
    },
    {
      "inputs": [],
      "name": "LzTokenUnavailable",
      "type": "error"
    },
    {
      "inputs": [
        {
          "internalType": "uint32",
          "name": "eid",
          "type": "uint32"
        }
      ],
      "name": "NoPeer",
      "type": "error"
    },
    {
      "inputs": [
        {
          "internalType": "uint256",
          "name": "msgValue",
          "type": "uint256"
        }
      ],
      "name": "NotEnoughNative",
      "type": "error"
    },
    {
      "inputs": [
        {
          "internalType": "address",
          "name": "addr",
          "type": "address"
        }
      ],
      "name": "OnlyEndpoint",
      "type": "error"
    },
    {
      "inputs": [
        {
          "internalType": "address",
          "name": "caller",
          "type": "address"
        },
        {
          "internalType": "address",
          "name": "owner",
          "type": "address"
        }
      ],
      "name": "OnlyNFTOwner",
      "type": "error"
    },
    {
      "inputs": [
        {
          "internalType": "uint32",
          "name": "eid",
          "type": "uint32"
        },
        {
          "internalType": "bytes32",
          "name": "sender",
          "type": "bytes32"
        }
      ],
      "name": "OnlyPeer",
      "type": "error"
    },
    {
      "inputs": [],
      "name": "OnlySelf",
      "type": "error"
    },
    {
      "inputs": [
        {
          "internalType": "address",
          "name": "owner",
          "type": "address"
        }
      ],
      "name": "OwnableInvalidOwner",
      "type": "error"
    },
    {
      "inputs": [
        {
          "internalType": "address",
          "name": "account",
          "type": "address"
        }
      ],
      "name": "OwnableUnauthorizedAccount",
      "type": "error"
    },
    {
      "inputs": [
        {
          "internalType": "address",
          "name": "token",
          "type": "address"
        }
      ],
      "name": "SafeERC20FailedOperation",
      "type": "error"
    },
    {
      "inputs": [
        {
          "internalType": "bytes",
          "name": "result",
          "type": "bytes"
        }
      ],
      "name": "SimulationResult",
      "type": "error"
    },
    {
      "anonymous": false,
      "inputs": [
        {
          "indexed": true,
          "internalType": "address",
          "name": "owner",
          "type": "address"
        },
        {
          "indexed": true,
          "internalType": "address",
          "name": "approved",
          "type": "address"
        },
        {
          "indexed": true,
          "internalType": "uint256",
          "name": "tokenId",
          "type": "uint256"
        }
      ],
      "name": "Approval",
      "type": "event"
    },
    {
      "anonymous": false,
      "inputs": [
        {
          "indexed": true,
          "internalType": "address",
          "name": "owner",
          "type": "address"
        },
        {
          "indexed": true,
          "internalType": "address",
          "name": "operator",
          "type": "address"
        },
        {
          "indexed": false,
          "internalType": "bool",
          "name": "approved",
          "type": "bool"
        }
      ],
      "name": "ApprovalForAll",
      "type": "event"
    },
    {
      "anonymous": false,
      "inputs": [
        {
          "indexed": true,
          "internalType": "address",
          "name": "oldSigner",
          "type": "address"
        },
        {
          "indexed": true,
          "internalType": "address",
          "name": "newSigner",
          "type": "address"
        }
      ],
      "name": "AuthorizedSignerSet",
      "type": "event"
    },
    {
      "anonymous": false,
      "inputs": [
        {
          "indexed": false,
          "internalType": "string",
          "name": "baseURI",
          "type": "string"
        }
      ],
      "name": "BaseURISet",
      "type": "event"
    },
    {
      "anonymous": false,
      "inputs": [
        {
          "indexed": true,
          "internalType": "address",
          "name": "oldVault",
          "type": "address"
        },
        {
          "indexed": true,
          "internalType": "address",
          "name": "newVault",
          "type": "address"
        }
      ],
      "name": "DestinationVaultSet",
      "type": "event"
    },
    {
      "anonymous": false,
      "inputs": [
        {
          "components": [
            {
              "internalType": "uint32",
              "name": "eid",
              "type": "uint32"
            },
            {
              "internalType": "uint16",
              "name": "msgType",
              "type": "uint16"
            },
            {
              "internalType": "bytes",
              "name": "options",
              "type": "bytes"
            }
          ],
          "indexed": false,
          "internalType": "struct EnforcedOptionParam[]",
          "name": "_enforcedOptions",
          "type": "tuple[]"
        }
      ],
      "name": "EnforcedOptionSet",
      "type": "event"
    },
    {
      "anonymous": false,
      "inputs": [
        {
          "indexed": true,
          "internalType": "uint256",
          "name": "oldPrice",
          "type": "uint256"
        },
        {
          "indexed": true,
          "internalType": "uint256",
          "name": "newPrice",
          "type": "uint256"
        }
      ],
      "name": "MintPriceSet",
      "type": "event"
    },
    {
      "anonymous": false,
      "inputs": [
        {
          "indexed": true,
          "internalType": "address",
          "name": "receiver",
          "type": "address"
        },
        {
          "indexed": true,
          "internalType": "uint256",
          "name": "tokenId",
          "type": "uint256"
        },
        {
          "indexed": true,
          "internalType": "bytes32",
          "name": "look",
          "type": "bytes32"
        }
      ],
      "name": "Minted",
      "type": "event"
    },
    {
      "anonymous": false,
      "inputs": [
        {
          "indexed": false,
          "internalType": "address",
          "name": "inspector",
          "type": "address"
        }
      ],
      "name": "MsgInspectorSet",
      "type": "event"
    },
    {
      "anonymous": false,
      "inputs": [
        {
          "indexed": true,
          "internalType": "bytes32",
          "name": "guid",
          "type": "bytes32"
        },
        {
          "indexed": false,
          "internalType": "uint32",
          "name": "srcEid",
          "type": "uint32"
        },
        {
          "indexed": true,
          "internalType": "address",
          "name": "toAddress",
          "type": "address"
        },
        {
          "indexed": false,
          "internalType": "uint256",
          "name": "tokenId",
          "type": "uint256"
        }
      ],
      "name": "ONFTReceived",
      "type": "event"
    },
    {
      "anonymous": false,
      "inputs": [
        {
          "indexed": true,
          "internalType": "bytes32",
          "name": "guid",
          "type": "bytes32"
        },
        {
          "indexed": false,
          "internalType": "uint32",
          "name": "dstEid",
          "type": "uint32"
        },
        {
          "indexed": true,
          "internalType": "address",
          "name": "fromAddress",
          "type": "address"
        },
        {
          "indexed": false,
          "internalType": "uint256",
          "name": "tokenId",
          "type": "uint256"
        }
      ],
      "name": "ONFTSent",
      "type": "event"
    },
    {
      "anonymous": false,
      "inputs": [
        {
          "indexed": true,
          "internalType": "address",
          "name": "previousOwner",
          "type": "address"
        },
        {
          "indexed": true,
          "internalType": "address",
          "name": "newOwner",
          "type": "address"
        }
      ],
      "name": "OwnershipTransferred",
      "type": "event"
    },
    {
      "anonymous": false,
      "inputs": [
        {
          "indexed": false,
          "internalType": "uint32",
          "name": "eid",
          "type": "uint32"
        },
        {
          "indexed": false,
          "internalType": "bytes32",
          "name": "peer",
          "type": "bytes32"
        }
      ],
      "name": "PeerSet",
      "type": "event"
    },
    {
      "anonymous": false,
      "inputs": [
        {
          "indexed": false,
          "internalType": "address",
          "name": "preCrimeAddress",
          "type": "address"
        }
      ],
      "name": "PreCrimeSet",
      "type": "event"
    },
    {
      "anonymous": false,
      "inputs": [
        {
          "indexed": true,
          "internalType": "address",
          "name": "from",
          "type": "address"
        },
        {
          "indexed": true,
          "internalType": "address",
          "name": "to",
          "type": "address"
        },
        {
          "indexed": true,
          "internalType": "uint256",
          "name": "tokenId",
          "type": "uint256"
        }
      ],
      "name": "Transfer",
      "type": "event"
    },
    {
      "inputs": [],
      "name": "SEND",
      "outputs": [
        {
          "internalType": "uint16",
          "name": "",
          "type": "uint16"
        }
      ],
      "stateMutability": "view",
      "type": "function"
    },
    {
      "inputs": [],
      "name": "SEND_AND_COMPOSE",
      "outputs": [
        {
          "internalType": "uint16",
          "name": "",
          "type": "uint16"
        }
      ],
      "stateMutability": "view",
      "type": "function"
    },
    {
      "inputs": [
        {
          "components": [
            {
              "internalType": "uint32",
              "name": "srcEid",
              "type": "uint32"
            },
            {
              "internalType": "bytes32",
              "name": "sender",
              "type": "bytes32"
            },
            {
              "internalType": "uint64",
              "name": "nonce",
              "type": "uint64"
            }
          ],
          "internalType": "struct Origin",
          "name": "origin",
          "type": "tuple"
        }
      ],
      "name": "allowInitializePath",
      "outputs": [
        {
          "internalType": "bool",
          "name": "",
          "type": "bool"
        }
      ],
      "stateMutability": "view",
      "type": "function"
    },
    {
      "inputs": [],
      "name": "approvalRequired",
      "outputs": [
        {
          "internalType": "bool",
          "name": "",
          "type": "bool"
        }
      ],
      "stateMutability": "pure",
      "type": "function"
    },
    {
      "inputs": [
        {
          "internalType": "address",
          "name": "to",
          "type": "address"
        },
        {
          "internalType": "uint256",
          "name": "tokenId",
          "type": "uint256"
        }
      ],
      "name": "approve",
      "outputs": [],
      "stateMutability": "nonpayable",
      "type": "function"
    },
    {
      "inputs": [
        {
          "internalType": "address",
          "name": "owner",
          "type": "address"
        }
      ],
      "name": "balanceOf",
      "outputs": [
        {
          "internalType": "uint256",
          "name": "",
          "type": "uint256"
        }
      ],
      "stateMutability": "view",
      "type": "function"
    },
    {
      "inputs": [
        {
          "internalType": "uint32",
          "name": "_eid",
          "type": "uint32"
        },
        {
          "internalType": "uint16",
          "name": "_msgType",
          "type": "uint16"
        },
        {
          "internalType": "bytes",
          "name": "_extraOptions",
          "type": "bytes"
        }
      ],
      "name": "combineOptions",
      "outputs": [
        {
          "internalType": "bytes",
          "name": "",
          "type": "bytes"
        }
      ],
      "stateMutability": "view",
      "type": "function"
    },
    {
      "inputs": [],
      "name": "destinationVault",
      "outputs": [
        {
          "internalType": "address",
          "name": "",
          "type": "address"
        }
      ],
      "stateMutability": "view",
      "type": "function"
    },
    {
      "inputs": [],
      "name": "endpoint",
      "outputs": [
        {
          "internalType": "contract ILayerZeroEndpointV2",
          "name": "",
          "type": "address"
        }
      ],
      "stateMutability": "view",
      "type": "function"
    },
    {
      "inputs": [
        {
          "internalType": "uint32",
          "name": "eid",
          "type": "uint32"
        },
        {
          "internalType": "uint16",
          "name": "msgType",
          "type": "uint16"
        }
      ],
      "name": "enforcedOptions",
      "outputs": [
        {
          "internalType": "bytes",
          "name": "enforcedOption",
          "type": "bytes"
        }
      ],
      "stateMutability": "view",
      "type": "function"
    },
    {
      "inputs": [
        {
          "internalType": "uint256",
          "name": "tokenId",
          "type": "uint256"
        }
      ],
      "name": "getApproved",
      "outputs": [
        {
          "internalType": "address",
          "name": "",
          "type": "address"
        }
      ],
      "stateMutability": "view",
      "type": "function"
    },
    {
      "inputs": [
        {
          "internalType": "address",
          "name": "owner",
          "type": "address"
        },
        {
          "internalType": "address",
          "name": "operator",
          "type": "address"
        }
      ],
      "name": "isApprovedForAll",
      "outputs": [
        {
          "internalType": "bool",
          "name": "",
          "type": "bool"
        }
      ],
      "stateMutability": "view",
      "type": "function"
    },
    {
      "inputs": [
        {
          "components": [
            {
              "internalType": "uint32",
              "name": "srcEid",
              "type": "uint32"
            },
            {
              "internalType": "bytes32",
              "name": "sender",
              "type": "bytes32"
            },
            {
              "internalType": "uint64",
              "name": "nonce",
              "type": "uint64"
            }
          ],
          "internalType": "struct Origin",
          "name": "",
          "type": "tuple"
        },
        {
          "internalType": "bytes",
          "name": "",
          "type": "bytes"
        },
        {
          "internalType": "address",
          "name": "_sender",
          "type": "address"
        }
      ],
      "name": "isComposeMsgSender",
      "outputs": [
        {
          "internalType": "bool",
          "name": "",
          "type": "bool"
        }
      ],
      "stateMutability": "view",
      "type": "function"
    },
    {
      "inputs": [
        {
          "internalType": "uint32",
          "name": "_eid",
          "type": "uint32"
        },
        {
          "internalType": "bytes32",
          "name": "_peer",
          "type": "bytes32"
        }
      ],
      "name": "isPeer",
      "outputs": [
        {
          "internalType": "bool",
          "name": "",
          "type": "bool"
        }
      ],
      "stateMutability": "view",
      "type": "function"
    },
    {
      "inputs": [
        {
          "components": [
            {
              "internalType": "uint32",
              "name": "srcEid",
              "type": "uint32"
            },
            {
              "internalType": "bytes32",
              "name": "sender",
              "type": "bytes32"
            },
            {
              "internalType": "uint64",
              "name": "nonce",
              "type": "uint64"
            }
          ],
          "internalType": "struct Origin",
          "name": "_origin",
          "type": "tuple"
        },
        {
          "internalType": "bytes32",
          "name": "_guid",
          "type": "bytes32"
        },
        {
          "internalType": "bytes",
          "name": "_message",
          "type": "bytes"
        },
        {
          "internalType": "address",
          "name": "_executor",
          "type": "address"
        },
        {
          "internalType": "bytes",
          "name": "_extraData",
          "type": "bytes"
        }
      ],
      "name": "lzReceive",
      "outputs": [],
      "stateMutability": "payable",
      "type": "function"
    },
    {
      "inputs": [
        {
          "components": [
            {
              "components": [
                {
                  "internalType": "uint32",
                  "name": "srcEid",
                  "type": "uint32"
                },
                {
                  "internalType": "bytes32",
                  "name": "sender",
                  "type": "bytes32"
                },
                {
                  "internalType": "uint64",
                  "name": "nonce",
                  "type": "uint64"
                }
              ],
              "internalType": "struct Origin",
              "name": "origin",
              "type": "tuple"
            },
            {
              "internalType": "uint32",
              "name": "dstEid",
              "type": "uint32"
            },
            {
              "internalType": "address",
              "name": "receiver",
              "type": "address"
            },
            {
              "internalType": "bytes32",
              "name": "guid",
              "type": "bytes32"
            },
            {
              "internalType": "uint256",
              "name": "value",
              "type": "uint256"
            },
            {
              "internalType": "address",
              "name": "executor",
              "type": "address"
            },
            {
              "internalType": "bytes",
              "name": "message",
              "type": "bytes"
            },
            {
              "internalType": "bytes",
              "name": "extraData",
              "type": "bytes"
            }
          ],
          "internalType": "struct InboundPacket[]",
          "name": "_packets",
          "type": "tuple[]"
        }
      ],
      "name": "lzReceiveAndRevert",
      "outputs": [],
      "stateMutability": "payable",
      "type": "function"
    },
    {
      "inputs": [
        {
          "components": [
            {
              "internalType": "uint32",
              "name": "srcEid",
              "type": "uint32"
            },
            {
              "internalType": "bytes32",
              "name": "sender",
              "type": "bytes32"
            },
            {
              "internalType": "uint64",
              "name": "nonce",
              "type": "uint64"
            }
          ],
          "internalType": "struct Origin",
          "name": "_origin",
          "type": "tuple"
        },
        {
          "internalType": "bytes32",
          "name": "_guid",
          "type": "bytes32"
        },
        {
          "internalType": "bytes",
          "name": "_message",
          "type": "bytes"
        },
        {
          "internalType": "address",
          "name": "_executor",
          "type": "address"
        },
        {
          "internalType": "bytes",
          "name": "_extraData",
          "type": "bytes"
        }
      ],
      "name": "lzReceiveSimulate",
      "outputs": [],
      "stateMutability": "payable",
      "type": "function"
    },
    {
      "inputs": [
        {
          "internalType": "bytes32",
          "name": "look",
          "type": "bytes32"
        },
        {
          "internalType": "string",
          "name": "uri",
          "type": "string"
        },
        {
          "internalType": "bytes",
          "name": "signature",
          "type": "bytes"
        }
      ],
      "name": "mint",
      "outputs": [],
      "stateMutability": "payable",
      "type": "function"
    },
    {
      "inputs": [
        {
          "internalType": "address",
          "name": "",
          "type": "address"
        }
      ],
      "name": "mintCount",
      "outputs": [
        {
          "internalType": "uint256",
          "name": "",
          "type": "uint256"
        }
      ],
      "stateMutability": "view",
      "type": "function"
    },
    {
      "inputs": [
        {
          "internalType": "bytes32",
          "name": "look",
          "type": "bytes32"
        },
        {
          "internalType": "string",
          "name": "uri",
          "type": "string"
        },
        {
          "internalType": "bytes",
          "name": "signature",
          "type": "bytes"
        }
      ],
      "name": "mintFree",
      "outputs": [],
      "stateMutability": "nonpayable",
      "type": "function"
    },
    {
      "inputs": [],
      "name": "mintPrice",
      "outputs": [
        {
          "internalType": "uint256",
          "name": "",
          "type": "uint256"
        }
      ],
      "stateMutability": "view",
      "type": "function"
    },
    {
      "inputs": [],
      "name": "msgInspector",
      "outputs": [
        {
          "internalType": "address",
          "name": "",
          "type": "address"
        }
      ],
      "stateMutability": "view",
      "type": "function"
    },
    {
      "inputs": [],
      "name": "name",
      "outputs": [
        {
          "internalType": "string",
          "name": "",
          "type": "string"
        }
      ],
      "stateMutability": "view",
      "type": "function"
    },
    {
      "inputs": [
        {
          "internalType": "uint32",
          "name": "",
          "type": "uint32"
        },
        {
          "internalType": "bytes32",
          "name": "",
          "type": "bytes32"
        }
      ],
      "name": "nextNonce",
      "outputs": [
        {
          "internalType": "uint64",
          "name": "nonce",
          "type": "uint64"
        }
      ],
      "stateMutability": "view",
      "type": "function"
    },
    {
      "inputs": [],
      "name": "oApp",
      "outputs": [
        {
          "internalType": "address",
          "name": "",
          "type": "address"
        }
      ],
      "stateMutability": "view",
      "type": "function"
    },
    {
      "inputs": [],
      "name": "oAppVersion",
      "outputs": [
        {
          "internalType": "uint64",
          "name": "senderVersion",
          "type": "uint64"
        },
        {
          "internalType": "uint64",
          "name": "receiverVersion",
          "type": "uint64"
        }
      ],
      "stateMutability": "pure",
      "type": "function"
    },
    {
      "inputs": [],
      "name": "onftVersion",
      "outputs": [
        {
          "internalType": "bytes4",
          "name": "interfaceId",
          "type": "bytes4"
        },
        {
          "internalType": "uint64",
          "name": "version",
          "type": "uint64"
        }
      ],
      "stateMutability": "pure",
      "type": "function"
    },
    {
      "inputs": [],
      "name": "owner",
      "outputs": [
        {
          "internalType": "address",
          "name": "",
          "type": "address"
        }
      ],
      "stateMutability": "view",
      "type": "function"
    },
    {
      "inputs": [
        {
          "internalType": "uint256",
          "name": "tokenId",
          "type": "uint256"
        }
      ],
      "name": "ownerOf",
      "outputs": [
        {
          "internalType": "address",
          "name": "",
          "type": "address"
        }
      ],
      "stateMutability": "view",
      "type": "function"
    },
    {
      "inputs": [
        {
          "internalType": "uint32",
          "name": "eid",
          "type": "uint32"
        }
      ],
      "name": "peers",
      "outputs": [
        {
          "internalType": "bytes32",
          "name": "peer",
          "type": "bytes32"
        }
      ],
      "stateMutability": "view",
      "type": "function"
    },
    {
      "inputs": [],
      "name": "preCrime",
      "outputs": [
        {
          "internalType": "address",
          "name": "",
          "type": "address"
        }
      ],
      "stateMutability": "view",
      "type": "function"
    },
    {
      "inputs": [
        {
          "components": [
            {
              "internalType": "uint32",
              "name": "dstEid",
              "type": "uint32"
            },
            {
              "internalType": "bytes32",
              "name": "to",
              "type": "bytes32"
            },
            {
              "internalType": "uint256",
              "name": "tokenId",
              "type": "uint256"
            },
            {
              "internalType": "bytes",
              "name": "extraOptions",
              "type": "bytes"
            },
            {
              "internalType": "bytes",
              "name": "composeMsg",
              "type": "bytes"
            },
            {
              "internalType": "bytes",
              "name": "onftCmd",
              "type": "bytes"
            }
          ],
          "internalType": "struct SendParam",
          "name": "_sendParam",
          "type": "tuple"
        },
        {
          "internalType": "bool",
          "name": "_payInLzToken",
          "type": "bool"
        }
      ],
      "name": "quoteSend",
      "outputs": [
        {
          "components": [
            {
              "internalType": "uint256",
              "name": "nativeFee",
              "type": "uint256"
            },
            {
              "internalType": "uint256",
              "name": "lzTokenFee",
              "type": "uint256"
            }
          ],
          "internalType": "struct MessagingFee",
          "name": "msgFee",
          "type": "tuple"
        }
      ],
      "stateMutability": "view",
      "type": "function"
    },
    {
      "inputs": [],
      "name": "renounceOwnership",
      "outputs": [],
      "stateMutability": "nonpayable",
      "type": "function"
    },
    {
      "inputs": [
        {
          "internalType": "address",
          "name": "from",
          "type": "address"
        },
        {
          "internalType": "address",
          "name": "to",
          "type": "address"
        },
        {
          "internalType": "uint256",
          "name": "tokenId",
          "type": "uint256"
        }
      ],
      "name": "safeTransferFrom",
      "outputs": [],
      "stateMutability": "nonpayable",
      "type": "function"
    },
    {
      "inputs": [
        {
          "internalType": "address",
          "name": "from",
          "type": "address"
        },
        {
          "internalType": "address",
          "name": "to",
          "type": "address"
        },
        {
          "internalType": "uint256",
          "name": "tokenId",
          "type": "uint256"
        },
        {
          "internalType": "bytes",
          "name": "data",
          "type": "bytes"
        }
      ],
      "name": "safeTransferFrom",
      "outputs": [],
      "stateMutability": "nonpayable",
      "type": "function"
    },
    {
      "inputs": [
        {
          "components": [
            {
              "internalType": "uint32",
              "name": "dstEid",
              "type": "uint32"
            },
            {
              "internalType": "bytes32",
              "name": "to",
              "type": "bytes32"
            },
            {
              "internalType": "uint256",
              "name": "tokenId",
              "type": "uint256"
            },
            {
              "internalType": "bytes",
              "name": "extraOptions",
              "type": "bytes"
            },
            {
              "internalType": "bytes",
              "name": "composeMsg",
              "type": "bytes"
            },
            {
              "internalType": "bytes",
              "name": "onftCmd",
              "type": "bytes"
            }
          ],
          "internalType": "struct SendParam",
          "name": "_sendParam",
          "type": "tuple"
        },
        {
          "components": [
            {
              "internalType": "uint256",
              "name": "nativeFee",
              "type": "uint256"
            },
            {
              "internalType": "uint256",
              "name": "lzTokenFee",
              "type": "uint256"
            }
          ],
          "internalType": "struct MessagingFee",
          "name": "_fee",
          "type": "tuple"
        },
        {
          "internalType": "address",
          "name": "_refundAddress",
          "type": "address"
        }
      ],
      "name": "send",
      "outputs": [
        {
          "components": [
            {
              "internalType": "bytes32",
              "name": "guid",
              "type": "bytes32"
            },
            {
              "internalType": "uint64",
              "name": "nonce",
              "type": "uint64"
            },
            {
              "components": [
                {
                  "internalType": "uint256",
                  "name": "nativeFee",
                  "type": "uint256"
                },
                {
                  "internalType": "uint256",
                  "name": "lzTokenFee",
                  "type": "uint256"
                }
              ],
              "internalType": "struct MessagingFee",
              "name": "fee",
              "type": "tuple"
            }
          ],
          "internalType": "struct MessagingReceipt",
          "name": "msgReceipt",
          "type": "tuple"
        }
      ],
      "stateMutability": "payable",
      "type": "function"
    },
    {
      "inputs": [
        {
          "internalType": "address",
          "name": "operator",
          "type": "address"
        },
        {
          "internalType": "bool",
          "name": "approved",
          "type": "bool"
        }
      ],
      "name": "setApprovalForAll",
      "outputs": [],
      "stateMutability": "nonpayable",
      "type": "function"
    },
    {
      "inputs": [
        {
          "internalType": "address",
          "name": "signer",
          "type": "address"
        }
      ],
      "name": "setAuthorizedSigner",
      "outputs": [],
      "stateMutability": "nonpayable",
      "type": "function"
    },
    {
      "inputs": [
        {
          "internalType": "string",
          "name": "_baseTokenURI",
          "type": "string"
        }
      ],
      "name": "setBaseURI",
      "outputs": [],
      "stateMutability": "nonpayable",
      "type": "function"
    },
    {
      "inputs": [
        {
          "internalType": "address",
          "name": "_delegate",
          "type": "address"
        }
      ],
      "name": "setDelegate",
      "outputs": [],
      "stateMutability": "nonpayable",
      "type": "function"
    },
    {
      "inputs": [
        {
          "internalType": "address",
          "name": "newVault",
          "type": "address"
        }
      ],
      "name": "setDestinationVault",
      "outputs": [],
      "stateMutability": "nonpayable",
      "type": "function"
    },
    {
      "inputs": [
        {
          "components": [
            {
              "internalType": "uint32",
              "name": "eid",
              "type": "uint32"
            },
            {
              "internalType": "uint16",
              "name": "msgType",
              "type": "uint16"
            },
            {
              "internalType": "bytes",
              "name": "options",
              "type": "bytes"
            }
          ],
          "internalType": "struct EnforcedOptionParam[]",
          "name": "_enforcedOptions",
          "type": "tuple[]"
        }
      ],
      "name": "setEnforcedOptions",
      "outputs": [],
      "stateMutability": "nonpayable",
      "type": "function"
    },
    {
      "inputs": [
        {
          "internalType": "uint256",
          "name": "price",
          "type": "uint256"
        }
      ],
      "name": "setMintPrice",
      "outputs": [],
      "stateMutability": "nonpayable",
      "type": "function"
    },
    {
      "inputs": [
        {
          "internalType": "address",
          "name": "_msgInspector",
          "type": "address"
        }
      ],
      "name": "setMsgInspector",
      "outputs": [],
      "stateMutability": "nonpayable",
      "type": "function"
    },
    {
      "inputs": [
        {
          "internalType": "uint32",
          "name": "_eid",
          "type": "uint32"
        },
        {
          "internalType": "bytes32",
          "name": "_peer",
          "type": "bytes32"
        }
      ],
      "name": "setPeer",
      "outputs": [],
      "stateMutability": "nonpayable",
      "type": "function"
    },
    {
      "inputs": [
        {
          "internalType": "address",
          "name": "_preCrime",
          "type": "address"
        }
      ],
      "name": "setPreCrime",
      "outputs": [],
      "stateMutability": "nonpayable",
      "type": "function"
    },
    {
      "inputs": [
        {
          "internalType": "bytes4",
          "name": "interfaceId",
          "type": "bytes4"
        }
      ],
      "name": "supportsInterface",
      "outputs": [
        {
          "internalType": "bool",
          "name": "",
          "type": "bool"
        }
      ],
      "stateMutability": "view",
      "type": "function"
    },
    {
      "inputs": [],
      "name": "symbol",
      "outputs": [
        {
          "internalType": "string",
          "name": "",
          "type": "string"
        }
      ],
      "stateMutability": "view",
      "type": "function"
    },
    {
      "inputs": [],
      "name": "token",
      "outputs": [
        {
          "internalType": "address",
          "name": "",
          "type": "address"
        }
      ],
      "stateMutability": "view",
      "type": "function"
    },
    {
      "inputs": [],
      "name": "tokenId",
      "outputs": [
        {
          "internalType": "uint256",
          "name": "",
          "type": "uint256"
        }
      ],
      "stateMutability": "view",
      "type": "function"
    },
    {
      "inputs": [
        {
          "internalType": "uint256",
          "name": "id",
          "type": "uint256"
        }
      ],
      "name": "tokenURI",
      "outputs": [
        {
          "internalType": "string",
          "name": "",
          "type": "string"
        }
      ],
      "stateMutability": "view",
      "type": "function"
    },
    {
      "inputs": [
        {
          "internalType": "uint256",
          "name": "",
          "type": "uint256"
        }
      ],
      "name": "tokenURIs",
      "outputs": [
        {
          "internalType": "string",
          "name": "",
          "type": "string"
        }
      ],
      "stateMutability": "view",
      "type": "function"
    },
    {
      "inputs": [
        {
          "internalType": "address",
          "name": "from",
          "type": "address"
        },
        {
          "internalType": "address",
          "name": "to",
          "type": "address"
        },
        {
          "internalType": "uint256",
          "name": "tokenId",
          "type": "uint256"
        }
      ],
      "name": "transferFrom",
      "outputs": [],
      "stateMutability": "nonpayable",
      "type": "function"
    },
    {
      "inputs": [
        {
          "internalType": "address",
          "name": "newOwner",
          "type": "address"
        }
      ],
      "name": "transferOwnership",
      "outputs": [],
      "stateMutability": "nonpayable",
      "type": "function"
    },
    {
      "inputs": [
        {
          "internalType": "bytes32",
          "name": "",
          "type": "bytes32"
        }
      ],
      "name": "uniqueLooks",
      "outputs": [
        {
          "internalType": "address",
          "name": "",
          "type": "address"
        }
      ],
      "stateMutability": "view",
      "type": "function"
    }
  ],
  "bytecode": "0x60a06040523480156200001157600080fd5b5060405162004392380380620043928339810160408190526200003491620002c3565b878787878383838381818181806001600160a01b0381166200007057604051631e4fbdf760e01b81526000600482015260240160405180910390fd5b6200007b816200018e565b506001600160a01b038083166080528116620000aa57604051632d618d8160e21b815260040160405180910390fd5b60805160405163ca5eb5e160e01b81526001600160a01b0383811660048301529091169063ca5eb5e190602401600060405180830381600087803b158015620000f257600080fd5b505af115801562000107573d6000803e3d6000fd5b5050505050505050505081600590816200012291906200043a565b5060066200013182826200043a565b5050601080546001600160a01b03808c166001600160a01b03199283161790925560118a9055600f8054928a169290911691909117905550600b93506200017f92508491508390506200043a565b50505050505050505062000506565b600080546001600160a01b038381166001600160a01b0319831681178455604051919092169283917f8be0079c531659141344cd1fd0a4f28419497f9722a3daafe3b4186f6b6457e09190a35050565b634e487b7160e01b600052604160045260246000fd5b600082601f8301126200020657600080fd5b81516001600160401b0380821115620002235762000223620001de565b604051601f8301601f19908116603f011681019082821181831017156200024e576200024e620001de565b81604052838152602092508660208588010111156200026c57600080fd5b600091505b8382101562000290578582018301518183018401529082019062000271565b6000602085830101528094505050505092915050565b80516001600160a01b0381168114620002be57600080fd5b919050565b600080600080600080600080610100898b031215620002e157600080fd5b88516001600160401b0380821115620002f957600080fd5b620003078c838d01620001f4565b995060208b01519150808211156200031e57600080fd5b6200032c8c838d01620001f4565b98506200033c60408c01620002a6565b97506200034c60608c01620002a6565b96506200035c60808c01620002a6565b955060a08b015194506200037360c08c01620002a6565b935060e08b01519150808211156200038a57600080fd5b50620003998b828c01620001f4565b9150509295985092959890939650565b600181811c90821680620003be57607f821691505b602082108103620003df57634e487b7160e01b600052602260045260246000fd5b50919050565b601f82111562000435576000816000526020600020601f850160051c81016020861015620004105750805b601f850160051c820191505b8181101562000431578281556001016200041c565b5050505b505050565b81516001600160401b03811115620004565762000456620001de565b6200046e81620004678454620003a9565b84620003e5565b602080601f831160018114620004a657600084156200048d5750858301515b600019600386901b1c1916600185901b17855562000431565b600085815260208120601f198616915b82811015620004d757888601518255948401946001909101908401620004b6565b5085821015620004f65787850151600019600388901b60f8161c191681555b5050505050600190811b01905550565b608051613e3f62000553600039600081816105c301528181610b830152818161148f015281816117b801528181611a5c01528181612259015281816125a801526126610152613e3f6000f3fe6080604052600436106103505760003560e01c80638da5cb5b116101c6578063bd815db0116100f7578063d424388511610095578063f2fde38b1161006f578063f2fde38b14610a05578063f4a0a52814610a25578063fc0c546a14610527578063ff7bd03d14610a4557600080fd5b8063d424388514610998578063e985e9c5146109b8578063ed9ec888146109d857600080fd5b8063c87b56dd116100d1578063c87b56dd14610925578063ca5eb5e114610945578063d045a0dc14610965578063d279b0ca1461097857600080fd5b8063bd815db0146108d2578063c3606e43146108e5578063c6414e7b146108f857600080fd5b8063a72f5dd811610164578063b88d4fde1161013e578063b88d4fde14610845578063b98bd07014610865578063bb0b6a5314610885578063bc70b354146108b257600080fd5b8063a72f5dd8146107e8578063b21a33e414610810578063b731ea0a1461082557600080fd5b80639a7699a4116101a05780639a7699a4146107745780639f68b96414610794578063a22cb465146107a8578063a59edf4d146107c857600080fd5b80638da5cb5b1461070b57806395d89b411461072957806398c55a2a1461073e57600080fd5b806352ae2879116102a05780636c8b703f1161023e578063715018a611610218578063715018a61461067b5780637d25a05e1461069057806382413eac146106cb578063861ab248146106eb57600080fd5b80636c8b703f1461061b5780636fc1b31e1461063b57806370a082311461065b57600080fd5b80635a0dfe4d1161027a5780635a0dfe4d1461057a5780635e280f11146105b15780636352211e146105e55780636817c76c1461060557600080fd5b806352ae2879146105275780635535d4611461053a57806355f804b31461055a57600080fd5b806317442b701161030d57806321eb730b116102e757806321eb730b146104a757806323b872dd146104c75780633400288b146104e757806342842e0e1461050757600080fd5b806317442b701461043957806317d70f7c1461045b5780631f5e13341461047f57600080fd5b806301ffc9a71461035557806306fdde031461038a578063081812fc146103ac578063095ea7b3146103e4578063111ecdad1461040657806313137d6514610426575b600080fd5b34801561036157600080fd5b50610375610370366004612c44565b610a65565b60405190151581526020015b60405180910390f35b34801561039657600080fd5b5061039f610ab7565b6040516103819190612cb1565b3480156103b857600080fd5b506103cc6103c7366004612cc4565b610b49565b6040516001600160a01b039091168152602001610381565b3480156103f057600080fd5b506104046103ff366004612cf2565b610b72565b005b34801561041257600080fd5b506004546103cc906001600160a01b031681565b610404610434366004612d7e565b610b81565b34801561044557600080fd5b5060408051600181526002602082015201610381565b34801561046757600080fd5b5061047160125481565b604051908152602001610381565b34801561048b57600080fd5b50610494600181565b60405161ffff9091168152602001610381565b6104ba6104b5366004612e2f565b610c41565b6040516103819190612e9c565b3480156104d357600080fd5b506104046104e2366004612ede565b610cfa565b3480156104f357600080fd5b50610404610502366004612f38565b610d85565b34801561051357600080fd5b50610404610522366004612ede565b610d97565b34801561053357600080fd5b50306103cc565b34801561054657600080fd5b5061039f610555366004612f66565b610db7565b34801561056657600080fd5b50610404610575366004612f99565b610e5c565b34801561058657600080fd5b50610375610595366004612f38565b63ffffffff919091166000908152600160205260409020541490565b3480156105bd57600080fd5b506103cc7f000000000000000000000000000000000000000000000000000000000000000081565b3480156105f157600080fd5b506103cc610600366004612cc4565b610eae565b34801561061157600080fd5b5061047160115481565b34801561062757600080fd5b5061039f610636366004612cc4565b610eb9565b34801561064757600080fd5b50610404610656366004612fda565b610ed2565b34801561066757600080fd5b50610471610676366004612fda565b610f2f565b34801561068757600080fd5b50610404610f77565b34801561069c57600080fd5b506106b36106ab366004612f38565b600092915050565b6040516001600160401b039091168152602001610381565b3480156106d757600080fd5b506103756106e6366004612ff7565b610f8b565b3480156106f757600080fd5b50610404610706366004612fda565b610fa0565b34801561071757600080fd5b506000546001600160a01b03166103cc565b34801561073557600080fd5b5061039f610ffa565b34801561074a57600080fd5b506103cc610759366004612cc4565b600c602052600090815260409020546001600160a01b031681565b34801561078057600080fd5b506010546103cc906001600160a01b031681565b3480156107a057600080fd5b506000610375565b3480156107b457600080fd5b506104046107c336600461306b565b611009565b3480156107d457600080fd5b506104046107e3366004613199565b611014565b3480156107f457600080fd5b50604080516311f0c6d360e11b81526001602082015201610381565b34801561081c57600080fd5b50610494600281565b34801561083157600080fd5b506002546103cc906001600160a01b031681565b34801561085157600080fd5b5061040461086036600461323f565b611035565b34801561087157600080fd5b506104046108803660046132ee565b61104d565b34801561089157600080fd5b506104716108a0366004613323565b60016020526000908152604090205481565b3480156108be57600080fd5b5061039f6108cd36600461333e565b611067565b6104046108e03660046132ee565b61120f565b6104046108f3366004613199565b611399565b34801561090457600080fd5b50610918610913366004613392565b6113b0565b60405161038191906133d8565b34801561093157600080fd5b5061039f610940366004612cc4565b6113f6565b34801561095157600080fd5b50610404610960366004612fda565b611468565b610404610973366004612d7e565b6114e7565b34801561098457600080fd5b50610404610993366004612fda565b611516565b3480156109a457600080fd5b506104046109b3366004612fda565b611570565b3480156109c457600080fd5b506103756109d33660046133ef565b6115c6565b3480156109e457600080fd5b506104716109f3366004612fda565b600e6020526000908152604090205481565b348015610a1157600080fd5b50610404610a20366004612fda565b6115f4565b348015610a3157600080fd5b50610404610a40366004612cc4565b611632565b348015610a5157600080fd5b50610375610a6036600461341d565b611673565b60006001600160e01b031982166380ac58cd60e01b1480610a9657506001600160e01b03198216635b5e139f60e01b145b80610ab157506301ffc9a760e01b6001600160e01b03198316145b92915050565b606060058054610ac690613439565b80601f0160208091040260200160405190810160405280929190818152602001828054610af290613439565b8015610b3f5780601f10610b1457610100808354040283529160200191610b3f565b820191906000526020600020905b815481529060010190602001808311610b2257829003601f168201915b5050505050905090565b6000610b54826116a9565b506000828152600960205260409020546001600160a01b0316610ab1565b610b7d8282336116e2565b5050565b7f00000000000000000000000000000000000000000000000000000000000000006001600160a01b03163314610bd1576040516391ac5e4f60e01b81523360048201526024015b60405180910390fd5b60208701803590610beb90610be6908a613323565b6116ef565b14610c2957610bfd6020880188613323565b60405163309afaf360e21b815263ffffffff909116600482015260208801356024820152604401610bc8565b610c388787878787878761172b565b50505050505050565b610c49612be7565b610c64336040860135610c5f6020880188613323565b61188a565b600080610c70866118ea565b9092509050610c9c610c856020880188613323565b8383610c96368a90038a018a61346d565b88611a29565b805190935033907f986156872b2ee0022b9585231dbbfde457f87f8a16b6c45e1a81c54c4ad8351f610cd160208a018a613323565b6040805163ffffffff9092168252808b013560208301520160405180910390a350509392505050565b6001600160a01b038216610d2457604051633250574960e11b815260006004820152602401610bc8565b6000610d31838333611b34565b9050836001600160a01b0316816001600160a01b031614610d7f576040516364283d7b60e01b81526001600160a01b0380861660048301526024820184905282166044820152606401610bc8565b50505050565b610d8d611c2d565b610b7d8282611c5a565b610db283838360405180602001604052806000815250611035565b505050565b600360209081526000928352604080842090915290825290208054610ddb90613439565b80601f0160208091040260200160405190810160405280929190818152602001828054610e0790613439565b8015610e545780601f10610e2957610100808354040283529160200191610e54565b820191906000526020600020905b815481529060010190602001808311610e3757829003601f168201915b505050505081565b610e64611c2d565b600b610e718284836134e7565b507ff9c7803e94e0d3c02900d8a90893a6d5e90dd04d32a4cfe825520f82bf9f32f6600b604051610ea291906135a6565b60405180910390a15050565b6000610ab1826116a9565b600d6020526000908152604090208054610ddb90613439565b610eda611c2d565b600480546001600160a01b0319166001600160a01b0383169081179091556040519081527ff0be4f1e87349231d80c36b33f9e8639658eeaf474014dee15a3e6a4d4414197906020015b60405180910390a150565b60006001600160a01b038216610f5b576040516322718ad960e21b815260006004820152602401610bc8565b506001600160a01b031660009081526008602052604090205490565b610f7f611c2d565b610f896000611ca8565b565b6001600160a01b03811630145b949350505050565b610fa8611c2d565b601080546001600160a01b038381166001600160a01b0319831681179093556040519116919082907f9e2d3ed415d34da100911f5b4fb5181e942551a7f84f1963cd70e57252ceb64290600090a35050565b606060068054610ac690613439565b610b7d338383611cf8565b33611023818660018686611d97565b61102e818587611e4d565b5050505050565b611040848484610cfa565b610d7f3385858585611f4f565b611055611c2d565b610b7d6110628284613636565b612071565b63ffffffff8416600090815260036020908152604080832061ffff8716845290915281208054606092919061109b90613439565b80601f01602080910402602001604051908101604052809291908181526020018280546110c790613439565b80156111145780601f106110e957610100808354040283529160200191611114565b820191906000526020600020905b8154815290600101906020018083116110f757829003601f168201915b5050505050905080516000036111645783838080601f016020809104026020016040519081016040528093929190818152602001838380828437600092019190915250929450610f989350505050565b6000839003611174579050610f98565b600283106111f2576111bb84848080601f01602080910402602001604051908101604052809392919081815260200183838082843760009201919091525061217892505050565b806111c9846002818861370b565b6040516020016111db93929190613735565b604051602081830303815290604052915050610f98565b8383604051639a6d49cd60e01b8152600401610bc8929190613786565b60005b81811015611318573683838381811061122d5761122d61379a565b905060200281019061123f91906137b0565b90506112726112516020830183613323565b602083013563ffffffff919091166000908152600160205260409020541490565b61127c5750611310565b3063d045a0dc60c08301358360a081013561129b6101008301836137d1565b6112ac610100890160e08a01612fda565b6112ba6101208a018a6137d1565b6040518963ffffffff1660e01b81526004016112dc979695949392919061382c565b6000604051808303818588803b1580156112f557600080fd5b505af1158015611309573d6000803e3d6000fd5b5050505050505b600101611212565b50336001600160a01b0316638e9e70996040518163ffffffff1660e01b8152600401600060405180830381865afa158015611357573d6000803e3d6000fd5b505050506040513d6000823e601f3d908101601f1916820160405261137f91908101906138b2565b604051638351eea760e01b8152600401610bc89190612cb1565b6113a16121a4565b33611023818660008686611d97565b60408051808201909152600080825260208201526000806113d0856118ea565b90925090506113ed6113e56020870187613323565b838387612243565b95945050505050565b6060611401826116a9565b50600061140c61231b565b9050600081511161142c5760405180602001604052806000815250611461565b80600d600085815260200190815260200160002060405160200161145192919061391f565b6040516020818303038152906040525b9392505050565b611470611c2d565b60405163ca5eb5e160e01b81526001600160a01b0382811660048301527f0000000000000000000000000000000000000000000000000000000000000000169063ca5eb5e190602401600060405180830381600087803b1580156114d357600080fd5b505af115801561102e573d6000803e3d6000fd5b3330146115075760405163029a949d60e31b815260040160405180910390fd5b610c3887878787878787610c29565b61151e611c2d565b600f80546001600160a01b038381166001600160a01b0319831681179093556040519116919082907f3b52453507047b8a718e69742f2c7a3eeb0fb33a1c714c568d7a875ff5476c9090600090a35050565b611578611c2d565b600280546001600160a01b0319166001600160a01b0383169081179091556040519081527fd48d879cef83a1c0bdda516f27b13ddb1b3f8bbac1c9e1511bb2a659c242776090602001610f24565b6001600160a01b039182166000908152600a6020908152604080832093909416825291909152205460ff1690565b6115fc611c2d565b6001600160a01b03811661162657604051631e4fbdf760e01b815260006004820152602401610bc8565b61162f81611ca8565b50565b61163a611c2d565b6011805490829055604051829082907ffa860dd63d85902fc0ba4ae2b8f64c4343dec1bae82e1506af15116baf165b1790600090a35050565b600060208201803590600190839061168b9086613323565b63ffffffff1681526020810191909152604001600020541492915050565b6000818152600760205260408120546001600160a01b031680610ab157604051637e27328960e01b815260048101849052602401610bc8565b610db2838383600161232a565b63ffffffff811660009081526001602052604081205480610ab15760405163f6ff4fb760e01b815263ffffffff84166004820152602401610bc8565b600061173d61173a8787612430565b90565b9050600061174b8787612448565b9050611764828261175f60208d018d613323565b612458565b604086111561182857600061179e61178260608c0160408d016139ae565b61178f60208d018d613323565b6117998b8b612462565b6124ad565b604051633e5ac80960e11b81529091506001600160a01b037f00000000000000000000000000000000000000000000000000000000000000001690637cb59012906117f49086908d9060009087906004016139cb565b600060405180830381600087803b15801561180e57600080fd5b505af1158015611822573d6000803e3d6000fd5b50505050505b6001600160a01b038216887f7883fa30ea56937810e36990b0bbb8d629d0cf59f68baf8431ff657cebe7eef561186160208d018d613323565b6040805163ffffffff9092168252602082018690520160405180910390a3505050505050505050565b61189382610eae565b6001600160a01b0316836001600160a01b0316146118e157826118b583610eae565b604051634342715b60e11b81526001600160a01b03928316600482015291166024820152604401610bc8565b610db2826124dc565b606080602083013561190f57604051631e4ec46b60e01b815260040160405180910390fd5b60006119656020850135604086013561192b60808801886137d1565b8080601f01602080910402602001604051908101604052809392919081815260200183838082843760009201919091525061251792505050565b909350905060008161197857600161197b565b60025b905061199b61198d6020870187613323565b826108cd60608901896137d1565b6004549093506001600160a01b03168015611a215760405163043a78eb60e01b81526001600160a01b0382169063043a78eb906119de9088908890600401613a06565b602060405180830381865afa1580156119fb573d6000803e3d6000fd5b505050506040513d601f19601f82011682018060405250810190611a1f9190613a2b565b505b505050915091565b611a31612be7565b6000611a40846000015161257c565b602085015190915015611a5a57611a5a84602001516125a4565b7f00000000000000000000000000000000000000000000000000000000000000006001600160a01b0316632637a450826040518060a001604052808b63ffffffff168152602001611aaa8c6116ef565b81526020018a815260200189815260200160008960200151111515815250866040518463ffffffff1660e01b8152600401611ae6929190613a48565b60806040518083038185885af1158015611b04573d6000803e3d6000fd5b50505050506040513d601f19601f82011682018060405250810190611b299190613af1565b979650505050505050565b6000828152600760205260408120546001600160a01b0390811690831615611b6157611b61818486612686565b6001600160a01b03811615611b9f57611b7e60008560008061232a565b6001600160a01b038116600090815260086020526040902080546000190190555b6001600160a01b03851615611bce576001600160a01b0385166000908152600860205260409020805460010190555b60008481526007602052604080822080546001600160a01b0319166001600160a01b0389811691821790925591518793918516917fddf252ad1be2c89b69c2b068fc378daa952ba7f163c4a11628f55a4df523b3ef91a4949350505050565b6000546001600160a01b03163314610f895760405163118cdaa760e01b8152336004820152602401610bc8565b63ffffffff8216600081815260016020908152604091829020849055815192835282018390527f238399d427b947898edb290f5ff0f9109849b1c3ba196a42e35f00c50a54b98b9101610ea2565b600080546001600160a01b038381166001600160a01b0319831681178455604051919092169283917f8be0079c531659141344cd1fd0a4f28419497f9722a3daafe3b4186f6b6457e09190a35050565b6001600160a01b038216611d2a57604051630b61174360e31b81526001600160a01b0383166004820152602401610bc8565b6001600160a01b038381166000818152600a6020908152604080832094871680845294825291829020805460ff191686151590811790915591519182527f17307eab39ab6107e8899845ad3d59bd9653f200f220920489ca2b5937696c31910160405180910390a3505050565b6040805160038082526080820190925260009160208201606080368337019050509050856001600160a01b031660001b81600081518110611dda57611dda61379a565b6020026020010181815250508481600181518110611dfa57611dfa61379a565b60200260200101818152505083611e12576000611e15565b60015b60ff1660001b81600281518110611e2e57611e2e61379a565b602002602001018181525050611e458184846126ea565b505050505050565b6000818152600c602052604090205481906001600160a01b031615611e8557604051634c1f741560e01b815260040160405180910390fd5b6000828152600c6020908152604080832080546001600160a01b0319166001600160a01b038916179055601254808452600d909252909120611ec78582613b3b565b506001600160a01b0385166000908152600e60205260408120805491611eec83613bfa565b9190505550611efb8582612823565b8281866001600160a01b03167fc263b302aec62d29105026245f19e16f8e0137066ccd4a8bd941f716bd4096bb60405160405180910390a460128054906000611f4383613bfa565b91905055505050505050565b6001600160a01b0383163b1561102e57604051630a85bd0160e11b81526001600160a01b0384169063150b7a0290611f91908890889087908790600401613c21565b6020604051808303816000875af1925050508015611fcc575060408051601f3d908101601f19168201909252611fc991810190613c54565b60015b612035573d808015611ffa576040519150601f19603f3d011682016040523d82523d6000602084013e611fff565b606091505b50805160000361202d57604051633250574960e11b81526001600160a01b0385166004820152602401610bc8565b805181602001fd5b6001600160e01b03198116630a85bd0160e11b14611e4557604051633250574960e11b81526001600160a01b0385166004820152602401610bc8565b60005b8151811015612148576120a38282815181106120925761209261379a565b602002602001015160400151612178565b8181815181106120b5576120b561379a565b602002602001015160400151600360008484815181106120d7576120d761379a565b60200260200101516000015163ffffffff1663ffffffff16815260200190815260200160002060008484815181106121115761211161379a565b60200260200101516020015161ffff1661ffff168152602001908152602001600020908161213f9190613b3b565b50600101612074565b507fbe4864a8e820971c0247f5992e2da559595f7bf076a21cb5928d443d2a13b67481604051610f249190613c71565b600281015161ffff8116600314610b7d5781604051639a6d49cd60e01b8152600401610bc89190612cb1565b60115415610f89576011543410156121cf5760405163cd1c886760e01b815260040160405180910390fd5b6010546040516000916001600160a01b03169034908381818185875af1925050503d806000811461221c576040519150601f19603f3d011682016040523d82523d6000602084013e612221565b606091505b505090508061162f5760405163cc7744d560e01b815260040160405180910390fd5b60408051808201909152600080825260208201527f00000000000000000000000000000000000000000000000000000000000000006001600160a01b031663ddc28c586040518060a001604052808863ffffffff1681526020016122a6896116ef565b8152602001878152602001868152602001851515815250306040518363ffffffff1660e01b81526004016122db929190613a48565b6040805180830381865afa1580156122f7573d6000803e3d6000fd5b505050506040513d601f19601f820116820180604052508101906113ed9190613cfc565b6060600b8054610ac690613439565b808061233e57506001600160a01b03821615155b1561240057600061234e846116a9565b90506001600160a01b0383161580159061237a5750826001600160a01b0316816001600160a01b031614155b801561238d575061238b81846115c6565b155b156123b65760405163a9fbf51f60e01b81526001600160a01b0384166004820152602401610bc8565b81156123fe5783856001600160a01b0316826001600160a01b03167f8c5be1e5ebec7d5bd14f71427d1e84f3dd0314c0f7b2291e5b200ac8c7c3b92560405160405180910390a45b505b5050600090815260096020526040902080546001600160a01b0319166001600160a01b0392909216919091179055565b600061243f602082848661370b565b61146191613d18565b600061243f60406020848661370b565b610db2838361283d565b6060612471826040818661370b565b8080601f016020809104026020016040519081016040528093929190818152602001838380828437600092019190915250929695505050505050565b60608383836040516020016124c493929190613d36565b60405160208183030381529060405290509392505050565b60006124eb6000836000611b34565b90506001600160a01b038116610b7d57604051637e27328960e01b815260048101839052602401610bc8565b805160609015158061254b576040805160208101879052908101859052606001604051602081830303815290604052612572565b848433856040516020016125629493929190613d80565b6040516020818303038152906040525b9150935093915050565b60008134146125a0576040516304fb820960e51b8152346004820152602401610bc8565b5090565b60007f00000000000000000000000000000000000000000000000000000000000000006001600160a01b031663e4fe1d946040518163ffffffff1660e01b8152600401602060405180830381865afa158015612604573d6000803e3d6000fd5b505050506040513d601f19601f820116820180604052508101906126289190613db4565b90506001600160a01b038116612651576040516329b99a9560e11b815260040160405180910390fd5b610b7d6001600160a01b038216337f0000000000000000000000000000000000000000000000000000000000000000856128a2565b6126918383836128fc565b610db2576001600160a01b0383166126bf57604051637e27328960e01b815260048101829052602401610bc8565b60405163177e802f60e01b81526001600160a01b038316600482015260248101829052604401610bc8565b825160609060005b81811015612740578286828151811061270d5761270d61379a565b6020026020010151604051602001612726929190613dd1565b60408051601f1981840301815291905292506001016126f2565b5060008280519060200120905060008160405160200161278c91907f19457468657265756d205369676e6564204d6573736167653a0a3332000000008152601c810191909152603c0190565b60405160208183030381529060405280519060200120905060006127e887878080601f016020809104026020016040519081016040528093929190818152602001838380828437600092019190915250869392505061295f9050565b600f549091506001600160a01b0380831691161461281957604051638baa579f60e01b815260040160405180910390fd5b5050505050505050565b610b7d828260405180602001604052806000815250612989565b6001600160a01b03821661286757604051633250574960e11b815260006004820152602401610bc8565b600061287583836000611b34565b90506001600160a01b03811615610db2576040516339e3563760e11b815260006004820152602401610bc8565b604080516001600160a01b0385811660248301528416604482015260648082018490528251808303909101815260849091019091526020810180516001600160e01b03166323b872dd60e01b179052610d7f9085906129a1565b60006001600160a01b03831615801590610f985750826001600160a01b0316846001600160a01b03161480612936575061293684846115c6565b80610f985750506000908152600960205260409020546001600160a01b03908116911614919050565b60008060008061296f8686612a12565b92509250925061297f8282612a5f565b5090949350505050565b612993838361283d565b610db2336000858585611f4f565b600080602060008451602086016000885af1806129c4576040513d6000823e3d81fd5b50506000513d915081156129dc5780600114156129e9565b6001600160a01b0384163b155b15610d7f57604051635274afe760e01b81526001600160a01b0385166004820152602401610bc8565b60008060008351604103612a4c5760208401516040850151606086015160001a612a3e88828585612b18565b955095509550505050612a58565b50508151600091506002905b9250925092565b6000826003811115612a7357612a73613df3565b03612a7c575050565b6001826003811115612a9057612a90613df3565b03612aae5760405163f645eedf60e01b815260040160405180910390fd5b6002826003811115612ac257612ac2613df3565b03612ae35760405163fce698f760e01b815260048101829052602401610bc8565b6003826003811115612af757612af7613df3565b03610b7d576040516335e2f38360e21b815260048101829052602401610bc8565b600080807f7fffffffffffffffffffffffffffffff5d576e7357a4501ddfe92f46681b20a0841115612b535750600091506003905082612bdd565b604080516000808252602082018084528a905260ff891692820192909252606081018790526080810186905260019060a0016020604051602081039080840390855afa158015612ba7573d6000803e3d6000fd5b5050604051601f1901519150506001600160a01b038116612bd357506000925060019150829050612bdd565b9250600091508190505b9450945094915050565b60405180606001604052806000801916815260200160006001600160401b03168152602001612c29604051806040016040528060008152602001600081525090565b905290565b6001600160e01b03198116811461162f57600080fd5b600060208284031215612c5657600080fd5b813561146181612c2e565b60005b83811015612c7c578181015183820152602001612c64565b50506000910152565b60008151808452612c9d816020860160208601612c61565b601f01601f19169290920160200192915050565b6020815260006114616020830184612c85565b600060208284031215612cd657600080fd5b5035919050565b6001600160a01b038116811461162f57600080fd5b60008060408385031215612d0557600080fd5b8235612d1081612cdd565b946020939093013593505050565b600060608284031215612d3057600080fd5b50919050565b60008083601f840112612d4857600080fd5b5081356001600160401b03811115612d5f57600080fd5b602083019150836020828501011115612d7757600080fd5b9250929050565b600080600080600080600060e0888a031215612d9957600080fd5b612da38989612d1e565b96506060880135955060808801356001600160401b0380821115612dc657600080fd5b612dd28b838c01612d36565b909750955060a08a01359150612de782612cdd565b90935060c08901359080821115612dfd57600080fd5b50612e0a8a828b01612d36565b989b979a50959850939692959293505050565b600060c08284031215612d3057600080fd5b60008060008385036080811215612e4557600080fd5b84356001600160401b03811115612e5b57600080fd5b612e6787828801612e1d565b9450506040601f1982011215612e7c57600080fd5b506020840191506060840135612e9181612cdd565b809150509250925092565b6000608082019050825182526001600160401b0360208401511660208301526040830151612ed7604084018280518252602090810151910152565b5092915050565b600080600060608486031215612ef357600080fd5b8335612efe81612cdd565b92506020840135612f0e81612cdd565b929592945050506040919091013590565b803563ffffffff81168114612f3357600080fd5b919050565b60008060408385031215612f4b57600080fd5b612d1083612f1f565b803561ffff81168114612f3357600080fd5b60008060408385031215612f7957600080fd5b612f8283612f1f565b9150612f9060208401612f54565b90509250929050565b60008060208385031215612fac57600080fd5b82356001600160401b03811115612fc257600080fd5b612fce85828601612d36565b90969095509350505050565b600060208284031215612fec57600080fd5b813561146181612cdd565b60008060008060a0858703121561300d57600080fd5b6130178686612d1e565b935060608501356001600160401b0381111561303257600080fd5b61303e87828801612d36565b909450925050608085013561305281612cdd565b939692955090935050565b801515811461162f57600080fd5b6000806040838503121561307e57600080fd5b823561308981612cdd565b915060208301356130998161305d565b809150509250929050565b634e487b7160e01b600052604160045260246000fd5b604080519081016001600160401b03811182821017156130dc576130dc6130a4565b60405290565b604051606081016001600160401b03811182821017156130dc576130dc6130a4565b604051601f8201601f191681016001600160401b038111828210171561312c5761312c6130a4565b604052919050565b60006001600160401b0382111561314d5761314d6130a4565b50601f01601f191660200190565b600061316e61316984613134565b613104565b905082815283838301111561318257600080fd5b828260208301376000602084830101529392505050565b600080600080606085870312156131af57600080fd5b8435935060208501356001600160401b03808211156131cd57600080fd5b818701915087601f8301126131e157600080fd5b6131f08883356020850161315b565b9450604087013591508082111561320657600080fd5b5061321387828801612d36565b95989497509550505050565b600082601f83011261323057600080fd5b6114618383356020850161315b565b6000806000806080858703121561325557600080fd5b843561326081612cdd565b9350602085013561327081612cdd565b92506040850135915060608501356001600160401b0381111561329257600080fd5b61329e8782880161321f565b91505092959194509250565b60008083601f8401126132bc57600080fd5b5081356001600160401b038111156132d357600080fd5b6020830191508360208260051b8501011115612d7757600080fd5b6000806020838503121561330157600080fd5b82356001600160401b0381111561331757600080fd5b612fce858286016132aa565b60006020828403121561333557600080fd5b61146182612f1f565b6000806000806060858703121561335457600080fd5b61335d85612f1f565b935061336b60208601612f54565b925060408501356001600160401b0381111561338657600080fd5b61321387828801612d36565b600080604083850312156133a557600080fd5b82356001600160401b038111156133bb57600080fd5b6133c785828601612e1d565b92505060208301356130998161305d565b815181526020808301519082015260408101610ab1565b6000806040838503121561340257600080fd5b823561340d81612cdd565b9150602083013561309981612cdd565b60006060828403121561342f57600080fd5b6114618383612d1e565b600181811c9082168061344d57607f821691505b602082108103612d3057634e487b7160e01b600052602260045260246000fd5b60006040828403121561347f57600080fd5b6134876130ba565b82358152602083013560208201528091505092915050565b601f821115610db2576000816000526020600020601f850160051c810160208610156134c85750805b601f850160051c820191505b81811015611e45578281556001016134d4565b6001600160401b038311156134fe576134fe6130a4565b6135128361350c8354613439565b8361349f565b6000601f841160018114613546576000851561352e5750838201355b600019600387901b1c1916600186901b17835561102e565b600083815260209020601f19861690835b828110156135775786850135825560209485019460019092019101613557565b50868210156135945760001960f88860031b161c19848701351681555b505060018560011b0183555050505050565b60006020808352600084546135ba81613439565b80602087015260406001808416600081146135dc57600181146135f857613628565b60ff19851660408a0152604084151560051b8a01019550613628565b89600052602060002060005b8581101561361f5781548b8201860152908301908801613604565b8a016040019650505b509398975050505050505050565b60006001600160401b0380841115613650576136506130a4565b8360051b6020613661818301613104565b86815291850191818101903684111561367957600080fd5b865b848110156136ff578035868111156136935760008081fd5b880160603682900312156136a75760008081fd5b6136af6130e2565b6136b882612f1f565b81526136c5868301612f54565b86820152604080830135898111156136dd5760008081fd5b6136e93682860161321f565b918301919091525084525091830191830161367b565b50979650505050505050565b6000808585111561371b57600080fd5b8386111561372857600080fd5b5050820193919092039150565b60008451613747818460208901612c61565b8201838582376000930192835250909392505050565b81835281816020850137506000828201602090810191909152601f909101601f19169091010190565b602081526000610f9860208301848661375d565b634e487b7160e01b600052603260045260246000fd5b6000823561013e198336030181126137c757600080fd5b9190910192915050565b6000808335601e198436030181126137e857600080fd5b8301803591506001600160401b0382111561380257600080fd5b602001915036819003821315612d7757600080fd5b6001600160401b038116811461162f57600080fd5b63ffffffff61383a89612f1f565b168152602088013560208201526000604089013561385781613817565b6001600160401b03811660408401525087606083015260e0608083015261388260e08301878961375d565b6001600160a01b03861660a084015282810360c08401526138a481858761375d565b9a9950505050505050505050565b6000602082840312156138c457600080fd5b81516001600160401b038111156138da57600080fd5b8201601f810184136138eb57600080fd5b80516138f961316982613134565b81815285602083850101111561390e57600080fd5b6113ed826020830160208601612c61565b600083516020613933828560208901612c61565b81840191506000855461394581613439565b6001828116801561395d57600181146139725761399f565b60ff198416875282151583028701945061399f565b89600052602060002060005b848110156139975781548982015290830190870161397e565b505082870194505b50929998505050505050505050565b6000602082840312156139c057600080fd5b813561146181613817565b60018060a01b038516815283602082015261ffff831660408201526080606082015260006139fc6080830184612c85565b9695505050505050565b604081526000613a196040830185612c85565b82810360208401526113ed8185612c85565b600060208284031215613a3d57600080fd5b81516114618161305d565b6040815263ffffffff8351166040820152602083015160608201526000604084015160a06080840152613a7e60e0840182612c85565b90506060850151603f198483030160a0850152613a9b8282612c85565b60809690960151151560c08501525050506001600160a01b039190911660209091015290565b600060408284031215613ad357600080fd5b613adb6130ba565b9050815181526020820151602082015292915050565b600060808284031215613b0357600080fd5b613b0b6130e2565b825181526020830151613b1d81613817565b6020820152613b2f8460408501613ac1565b60408201529392505050565b81516001600160401b03811115613b5457613b546130a4565b613b6881613b628454613439565b8461349f565b602080601f831160018114613b9d5760008415613b855750858301515b600019600386901b1c1916600185901b178555611e45565b600085815260208120601f198616915b82811015613bcc57888601518255948401946001909101908401613bad565b5085821015613bea5787850151600019600388901b60f8161c191681555b5050505050600190811b01905550565b600060018201613c1a57634e487b7160e01b600052601160045260246000fd5b5060010190565b6001600160a01b03858116825284166020820152604081018390526080606082018190526000906139fc90830184612c85565b600060208284031215613c6657600080fd5b815161146181612c2e565b600060208083018184528085518083526040925060408601915060408160051b87010184880160005b83811015613cee57888303603f190185528151805163ffffffff1684528781015161ffff16888501528601516060878501819052613cda81860183612c85565b968901969450505090860190600101613c9a565b509098975050505050505050565b600060408284031215613d0e57600080fd5b6114618383613ac1565b80356020831015610ab157600019602084900360031b1b1692915050565b60c084901b6001600160c01b031916815260e083901b6001600160e01b03191660088201528151600090613d7181600c850160208701612c61565b91909101600c01949350505050565b84815283602082015282604082015260008251613da4816060850160208701612c61565b9190910160600195945050505050565b600060208284031215613dc657600080fd5b815161146181612cdd565b60008351613de3818460208801612c61565b9190910191825250602001919050565b634e487b7160e01b600052602160045260246000fdfea26469706673582212206389e5563d28200919232aab72068ddfed7e56de206fd5c480f4cb936083d4a564736f6c63430008160033",
  "linkReferences": {},
  "deployedLinkReferences": {}
}