{
  "_format": "hh-sol-artifact-1",
  "contractName": "LemonadeRelayPayment",
  "sourceName": "contracts/payment/relay/LemonadeRelayPayment.sol",
  "abi": [
    {
      "inputs": [],
      "name": "AlreadyPay",
      "type": "error"
    },
    {
      "inputs": [],
      "name": "CannotPay",
      "type": "error"
    },
    {
      "inputs": [],
      "name": "CannotPayFee",
      "type": "error"
    },
    {
      "inputs": [],
      "name": "InvalidAmount",
      "type": "error"
    },
    {
      "inputs": [],
      "name": "NotRegistered",
      "type": "error"
    },
    {
      "anonymous": false,
      "inputs": [
        {
          "indexed": false,
          "internalType": "uint8",
          "name": "version",
          "type": "uint8"
        }
      ],
      "name": "Initialized",
      "type": "event"
    },
    {
      "anonymous": false,
      "inputs": [
        {
          "indexed": false,
          "internalType": "address",
          "name": "splitter",
          "type": "address"
        },
        {
          "indexed": false,
          "internalType": "string",
          "name": "eventId",
          "type": "string"
        },
        {
          "indexed": false,
          "internalType": "string",
          "name": "paymentId",
          "type": "string"
        },
        {
          "indexed": false,
          "internalType": "address",
          "name": "guest",
          "type": "address"
        },
        {
          "indexed": false,
          "internalType": "address",
          "name": "currency",
          "type": "address"
        },
        {
          "indexed": false,
          "internalType": "uint256",
          "name": "amount",
          "type": "uint256"
        }
      ],
      "name": "OnPay",
      "type": "event"
    },
    {
      "anonymous": false,
      "inputs": [
        {
          "indexed": false,
          "internalType": "address",
          "name": "splitter",
          "type": "address"
        }
      ],
      "name": "OnRegister",
      "type": "event"
    },
    {
      "anonymous": false,
      "inputs": [
        {
          "indexed": true,
          "internalType": "address",
          "name": "previousOwner",
          "type": "address"
        },
        {
          "indexed": true,
          "internalType": "address",
          "name": "newOwner",
          "type": "address"
        }
      ],
      "name": "OwnershipTransferred",
      "type": "event"
    },
    {
      "inputs": [],
      "name": "configRegistry",
      "outputs": [
        {
          "internalType": "address",
          "name": "",
          "type": "address"
        }
      ],
      "stateMutability": "view",
      "type": "function"
    },
    {
      "inputs": [
        {
          "internalType": "string",
          "name": "paymentId",
          "type": "string"
        }
      ],
      "name": "getPayment",
      "outputs": [
        {
          "components": [
            {
              "internalType": "address",
              "name": "guest",
              "type": "address"
            },
            {
              "internalType": "address",
              "name": "currency",
              "type": "address"
            },
            {
              "internalType": "uint256",
              "name": "amount",
              "type": "uint256"
            }
          ],
          "internalType": "struct LemonadeRelayPayment.Payment",
          "name": "",
          "type": "tuple"
        }
      ],
      "stateMutability": "view",
      "type": "function"
    },
    {
      "inputs": [
        {
          "internalType": "address",
          "name": "registry",
          "type": "address"
        }
      ],
      "name": "initialize",
      "outputs": [],
      "stateMutability": "nonpayable",
      "type": "function"
    },
    {
      "inputs": [],
      "name": "owner",
      "outputs": [
        {
          "internalType": "address",
          "name": "",
          "type": "address"
        }
      ],
      "stateMutability": "view",
      "type": "function"
    },
    {
      "inputs": [
        {
          "internalType": "address",
          "name": "splitter",
          "type": "address"
        },
        {
          "internalType": "string",
          "name": "eventId",
          "type": "string"
        },
        {
          "internalType": "string",
          "name": "paymentId",
          "type": "string"
        },
        {
          "internalType": "address",
          "name": "currency",
          "type": "address"
        },
        {
          "internalType": "uint256",
          "name": "amount",
          "type": "uint256"
        }
      ],
      "name": "pay",
      "outputs": [],
      "stateMutability": "payable",
      "type": "function"
    },
    {
      "inputs": [
        {
          "internalType": "bytes32",
          "name": "",
          "type": "bytes32"
        }
      ],
      "name": "payments",
      "outputs": [
        {
          "internalType": "address",
          "name": "guest",
          "type": "address"
        },
        {
          "internalType": "address",
          "name": "currency",
          "type": "address"
        },
        {
          "internalType": "uint256",
          "name": "amount",
          "type": "uint256"
        }
      ],
      "stateMutability": "view",
      "type": "function"
    },
    {
      "inputs": [
        {
          "internalType": "address[]",
          "name": "payees",
          "type": "address[]"
        },
        {
          "internalType": "uint256[]",
          "name": "shares",
          "type": "uint256[]"
        }
      ],
      "name": "register",
      "outputs": [],
      "stateMutability": "nonpayable",
      "type": "function"
    },
    {
      "inputs": [],
      "name": "renounceOwnership",
      "outputs": [],
      "stateMutability": "nonpayable",
      "type": "function"
    },
    {
      "inputs": [
        {
          "internalType": "address",
          "name": "registry",
          "type": "address"
        }
      ],
      "name": "setConfigRegistry",
      "outputs": [],
      "stateMutability": "nonpayable",
      "type": "function"
    },
    {
      "inputs": [
        {
          "internalType": "address",
          "name": "",
          "type": "address"
        }
      ],
      "name": "splitters",
      "outputs": [
        {
          "internalType": "bool",
          "name": "",
          "type": "bool"
        }
      ],
      "stateMutability": "view",
      "type": "function"
    },
    {
      "inputs": [
        {
          "internalType": "address",
          "name": "newOwner",
          "type": "address"
        }
      ],
      "name": "transferOwnership",
      "outputs": [],
      "stateMutability": "nonpayable",
      "type": "function"
    }
  ],
  "bytecode": "0x608060405234801561001057600080fd5b50612b45806100206000396000f3fe608060405260043610620000a95760003560e01c80638f54d8d1116200006c5780638f54d8d114620001c0578063c1efcca414620001d7578063c4d66de814620001fc578063c69207a31462000221578063e65cb2441462000277578063f2fde38b14620002bc57600080fd5b80630716326d14620000ae578063244bb30914620001265780632a1ab57e1462000161578063715018a614620001885780638da5cb5b14620001a0575b600080fd5b348015620000bb57600080fd5b50620000fb620000cd36600462000e6b565b6066602052600090815260409020805460018201546002909201546001600160a01b03918216929091169083565b604080516001600160a01b039485168152939092166020840152908201526060015b60405180910390f35b3480156200013357600080fd5b5060655462000148906001600160a01b031681565b6040516001600160a01b0390911681526020016200011d565b3480156200016e57600080fd5b50620001866200018036600462000dd9565b620002e1565b005b3480156200019557600080fd5b506200018662000388565b348015620001ad57600080fd5b506033546001600160a01b031662000148565b62000186620001d136600462000d44565b620003a0565b348015620001e457600080fd5b5062000186620001f636600462000d20565b620008b5565b3480156200020957600080fd5b50620001866200021b36600462000d20565b620008e1565b3480156200022e57600080fd5b50620002466200024036600462000e84565b62000a11565b6040805182516001600160a01b0390811682526020808501519091169082015291810151908201526060016200011d565b3480156200028457600080fd5b50620002ab6200029636600462000d20565b60676020526000908152604090205460ff1681565b60405190151581526020016200011d565b348015620002c957600080fd5b5062000186620002db36600462000d20565b62000aba565b60003385858585604051620002f69062000c19565b6200030695949392919062000f5d565b604051809103906000f08015801562000323573d6000803e3d6000fd5b506001600160a01b038116600081815260676020908152604091829020805460ff19166001179055905191825291925082917f827446e550fe5bfd75ca44888adfeafa8fe5b5ea548deabda1ed8f5c08f2cf22910160405180910390a1505050505050565b6200039262000b39565b6200039e600062000b95565b565b80620003bf5760405163162908e360e11b815260040160405180910390fd5b6000620003cc8462000be7565b60008181526066602052604090206002015490915015620004005760405163320d30a960e01b815260040160405180910390fd5b6001600160a01b03861660009081526067602052604090205460ff166200043a5760405163aba4733960e01b815260040160405180910390fd5b6001600160a01b03831615808015620004535750823414155b15620004725760405163162908e360e11b815260040160405180910390fd5b6000606560009054906101000a90046001600160a01b031690506000620f424085836001600160a01b031663027b67806040518163ffffffff1660e01b815260040160206040518083038186803b158015620004cd57600080fd5b505afa158015620004e2573d6000803e3d6000fd5b505050506040513d601f19601f8201168201806040525081019062000508919062000ef6565b620005149190620010aa565b62000520919062001089565b90506000620005308287620010cc565b90503384156200062d576065546040516000916001600160a01b03169085908381818185875af1925050503d806000811462000589576040519150601f19603f3d011682016040523d82523d6000602084013e6200058e565b606091505b5050905080620005b157604051630b2f05f960e11b815260040160405180910390fd5b6040516001600160a01b038d16908490600081818185875af1925050503d8060008114620005fc576040519150601f19603f3d011682016040523d82523d6000602084013e62000601565b606091505b50508091505080620006265760405163db6d8b1d60e01b815260040160405180910390fd5b5062000793565b6065546040516323b872dd60e01b81526001600160a01b0383811660048301529182166024820152604481018590526000918a16906323b872dd90606401602060405180830381600087803b1580156200068657600080fd5b505af11580156200069b573d6000803e3d6000fd5b505050506040513d601f19601f82011682018060405250810190620006c1919062000e49565b905080620006e257604051630b2f05f960e11b815260040160405180910390fd5b6040516323b872dd60e01b81526001600160a01b0383811660048301528d81166024830152604482018590528a16906323b872dd90606401602060405180830381600087803b1580156200073557600080fd5b505af11580156200074a573d6000803e3d6000fd5b505050506040513d601f19601f8201168201806040525081019062000770919062000e49565b905080620007915760405163db6d8b1d60e01b815260040160405180910390fd5b505b604051635aa13b5560e11b81526001600160a01b0385169063b54276aa90620007c5908d908c90889060040162001059565b600060405180830381600087803b158015620007e057600080fd5b505af1158015620007f5573d6000803e3d6000fd5b5050604080516060810182526001600160a01b0380861682528c811660208084019182528385018e815260008e8152606690925290859020845181549085166001600160a01b0319918216178255925160018201805491909516931692909217909255905160029091015590519092507f0967fea9495b1daddf564c3a0b9891e66304a0061aeea891edac5e8f017b420291506200089f908e908e908e9087908f908a9062000fee565b60405180910390a1505050505050505050505050565b620008bf62000b39565b606580546001600160a01b0319166001600160a01b0392909216919091179055565b600054610100900460ff1615808015620009025750600054600160ff909116105b806200091e5750303b1580156200091e575060005460ff166001145b620009875760405162461bcd60e51b815260206004820152602e60248201527f496e697469616c697a61626c653a20636f6e747261637420697320616c72656160448201526d191e481a5b9a5d1a585b1a5e995960921b60648201526084015b60405180910390fd5b6000805460ff191660011790558015620009ab576000805461ff0019166101001790555b606580546001600160a01b0319166001600160a01b038416179055801562000a0d576000805461ff0019169055604051600181527f7f26b83ff96e1f2b6a682f133852f6798a09c465da95921460cefb38474024989060200160405180910390a15b5050565b6040805160608101825260008082526020820181905291810191909152600062000a7184848080601f01602080910402602001604051908101604052809392919081815260200183838082843760009201919091525062000be792505050565b600090815260666020908152604091829020825160608101845281546001600160a01b039081168252600183015416928101929092526002015491810191909152949350505050565b62000ac462000b39565b6001600160a01b03811662000b2b5760405162461bcd60e51b815260206004820152602660248201527f4f776e61626c653a206e6577206f776e657220697320746865207a65726f206160448201526564647265737360d01b60648201526084016200097e565b62000b368162000b95565b50565b6033546001600160a01b031633146200039e5760405162461bcd60e51b815260206004820181905260248201527f4f776e61626c653a2063616c6c6572206973206e6f7420746865206f776e657260448201526064016200097e565b603380546001600160a01b038381166001600160a01b0319831681179093556040519116919082907f8be0079c531659141344cd1fd0a4f28419497f9722a3daafe3b4186f6b6457e090600090a35050565b60008160405160200162000bfc919062001044565b604051602081830303815290604052805190602001209050919050565b6119fd806200111383390190565b80356001600160a01b038116811462000c3f57600080fd5b919050565b60008083601f84011262000c56578081fd5b50813567ffffffffffffffff81111562000c6e578182fd5b6020830191508360208260051b850101111562000c8a57600080fd5b9250929050565b600082601f83011262000ca2578081fd5b813567ffffffffffffffff8082111562000cc05762000cc0620010fc565b604051601f8301601f19908116603f0116810190828211818310171562000ceb5762000ceb620010fc565b8160405283815286602085880101111562000d04578485fd5b8360208701602083013792830160200193909352509392505050565b60006020828403121562000d32578081fd5b62000d3d8262000c27565b9392505050565b600080600080600060a0868803121562000d5c578081fd5b62000d678662000c27565b9450602086013567ffffffffffffffff8082111562000d84578283fd5b62000d9289838a0162000c91565b9550604088013591508082111562000da8578283fd5b5062000db78882890162000c91565b93505062000dc86060870162000c27565b949793965091946080013592915050565b6000806000806040858703121562000def578384fd5b843567ffffffffffffffff8082111562000e07578586fd5b62000e158883890162000c44565b9096509450602087013591508082111562000e2e578384fd5b5062000e3d8782880162000c44565b95989497509550505050565b60006020828403121562000e5b578081fd5b8151801515811462000d3d578182fd5b60006020828403121562000e7d578081fd5b5035919050565b6000806020838503121562000e97578182fd5b823567ffffffffffffffff8082111562000eaf578384fd5b818501915085601f83011262000ec3578384fd5b81358181111562000ed2578485fd5b86602082850101111562000ee4578485fd5b60209290920196919550909350505050565b60006020828403121562000f08578081fd5b5051919050565b60008151808452815b8181101562000f365760208185018101518683018201520162000f18565b8181111562000f485782602083870101525b50601f01601f19169290920160200192915050565b6001600160a01b03868116825260606020808401829052908301869052600091879160808501845b8981101562000fae578362000f9a8662000c27565b168252938201939082019060010162000f85565b5085810360408701528681526001600160fb1b0387111562000fce578485fd5b8660051b9350838883830137909201909101918252509695505050505050565b600060018060a01b03808916835260c060208401526200101260c084018962000f0f565b838103604085015262001026818962000f0f565b96821660608501525093909316608082015260a00152509392505050565b60208152600062000d3d602083018462000f0f565b6060815260006200106e606083018662000f0f565b6001600160a01b039490941660208301525060400152919050565b600082620010a557634e487b7160e01b81526012600452602481fd5b500490565b6000816000190483118215151615620010c757620010c7620010e6565b500290565b600082821015620010e157620010e1620010e6565b500390565b634e487b7160e01b600052601160045260246000fd5b634e487b7160e01b600052604160045260246000fdfe60806040523480156200001157600080fd5b50604051620019fd380380620019fd8339810160408190526200003491620002f5565b81818151600014156200005a5760405163bf55749760e01b815260040160405180910390fd5b805182511462000080576040516001621398b960e31b0319815260040160405180910390fd5b60005b82518110156200010457620000ef838281518110620000b257634e487b7160e01b600052603260045260246000fd5b6020026020010151838381518110620000db57634e487b7160e01b600052603260045260246000fd5b60200260200101516200013160201b60201c565b80620000fb816200044e565b91505062000083565b5050600780546001600160a01b0319166001600160a01b0395909516949094179093555062000498915050565b6001600160a01b038216620001595760405163e6c4247b60e01b815260040160405180910390fd5b80620001785760405163040357dd60e21b815260040160405180910390fd5b6001600160a01b03821660009081526002602052604090205415620001b05760405163523504ff60e01b815260040160405180910390fd5b60048054600181019091557f8a35acfbc15ff81a39ae7d344fd709f28e8600b4aa8c65c6b64bfe7fe36bd19b0180546001600160a01b0319166001600160a01b0384169081179091556000908152600260205260408120829055546200021890829062000433565b600055604080516001600160a01b0384168152602081018390527f40c340f65e17194d14ddddb073d3c9f888e3cb52b5aae0c6c7706b4fbc905fac910160405180910390a15050565b80516001600160a01b03811681146200027957600080fd5b919050565b600082601f8301126200028f578081fd5b81516020620002a8620002a2836200040d565b620003da565b80838252828201915082860187848660051b8901011115620002c8578586fd5b855b85811015620002e857815184529284019290840190600101620002ca565b5090979650505050505050565b6000806000606084860312156200030a578283fd5b620003158462000261565b602085810151919450906001600160401b038082111562000334578485fd5b818701915087601f83011262000348578485fd5b815162000359620002a2826200040d565b8082825285820191508585018b878560051b880101111562000379578889fd5b8895505b83861015620003a657620003918162000261565b8352600195909501949186019186016200037d565b5060408a01519097509450505080831115620003c0578384fd5b5050620003d0868287016200027e565b9150509250925092565b604051601f8201601f191681016001600160401b038111828210171562000405576200040562000482565b604052919050565b60006001600160401b0382111562000429576200042962000482565b5060051b60200190565b600082198211156200044957620004496200046c565b500190565b60006000198214156200046557620004656200046c565b5060010190565b634e487b7160e01b600052601160045260246000fd5b634e487b7160e01b600052604160045260246000fd5b61155580620004a86000396000f3fe6080604052600436106100ec5760003560e01c8063406072a91161008a578063a7d092b211610059578063a7d092b2146102c9578063ce7c2ac2146102e9578063d79779b21461031f578063e33b7de31461035557600080fd5b8063406072a91461023357806348b75044146102535780635eebea20146102735780639852595c1461029357600080fd5b8063230d0b4d116100c6578063230d0b4d146101bc57806328ac92d9146101de578063339b3544146101fe5780633a98ef391461021e57600080fd5b8063191655871461013a57806319bc9ae81461015c5780631a48bb9c1461018f57600080fd5b36610135577f6ef95f06320e7a25a04a175ca677b7052bdd97131872c2192525a629f51be77033604080516001600160a01b0390921682523460208301520160405180910390a1005b600080fd5b34801561014657600080fd5b5061015a610155366004611117565b61036a565b005b34801561016857600080fd5b5061017c610177366004611295565b610462565b6040519081526020015b60405180910390f35b34801561019b57600080fd5b506101af6101aa366004611133565b61051c565b6040516101869190611359565b3480156101c857600080fd5b506101d1610676565b6040516101869190611301565b3480156101ea57600080fd5b5061015a6101f93660046111b2565b61078e565b34801561020a57600080fd5b506101af610219366004611133565b6107d0565b34801561022a57600080fd5b5060005461017c565b34801561023f57600080fd5b5061017c61024e366004611295565b610910565b34801561025f57600080fd5b5061015a61026e366004611295565b61093b565b34801561027f57600080fd5b5061017c61028e366004611117565b610a5d565b34801561029f57600080fd5b5061017c6102ae366004611117565b6001600160a01b031660009081526003602052604090205490565b3480156102d557600080fd5b5061015a6102e4366004611188565b610a99565b3480156102f557600080fd5b5061017c610304366004611117565b6001600160a01b031660009081526002602052604090205490565b34801561032b57600080fd5b5061017c61033a366004611117565b6001600160a01b031660009081526005602052604090205490565b34801561036157600080fd5b5060015461017c565b6001600160a01b0381166000908152600260205260409020546103a0576040516353b9982160e11b815260040160405180910390fd5b60006103ab82610a5d565b9050806103cb57604051638f93f3cf60e01b815260040160405180910390fd5b6001600160a01b038216600090815260036020526040812080548392906103f3908490611425565b92505081905550806001600082825461040c9190611425565b9091555061041c90508282610b32565b604080516001600160a01b0384168152602081018390527fdf20fd1e76bc69d672e4814fafb2c449bba3a5369d8359adf9e05e6fde87b056910160405180910390a15050565b6001600160a01b03821660009081526005602052604081205481906040516370a0823160e01b81523060048201526001600160a01b038616906370a082319060240160206040518083038186803b1580156104bc57600080fd5b505afa1580156104d0573d6000803e3d6000fd5b505050506040513d601f19601f820116820180604052508101906104f491906112cd565b6104fe9190611425565b9050610514838261050f8787610910565b610c55565b949350505050565b6060828061053d5760405163bf55749760e01b815260040160405180910390fd5b8067ffffffffffffffff81111561056457634e487b7160e01b600052604160045260246000fd5b60405190808252806020026020018201604052801561058d578160200160208202803683370190505b50915060005b8181101561066c5760008686838181106105bd57634e487b7160e01b600052603260045260246000fd5b90506020020160208101906105d29190611117565b90506001600160a01b03811661062c576001600160a01b03851660009081526003602052604090205484838151811061061b57634e487b7160e01b600052603260045260246000fd5b602002602001018181525050610663565b6106368186610910565b84838151811061065657634e487b7160e01b600052603260045260246000fd5b6020026020010181815250505b50600101610593565b50505b9392505050565b6004546060908067ffffffffffffffff8111156106a357634e487b7160e01b600052604160045260246000fd5b6040519080825280602002602001820160405280156106e857816020015b60408051808201909152600080825260208201528152602001906001900390816106c15790505b50915060005b818110156107895760006004828154811061071957634e487b7160e01b600052603260045260246000fd5b60009182526020808320909101546040805180820182526001600160a01b03909216808352808552600284529320549181019190915285519192509085908490811061077557634e487b7160e01b600052603260045260246000fd5b6020908102919091010152506001016106ee565b505090565b6007546001600160a01b0316336001600160a01b0316146107c257604051631dd2188d60e31b815260040160405180910390fd5b6107cc8282610c90565b5050565b606082806107f15760405163bf55749760e01b815260040160405180910390fd5b8067ffffffffffffffff81111561081857634e487b7160e01b600052604160045260246000fd5b604051908082528060200260200182016040528015610841578160200160208202803683370190505b50915060005b8181101561066c57600086868381811061087157634e487b7160e01b600052603260045260246000fd5b90506020020160208101906108869190611117565b90506001600160a01b0381166108d05761089f85610a5d565b8483815181106108bf57634e487b7160e01b600052603260045260246000fd5b602002602001018181525050610907565b6108da8186610462565b8483815181106108fa57634e487b7160e01b600052603260045260246000fd5b6020026020010181815250505b50600101610847565b6001600160a01b03918216600090815260066020908152604080832093909416825291909152205490565b6001600160a01b038116600090815260026020526040902054610971576040516353b9982160e11b815260040160405180910390fd5b600061097d8383610462565b90508061099d57604051638f93f3cf60e01b815260040160405180910390fd5b6001600160a01b038084166000908152600660209081526040808320938616835292905290812080548392906109d4908490611425565b90915550506001600160a01b03831660009081526005602052604081208054839290610a01908490611425565b90915550610a129050838383610e03565b604080516001600160a01b038481168252602082018490528516917f3be5b7a71e84ed12875d241991c70855ac5817d847039e17a9d895c1ceb0f18a910160405180910390a2505050565b600080610a6960015490565b610a739047611425565b905061066f838261050f866001600160a01b031660009081526003602052604090205490565b8180610ab85760405163bf55749760e01b815260040160405180910390fd5b60005b81811015610b2b576000858583818110610ae557634e487b7160e01b600052603260045260246000fd5b9050602002016020810190610afa9190611117565b90506001600160a01b038116610b1857610b138461036a565b610b22565b610b22818561093b565b50600101610abb565b5050505050565b80471015610b875760405162461bcd60e51b815260206004820152601d60248201527f416464726573733a20696e73756666696369656e742062616c616e636500000060448201526064015b60405180910390fd5b6000826001600160a01b03168260405160006040518083038185875af1925050503d8060008114610bd4576040519150601f19603f3d011682016040523d82523d6000602084013e610bd9565b606091505b5050905080610c505760405162461bcd60e51b815260206004820152603a60248201527f416464726573733a20756e61626c6520746f2073656e642076616c75652c207260448201527f6563697069656e74206d617920686176652072657665727465640000000000006064820152608401610b7e565b505050565b600080546001600160a01b038516825260026020526040822054839190610c7c908661145d565b610c86919061143d565b610514919061147c565b6000808055610ca190600490611024565b60005b8251811015610dd5576000838281518110610ccf57634e487b7160e01b600052603260045260246000fd5b602002602001015190506000838381518110610cfb57634e487b7160e01b600052603260045260246000fd5b6020026020010151905060006001600160a01b0316826001600160a01b03161415610d395760405163e6c4247b60e01b815260040160405180910390fd5b80610d575760405163040357dd60e21b815260040160405180910390fd5b60048054600181019091557f8a35acfbc15ff81a39ae7d344fd709f28e8600b4aa8c65c6b64bfe7fe36bd19b0180546001600160a01b0319166001600160a01b038416908117909155600090815260026020526040812082905554610dbd908290611425565b60005550819050610dcd816114c3565b915050610ca4565b506040517f3407fd525bf6581e0ae8e3a3636bd90d02112bea34d66802743c28ced73f910e90600090a15050565b604080516001600160a01b03848116602483015260448083018590528351808403909101815260649092018352602080830180516001600160e01b031663a9059cbb60e01b17905283518085019094528084527f5361666545524332303a206c6f772d6c6576656c2063616c6c206661696c656490840152610c5092869291600091610e93918516908490610f10565b805190915015610c505780806020019051810190610eb19190611275565b610c505760405162461bcd60e51b815260206004820152602a60248201527f5361666545524332303a204552433230206f7065726174696f6e20646964206e6044820152691bdd081cdd58d8d9595960b21b6064820152608401610b7e565b60606105148484600085856001600160a01b0385163b610f725760405162461bcd60e51b815260206004820152601d60248201527f416464726573733a2063616c6c20746f206e6f6e2d636f6e74726163740000006044820152606401610b7e565b600080866001600160a01b03168587604051610f8e91906112e5565b60006040518083038185875af1925050503d8060008114610fcb576040519150601f19603f3d011682016040523d82523d6000602084013e610fd0565b606091505b5091509150610fe0828286610feb565b979650505050505050565b60608315610ffa57508161066f565b82511561100a5782518084602001fd5b8160405162461bcd60e51b8152600401610b7e919061139d565b50805460008255906000526020600020908101906110429190611045565b50565b5b8082111561105a5760008155600101611046565b5090565b60008083601f84011261106f578182fd5b50813567ffffffffffffffff811115611086578182fd5b6020830191508360208260051b85010111156110a157600080fd5b9250929050565b600082601f8301126110b8578081fd5b813560206110cd6110c883611401565b6113d0565b80838252828201915082860187848660051b89010111156110ec578586fd5b855b8581101561110a578135845292840192908401906001016110ee565b5090979650505050505050565b600060208284031215611128578081fd5b813561066f8161150a565b600080600060408486031215611147578182fd5b833567ffffffffffffffff81111561115d578283fd5b6111698682870161105e565b909450925050602084013561117d8161150a565b809150509250925092565b60008060006040848603121561119c578283fd5b833567ffffffffffffffff81111561115d578384fd5b600080604083850312156111c4578182fd5b823567ffffffffffffffff808211156111db578384fd5b818501915085601f8301126111ee578384fd5b813560206111fe6110c883611401565b8083825282820191508286018a848660051b890101111561121d578889fd5b8896505b848710156112485780356112348161150a565b835260019690960195918301918301611221565b509650508601359250508082111561125e578283fd5b5061126b858286016110a8565b9150509250929050565b600060208284031215611286578081fd5b8151801515811461066f578182fd5b600080604083850312156112a7578182fd5b82356112b28161150a565b915060208301356112c28161150a565b809150509250929050565b6000602082840312156112de578081fd5b5051919050565b600082516112f7818460208701611493565b9190910192915050565b602080825282518282018190526000919060409081850190868401855b8281101561134c57815180516001600160a01b0316855286015186850152928401929085019060010161131e565b5091979650505050505050565b6020808252825182820181905260009190848201906040850190845b8181101561139157835183529284019291840191600101611375565b50909695505050505050565b60208152600082518060208401526113bc816040850160208701611493565b601f01601f19169190910160400192915050565b604051601f8201601f1916810167ffffffffffffffff811182821017156113f9576113f96114f4565b604052919050565b600067ffffffffffffffff82111561141b5761141b6114f4565b5060051b60200190565b60008219821115611438576114386114de565b500190565b60008261145857634e487b7160e01b81526012600452602481fd5b500490565b6000816000190483118215151615611477576114776114de565b500290565b60008282101561148e5761148e6114de565b500390565b60005b838110156114ae578181015183820152602001611496565b838111156114bd576000848401525b50505050565b60006000198214156114d7576114d76114de565b5060010190565b634e487b7160e01b600052601160045260246000fd5b634e487b7160e01b600052604160045260246000fd5b6001600160a01b038116811461104257600080fdfea2646970667358221220c642139de298ba5551f92a7001c3ee41db983fd8fb0292aea6ab20cee38958bb64736f6c63430008040033a264697066735822122007b89a8a66199cfa2ecb7d85915555fcb19efcb8e2a7adc8a6113a40ce636fc864736f6c63430008040033",
  "linkReferences": {},
  "deployedLinkReferences": {}
}