{
  "_format": "hh-sol-artifact-1",
  "contractName": "LemonadeStakePayment",
  "sourceName": "contracts/payment/stake/LemonadeStakePayment.sol",
  "abi": [
    {
      "inputs": [],
      "name": "AlreadyStaked",
      "type": "error"
    },
    {
      "inputs": [],
      "name": "CannotTransfer",
      "type": "error"
    },
    {
      "inputs": [],
      "name": "InvalidData",
      "type": "error"
    },
    {
      "inputs": [],
      "name": "NoStaking",
      "type": "error"
    },
    {
      "anonymous": false,
      "inputs": [
        {
          "indexed": false,
          "internalType": "uint8",
          "name": "version",
          "type": "uint8"
        }
      ],
      "name": "Initialized",
      "type": "event"
    },
    {
      "anonymous": false,
      "inputs": [
        {
          "indexed": true,
          "internalType": "address",
          "name": "previousOwner",
          "type": "address"
        },
        {
          "indexed": true,
          "internalType": "address",
          "name": "newOwner",
          "type": "address"
        }
      ],
      "name": "OwnershipTransferred",
      "type": "event"
    },
    {
      "anonymous": false,
      "inputs": [
        {
          "indexed": false,
          "internalType": "address",
          "name": "vault",
          "type": "address"
        }
      ],
      "name": "VaultRegistered",
      "type": "event"
    },
    {
      "inputs": [],
      "name": "configRegistry",
      "outputs": [
        {
          "internalType": "address",
          "name": "",
          "type": "address"
        }
      ],
      "stateMutability": "view",
      "type": "function"
    },
    {
      "inputs": [
        {
          "internalType": "string[]",
          "name": "ids",
          "type": "string[]"
        }
      ],
      "name": "getStakings",
      "outputs": [
        {
          "components": [
            {
              "internalType": "address",
              "name": "guest",
              "type": "address"
            },
            {
              "internalType": "address",
              "name": "currency",
              "type": "address"
            },
            {
              "internalType": "uint256",
              "name": "stakeAmount",
              "type": "uint256"
            },
            {
              "internalType": "uint256",
              "name": "refundAmount",
              "type": "uint256"
            },
            {
              "internalType": "bool",
              "name": "slashed",
              "type": "bool"
            },
            {
              "internalType": "bool",
              "name": "refunded",
              "type": "bool"
            }
          ],
          "internalType": "struct Staking[]",
          "name": "result",
          "type": "tuple[]"
        }
      ],
      "stateMutability": "view",
      "type": "function"
    },
    {
      "inputs": [
        {
          "internalType": "address",
          "name": "registry",
          "type": "address"
        }
      ],
      "name": "initialize",
      "outputs": [],
      "stateMutability": "nonpayable",
      "type": "function"
    },
    {
      "inputs": [],
      "name": "owner",
      "outputs": [
        {
          "internalType": "address",
          "name": "",
          "type": "address"
        }
      ],
      "stateMutability": "view",
      "type": "function"
    },
    {
      "inputs": [
        {
          "internalType": "string",
          "name": "paymentId",
          "type": "string"
        },
        {
          "internalType": "bytes",
          "name": "signature",
          "type": "bytes"
        }
      ],
      "name": "refund",
      "outputs": [],
      "stateMutability": "nonpayable",
      "type": "function"
    },
    {
      "inputs": [
        {
          "internalType": "bytes32",
          "name": "salt",
          "type": "bytes32"
        },
        {
          "internalType": "address",
          "name": "payout",
          "type": "address"
        },
        {
          "internalType": "uint256",
          "name": "refundPPM",
          "type": "uint256"
        }
      ],
      "name": "register",
      "outputs": [],
      "stateMutability": "nonpayable",
      "type": "function"
    },
    {
      "inputs": [],
      "name": "renounceOwnership",
      "outputs": [],
      "stateMutability": "nonpayable",
      "type": "function"
    },
    {
      "inputs": [
        {
          "internalType": "address",
          "name": "registry",
          "type": "address"
        }
      ],
      "name": "setConfigRegistry",
      "outputs": [],
      "stateMutability": "nonpayable",
      "type": "function"
    },
    {
      "inputs": [
        {
          "internalType": "address",
          "name": "vault",
          "type": "address"
        },
        {
          "internalType": "string[]",
          "name": "paymentIds",
          "type": "string[]"
        },
        {
          "internalType": "bytes",
          "name": "signature",
          "type": "bytes"
        }
      ],
      "name": "slash",
      "outputs": [],
      "stateMutability": "nonpayable",
      "type": "function"
    },
    {
      "inputs": [
        {
          "internalType": "address",
          "name": "vault",
          "type": "address"
        },
        {
          "internalType": "string",
          "name": "eventId",
          "type": "string"
        },
        {
          "internalType": "string",
          "name": "paymentId",
          "type": "string"
        },
        {
          "internalType": "address",
          "name": "currency",
          "type": "address"
        },
        {
          "internalType": "uint256",
          "name": "amount",
          "type": "uint256"
        }
      ],
      "name": "stake",
      "outputs": [],
      "stateMutability": "payable",
      "type": "function"
    },
    {
      "inputs": [
        {
          "internalType": "bytes32",
          "name": "",
          "type": "bytes32"
        }
      ],
      "name": "stakings",
      "outputs": [
        {
          "internalType": "address",
          "name": "",
          "type": "address"
        }
      ],
      "stateMutability": "view",
      "type": "function"
    },
    {
      "inputs": [
        {
          "internalType": "address",
          "name": "newOwner",
          "type": "address"
        }
      ],
      "name": "transferOwnership",
      "outputs": [],
      "stateMutability": "nonpayable",
      "type": "function"
    }
  ],
  "bytecode": "0x608060405234801561001057600080fd5b506136eb806100206000396000f3fe608060405260043610620000b55760003560e01c80638da5cb5b116200006c5780638da5cb5b14620001bd578063a5b0d68c14620001dd578063c1efcca41462000202578063c4d66de81462000227578063f2fde38b146200024c578063f97dd3d9146200027157600080fd5b8063244bb30914620000ba578063390ab7c214620000f95780635517366c146200012d5780635da8cc341462000154578063715018a6146200018e5780637705281914620001a6575b600080fd5b348015620000c757600080fd5b50606554620000dc906001600160a01b031681565b6040516001600160a01b0390911681526020015b60405180910390f35b3480156200010657600080fd5b506200011e6200011836600462001851565b62000296565b604051620000f0919062001b00565b3480156200013a57600080fd5b50620001526200014c36600462001936565b6200056b565b005b3480156200016157600080fd5b50620000dc62000173366004620018e3565b6066602052600090815260409020546001600160a01b031681565b3480156200019b57600080fd5b506200015262000788565b62000152620001b7366004620017a9565b620007a0565b348015620001ca57600080fd5b506033546001600160a01b0316620000dc565b348015620001ea57600080fd5b5062000152620001fc366004620018fc565b62000a7b565b3480156200020f57600080fd5b5062000152620002213660046200160b565b62000ba6565b3480156200023457600080fd5b5062000152620002463660046200160b565b62000bd2565b3480156200025957600080fd5b50620001526200026b3660046200160b565b62000d0c565b3480156200027e57600080fd5b5062000152620002903660046200169e565b62000d8b565b6060818067ffffffffffffffff811115620002c157634e487b7160e01b600052604160045260246000fd5b6040519080825280602002602001820160405280156200032357816020015b6040805160c08101825260008082526020808301829052928201819052606082018190526080820181905260a08201528252600019909201910181620002e05790505b50915060005b8181101562000563576000620003a88686848181106200035957634e487b7160e01b600052603260045260246000fd5b90506020028101906200036d919062001c1c565b8080601f0160208091040260200160405190810160405280939291908181526020018383808284376000920191909152506200104592505050565b6000818152606660205260409020549091506001600160a01b03168062000444576040518060c0016040528060006001600160a01b0316815260200160006001600160a01b031681526020016000815260200160008152602001600015158152602001600015158152508584815181106200043357634e487b7160e01b600052603260045260246000fd5b602002602001018190525062000558565b6000819050600080600080600080866001600160a01b0316635da8cc348a6040518263ffffffff1660e01b81526004016200048191815260200190565b60c06040518083038186803b1580156200049a57600080fd5b505afa158015620004af573d6000803e3d6000fd5b505050506040513d601f19601f82011682018060405250810190620004d591906200162a565b9550955095509550955095506040518060c00160405280876001600160a01b03168152602001866001600160a01b0316815260200185815260200184815260200183151581526020018215158152508c8b815181106200054557634e487b7160e01b600052603260045260246000fd5b6020026020010181905250505050505050505b505060010162000329565b505092915050565b6000620005ae85858080601f0160208091040260200160405190810160405280939291908181526020018383808284376000920191909152506200104592505050565b6000818152606660205260409020549091506001600160a01b031680620005e857604051632eaa084d60e21b815260040160405180910390fd5b6065546040805160028082526060820183526001600160a01b039093169260009260208301908036833701905050905060405160200162000649906020808252600c908201526b14d51052d157d4915195539160a21b604082015260600190565b60405160208183030381529060405280519060200120816000815181106200068157634e487b7160e01b600052603260045260246000fd5b6020026020010181815250508381600181518110620006b057634e487b7160e01b600052603260045260246000fd5b60209081029190910101526040516314f61f0560e21b81526001600160a01b038316906353d87c1490620006ed9084908a908a9060040162001a9a565b60006040518083038186803b1580156200070657600080fd5b505afa1580156200071b573d6000803e3d6000fd5b5050604051633924fddb60e11b8152600481018790528592506001600160a01b0383169150637249fbb690602401600060405180830381600087803b1580156200076457600080fd5b505af115801562000779573d6000803e3d6000fd5b50505050505050505050505050565b6200079262001077565b6200079e6000620010d3565b565b80620007bf57604051635cb045db60e01b815260040160405180910390fd5b60006200080285858080601f0160208091040260200160405190810160405280939291908181526020018383808284376000920191909152506200104592505050565b6000818152606660205260409020549091506001600160a01b0316156200083c57604051630ae3514d60e01b815260040160405180910390fd5b6001600160a01b0383161533811562000876578334146200087057604051635cb045db60e01b815260040160405180910390fd5b62000929565b6040516323b872dd60e01b81526001600160a01b03828116600483015230602483015260448201869052600091908716906323b872dd90606401602060405180830381600087803b158015620008cb57600080fd5b505af1158015620008e0573d6000803e3d6000fd5b505050506040513d601f19601f82011682018060405250810190620009069190620018c6565b905080620009275760405163cc7744d560e01b815260040160405180910390fd5b505b606554604080516204f6cf60e71b815290516001600160a01b0390921691600091839163027b678091600480820192602092909190829003018186803b1580156200097357600080fd5b505afa15801562000988573d6000803e3d6000fd5b505050506040513d601f19601f82011682018060405250810190620009ae9190620019a6565b620009bd90620f424062001c98565b620009cc87620f424062001cd4565b620009d8919062001cb3565b90506000620009e8828862001cf6565b60655490915062000a04906001600160a01b0316898362001125565b604051635aa13b5560e11b81526001600160a01b0384169063b54276aa9062000a38908f908f908d90879060040162001b8a565b600060405180830381600087803b15801562000a5357600080fd5b505af115801562000a68573d6000803e3d6000fd5b505050506200077986858f858c6200125c565b604051339060009062000a91602082016200152b565b601f1982820381018352601f9091011660408181526001600160a01b03851660208301520160408051601f198184030181529082905262000ad6929160200162001a52565b6040516020818303038152906040529050600062000af760008784620013ba565b60405163cd6dc68760e01b81526001600160a01b03878116600483015260248201879052919250829182169063cd6dc68790604401600060405180830381600087803b15801562000b4757600080fd5b505af115801562000b5c573d6000803e3d6000fd5b50506040516001600160a01b03851681527f8e0930709528779f1112249aac8fcca15dbb9c595db31092c7bc7f954b5679339250602001905060405180910390a150505050505050565b62000bb062001077565b606580546001600160a01b0319166001600160a01b0392909216919091179055565b600054610100900460ff161580801562000bf35750600054600160ff909116105b8062000c0f5750303b15801562000c0f575060005460ff166001145b62000c785760405162461bcd60e51b815260206004820152602e60248201527f496e697469616c697a61626c653a20636f6e747261637420697320616c72656160448201526d191e481a5b9a5d1a585b1a5e995960921b60648201526084015b60405180910390fd5b6000805460ff19166001179055801562000c9c576000805461ff0019166101001790555b62000ca6620014c8565b606580546001600160a01b0319166001600160a01b038416179055801562000d08576000805461ff0019169055604051600181527f7f26b83ff96e1f2b6a682f133852f6798a09c465da95921460cefb38474024989060200160405180910390a15b5050565b62000d1662001077565b6001600160a01b03811662000d7d5760405162461bcd60e51b815260206004820152602660248201527f4f776e61626c653a206e6577206f776e657220697320746865207a65726f206160448201526564647265737360d01b606482015260840162000c6f565b62000d8881620010d3565b50565b81516065546001600160a01b0316600062000da883600162001c98565b67ffffffffffffffff81111562000dcf57634e487b7160e01b600052604160045260246000fd5b60405190808252806020026020018201604052801562000df9578160200160208202803683370190505b5090506000855167ffffffffffffffff81111562000e2757634e487b7160e01b600052604160045260246000fd5b60405190808252806020026020018201604052801562000e51578160200160208202803683370190505b50905060405160200162000e84906020808252600b908201526a0a6a882968abea69882a6960ab1b604082015260600190565b604051602081830303815290604052805190602001208260008151811062000ebc57634e487b7160e01b600052603260045260246000fd5b60200260200101818152505060005b8481101562000f7457600062000f0988838151811062000efb57634e487b7160e01b600052603260045260246000fd5b602002602001015162001045565b90508083838151811062000f2d57634e487b7160e01b600052603260045260246000fd5b6020026020010181815250508160010191508084838151811062000f6157634e487b7160e01b600052603260045260246000fd5b6020026020010181815250505062000ecb565b506040516314f61f0560e21b81526001600160a01b038416906353d87c149062000fa5908590899060040162001ace565b60006040518083038186803b15801562000fbe57600080fd5b505afa15801562000fd3573d6000803e3d6000fd5b5050604051631f0434df60e11b81528992506001600160a01b0383169150633e0869be906200100790859060040162001a85565b600060405180830381600087803b1580156200102257600080fd5b505af115801562001037573d6000803e3d6000fd5b505050505050505050505050565b6000816040516020016200105a919062001bbc565b604051602081830303815290604052805190602001209050919050565b6033546001600160a01b031633146200079e5760405162461bcd60e51b815260206004820181905260248201527f4f776e61626c653a2063616c6c6572206973206e6f7420746865206f776e6572604482015260640162000c6f565b603380546001600160a01b038381166001600160a01b0319831681179093556040519116919082907f8be0079c531659141344cd1fd0a4f28419497f9722a3daafe3b4186f6b6457e090600090a35050565b6001600160a01b038216620011b1576000836001600160a01b03168260405160006040518083038185875af1925050503d806000811462001183576040519150601f19603f3d011682016040523d82523d6000602084013e62001188565b606091505b5050905080620011ab5760405163cc7744d560e01b815260040160405180910390fd5b50505050565b60405163a9059cbb60e01b81526001600160a01b038481166004830152602482018390526000919084169063a9059cbb90604401602060405180830381600087803b1580156200120057600080fd5b505af115801562001215573d6000803e3d6000fd5b505050506040513d601f19601f820116820180604052508101906200123b9190620018c6565b905080620011ab5760405163cc7744d560e01b815260040160405180910390fd5b6001600160a01b038116158381620012f65760405163095ea7b360e01b81526001600160a01b0386811660048301526024820186905284169063095ea7b390604401602060405180830381600087803b158015620012b957600080fd5b505af1158015620012ce573d6000803e3d6000fd5b505050506040513d601f19601f82011682018060405250810190620012f49190620018c6565b505b806001600160a01b031663ac6070b7836200131357600062001315565b855b6040516001600160e01b031960e084901b168152600481018b90526001600160a01b038088166024830152604482018990528a1660648201526084016000604051808303818588803b1580156200136b57600080fd5b505af115801562001380573d6000803e3d6000fd5b5050506000988952505060666020525050604090942080546001600160a01b0319166001600160a01b039390931692909217909155505050565b6000834710156200140e5760405162461bcd60e51b815260206004820152601d60248201527f437265617465323a20696e73756666696369656e742062616c616e6365000000604482015260640162000c6f565b81516200145e5760405162461bcd60e51b815260206004820181905260248201527f437265617465323a2062797465636f6465206c656e677468206973207a65726f604482015260640162000c6f565b8282516020840186f590506001600160a01b038116620014c15760405162461bcd60e51b815260206004820152601960248201527f437265617465323a204661696c6564206f6e206465706c6f7900000000000000604482015260640162000c6f565b9392505050565b600054610100900460ff16620014f25760405162461bcd60e51b815260040162000c6f9062001bd1565b6200079e600054610100900460ff16620015205760405162461bcd60e51b815260040162000c6f9062001bd1565b6200079e33620010d3565b6119348062001d8283390190565b805180151581146200154a57600080fd5b919050565b60008083601f84011262001561578182fd5b50813567ffffffffffffffff81111562001579578182fd5b6020830191508360208285010111156200159257600080fd5b9250929050565b600082601f830112620015aa578081fd5b813567ffffffffffffffff811115620015c757620015c762001d55565b620015dc601f8201601f191660200162001c64565b818152846020838601011115620015f1578283fd5b816020850160208301379081016020019190915292915050565b6000602082840312156200161d578081fd5b8135620014c18162001d6b565b60008060008060008060c0878903121562001643578182fd5b8651620016508162001d6b565b6020880151909650620016638162001d6b565b6040880151606089015191965094509250620016826080880162001539565b91506200169260a0880162001539565b90509295509295509295565b600080600060608486031215620016b3578283fd5b8335620016c08162001d6b565b925060208481013567ffffffffffffffff80821115620016de578485fd5b818701915087601f830112620016f2578485fd5b81358181111562001707576200170762001d55565b8060051b6200171885820162001c64565b8281528581019085870183870188018d10156200173357898afd5b8993505b8484101562001775578035868111156200174f578a8bfd5b6200175f8e8a838b010162001599565b8452506001939093019291870191870162001737565b50975050505060408701359250808311156200178f578384fd5b50506200179f8682870162001599565b9150509250925092565b600080600080600080600060a0888a031215620017c4578081fd5b8735620017d18162001d6b565b9650602088013567ffffffffffffffff80821115620017ee578283fd5b620017fc8b838c016200154f565b909850965060408a013591508082111562001815578283fd5b50620018248a828b016200154f565b90955093505060608801356200183a8162001d6b565b809250506080880135905092959891949750929550565b6000806020838503121562001864578182fd5b823567ffffffffffffffff808211156200187c578384fd5b818501915085601f83011262001890578384fd5b8135818111156200189f578485fd5b8660208260051b8501011115620018b4578485fd5b60209290920196919550909350505050565b600060208284031215620018d8578081fd5b620014c18262001539565b600060208284031215620018f5578081fd5b5035919050565b60008060006060848603121562001911578283fd5b833592506020840135620019258162001d6b565b929592945050506040919091013590565b600080600080604085870312156200194c578182fd5b843567ffffffffffffffff8082111562001964578384fd5b62001972888389016200154f565b909650945060208701359150808211156200198b578384fd5b506200199a878288016200154f565b95989497509550505050565b600060208284031215620019b8578081fd5b5051919050565b6000815180845260208085019450808401835b83811015620019f057815187529582019590820190600101620019d2565b509495945050505050565b81835281816020850137506000828201602090810191909152601f909101601f19169091010190565b6000815180845262001a3e81602086016020860162001d10565b601f01601f19169290920160200192915050565b6000835162001a6681846020880162001d10565b83519083019062001a7c81836020880162001d10565b01949350505050565b602081526000620014c16020830184620019bf565b60408152600062001aaf6040830186620019bf565b828103602084015262001ac4818587620019fb565b9695505050505050565b60408152600062001ae36040830185620019bf565b828103602084015262001af7818562001a24565b95945050505050565b602080825282518282018190526000919060409081850190868401855b8281101562001b7d57815180516001600160a01b03908116865287820151168786015285810151868601526060808201519086015260808082015115159086015260a09081015115159085015260c0909301929085019060010162001b1d565b5091979650505050505050565b60608152600062001ba0606083018688620019fb565b6001600160a01b03949094166020830152506040015292915050565b602081526000620014c1602083018462001a24565b6020808252602b908201527f496e697469616c697a61626c653a20636f6e7472616374206973206e6f74206960408201526a6e697469616c697a696e6760a81b606082015260800190565b6000808335601e1984360301811262001c33578283fd5b83018035915067ffffffffffffffff82111562001c4e578283fd5b6020019150368190038213156200159257600080fd5b604051601f8201601f1916810167ffffffffffffffff8111828210171562001c905762001c9062001d55565b604052919050565b6000821982111562001cae5762001cae62001d3f565b500190565b60008262001ccf57634e487b7160e01b81526012600452602481fd5b500490565b600081600019048311821515161562001cf15762001cf162001d3f565b500290565b60008282101562001d0b5762001d0b62001d3f565b500390565b60005b8381101562001d2d57818101518382015260200162001d13565b83811115620011ab5750506000910152565b634e487b7160e01b600052601160045260246000fd5b634e487b7160e01b600052604160045260246000fd5b6001600160a01b038116811462000d8857600080fdfe60806040523480156200001157600080fd5b5060405162001934380380620019348339810160408190526200003491620001ca565b6200004160008262000074565b6200006d7f97667070c54ef182b0f5858b034beac1b6f3089aa2d3188bb1e8929f4fa9b9293362000074565b50620001fa565b6200008b8282620000b760201b62000c701760201c565b6000828152600160209081526040909120620000b291839062000cf462000158821b17901c565b505050565b6000828152602081815260408083206001600160a01b038516845290915290205460ff1662000154576000828152602081815260408083206001600160a01b03851684529091529020805460ff19166001179055620001133390565b6001600160a01b0316816001600160a01b0316837f2f8788117e7eff1d82e926ec794901d17c78024a50270940304540a733656f0d60405160405180910390a45b5050565b60006200016f836001600160a01b03841662000178565b90505b92915050565b6000818152600183016020526040812054620001c15750815460018181018455600084815260208082209093018490558454848252828601909352604090209190915562000172565b50600062000172565b600060208284031215620001dc578081fd5b81516001600160a01b0381168114620001f3578182fd5b9392505050565b61172a806200020a6000396000f3fe6080604052600436106101185760003560e01c80637249fbb6116100a0578063ca15c87311610064578063ca15c8731461038e578063cd6dc687146103ae578063ce263434146103ce578063d547741f146103ee578063d9caed121461040e57600080fd5b80637249fbb6146103065780639010d07c1461032657806391d1485414610346578063a217fddf14610366578063ac6070b71461037b57600080fd5b806333ea51a8116100e757806333ea51a8146101cf57806336568abe146101ef5780633e0869be1461020f5780635b8d02d71461022f5780635da8cc341461026757600080fd5b806301ffc9a71461012457806310eaceb214610159578063248a9ca31461017d5780632f2ff15d146101ad57600080fd5b3661011f57005b600080fd5b34801561013057600080fd5b5061014461013f36600461153d565b61042e565b60405190151581526020015b60405180910390f35b34801561016557600080fd5b5061016f60035481565b604051908152602001610150565b34801561018957600080fd5b5061016f610198366004611494565b60009081526020819052604090206001015490565b3480156101b957600080fd5b506101cd6101c83660046114ac565b610459565b005b3480156101db57600080fd5b506101cd6101ea366004611386565b610483565b3480156101fb57600080fd5b506101cd61020a3660046114ac565b6104b1565b34801561021b57600080fd5b506101cd61022a366004611404565b610534565b34801561023b57600080fd5b5060025461024f906001600160a01b031681565b6040516001600160a01b039091168152602001610150565b34801561027357600080fd5b506102ca610282366004611494565b6004602081905260009182526040909120805460018201546002830154600384015493909401546001600160a01b039283169492909116929060ff8082169161010090041686565b604080516001600160a01b03978816815296909516602087015293850192909252606084015215156080830152151560a082015260c001610150565b34801561031257600080fd5b506101cd610321366004611494565b610787565b34801561033257600080fd5b5061024f61034136600461151c565b610809565b34801561035257600080fd5b506101446103613660046114ac565b610828565b34801561037257600080fd5b5061016f600081565b6101cd6103893660046114d7565b610851565b34801561039a57600080fd5b5061016f6103a9366004611494565b610b95565b3480156103ba57600080fd5b506101cd6103c93660046113db565b610bac565b3480156103da57600080fd5b506101cd6103e9366004611494565b610c1b565b3480156103fa57600080fd5b506101cd6104093660046114ac565b610c2f565b34801561041a57600080fd5b506101cd6104293660046113a0565b610c54565b60006001600160e01b03198216635a05180f60e01b1480610453575061045382610d09565b92915050565b60008281526020819052604090206001015461047481610d3e565b61047e8383610d4b565b505050565b600061048e81610d3e565b50600280546001600160a01b0319166001600160a01b0392909216919091179055565b6001600160a01b03811633146105265760405162461bcd60e51b815260206004820152602f60248201527f416363657373436f6e74726f6c3a2063616e206f6e6c792072656e6f756e636560448201526e103937b632b9903337b91039b2b63360891b60648201526084015b60405180910390fd5b6105308282610d6d565b5050565b6000805160206116d583398151915261054c81610d3e565b600654829060008167ffffffffffffffff81111561057a57634e487b7160e01b600052604160045260246000fd5b6040519080825280602002602001820160405280156105a3578160200160208202803683370190505b50905060005b838110156106c85760008787838181106105d357634e487b7160e01b600052603260045260246000fd5b602090810292909201356000818152600490935260409092208054929350916001600160a01b03161515905061060a5750506105a9565b600481015460ff168061062657506004810154610100900460ff165b15610644576040516330d88e3b60e01b815260040160405180910390fd5b6001818101546001600160a01b0316600090815260076020526040812054909161066d91611664565b9050816002015485828151811061069457634e487b7160e01b600052603260045260246000fd5b602002602001018181516106a8919061160d565b90525050600401805460ff191660019081179091559190910190506105a9565b5060005b8281101561077e576000600682815481106106f757634e487b7160e01b600052603260045260246000fd5b60009182526020808320909101546001600160a01b031680835260079091526040822054909250849061072c90600190611664565b8151811061074a57634e487b7160e01b600052603260045260246000fd5b60200260200101519050600081111561077457600254610774906001600160a01b03168383610d8f565b50506001016106cc565b50505050505050565b6000805160206116d583398151915261079f81610d3e565b600082815260046020526040902080546001600160a01b03166107d557604051632eaa084d60e21b815260040160405180910390fd5b60048101805461ff00191661010017905580546001820154600383015461047e926001600160a01b03908116921690610d8f565b60008281526001602052604081206108219083610eb7565b9392505050565b6000918252602082815260408084206001600160a01b0393909316845291905290205460ff1690565b6000805160206116d583398151915261086981610d3e565b336001600160a01b03831661089157604051635cb045db60e01b815260040160405180910390fd5b6000868152600460205260409020546001600160a01b0316156108c757604051630ae3514d60e01b815260040160405180910390fd5b6001600160a01b0385161580156108fd578434146108f857604051635cb045db60e01b815260040160405180910390fd5b6109ab565b6040516323b872dd60e01b81526001600160a01b03838116600483015230602483015260448201879052600091908816906323b872dd90606401602060405180830381600087803b15801561095157600080fd5b505af1158015610965573d6000803e3d6000fd5b505050506040513d601f19601f820116820180604052508101906109899190611474565b9050806109a95760405163cc7744d560e01b815260040160405180910390fd5b505b6001600160a01b038616600090815260076020526040902054610a33576006546000906109d990600161160d565b60068054600181019091557ff652222313e28459528d920b65115c16c04f3efc82aaedc97be59f3f377c0d3f0180546001600160a01b0319166001600160a01b038a16908117909155600090815260076020526040902055505b6000620f424060035487610a479190611645565b610a519190611625565b905060006040518060c00160405280876001600160a01b03168152602001896001600160a01b03168152602001888152602001838152602001600015158152602001600015158152509050600589908060018154018082558091505060019003906000526020600020016000909190919091505580600460008b815260200190815260200160002060008201518160000160006101000a8154816001600160a01b0302191690836001600160a01b0316021790555060208201518160010160006101000a8154816001600160a01b0302191690836001600160a01b03160217905550604082015181600201556060820151816003015560808201518160040160006101000a81548160ff02191690831515021790555060a08201518160040160016101000a81548160ff021916908315150217905550905050505050505050505050565b600081815260016020526040812061045390610ec3565b6000805160206116d5833981519152610bc481610d3e565b60085460ff1615610be857604051634ca8886760e01b815260040160405180910390fd5b6008805460ff19166001179055600280546001600160a01b0385166001600160a01b031990911617905561047e82610ecd565b6000610c2681610d3e565b61053082610ecd565b600082815260208190526040902060010154610c4a81610d3e565b61047e8383610d6d565b6000610c5f81610d3e565b610c6a848484610d8f565b50505050565b610c7a8282610828565b610530576000828152602081815260408083206001600160a01b03851684529091529020805460ff19166001179055610cb03390565b6001600160a01b0316816001600160a01b0316837f2f8788117e7eff1d82e926ec794901d17c78024a50270940304540a733656f0d60405160405180910390a45050565b6000610821836001600160a01b038416610eff565b60006001600160e01b03198216637965db0b60e01b148061045357506301ffc9a760e01b6001600160e01b0319831614610453565b610d488133610f4e565b50565b610d558282610c70565b600082815260016020526040902061047e9082610cf4565b610d778282610fa7565b600082815260016020526040902061047e908261100c565b6001600160a01b038216610e11576000836001600160a01b03168260405160006040518083038185875af1925050503d8060008114610dea576040519150601f19603f3d011682016040523d82523d6000602084013e610def565b606091505b5050905080610c6a5760405163cc7744d560e01b815260040160405180910390fd5b60405163a9059cbb60e01b81526001600160a01b038481166004830152602482018390526000919084169063a9059cbb90604401602060405180830381600087803b158015610e5f57600080fd5b505af1158015610e73573d6000803e3d6000fd5b505050506040513d601f19601f82011682018060405250810190610e979190611474565b905080610c6a5760405163cc7744d560e01b815260040160405180910390fd5b60006108218383611021565b6000610453825490565b620f4240811180610edc575080155b15610efa57604051635cb045db60e01b815260040160405180910390fd5b600355565b6000818152600183016020526040812054610f4657508154600181810184556000848152602080822090930184905584548482528286019093526040902091909155610453565b506000610453565b610f588282610828565b61053057610f6581611059565b610f7083602061106b565b604051602001610f81929190611565565b60408051601f198184030181529082905262461bcd60e51b825261051d916004016115da565b610fb18282610828565b15610530576000828152602081815260408083206001600160a01b0385168085529252808320805460ff1916905551339285917ff6391f5c32d9c69d2a47ea670b442974b53935d1edc7fd64eb21e047a839171b9190a45050565b6000610821836001600160a01b03841661124d565b600082600001828154811061104657634e487b7160e01b600052603260045260246000fd5b9060005260206000200154905092915050565b60606104536001600160a01b03831660145b6060600061107a836002611645565b61108590600261160d565b67ffffffffffffffff8111156110ab57634e487b7160e01b600052604160045260246000fd5b6040519080825280601f01601f1916602001820160405280156110d5576020820181803683370190505b509050600360fc1b816000815181106110fe57634e487b7160e01b600052603260045260246000fd5b60200101906001600160f81b031916908160001a905350600f60fb1b8160018151811061113b57634e487b7160e01b600052603260045260246000fd5b60200101906001600160f81b031916908160001a905350600061115f846002611645565b61116a90600161160d565b90505b60018111156111fe576f181899199a1a9b1b9c1cb0b131b232b360811b85600f16601081106111ac57634e487b7160e01b600052603260045260246000fd5b1a60f81b8282815181106111d057634e487b7160e01b600052603260045260246000fd5b60200101906001600160f81b031916908160001a90535060049490941c936111f7816116a7565b905061116d565b5083156108215760405162461bcd60e51b815260206004820181905260248201527f537472696e67733a20686578206c656e67746820696e73756666696369656e74604482015260640161051d565b60008181526001830160205260408120548015611360576000611271600183611664565b855490915060009061128590600190611664565b90508181146113065760008660000182815481106112b357634e487b7160e01b600052603260045260246000fd5b90600052602060002001549050808760000184815481106112e457634e487b7160e01b600052603260045260246000fd5b6000918252602080832090910192909255918252600188019052604090208390555b855486908061132557634e487b7160e01b600052603160045260246000fd5b600190038181906000526020600020016000905590558560010160008681526020019081526020016000206000905560019350505050610453565b6000915050610453565b80356001600160a01b038116811461138157600080fd5b919050565b600060208284031215611397578081fd5b6108218261136a565b6000806000606084860312156113b4578182fd5b6113bd8461136a565b92506113cb6020850161136a565b9150604084013590509250925092565b600080604083850312156113ed578182fd5b6113f68361136a565b946020939093013593505050565b60008060208385031215611416578182fd5b823567ffffffffffffffff8082111561142d578384fd5b818501915085601f830112611440578384fd5b81358181111561144e578485fd5b8660208260051b8501011115611462578485fd5b60209290920196919550909350505050565b600060208284031215611485578081fd5b81518015158114610821578182fd5b6000602082840312156114a5578081fd5b5035919050565b600080604083850312156114be578182fd5b823591506114ce6020840161136a565b90509250929050565b600080600080608085870312156114ec578081fd5b843593506114fc6020860161136a565b9250604085013591506115116060860161136a565b905092959194509250565b6000806040838503121561152e578182fd5b50508035926020909101359150565b60006020828403121561154e578081fd5b81356001600160e01b031981168114610821578182fd5b7f416363657373436f6e74726f6c3a206163636f756e742000000000000000000081526000835161159d81601785016020880161167b565b7001034b99036b4b9b9b4b733903937b6329607d1b60179184019182015283516115ce81602884016020880161167b565b01602801949350505050565b60208152600082518060208401526115f981604085016020870161167b565b601f01601f19169190910160400192915050565b60008219821115611620576116206116be565b500190565b60008261164057634e487b7160e01b81526012600452602481fd5b500490565b600081600019048311821515161561165f5761165f6116be565b500290565b600082821015611676576116766116be565b500390565b60005b8381101561169657818101518382015260200161167e565b83811115610c6a5750506000910152565b6000816116b6576116b66116be565b506000190190565b634e487b7160e01b600052601160045260246000fdfe97667070c54ef182b0f5858b034beac1b6f3089aa2d3188bb1e8929f4fa9b929a2646970667358221220c44cd67c76dfdc2f0e9d01f61d9cbd1dfafbd47798fc5bec4b6408ce78dfd19c64736f6c63430008040033a2646970667358221220d4e6f912b32b55771708abb2bacad25ac158b592a81b769bb942da23ea7950ce64736f6c63430008040033",
  "linkReferences": {},
  "deployedLinkReferences": {}
}