{
  "_format": "hh3-artifact-1",
  "contractName": "LemonadePassport",
  "sourceName": "contracts/LemonadePassport.sol",
  "abi": [
    {
      "inputs": [
        {
          "internalType": "address",
          "name": "_owner",
          "type": "address"
        },
        {
          "internalType": "address",
          "name": "_signer",
          "type": "address"
        },
        {
          "internalType": "address",
          "name": "_gatedToken",
          "type": "address"
        },
        {
          "internalType": "string",
          "name": "_tokenBaseURI",
          "type": "string"
        }
      ],
      "stateMutability": "nonpayable",
      "type": "constructor"
    },
    {
      "inputs": [],
      "name": "CannotTransfer",
      "type": "error"
    },
    {
      "inputs": [],
      "name": "ECDSAInvalidSignature",
      "type": "error"
    },
    {
      "inputs": [
        {
          "internalType": "uint256",
          "name": "length",
          "type": "uint256"
        }
      ],
      "name": "ECDSAInvalidSignatureLength",
      "type": "error"
    },
    {
      "inputs": [
        {
          "internalType": "bytes32",
          "name": "s",
          "type": "bytes32"
        }
      ],
      "name": "ECDSAInvalidSignatureS",
      "type": "error"
    },
    {
      "inputs": [
        {
          "internalType": "address",
          "name": "sender",
          "type": "address"
        },
        {
          "internalType": "uint256",
          "name": "tokenId",
          "type": "uint256"
        },
        {
          "internalType": "address",
          "name": "owner",
          "type": "address"
        }
      ],
      "name": "ERC721IncorrectOwner",
      "type": "error"
    },
    {
      "inputs": [
        {
          "internalType": "address",
          "name": "operator",
          "type": "address"
        },
        {
          "internalType": "uint256",
          "name": "tokenId",
          "type": "uint256"
        }
      ],
      "name": "ERC721InsufficientApproval",
      "type": "error"
    },
    {
      "inputs": [
        {
          "internalType": "address",
          "name": "approver",
          "type": "address"
        }
      ],
      "name": "ERC721InvalidApprover",
      "type": "error"
    },
    {
      "inputs": [
        {
          "internalType": "address",
          "name": "operator",
          "type": "address"
        }
      ],
      "name": "ERC721InvalidOperator",
      "type": "error"
    },
    {
      "inputs": [
        {
          "internalType": "address",
          "name": "owner",
          "type": "address"
        }
      ],
      "name": "ERC721InvalidOwner",
      "type": "error"
    },
    {
      "inputs": [
        {
          "internalType": "address",
          "name": "receiver",
          "type": "address"
        }
      ],
      "name": "ERC721InvalidReceiver",
      "type": "error"
    },
    {
      "inputs": [
        {
          "internalType": "address",
          "name": "sender",
          "type": "address"
        }
      ],
      "name": "ERC721InvalidSender",
      "type": "error"
    },
    {
      "inputs": [
        {
          "internalType": "uint256",
          "name": "tokenId",
          "type": "uint256"
        }
      ],
      "name": "ERC721NonexistentToken",
      "type": "error"
    },
    {
      "inputs": [],
      "name": "GateNotPassed",
      "type": "error"
    },
    {
      "inputs": [],
      "name": "InsufficientFunds",
      "type": "error"
    },
    {
      "inputs": [],
      "name": "InvalidSignature",
      "type": "error"
    },
    {
      "inputs": [
        {
          "internalType": "address",
          "name": "owner",
          "type": "address"
        }
      ],
      "name": "OwnableInvalidOwner",
      "type": "error"
    },
    {
      "inputs": [
        {
          "internalType": "address",
          "name": "account",
          "type": "address"
        }
      ],
      "name": "OwnableUnauthorizedAccount",
      "type": "error"
    },
    {
      "inputs": [],
      "name": "SoulBound",
      "type": "error"
    },
    {
      "inputs": [],
      "name": "VaultNotSet",
      "type": "error"
    },
    {
      "anonymous": false,
      "inputs": [
        {
          "indexed": true,
          "internalType": "address",
          "name": "owner",
          "type": "address"
        },
        {
          "indexed": true,
          "internalType": "address",
          "name": "approved",
          "type": "address"
        },
        {
          "indexed": true,
          "internalType": "uint256",
          "name": "tokenId",
          "type": "uint256"
        }
      ],
      "name": "Approval",
      "type": "event"
    },
    {
      "anonymous": false,
      "inputs": [
        {
          "indexed": true,
          "internalType": "address",
          "name": "owner",
          "type": "address"
        },
        {
          "indexed": true,
          "internalType": "address",
          "name": "operator",
          "type": "address"
        },
        {
          "indexed": false,
          "internalType": "bool",
          "name": "approved",
          "type": "bool"
        }
      ],
      "name": "ApprovalForAll",
      "type": "event"
    },
    {
      "anonymous": false,
      "inputs": [
        {
          "indexed": true,
          "internalType": "address",
          "name": "previousOwner",
          "type": "address"
        },
        {
          "indexed": true,
          "internalType": "address",
          "name": "newOwner",
          "type": "address"
        }
      ],
      "name": "OwnershipTransferred",
      "type": "event"
    },
    {
      "anonymous": false,
      "inputs": [
        {
          "indexed": true,
          "internalType": "address",
          "name": "from",
          "type": "address"
        },
        {
          "indexed": true,
          "internalType": "address",
          "name": "to",
          "type": "address"
        },
        {
          "indexed": true,
          "internalType": "uint256",
          "name": "tokenId",
          "type": "uint256"
        }
      ],
      "name": "Transfer",
      "type": "event"
    },
    {
      "inputs": [
        {
          "internalType": "address",
          "name": "to",
          "type": "address"
        },
        {
          "internalType": "uint256",
          "name": "tokenId",
          "type": "uint256"
        }
      ],
      "name": "approve",
      "outputs": [],
      "stateMutability": "nonpayable",
      "type": "function"
    },
    {
      "inputs": [],
      "name": "authorizedSigner",
      "outputs": [
        {
          "internalType": "address",
          "name": "",
          "type": "address"
        }
      ],
      "stateMutability": "view",
      "type": "function"
    },
    {
      "inputs": [
        {
          "internalType": "address",
          "name": "owner",
          "type": "address"
        }
      ],
      "name": "balanceOf",
      "outputs": [
        {
          "internalType": "uint256",
          "name": "",
          "type": "uint256"
        }
      ],
      "stateMutability": "view",
      "type": "function"
    },
    {
      "inputs": [
        {
          "internalType": "address",
          "name": "",
          "type": "address"
        }
      ],
      "name": "bounds",
      "outputs": [
        {
          "internalType": "uint256",
          "name": "",
          "type": "uint256"
        }
      ],
      "stateMutability": "view",
      "type": "function"
    },
    {
      "inputs": [
        {
          "internalType": "address",
          "name": "user",
          "type": "address"
        }
      ],
      "name": "gatePassed",
      "outputs": [
        {
          "internalType": "bool",
          "name": "",
          "type": "bool"
        }
      ],
      "stateMutability": "view",
      "type": "function"
    },
    {
      "inputs": [],
      "name": "gatedAmount",
      "outputs": [
        {
          "internalType": "uint256",
          "name": "",
          "type": "uint256"
        }
      ],
      "stateMutability": "view",
      "type": "function"
    },
    {
      "inputs": [],
      "name": "gatedToken",
      "outputs": [
        {
          "internalType": "address",
          "name": "",
          "type": "address"
        }
      ],
      "stateMutability": "view",
      "type": "function"
    },
    {
      "inputs": [
        {
          "internalType": "uint256",
          "name": "tokenId",
          "type": "uint256"
        }
      ],
      "name": "getApproved",
      "outputs": [
        {
          "internalType": "address",
          "name": "",
          "type": "address"
        }
      ],
      "stateMutability": "view",
      "type": "function"
    },
    {
      "inputs": [
        {
          "internalType": "address",
          "name": "owner",
          "type": "address"
        },
        {
          "internalType": "address",
          "name": "operator",
          "type": "address"
        }
      ],
      "name": "isApprovedForAll",
      "outputs": [
        {
          "internalType": "bool",
          "name": "",
          "type": "bool"
        }
      ],
      "stateMutability": "view",
      "type": "function"
    },
    {
      "inputs": [
        {
          "internalType": "string",
          "name": "uri",
          "type": "string"
        },
        {
          "internalType": "bytes",
          "name": "signature",
          "type": "bytes"
        }
      ],
      "name": "mint",
      "outputs": [],
      "stateMutability": "payable",
      "type": "function"
    },
    {
      "inputs": [],
      "name": "mintPrice",
      "outputs": [
        {
          "internalType": "uint256",
          "name": "",
          "type": "uint256"
        }
      ],
      "stateMutability": "view",
      "type": "function"
    },
    {
      "inputs": [
        {
          "internalType": "uint256",
          "name": "",
          "type": "uint256"
        }
      ],
      "name": "mintedURIs",
      "outputs": [
        {
          "internalType": "string",
          "name": "",
          "type": "string"
        }
      ],
      "stateMutability": "view",
      "type": "function"
    },
    {
      "inputs": [],
      "name": "name",
      "outputs": [
        {
          "internalType": "string",
          "name": "",
          "type": "string"
        }
      ],
      "stateMutability": "view",
      "type": "function"
    },
    {
      "inputs": [],
      "name": "owner",
      "outputs": [
        {
          "internalType": "address",
          "name": "",
          "type": "address"
        }
      ],
      "stateMutability": "view",
      "type": "function"
    },
    {
      "inputs": [
        {
          "internalType": "uint256",
          "name": "tokenId",
          "type": "uint256"
        }
      ],
      "name": "ownerOf",
      "outputs": [
        {
          "internalType": "address",
          "name": "",
          "type": "address"
        }
      ],
      "stateMutability": "view",
      "type": "function"
    },
    {
      "inputs": [],
      "name": "renounceOwnership",
      "outputs": [],
      "stateMutability": "nonpayable",
      "type": "function"
    },
    {
      "inputs": [
        {
          "internalType": "address",
          "name": "from",
          "type": "address"
        },
        {
          "internalType": "address",
          "name": "to",
          "type": "address"
        },
        {
          "internalType": "uint256",
          "name": "tokenId",
          "type": "uint256"
        }
      ],
      "name": "safeTransferFrom",
      "outputs": [],
      "stateMutability": "nonpayable",
      "type": "function"
    },
    {
      "inputs": [
        {
          "internalType": "address",
          "name": "from",
          "type": "address"
        },
        {
          "internalType": "address",
          "name": "to",
          "type": "address"
        },
        {
          "internalType": "uint256",
          "name": "tokenId",
          "type": "uint256"
        },
        {
          "internalType": "bytes",
          "name": "data",
          "type": "bytes"
        }
      ],
      "name": "safeTransferFrom",
      "outputs": [],
      "stateMutability": "nonpayable",
      "type": "function"
    },
    {
      "inputs": [
        {
          "internalType": "address",
          "name": "operator",
          "type": "address"
        },
        {
          "internalType": "bool",
          "name": "approved",
          "type": "bool"
        }
      ],
      "name": "setApprovalForAll",
      "outputs": [],
      "stateMutability": "nonpayable",
      "type": "function"
    },
    {
      "inputs": [
        {
          "internalType": "uint256",
          "name": "amount",
          "type": "uint256"
        }
      ],
      "name": "setGatedAmount",
      "outputs": [],
      "stateMutability": "nonpayable",
      "type": "function"
    },
    {
      "inputs": [
        {
          "internalType": "address",
          "name": "_gatedToken",
          "type": "address"
        }
      ],
      "name": "setGatedToken",
      "outputs": [],
      "stateMutability": "nonpayable",
      "type": "function"
    },
    {
      "inputs": [
        {
          "internalType": "uint256",
          "name": "price",
          "type": "uint256"
        }
      ],
      "name": "setMintPrice",
      "outputs": [],
      "stateMutability": "nonpayable",
      "type": "function"
    },
    {
      "inputs": [
        {
          "internalType": "address",
          "name": "signer",
          "type": "address"
        }
      ],
      "name": "setSigner",
      "outputs": [],
      "stateMutability": "nonpayable",
      "type": "function"
    },
    {
      "inputs": [
        {
          "internalType": "address",
          "name": "_vault",
          "type": "address"
        }
      ],
      "name": "setVault",
      "outputs": [],
      "stateMutability": "nonpayable",
      "type": "function"
    },
    {
      "inputs": [
        {
          "internalType": "bytes4",
          "name": "interfaceId",
          "type": "bytes4"
        }
      ],
      "name": "supportsInterface",
      "outputs": [
        {
          "internalType": "bool",
          "name": "",
          "type": "bool"
        }
      ],
      "stateMutability": "view",
      "type": "function"
    },
    {
      "inputs": [],
      "name": "symbol",
      "outputs": [
        {
          "internalType": "string",
          "name": "",
          "type": "string"
        }
      ],
      "stateMutability": "view",
      "type": "function"
    },
    {
      "inputs": [],
      "name": "tokenBaseURI",
      "outputs": [
        {
          "internalType": "string",
          "name": "",
          "type": "string"
        }
      ],
      "stateMutability": "view",
      "type": "function"
    },
    {
      "inputs": [],
      "name": "tokenIdCounter",
      "outputs": [
        {
          "internalType": "uint256",
          "name": "",
          "type": "uint256"
        }
      ],
      "stateMutability": "view",
      "type": "function"
    },
    {
      "inputs": [
        {
          "internalType": "uint256",
          "name": "tokenId",
          "type": "uint256"
        }
      ],
      "name": "tokenURI",
      "outputs": [
        {
          "internalType": "string",
          "name": "",
          "type": "string"
        }
      ],
      "stateMutability": "view",
      "type": "function"
    },
    {
      "inputs": [
        {
          "internalType": "address",
          "name": "from",
          "type": "address"
        },
        {
          "internalType": "address",
          "name": "to",
          "type": "address"
        },
        {
          "internalType": "uint256",
          "name": "tokenId",
          "type": "uint256"
        }
      ],
      "name": "transferFrom",
      "outputs": [],
      "stateMutability": "nonpayable",
      "type": "function"
    },
    {
      "inputs": [
        {
          "internalType": "address",
          "name": "newOwner",
          "type": "address"
        }
      ],
      "name": "transferOwnership",
      "outputs": [],
      "stateMutability": "nonpayable",
      "type": "function"
    },
    {
      "inputs": [],
      "name": "vault",
      "outputs": [
        {
          "internalType": "address",
          "name": "",
          "type": "address"
        }
      ],
      "stateMutability": "view",
      "type": "function"
    }
  ],
  "bytecode": "0x608060405234801561000f575f5ffd5b5060405161201538038061201583398101604081905261002e916101c9565b604080518082018252601181527013195b5bdb9859194814185cdcdc1bdc9d607a1b6020808301919091528251808401909352600483526304c4d4e560e41b908301529085855f8087600188888881818987878d6001600160a01b0381166100af57604051631e4fbdf760e01b81525f600482015260240160405180910390fd5b6100b88161014b565b50600180546001600160a01b039384166001600160a01b0319918216179091556002919091556003805493909216921691909117905560046100fa838261032f565b506005610107828261032f565b505050600c8790555050600d80546001600160a01b0319166001600160a01b038616179055600e610138828261032f565b50505050505050505050505050506103e9565b5f80546001600160a01b038381166001600160a01b0319831681178455604051919092169283917f8be0079c531659141344cd1fd0a4f28419497f9722a3daafe3b4186f6b6457e09190a35050565b80516001600160a01b03811681146101b0575f5ffd5b919050565b634e487b7160e01b5f52604160045260245ffd5b5f5f5f5f608085870312156101dc575f5ffd5b6101e58561019a565b93506101f36020860161019a565b92506102016040860161019a565b60608601519092506001600160401b0381111561021c575f5ffd5b8501601f8101871361022c575f5ffd5b80516001600160401b03811115610245576102456101b5565b604051601f8201601f19908116603f011681016001600160401b0381118282101715610273576102736101b5565b60405281815282820160200189101561028a575f5ffd5b8160208401602083015e5f6020838301015280935050505092959194509250565b600181811c908216806102bf57607f821691505b6020821081036102dd57634e487b7160e01b5f52602260045260245ffd5b50919050565b601f82111561032a57805f5260205f20601f840160051c810160208510156103085750805b601f840160051c820191505b81811015610327575f8155600101610314565b50505b505050565b81516001600160401b03811115610348576103486101b5565b61035c8161035684546102ab565b846102e3565b6020601f82116001811461038e575f83156103775750848201515b5f19600385901b1c1916600184901b178455610327565b5f84815260208120601f198516915b828110156103bd578785015182556020948501946001909201910161039d565b50848210156103da57868401515f19600387901b60f8161c191681555b50505050600190811b01905550565b611c1f806103f65f395ff3fe6080604052600436106101db575f3560e01c8063715018a6116100fd578063b4dd3af011610092578063e985e9c511610062578063e985e9c514610540578063f2fde38b1461055f578063f4a0a5281461057e578063fbfa77cf1461059d575f5ffd5b8063b4dd3af0146104c4578063b88d4fde146104e3578063c771909c14610502578063c87b56dd14610521575f5ffd5b80638da5cb5b116100cd5780638da5cb5b1461046057806395d89b411461047c57806398bdf6f514610490578063a22cb465146104a5575f5ffd5b8063715018a6146103e3578063761cc6f4146103f75780637a2ba9c4146104225780638bd0554714610441575f5ffd5b8063457ffe03116101735780636817031b116101435780636817031b146103715780636817c76c146103905780636c19e783146103a557806370a08231146103c4575f5ffd5b8063457ffe031461030c5780634737576e1461032b5780634e99b8001461033e5780636352211e14610352575f5ffd5b806323b872dd116101ae57806323b872dd1461028c5780632d8026f8146102ab57806342842e0e146102ca57806342871ab4146102e9575f5ffd5b806301ffc9a7146101df57806306fdde0314610213578063081812fc14610234578063095ea7b31461026b575b5f5ffd5b3480156101ea575f5ffd5b506101fe6101f9366004611614565b6105bc565b60405190151581526020015b60405180910390f35b34801561021e575f5ffd5b5061022761060d565b60405161020a9190611664565b34801561023f575f5ffd5b5061025361024e366004611676565b61069d565b6040516001600160a01b03909116815260200161020a565b348015610276575f5ffd5b5061028a6102853660046116a8565b6106c4565b005b348015610297575f5ffd5b5061028a6102a63660046116d0565b6106d3565b3480156102b6575f5ffd5b5061028a6102c5366004611676565b610761565b3480156102d5575f5ffd5b5061028a6102e43660046116d0565b61076e565b3480156102f4575f5ffd5b506102fe60025481565b60405190815260200161020a565b348015610317575f5ffd5b50610227610326366004611676565b61078d565b61028a61033936600461174f565b610824565b348015610349575f5ffd5b50610227610917565b34801561035d575f5ffd5b5061025361036c366004611676565b610924565b34801561037c575f5ffd5b5061028a61038b3660046117bb565b61092e565b34801561039b575f5ffd5b506102fe600c5481565b3480156103b0575f5ffd5b5061028a6103bf3660046117bb565b610958565b3480156103cf575f5ffd5b506102fe6103de3660046117bb565b610982565b3480156103ee575f5ffd5b5061028a6109c7565b348015610402575f5ffd5b506102fe6104113660046117bb565b600a6020525f908152604090205481565b34801561042d575f5ffd5b50600154610253906001600160a01b031681565b34801561044c575f5ffd5b5061028a61045b3660046117bb565b6109da565b34801561046b575f5ffd5b505f546001600160a01b0316610253565b348015610487575f5ffd5b50610227610a04565b34801561049b575f5ffd5b506102fe600b5481565b3480156104b0575f5ffd5b5061028a6104bf3660046117d4565b610a13565b3480156104cf575f5ffd5b506101fe6104de3660046117bb565b610a1e565b3480156104ee575f5ffd5b5061028a6104fd366004611821565b610a96565b34801561050d575f5ffd5b50600354610253906001600160a01b031681565b34801561052c575f5ffd5b5061022761053b366004611676565b610aae565b34801561054b575f5ffd5b506101fe61055a3660046118fe565b610af4565b34801561056a575f5ffd5b5061028a6105793660046117bb565b610b21565b348015610589575f5ffd5b5061028a610598366004611676565b610b5e565b3480156105a8575f5ffd5b50600d54610253906001600160a01b031681565b5f6001600160e01b031982166380ac58cd60e01b14806105ec57506001600160e01b03198216635b5e139f60e01b145b8061060757506301ffc9a760e01b6001600160e01b03198316145b92915050565b60606004805461061c9061192f565b80601f01602080910402602001604051908101604052809291908181526020018280546106489061192f565b80156106935780601f1061066a57610100808354040283529160200191610693565b820191905f5260205f20905b81548152906001019060200180831161067657829003601f168201915b5050505050905090565b5f6106a782610b6b565b505f828152600860205260409020546001600160a01b0316610607565b6106cf828233610ba3565b5050565b6001600160a01b03821661070157604051633250574960e11b81525f60048201526024015b60405180910390fd5b5f61070d838333610bb0565b9050836001600160a01b0316816001600160a01b03161461075b576040516364283d7b60e01b81526001600160a01b03808616600483015260248201849052821660448201526064016106f8565b50505050565b610769610c60565b600255565b61078883838360405180602001604052805f815250610a96565b505050565b600f6020525f9081526040902080546107a59061192f565b80601f01602080910402602001604051908101604052809291908181526020018280546107d19061192f565b801561081c5780601f106107f35761010080835404028352916020019161081c565b820191905f5260205f20905b8154815290600101906020018083116107ff57829003601f168201915b505050505081565b3361082e81610c8c565b6040805160028082526060820183525f92602083019080368337019050509050816001600160a01b03165f1b815f8151811061086c5761086c611967565b602002602001018181525050858560405160200161088b92919061197b565b60405160208183030381529060405280519060200120816001815181106108b4576108b4611967565b6020026020010181815250506108cb818585610cb2565b6108d3610de6565b600b8054905f6108e2836119a9565b91905055506108f382600b54610eaa565b600b545f908152600f6020526040902061090e868883611a11565b50505050505050565b600e80546107a59061192f565b5f61060782610b6b565b610936610c60565b600d80546001600160a01b0319166001600160a01b0392909216919091179055565b610960610c60565b600380546001600160a01b0319166001600160a01b0392909216919091179055565b5f6001600160a01b0382166109ac576040516322718ad960e21b81525f60048201526024016106f8565b506001600160a01b03165f9081526007602052604090205490565b6109cf610c60565b6109d85f610ec3565b565b6109e2610c60565b600180546001600160a01b0319166001600160a01b0392909216919091179055565b60606005805461061c9061192f565b6106cf338383610f12565b6002546001546040516370a0823160e01b81526001600160a01b0384811660048301525f939216906370a0823190602401602060405180830381865afa158015610a6a573d5f5f3e3d5ffd5b505050506040513d601f19601f82011682018060405250810190610a8e9190611acb565b101592915050565b610aa18484846106d3565b61075b3385858585610fb0565b6060610ab982610b6b565b50600e600f5f8481526020019081526020015f20604051602001610ade929190611b50565b6040516020818303038152906040529050919050565b6001600160a01b039182165f90815260096020908152604080832093909416825291909152205460ff1690565b610b29610c60565b6001600160a01b038116610b5257604051631e4fbdf760e01b81525f60048201526024016106f8565b610b5b81610ec3565b50565b610b66610c60565b600c55565b5f818152600660205260408120546001600160a01b03168061060757604051637e27328960e01b8152600481018490526024016106f8565b61078883838360016110d8565b5f828152600660205260408120546001600160a01b03168015801590610bde57506001600160a01b03851615155b15610bfc57604051631267838f60e11b815260040160405180910390fd5b6001600160a01b0385165f908152600a602052604090205415610c3257604051631267838f60e11b815260040160405180910390fd5b6001600160a01b0385165f908152600a60205260409020849055610c578585856111dc565b95945050505050565b5f546001600160a01b031633146109d85760405163118cdaa760e01b81523360048201526024016106f8565b610c9581610a1e565b610b5b57604051639cd4c6a960e01b815260040160405180910390fd5b82516060905f5b81811015610d075782868281518110610cd457610cd4611967565b6020026020010151604051602001610ced929190611b64565b60408051601f198184030181529190529250600101610cb9565b505f828051906020012090505f81604051602001610d5191907f19457468657265756d205369676e6564204d6573736167653a0a3332000000008152601c810191909152603c0190565b6040516020818303038152906040528051906020012090505f610dab87878080601f0160208091040260200160405190810160405280939291908181526020018383808284375f9201919091525086939250506112ce9050565b6003549091506001600160a01b03808316911614610ddc57604051638baa579f60e01b815260040160405180910390fd5b5050505050505050565b600c543414610e085760405163356680b760e01b815260040160405180910390fd5b600c54156109d857600d546001600160a01b0316610e3957604051630647140b60e51b815260040160405180910390fd5b600d546040515f916001600160a01b03169034908381818185875af1925050503d805f8114610e83576040519150601f19603f3d011682016040523d82523d5f602084013e610e88565b606091505b5050905080610b5b5760405163cc7744d560e01b815260040160405180910390fd5b6106cf828260405180602001604052805f8152506112f6565b5f80546001600160a01b038381166001600160a01b0319831681178455604051919092169283917f8be0079c531659141344cd1fd0a4f28419497f9722a3daafe3b4186f6b6457e09190a35050565b6001600160a01b038216610f4457604051630b61174360e31b81526001600160a01b03831660048201526024016106f8565b6001600160a01b038381165f81815260096020908152604080832094871680845294825291829020805460ff191686151590811790915591519182527f17307eab39ab6107e8899845ad3d59bd9653f200f220920489ca2b5937696c31910160405180910390a3505050565b6001600160a01b0383163b156110d157604051630a85bd0160e11b81526001600160a01b0384169063150b7a0290610ff2908890889087908790600401611b7e565b6020604051808303815f875af192505050801561102c575060408051601f3d908101601f1916820190925261102991810190611bba565b60015b611093573d808015611059576040519150601f19603f3d011682016040523d82523d5f602084013e61105e565b606091505b5080515f0361108b57604051633250574960e11b81526001600160a01b03851660048201526024016106f8565b805160208201fd5b6001600160e01b03198116630a85bd0160e11b146110cf57604051633250574960e11b81526001600160a01b03851660048201526024016106f8565b505b5050505050565b80806110ec57506001600160a01b03821615155b156111ad575f6110fb84610b6b565b90506001600160a01b038316158015906111275750826001600160a01b0316816001600160a01b031614155b801561113a57506111388184610af4565b155b156111635760405163a9fbf51f60e01b81526001600160a01b03841660048201526024016106f8565b81156111ab5783856001600160a01b0316826001600160a01b03167f8c5be1e5ebec7d5bd14f71427d1e84f3dd0314c0f7b2291e5b200ac8c7c3b92560405160405180910390a45b505b50505f90815260086020526040902080546001600160a01b0319166001600160a01b0392909216919091179055565b5f828152600660205260408120546001600160a01b03908116908316156112085761120881848661130d565b6001600160a01b03811615611242576112235f855f5f6110d8565b6001600160a01b0381165f90815260076020526040902080545f190190555b6001600160a01b03851615611270576001600160a01b0385165f908152600760205260409020805460010190555b5f8481526006602052604080822080546001600160a01b0319166001600160a01b0389811691821790925591518793918516917fddf252ad1be2c89b69c2b068fc378daa952ba7f163c4a11628f55a4df523b3ef91a4949350505050565b5f5f5f5f6112dc8686611371565b9250925092506112ec82826113ba565b5090949350505050565b6113008383611472565b610788335f858585610fb0565b6113188383836114d3565b610788576001600160a01b03831661134657604051637e27328960e01b8152600481018290526024016106f8565b60405163177e802f60e01b81526001600160a01b0383166004820152602481018290526044016106f8565b5f5f5f83516041036113a8576020840151604085015160608601515f1a61139a88828585611537565b9550955095505050506113b3565b505081515f91506002905b9250925092565b5f8260038111156113cd576113cd611bd5565b036113d6575050565b60018260038111156113ea576113ea611bd5565b036114085760405163f645eedf60e01b815260040160405180910390fd5b600282600381111561141c5761141c611bd5565b0361143d5760405163fce698f760e01b8152600481018290526024016106f8565b600382600381111561145157611451611bd5565b036106cf576040516335e2f38360e21b8152600481018290526024016106f8565b6001600160a01b03821661149b57604051633250574960e11b81525f60048201526024016106f8565b5f6114a783835f610bb0565b90506001600160a01b03811615610788576040516339e3563760e11b81525f60048201526024016106f8565b5f6001600160a01b0383161580159061152f5750826001600160a01b0316846001600160a01b0316148061150c575061150c8484610af4565b8061152f57505f828152600860205260409020546001600160a01b038481169116145b949350505050565b5f80807f7fffffffffffffffffffffffffffffff5d576e7357a4501ddfe92f46681b20a084111561157057505f915060039050826115f5565b604080515f808252602082018084528a905260ff891692820192909252606081018790526080810186905260019060a0016020604051602081039080840390855afa1580156115c1573d5f5f3e3d5ffd5b5050604051601f1901519150506001600160a01b0381166115ec57505f9250600191508290506115f5565b92505f91508190505b9450945094915050565b6001600160e01b031981168114610b5b575f5ffd5b5f60208284031215611624575f5ffd5b813561162f816115ff565b9392505050565b5f81518084528060208401602086015e5f602082860101526020601f19601f83011685010191505092915050565b602081525f61162f6020830184611636565b5f60208284031215611686575f5ffd5b5035919050565b80356001600160a01b03811681146116a3575f5ffd5b919050565b5f5f604083850312156116b9575f5ffd5b6116c28361168d565b946020939093013593505050565b5f5f5f606084860312156116e2575f5ffd5b6116eb8461168d565b92506116f96020850161168d565b929592945050506040919091013590565b5f5f83601f84011261171a575f5ffd5b50813567ffffffffffffffff811115611731575f5ffd5b602083019150836020828501011115611748575f5ffd5b9250929050565b5f5f5f5f60408587031215611762575f5ffd5b843567ffffffffffffffff811115611778575f5ffd5b6117848782880161170a565b909550935050602085013567ffffffffffffffff8111156117a3575f5ffd5b6117af8782880161170a565b95989497509550505050565b5f602082840312156117cb575f5ffd5b61162f8261168d565b5f5f604083850312156117e5575f5ffd5b6117ee8361168d565b915060208301358015158114611802575f5ffd5b809150509250929050565b634e487b7160e01b5f52604160045260245ffd5b5f5f5f5f60808587031215611834575f5ffd5b61183d8561168d565b935061184b6020860161168d565b925060408501359150606085013567ffffffffffffffff81111561186d575f5ffd5b8501601f8101871361187d575f5ffd5b803567ffffffffffffffff8111156118975761189761180d565b604051601f8201601f19908116603f0116810167ffffffffffffffff811182821017156118c6576118c661180d565b6040528181528282016020018910156118dd575f5ffd5b816020840160208301375f6020838301015280935050505092959194509250565b5f5f6040838503121561190f575f5ffd5b6119188361168d565b91506119266020840161168d565b90509250929050565b600181811c9082168061194357607f821691505b60208210810361196157634e487b7160e01b5f52602260045260245ffd5b50919050565b634e487b7160e01b5f52603260045260245ffd5b60208152816020820152818360408301375f818301604090810191909152601f909201601f19160101919050565b5f600182016119c657634e487b7160e01b5f52601160045260245ffd5b5060010190565b601f82111561078857805f5260205f20601f840160051c810160208510156119f25750805b601f840160051c820191505b818110156110d1575f81556001016119fe565b67ffffffffffffffff831115611a2957611a2961180d565b611a3d83611a37835461192f565b836119cd565b5f601f841160018114611a6e575f8515611a575750838201355b5f19600387901b1c1916600186901b1783556110d1565b5f83815260208120601f198716915b82811015611a9d5786850135825560209485019460019092019101611a7d565b5086821015611ab9575f1960f88860031b161c19848701351681555b505060018560011b0183555050505050565b5f60208284031215611adb575f5ffd5b5051919050565b5f8154611aee8161192f565b600182168015611b055760018114611b1a57611b47565b60ff1983168652811515820286019350611b47565b845f5260205f205f5b83811015611b3f57815488820152600190910190602001611b23565b505081860193505b50505092915050565b5f61152f611b5e8386611ae2565b84611ae2565b5f83518060208601845e9190910191825250602001919050565b6001600160a01b03858116825284166020820152604081018390526080606082018190525f90611bb090830184611636565b9695505050505050565b5f60208284031215611bca575f5ffd5b815161162f816115ff565b634e487b7160e01b5f52602160045260245ffdfea2646970667358221220443be2320b0190e6af7eeeadcb9335c0353a74f3315123b0350e34fd9a35861764736f6c634300081c0033",
  "linkReferences": {},
  "deployedLinkReferences": {},
  "immutableReferences": {},
  "inputSourceName": "project/contracts/LemonadePassport.sol",
  "buildInfoId": "solc-0_8_28-c9424d09c67673f062e1ebb7ddb7689bfc47a808"
}