{
  "_format": "hh-sol-artifact-1",
  "contractName": "LemonheadNFT",
  "sourceName": "contracts/LemonheadNFT.sol",
  "abi": [
    {
      "inputs": [
        {
          "internalType": "string",
          "name": "_name",
          "type": "string"
        },
        {
          "internalType": "string",
          "name": "_symbol",
          "type": "string"
        },
        {
          "internalType": "uint256",
          "name": "_tokenLimit",
          "type": "uint256"
        },
        {
          "internalType": "address",
          "name": "_lzEndpoint",
          "type": "address"
        },
        {
          "internalType": "address",
          "name": "_owner",
          "type": "address"
        },
        {
          "internalType": "address",
          "name": "_destinationVault",
          "type": "address"
        },
        {
          "internalType": "address",
          "name": "_authorizedSigner",
          "type": "address"
        },
        {
          "internalType": "string",
          "name": "_baseURI",
          "type": "string"
        }
      ],
      "stateMutability": "nonpayable",
      "type": "constructor"
    },
    {
      "inputs": [],
      "name": "AlreadyMinted",
      "type": "error"
    },
    {
      "inputs": [],
      "name": "CannotTransfer",
      "type": "error"
    },
    {
      "inputs": [],
      "name": "ECDSAInvalidSignature",
      "type": "error"
    },
    {
      "inputs": [
        {
          "internalType": "uint256",
          "name": "length",
          "type": "uint256"
        }
      ],
      "name": "ECDSAInvalidSignatureLength",
      "type": "error"
    },
    {
      "inputs": [
        {
          "internalType": "bytes32",
          "name": "s",
          "type": "bytes32"
        }
      ],
      "name": "ECDSAInvalidSignatureS",
      "type": "error"
    },
    {
      "inputs": [
        {
          "internalType": "address",
          "name": "sender",
          "type": "address"
        },
        {
          "internalType": "uint256",
          "name": "tokenId",
          "type": "uint256"
        },
        {
          "internalType": "address",
          "name": "owner",
          "type": "address"
        }
      ],
      "name": "ERC721IncorrectOwner",
      "type": "error"
    },
    {
      "inputs": [
        {
          "internalType": "address",
          "name": "operator",
          "type": "address"
        },
        {
          "internalType": "uint256",
          "name": "tokenId",
          "type": "uint256"
        }
      ],
      "name": "ERC721InsufficientApproval",
      "type": "error"
    },
    {
      "inputs": [
        {
          "internalType": "address",
          "name": "approver",
          "type": "address"
        }
      ],
      "name": "ERC721InvalidApprover",
      "type": "error"
    },
    {
      "inputs": [
        {
          "internalType": "address",
          "name": "operator",
          "type": "address"
        }
      ],
      "name": "ERC721InvalidOperator",
      "type": "error"
    },
    {
      "inputs": [
        {
          "internalType": "address",
          "name": "owner",
          "type": "address"
        }
      ],
      "name": "ERC721InvalidOwner",
      "type": "error"
    },
    {
      "inputs": [
        {
          "internalType": "address",
          "name": "receiver",
          "type": "address"
        }
      ],
      "name": "ERC721InvalidReceiver",
      "type": "error"
    },
    {
      "inputs": [
        {
          "internalType": "address",
          "name": "sender",
          "type": "address"
        }
      ],
      "name": "ERC721InvalidSender",
      "type": "error"
    },
    {
      "inputs": [
        {
          "internalType": "uint256",
          "name": "tokenId",
          "type": "uint256"
        }
      ],
      "name": "ERC721NonexistentToken",
      "type": "error"
    },
    {
      "inputs": [],
      "name": "InsufficientPayment",
      "type": "error"
    },
    {
      "inputs": [],
      "name": "InvalidDelegate",
      "type": "error"
    },
    {
      "inputs": [],
      "name": "InvalidEndpointCall",
      "type": "error"
    },
    {
      "inputs": [
        {
          "internalType": "bytes",
          "name": "options",
          "type": "bytes"
        }
      ],
      "name": "InvalidOptions",
      "type": "error"
    },
    {
      "inputs": [],
      "name": "InvalidReceiver",
      "type": "error"
    },
    {
      "inputs": [],
      "name": "InvalidSignature",
      "type": "error"
    },
    {
      "inputs": [],
      "name": "LookAlreadyMinted",
      "type": "error"
    },
    {
      "inputs": [],
      "name": "LzTokenUnavailable",
      "type": "error"
    },
    {
      "inputs": [],
      "name": "MintLimitReached",
      "type": "error"
    },
    {
      "inputs": [
        {
          "internalType": "uint32",
          "name": "eid",
          "type": "uint32"
        }
      ],
      "name": "NoPeer",
      "type": "error"
    },
    {
      "inputs": [
        {
          "internalType": "uint256",
          "name": "msgValue",
          "type": "uint256"
        }
      ],
      "name": "NotEnoughNative",
      "type": "error"
    },
    {
      "inputs": [
        {
          "internalType": "address",
          "name": "addr",
          "type": "address"
        }
      ],
      "name": "OnlyEndpoint",
      "type": "error"
    },
    {
      "inputs": [
        {
          "internalType": "address",
          "name": "caller",
          "type": "address"
        },
        {
          "internalType": "address",
          "name": "owner",
          "type": "address"
        }
      ],
      "name": "OnlyNFTOwner",
      "type": "error"
    },
    {
      "inputs": [
        {
          "internalType": "uint32",
          "name": "eid",
          "type": "uint32"
        },
        {
          "internalType": "bytes32",
          "name": "sender",
          "type": "bytes32"
        }
      ],
      "name": "OnlyPeer",
      "type": "error"
    },
    {
      "inputs": [],
      "name": "OnlySelf",
      "type": "error"
    },
    {
      "inputs": [
        {
          "internalType": "address",
          "name": "owner",
          "type": "address"
        }
      ],
      "name": "OwnableInvalidOwner",
      "type": "error"
    },
    {
      "inputs": [
        {
          "internalType": "address",
          "name": "account",
          "type": "address"
        }
      ],
      "name": "OwnableUnauthorizedAccount",
      "type": "error"
    },
    {
      "inputs": [
        {
          "internalType": "address",
          "name": "token",
          "type": "address"
        }
      ],
      "name": "SafeERC20FailedOperation",
      "type": "error"
    },
    {
      "inputs": [
        {
          "internalType": "bytes",
          "name": "result",
          "type": "bytes"
        }
      ],
      "name": "SimulationResult",
      "type": "error"
    },
    {
      "inputs": [],
      "name": "SoulBoundToken",
      "type": "error"
    },
    {
      "anonymous": false,
      "inputs": [
        {
          "indexed": true,
          "internalType": "address",
          "name": "owner",
          "type": "address"
        },
        {
          "indexed": true,
          "internalType": "address",
          "name": "approved",
          "type": "address"
        },
        {
          "indexed": true,
          "internalType": "uint256",
          "name": "tokenId",
          "type": "uint256"
        }
      ],
      "name": "Approval",
      "type": "event"
    },
    {
      "anonymous": false,
      "inputs": [
        {
          "indexed": true,
          "internalType": "address",
          "name": "owner",
          "type": "address"
        },
        {
          "indexed": true,
          "internalType": "address",
          "name": "operator",
          "type": "address"
        },
        {
          "indexed": false,
          "internalType": "bool",
          "name": "approved",
          "type": "bool"
        }
      ],
      "name": "ApprovalForAll",
      "type": "event"
    },
    {
      "anonymous": false,
      "inputs": [
        {
          "indexed": true,
          "internalType": "address",
          "name": "oldSigner",
          "type": "address"
        },
        {
          "indexed": true,
          "internalType": "address",
          "name": "newSigner",
          "type": "address"
        }
      ],
      "name": "AuthorizedSignerSet",
      "type": "event"
    },
    {
      "anonymous": false,
      "inputs": [
        {
          "indexed": false,
          "internalType": "string",
          "name": "baseURI",
          "type": "string"
        }
      ],
      "name": "BaseURISet",
      "type": "event"
    },
    {
      "anonymous": false,
      "inputs": [
        {
          "indexed": true,
          "internalType": "address",
          "name": "oldVault",
          "type": "address"
        },
        {
          "indexed": true,
          "internalType": "address",
          "name": "newVault",
          "type": "address"
        }
      ],
      "name": "DestinationVaultSet",
      "type": "event"
    },
    {
      "anonymous": false,
      "inputs": [
        {
          "components": [
            {
              "internalType": "uint32",
              "name": "eid",
              "type": "uint32"
            },
            {
              "internalType": "uint16",
              "name": "msgType",
              "type": "uint16"
            },
            {
              "internalType": "bytes",
              "name": "options",
              "type": "bytes"
            }
          ],
          "indexed": false,
          "internalType": "struct EnforcedOptionParam[]",
          "name": "_enforcedOptions",
          "type": "tuple[]"
        }
      ],
      "name": "EnforcedOptionSet",
      "type": "event"
    },
    {
      "anonymous": false,
      "inputs": [
        {
          "indexed": true,
          "internalType": "address",
          "name": "receiver",
          "type": "address"
        },
        {
          "indexed": true,
          "internalType": "uint256",
          "name": "tokenId",
          "type": "uint256"
        },
        {
          "indexed": true,
          "internalType": "bytes32",
          "name": "look",
          "type": "bytes32"
        }
      ],
      "name": "Minted",
      "type": "event"
    },
    {
      "anonymous": false,
      "inputs": [
        {
          "indexed": false,
          "internalType": "address",
          "name": "inspector",
          "type": "address"
        }
      ],
      "name": "MsgInspectorSet",
      "type": "event"
    },
    {
      "anonymous": false,
      "inputs": [
        {
          "indexed": true,
          "internalType": "bytes32",
          "name": "guid",
          "type": "bytes32"
        },
        {
          "indexed": false,
          "internalType": "uint32",
          "name": "srcEid",
          "type": "uint32"
        },
        {
          "indexed": true,
          "internalType": "address",
          "name": "toAddress",
          "type": "address"
        },
        {
          "indexed": false,
          "internalType": "uint256",
          "name": "tokenId",
          "type": "uint256"
        }
      ],
      "name": "ONFTReceived",
      "type": "event"
    },
    {
      "anonymous": false,
      "inputs": [
        {
          "indexed": true,
          "internalType": "bytes32",
          "name": "guid",
          "type": "bytes32"
        },
        {
          "indexed": false,
          "internalType": "uint32",
          "name": "dstEid",
          "type": "uint32"
        },
        {
          "indexed": true,
          "internalType": "address",
          "name": "fromAddress",
          "type": "address"
        },
        {
          "indexed": false,
          "internalType": "uint256",
          "name": "tokenId",
          "type": "uint256"
        }
      ],
      "name": "ONFTSent",
      "type": "event"
    },
    {
      "anonymous": false,
      "inputs": [
        {
          "indexed": true,
          "internalType": "address",
          "name": "previousOwner",
          "type": "address"
        },
        {
          "indexed": true,
          "internalType": "address",
          "name": "newOwner",
          "type": "address"
        }
      ],
      "name": "OwnershipTransferred",
      "type": "event"
    },
    {
      "anonymous": false,
      "inputs": [
        {
          "indexed": false,
          "internalType": "uint32",
          "name": "eid",
          "type": "uint32"
        },
        {
          "indexed": false,
          "internalType": "bytes32",
          "name": "peer",
          "type": "bytes32"
        }
      ],
      "name": "PeerSet",
      "type": "event"
    },
    {
      "anonymous": false,
      "inputs": [
        {
          "indexed": false,
          "internalType": "address",
          "name": "preCrimeAddress",
          "type": "address"
        }
      ],
      "name": "PreCrimeSet",
      "type": "event"
    },
    {
      "anonymous": false,
      "inputs": [
        {
          "indexed": true,
          "internalType": "uint256",
          "name": "oldLimit",
          "type": "uint256"
        },
        {
          "indexed": true,
          "internalType": "uint256",
          "name": "newLimit",
          "type": "uint256"
        }
      ],
      "name": "TokenLimitSet",
      "type": "event"
    },
    {
      "anonymous": false,
      "inputs": [
        {
          "indexed": true,
          "internalType": "address",
          "name": "from",
          "type": "address"
        },
        {
          "indexed": true,
          "internalType": "address",
          "name": "to",
          "type": "address"
        },
        {
          "indexed": true,
          "internalType": "uint256",
          "name": "tokenId",
          "type": "uint256"
        }
      ],
      "name": "Transfer",
      "type": "event"
    },
    {
      "inputs": [],
      "name": "SEND",
      "outputs": [
        {
          "internalType": "uint16",
          "name": "",
          "type": "uint16"
        }
      ],
      "stateMutability": "view",
      "type": "function"
    },
    {
      "inputs": [],
      "name": "SEND_AND_COMPOSE",
      "outputs": [
        {
          "internalType": "uint16",
          "name": "",
          "type": "uint16"
        }
      ],
      "stateMutability": "view",
      "type": "function"
    },
    {
      "inputs": [
        {
          "components": [
            {
              "internalType": "uint32",
              "name": "srcEid",
              "type": "uint32"
            },
            {
              "internalType": "bytes32",
              "name": "sender",
              "type": "bytes32"
            },
            {
              "internalType": "uint64",
              "name": "nonce",
              "type": "uint64"
            }
          ],
          "internalType": "struct Origin",
          "name": "origin",
          "type": "tuple"
        }
      ],
      "name": "allowInitializePath",
      "outputs": [
        {
          "internalType": "bool",
          "name": "",
          "type": "bool"
        }
      ],
      "stateMutability": "view",
      "type": "function"
    },
    {
      "inputs": [],
      "name": "approvalRequired",
      "outputs": [
        {
          "internalType": "bool",
          "name": "",
          "type": "bool"
        }
      ],
      "stateMutability": "pure",
      "type": "function"
    },
    {
      "inputs": [
        {
          "internalType": "address",
          "name": "to",
          "type": "address"
        },
        {
          "internalType": "uint256",
          "name": "tokenId",
          "type": "uint256"
        }
      ],
      "name": "approve",
      "outputs": [],
      "stateMutability": "nonpayable",
      "type": "function"
    },
    {
      "inputs": [
        {
          "internalType": "address",
          "name": "owner",
          "type": "address"
        }
      ],
      "name": "balanceOf",
      "outputs": [
        {
          "internalType": "uint256",
          "name": "",
          "type": "uint256"
        }
      ],
      "stateMutability": "view",
      "type": "function"
    },
    {
      "inputs": [
        {
          "internalType": "uint32",
          "name": "_eid",
          "type": "uint32"
        },
        {
          "internalType": "uint16",
          "name": "_msgType",
          "type": "uint16"
        },
        {
          "internalType": "bytes",
          "name": "_extraOptions",
          "type": "bytes"
        }
      ],
      "name": "combineOptions",
      "outputs": [
        {
          "internalType": "bytes",
          "name": "",
          "type": "bytes"
        }
      ],
      "stateMutability": "view",
      "type": "function"
    },
    {
      "inputs": [],
      "name": "destinationVault",
      "outputs": [
        {
          "internalType": "address",
          "name": "",
          "type": "address"
        }
      ],
      "stateMutability": "view",
      "type": "function"
    },
    {
      "inputs": [],
      "name": "endpoint",
      "outputs": [
        {
          "internalType": "contract ILayerZeroEndpointV2",
          "name": "",
          "type": "address"
        }
      ],
      "stateMutability": "view",
      "type": "function"
    },
    {
      "inputs": [
        {
          "internalType": "uint32",
          "name": "eid",
          "type": "uint32"
        },
        {
          "internalType": "uint16",
          "name": "msgType",
          "type": "uint16"
        }
      ],
      "name": "enforcedOptions",
      "outputs": [
        {
          "internalType": "bytes",
          "name": "enforcedOption",
          "type": "bytes"
        }
      ],
      "stateMutability": "view",
      "type": "function"
    },
    {
      "inputs": [
        {
          "internalType": "uint256",
          "name": "tokenId",
          "type": "uint256"
        }
      ],
      "name": "getApproved",
      "outputs": [
        {
          "internalType": "address",
          "name": "",
          "type": "address"
        }
      ],
      "stateMutability": "view",
      "type": "function"
    },
    {
      "inputs": [
        {
          "internalType": "address",
          "name": "owner",
          "type": "address"
        },
        {
          "internalType": "address",
          "name": "operator",
          "type": "address"
        }
      ],
      "name": "isApprovedForAll",
      "outputs": [
        {
          "internalType": "bool",
          "name": "",
          "type": "bool"
        }
      ],
      "stateMutability": "view",
      "type": "function"
    },
    {
      "inputs": [
        {
          "components": [
            {
              "internalType": "uint32",
              "name": "srcEid",
              "type": "uint32"
            },
            {
              "internalType": "bytes32",
              "name": "sender",
              "type": "bytes32"
            },
            {
              "internalType": "uint64",
              "name": "nonce",
              "type": "uint64"
            }
          ],
          "internalType": "struct Origin",
          "name": "",
          "type": "tuple"
        },
        {
          "internalType": "bytes",
          "name": "",
          "type": "bytes"
        },
        {
          "internalType": "address",
          "name": "_sender",
          "type": "address"
        }
      ],
      "name": "isComposeMsgSender",
      "outputs": [
        {
          "internalType": "bool",
          "name": "",
          "type": "bool"
        }
      ],
      "stateMutability": "view",
      "type": "function"
    },
    {
      "inputs": [
        {
          "internalType": "uint32",
          "name": "_eid",
          "type": "uint32"
        },
        {
          "internalType": "bytes32",
          "name": "_peer",
          "type": "bytes32"
        }
      ],
      "name": "isPeer",
      "outputs": [
        {
          "internalType": "bool",
          "name": "",
          "type": "bool"
        }
      ],
      "stateMutability": "view",
      "type": "function"
    },
    {
      "inputs": [
        {
          "components": [
            {
              "internalType": "uint32",
              "name": "srcEid",
              "type": "uint32"
            },
            {
              "internalType": "bytes32",
              "name": "sender",
              "type": "bytes32"
            },
            {
              "internalType": "uint64",
              "name": "nonce",
              "type": "uint64"
            }
          ],
          "internalType": "struct Origin",
          "name": "_origin",
          "type": "tuple"
        },
        {
          "internalType": "bytes32",
          "name": "_guid",
          "type": "bytes32"
        },
        {
          "internalType": "bytes",
          "name": "_message",
          "type": "bytes"
        },
        {
          "internalType": "address",
          "name": "_executor",
          "type": "address"
        },
        {
          "internalType": "bytes",
          "name": "_extraData",
          "type": "bytes"
        }
      ],
      "name": "lzReceive",
      "outputs": [],
      "stateMutability": "payable",
      "type": "function"
    },
    {
      "inputs": [
        {
          "components": [
            {
              "components": [
                {
                  "internalType": "uint32",
                  "name": "srcEid",
                  "type": "uint32"
                },
                {
                  "internalType": "bytes32",
                  "name": "sender",
                  "type": "bytes32"
                },
                {
                  "internalType": "uint64",
                  "name": "nonce",
                  "type": "uint64"
                }
              ],
              "internalType": "struct Origin",
              "name": "origin",
              "type": "tuple"
            },
            {
              "internalType": "uint32",
              "name": "dstEid",
              "type": "uint32"
            },
            {
              "internalType": "address",
              "name": "receiver",
              "type": "address"
            },
            {
              "internalType": "bytes32",
              "name": "guid",
              "type": "bytes32"
            },
            {
              "internalType": "uint256",
              "name": "value",
              "type": "uint256"
            },
            {
              "internalType": "address",
              "name": "executor",
              "type": "address"
            },
            {
              "internalType": "bytes",
              "name": "message",
              "type": "bytes"
            },
            {
              "internalType": "bytes",
              "name": "extraData",
              "type": "bytes"
            }
          ],
          "internalType": "struct InboundPacket[]",
          "name": "_packets",
          "type": "tuple[]"
        }
      ],
      "name": "lzReceiveAndRevert",
      "outputs": [],
      "stateMutability": "payable",
      "type": "function"
    },
    {
      "inputs": [
        {
          "components": [
            {
              "internalType": "uint32",
              "name": "srcEid",
              "type": "uint32"
            },
            {
              "internalType": "bytes32",
              "name": "sender",
              "type": "bytes32"
            },
            {
              "internalType": "uint64",
              "name": "nonce",
              "type": "uint64"
            }
          ],
          "internalType": "struct Origin",
          "name": "_origin",
          "type": "tuple"
        },
        {
          "internalType": "bytes32",
          "name": "_guid",
          "type": "bytes32"
        },
        {
          "internalType": "bytes",
          "name": "_message",
          "type": "bytes"
        },
        {
          "internalType": "address",
          "name": "_executor",
          "type": "address"
        },
        {
          "internalType": "bytes",
          "name": "_extraData",
          "type": "bytes"
        }
      ],
      "name": "lzReceiveSimulate",
      "outputs": [],
      "stateMutability": "payable",
      "type": "function"
    },
    {
      "inputs": [
        {
          "internalType": "bytes32",
          "name": "look",
          "type": "bytes32"
        },
        {
          "internalType": "string",
          "name": "uri",
          "type": "string"
        },
        {
          "internalType": "uint256",
          "name": "price",
          "type": "uint256"
        },
        {
          "internalType": "bytes",
          "name": "signature",
          "type": "bytes"
        }
      ],
      "name": "mint",
      "outputs": [],
      "stateMutability": "payable",
      "type": "function"
    },
    {
      "inputs": [],
      "name": "msgInspector",
      "outputs": [
        {
          "internalType": "address",
          "name": "",
          "type": "address"
        }
      ],
      "stateMutability": "view",
      "type": "function"
    },
    {
      "inputs": [],
      "name": "name",
      "outputs": [
        {
          "internalType": "string",
          "name": "",
          "type": "string"
        }
      ],
      "stateMutability": "view",
      "type": "function"
    },
    {
      "inputs": [
        {
          "internalType": "uint32",
          "name": "",
          "type": "uint32"
        },
        {
          "internalType": "bytes32",
          "name": "",
          "type": "bytes32"
        }
      ],
      "name": "nextNonce",
      "outputs": [
        {
          "internalType": "uint64",
          "name": "nonce",
          "type": "uint64"
        }
      ],
      "stateMutability": "view",
      "type": "function"
    },
    {
      "inputs": [],
      "name": "oApp",
      "outputs": [
        {
          "internalType": "address",
          "name": "",
          "type": "address"
        }
      ],
      "stateMutability": "view",
      "type": "function"
    },
    {
      "inputs": [],
      "name": "oAppVersion",
      "outputs": [
        {
          "internalType": "uint64",
          "name": "senderVersion",
          "type": "uint64"
        },
        {
          "internalType": "uint64",
          "name": "receiverVersion",
          "type": "uint64"
        }
      ],
      "stateMutability": "pure",
      "type": "function"
    },
    {
      "inputs": [],
      "name": "onftVersion",
      "outputs": [
        {
          "internalType": "bytes4",
          "name": "interfaceId",
          "type": "bytes4"
        },
        {
          "internalType": "uint64",
          "name": "version",
          "type": "uint64"
        }
      ],
      "stateMutability": "pure",
      "type": "function"
    },
    {
      "inputs": [],
      "name": "owner",
      "outputs": [
        {
          "internalType": "address",
          "name": "",
          "type": "address"
        }
      ],
      "stateMutability": "view",
      "type": "function"
    },
    {
      "inputs": [
        {
          "internalType": "uint256",
          "name": "tokenId",
          "type": "uint256"
        }
      ],
      "name": "ownerOf",
      "outputs": [
        {
          "internalType": "address",
          "name": "",
          "type": "address"
        }
      ],
      "stateMutability": "view",
      "type": "function"
    },
    {
      "inputs": [
        {
          "internalType": "uint32",
          "name": "eid",
          "type": "uint32"
        }
      ],
      "name": "peers",
      "outputs": [
        {
          "internalType": "bytes32",
          "name": "peer",
          "type": "bytes32"
        }
      ],
      "stateMutability": "view",
      "type": "function"
    },
    {
      "inputs": [],
      "name": "preCrime",
      "outputs": [
        {
          "internalType": "address",
          "name": "",
          "type": "address"
        }
      ],
      "stateMutability": "view",
      "type": "function"
    },
    {
      "inputs": [
        {
          "components": [
            {
              "internalType": "uint32",
              "name": "dstEid",
              "type": "uint32"
            },
            {
              "internalType": "bytes32",
              "name": "to",
              "type": "bytes32"
            },
            {
              "internalType": "uint256",
              "name": "tokenId",
              "type": "uint256"
            },
            {
              "internalType": "bytes",
              "name": "extraOptions",
              "type": "bytes"
            },
            {
              "internalType": "bytes",
              "name": "composeMsg",
              "type": "bytes"
            },
            {
              "internalType": "bytes",
              "name": "onftCmd",
              "type": "bytes"
            }
          ],
          "internalType": "struct SendParam",
          "name": "_sendParam",
          "type": "tuple"
        },
        {
          "internalType": "bool",
          "name": "_payInLzToken",
          "type": "bool"
        }
      ],
      "name": "quoteSend",
      "outputs": [
        {
          "components": [
            {
              "internalType": "uint256",
              "name": "nativeFee",
              "type": "uint256"
            },
            {
              "internalType": "uint256",
              "name": "lzTokenFee",
              "type": "uint256"
            }
          ],
          "internalType": "struct MessagingFee",
          "name": "msgFee",
          "type": "tuple"
        }
      ],
      "stateMutability": "view",
      "type": "function"
    },
    {
      "inputs": [],
      "name": "renounceOwnership",
      "outputs": [],
      "stateMutability": "nonpayable",
      "type": "function"
    },
    {
      "inputs": [
        {
          "internalType": "address",
          "name": "from",
          "type": "address"
        },
        {
          "internalType": "address",
          "name": "to",
          "type": "address"
        },
        {
          "internalType": "uint256",
          "name": "tokenId",
          "type": "uint256"
        }
      ],
      "name": "safeTransferFrom",
      "outputs": [],
      "stateMutability": "nonpayable",
      "type": "function"
    },
    {
      "inputs": [
        {
          "internalType": "address",
          "name": "from",
          "type": "address"
        },
        {
          "internalType": "address",
          "name": "to",
          "type": "address"
        },
        {
          "internalType": "uint256",
          "name": "tokenId",
          "type": "uint256"
        },
        {
          "internalType": "bytes",
          "name": "data",
          "type": "bytes"
        }
      ],
      "name": "safeTransferFrom",
      "outputs": [],
      "stateMutability": "nonpayable",
      "type": "function"
    },
    {
      "inputs": [
        {
          "components": [
            {
              "internalType": "uint32",
              "name": "dstEid",
              "type": "uint32"
            },
            {
              "internalType": "bytes32",
              "name": "to",
              "type": "bytes32"
            },
            {
              "internalType": "uint256",
              "name": "tokenId",
              "type": "uint256"
            },
            {
              "internalType": "bytes",
              "name": "extraOptions",
              "type": "bytes"
            },
            {
              "internalType": "bytes",
              "name": "composeMsg",
              "type": "bytes"
            },
            {
              "internalType": "bytes",
              "name": "onftCmd",
              "type": "bytes"
            }
          ],
          "internalType": "struct SendParam",
          "name": "_sendParam",
          "type": "tuple"
        },
        {
          "components": [
            {
              "internalType": "uint256",
              "name": "nativeFee",
              "type": "uint256"
            },
            {
              "internalType": "uint256",
              "name": "lzTokenFee",
              "type": "uint256"
            }
          ],
          "internalType": "struct MessagingFee",
          "name": "_fee",
          "type": "tuple"
        },
        {
          "internalType": "address",
          "name": "_refundAddress",
          "type": "address"
        }
      ],
      "name": "send",
      "outputs": [
        {
          "components": [
            {
              "internalType": "bytes32",
              "name": "guid",
              "type": "bytes32"
            },
            {
              "internalType": "uint64",
              "name": "nonce",
              "type": "uint64"
            },
            {
              "components": [
                {
                  "internalType": "uint256",
                  "name": "nativeFee",
                  "type": "uint256"
                },
                {
                  "internalType": "uint256",
                  "name": "lzTokenFee",
                  "type": "uint256"
                }
              ],
              "internalType": "struct MessagingFee",
              "name": "fee",
              "type": "tuple"
            }
          ],
          "internalType": "struct MessagingReceipt",
          "name": "msgReceipt",
          "type": "tuple"
        }
      ],
      "stateMutability": "payable",
      "type": "function"
    },
    {
      "inputs": [
        {
          "internalType": "address",
          "name": "operator",
          "type": "address"
        },
        {
          "internalType": "bool",
          "name": "approved",
          "type": "bool"
        }
      ],
      "name": "setApprovalForAll",
      "outputs": [],
      "stateMutability": "nonpayable",
      "type": "function"
    },
    {
      "inputs": [
        {
          "internalType": "address",
          "name": "signer",
          "type": "address"
        }
      ],
      "name": "setAuthorizedSigner",
      "outputs": [],
      "stateMutability": "nonpayable",
      "type": "function"
    },
    {
      "inputs": [
        {
          "internalType": "string",
          "name": "_baseTokenURI",
          "type": "string"
        }
      ],
      "name": "setBaseURI",
      "outputs": [],
      "stateMutability": "nonpayable",
      "type": "function"
    },
    {
      "inputs": [
        {
          "internalType": "address",
          "name": "_delegate",
          "type": "address"
        }
      ],
      "name": "setDelegate",
      "outputs": [],
      "stateMutability": "nonpayable",
      "type": "function"
    },
    {
      "inputs": [
        {
          "internalType": "address",
          "name": "newVault",
          "type": "address"
        }
      ],
      "name": "setDestinationVault",
      "outputs": [],
      "stateMutability": "nonpayable",
      "type": "function"
    },
    {
      "inputs": [
        {
          "components": [
            {
              "internalType": "uint32",
              "name": "eid",
              "type": "uint32"
            },
            {
              "internalType": "uint16",
              "name": "msgType",
              "type": "uint16"
            },
            {
              "internalType": "bytes",
              "name": "options",
              "type": "bytes"
            }
          ],
          "internalType": "struct EnforcedOptionParam[]",
          "name": "_enforcedOptions",
          "type": "tuple[]"
        }
      ],
      "name": "setEnforcedOptions",
      "outputs": [],
      "stateMutability": "nonpayable",
      "type": "function"
    },
    {
      "inputs": [
        {
          "internalType": "address",
          "name": "_msgInspector",
          "type": "address"
        }
      ],
      "name": "setMsgInspector",
      "outputs": [],
      "stateMutability": "nonpayable",
      "type": "function"
    },
    {
      "inputs": [
        {
          "internalType": "uint32",
          "name": "_eid",
          "type": "uint32"
        },
        {
          "internalType": "bytes32",
          "name": "_peer",
          "type": "bytes32"
        }
      ],
      "name": "setPeer",
      "outputs": [],
      "stateMutability": "nonpayable",
      "type": "function"
    },
    {
      "inputs": [
        {
          "internalType": "address",
          "name": "_preCrime",
          "type": "address"
        }
      ],
      "name": "setPreCrime",
      "outputs": [],
      "stateMutability": "nonpayable",
      "type": "function"
    },
    {
      "inputs": [
        {
          "internalType": "uint256",
          "name": "newLimit",
          "type": "uint256"
        }
      ],
      "name": "setTokenLimit",
      "outputs": [],
      "stateMutability": "nonpayable",
      "type": "function"
    },
    {
      "inputs": [
        {
          "internalType": "bytes4",
          "name": "interfaceId",
          "type": "bytes4"
        }
      ],
      "name": "supportsInterface",
      "outputs": [
        {
          "internalType": "bool",
          "name": "",
          "type": "bool"
        }
      ],
      "stateMutability": "view",
      "type": "function"
    },
    {
      "inputs": [],
      "name": "symbol",
      "outputs": [
        {
          "internalType": "string",
          "name": "",
          "type": "string"
        }
      ],
      "stateMutability": "view",
      "type": "function"
    },
    {
      "inputs": [],
      "name": "token",
      "outputs": [
        {
          "internalType": "address",
          "name": "",
          "type": "address"
        }
      ],
      "stateMutability": "view",
      "type": "function"
    },
    {
      "inputs": [],
      "name": "tokenId",
      "outputs": [
        {
          "internalType": "uint256",
          "name": "",
          "type": "uint256"
        }
      ],
      "stateMutability": "view",
      "type": "function"
    },
    {
      "inputs": [],
      "name": "tokenLimit",
      "outputs": [
        {
          "internalType": "uint256",
          "name": "",
          "type": "uint256"
        }
      ],
      "stateMutability": "view",
      "type": "function"
    },
    {
      "inputs": [
        {
          "internalType": "uint256",
          "name": "id",
          "type": "uint256"
        }
      ],
      "name": "tokenURI",
      "outputs": [
        {
          "internalType": "string",
          "name": "",
          "type": "string"
        }
      ],
      "stateMutability": "view",
      "type": "function"
    },
    {
      "inputs": [
        {
          "internalType": "uint256",
          "name": "",
          "type": "uint256"
        }
      ],
      "name": "tokenURIs",
      "outputs": [
        {
          "internalType": "string",
          "name": "",
          "type": "string"
        }
      ],
      "stateMutability": "view",
      "type": "function"
    },
    {
      "inputs": [
        {
          "internalType": "address",
          "name": "",
          "type": "address"
        },
        {
          "internalType": "address",
          "name": "",
          "type": "address"
        },
        {
          "internalType": "uint256",
          "name": "",
          "type": "uint256"
        }
      ],
      "name": "transferFrom",
      "outputs": [],
      "stateMutability": "nonpayable",
      "type": "function"
    },
    {
      "inputs": [
        {
          "internalType": "address",
          "name": "newOwner",
          "type": "address"
        }
      ],
      "name": "transferOwnership",
      "outputs": [],
      "stateMutability": "nonpayable",
      "type": "function"
    },
    {
      "inputs": [
        {
          "internalType": "bytes32",
          "name": "",
          "type": "bytes32"
        }
      ],
      "name": "uniqueLooks",
      "outputs": [
        {
          "internalType": "uint256",
          "name": "",
          "type": "uint256"
        }
      ],
      "stateMutability": "view",
      "type": "function"
    }
  ],
  "bytecode": "0x60a06040523480156200001157600080fd5b50604051620042da380380620042da8339810160408190526200003491620002c0565b878786868383838381818181806001600160a01b0381166200007057604051631e4fbdf760e01b81526000600482015260240160405180910390fd5b6200007b816200018b565b506001600160a01b038083166080528116620000aa57604051632d618d8160e21b815260040160405180910390fd5b60805160405163ca5eb5e160e01b81526001600160a01b0383811660048301529091169063ca5eb5e190602401600060405180830381600087803b158015620000f257600080fd5b505af115801562000107573d6000803e3d6000fd5b50505050505050505050816005908162000122919062000437565b50600662000131828262000437565b50505060118a90555050600f80546001600160a01b038088166001600160a01b031992831617909255600e80549287169290911691909117905550600b90506200017c828262000437565b50505050505050505062000503565b600080546001600160a01b038381166001600160a01b0319831681178455604051919092169283917f8be0079c531659141344cd1fd0a4f28419497f9722a3daafe3b4186f6b6457e09190a35050565b634e487b7160e01b600052604160045260246000fd5b600082601f8301126200020357600080fd5b81516001600160401b0380821115620002205762000220620001db565b604051601f8301601f19908116603f011681019082821181831017156200024b576200024b620001db565b81604052838152602092508660208588010111156200026957600080fd5b600091505b838210156200028d57858201830151818301840152908201906200026e565b6000602085830101528094505050505092915050565b80516001600160a01b0381168114620002bb57600080fd5b919050565b600080600080600080600080610100898b031215620002de57600080fd5b88516001600160401b0380821115620002f657600080fd5b620003048c838d01620001f1565b995060208b01519150808211156200031b57600080fd5b620003298c838d01620001f1565b985060408b015197506200034060608c01620002a3565b96506200035060808c01620002a3565b95506200036060a08c01620002a3565b94506200037060c08c01620002a3565b935060e08b01519150808211156200038757600080fd5b50620003968b828c01620001f1565b9150509295985092959890939650565b600181811c90821680620003bb57607f821691505b602082108103620003dc57634e487b7160e01b600052602260045260246000fd5b50919050565b601f82111562000432576000816000526020600020601f850160051c810160208610156200040d5750805b601f850160051c820191505b818110156200042e5782815560010162000419565b5050505b505050565b81516001600160401b03811115620004535762000453620001db565b6200046b81620004648454620003a6565b84620003e2565b602080601f831160018114620004a357600084156200048a5750858301515b600019600386901b1c1916600185901b1785556200042e565b600085815260208120601f198616915b82811015620004d457888601518255948401946001909101908401620004b3565b5085821015620004f35787850151600019600388901b60f8161c191681555b5050505050600190811b01905550565b608051613d8a62000550600039600081816105a301528181610af701528181611410015281816116ff015281816119a301528181612091015281816123e001526124990152613d8a6000f3fe60806040526004361061031a5760003560e01c8063861ab248116101ab578063bb0b6a53116100f7578063d045a0dc11610095578063e985e9c51161006f578063e985e9c514610979578063f2fde38b14610999578063fc0c546a146104f1578063ff7bd03d146109b957600080fd5b8063d045a0dc14610926578063d279b0ca14610939578063d42438851461095957600080fd5b8063c0e68fec116100d1578063c0e68fec14610899578063c6414e7b146108b9578063c87b56dd146108e6578063ca5eb5e11461090657600080fd5b8063bb0b6a5314610839578063bc70b35414610866578063bd815db01461088657600080fd5b8063a02f079e11610164578063b21a33e41161013e578063b21a33e4146107c4578063b731ea0a146107d9578063b88d4fde146107f9578063b98bd0701461081957600080fd5b8063a02f079e14610769578063a22cb4651461077c578063a72f5dd81461079c57600080fd5b8063861ab248146106b55780638da5cb5b146106d557806395d89b41146106f357806398c55a2a146107085780639a7699a4146107355780639f68b9641461075557600080fd5b806352ae28791161026a5780636352211e1161022357806370a08231116101fd57806370a0823114610625578063715018a6146106455780637d25a05e1461065a57806382413eac1461069557600080fd5b80636352211e146105c55780636c8b703f146105e55780636fc1b31e1461060557600080fd5b806352ae2879146104f15780635535d4611461050457806355f804b31461052457806356c7627e146105445780635a0dfe4d1461055a5780635e280f111461059157600080fd5b806317442b70116102d757806321eb730b116102b157806321eb730b1461047157806323b872dd146104915780633400288b146104b157806342842e0e146104d157600080fd5b806317442b701461040357806317d70f7c146104255780631f5e13341461044957600080fd5b806301ffc9a71461031f57806306fdde0314610354578063081812fc14610376578063095ea7b3146103ae578063111ecdad146103d057806313137d65146103f0575b600080fd5b34801561032b57600080fd5b5061033f61033a366004612b75565b6109d9565b60405190151581526020015b60405180910390f35b34801561036057600080fd5b50610369610a2b565b60405161034b9190612be2565b34801561038257600080fd5b50610396610391366004612bf5565b610abd565b6040516001600160a01b03909116815260200161034b565b3480156103ba57600080fd5b506103ce6103c9366004612c23565b610ae6565b005b3480156103dc57600080fd5b50600454610396906001600160a01b031681565b6103ce6103fe366004612caf565b610af5565b34801561040f57600080fd5b506040805160018152600260208201520161034b565b34801561043157600080fd5b5061043b60105481565b60405190815260200161034b565b34801561045557600080fd5b5061045e600181565b60405161ffff909116815260200161034b565b61048461047f366004612d60565b610bb5565b60405161034b9190612dcd565b34801561049d57600080fd5b506103ce6104ac366004612e0f565b610cb8565b3480156104bd57600080fd5b506103ce6104cc366004612e69565b610cd1565b3480156104dd57600080fd5b506103ce6104ec366004612e0f565b610ce3565b3480156104fd57600080fd5b5030610396565b34801561051057600080fd5b5061036961051f366004612e97565b610d03565b34801561053057600080fd5b506103ce61053f366004612eca565b610da8565b34801561055057600080fd5b5061043b60115481565b34801561056657600080fd5b5061033f610575366004612e69565b63ffffffff919091166000908152600160205260409020541490565b34801561059d57600080fd5b506103967f000000000000000000000000000000000000000000000000000000000000000081565b3480156105d157600080fd5b506103966105e0366004612bf5565b610dfa565b3480156105f157600080fd5b50610369610600366004612bf5565b610e05565b34801561061157600080fd5b506103ce610620366004612f0b565b610e1e565b34801561063157600080fd5b5061043b610640366004612f0b565b610e7b565b34801561065157600080fd5b506103ce610ec3565b34801561066657600080fd5b5061067d610675366004612e69565b600092915050565b6040516001600160401b03909116815260200161034b565b3480156106a157600080fd5b5061033f6106b0366004612f28565b610ed7565b3480156106c157600080fd5b506103ce6106d0366004612f0b565b610eec565b3480156106e157600080fd5b506000546001600160a01b0316610396565b3480156106ff57600080fd5b50610369610f46565b34801561071457600080fd5b5061043b610723366004612bf5565b600c6020526000908152604090205481565b34801561074157600080fd5b50600f54610396906001600160a01b031681565b34801561076157600080fd5b50600061033f565b6103ce610777366004613083565b610f55565b34801561078857600080fd5b506103ce610797366004613125565b610f7f565b3480156107a857600080fd5b50604080516311f0c6d360e11b8152600160208201520161034b565b3480156107d057600080fd5b5061045e600281565b3480156107e557600080fd5b50600254610396906001600160a01b031681565b34801561080557600080fd5b506103ce61081436600461317e565b610f8a565b34801561082557600080fd5b506103ce61083436600461322d565b610fa8565b34801561084557600080fd5b5061043b610854366004613262565b60016020526000908152604090205481565b34801561087257600080fd5b5061036961088136600461327d565b610fc2565b6103ce61089436600461322d565b61116a565b3480156108a557600080fd5b506103ce6108b4366004612bf5565b6112f4565b3480156108c557600080fd5b506108d96108d43660046132dd565b611331565b60405161034b9190613323565b3480156108f257600080fd5b50610369610901366004612bf5565b611377565b34801561091257600080fd5b506103ce610921366004612f0b565b6113e9565b6103ce610934366004612caf565b61146f565b34801561094557600080fd5b506103ce610954366004612f0b565b61149e565b34801561096557600080fd5b506103ce610974366004612f0b565b6114f8565b34801561098557600080fd5b5061033f61099436600461333a565b61154e565b3480156109a557600080fd5b506103ce6109b4366004612f0b565b61157c565b3480156109c557600080fd5b5061033f6109d4366004613368565b6115ba565b60006001600160e01b031982166380ac58cd60e01b1480610a0a57506001600160e01b03198216635b5e139f60e01b145b80610a2557506301ffc9a760e01b6001600160e01b03198316145b92915050565b606060058054610a3a90613384565b80601f0160208091040260200160405190810160405280929190818152602001828054610a6690613384565b8015610ab35780601f10610a8857610100808354040283529160200191610ab3565b820191906000526020600020905b815481529060010190602001808311610a9657829003601f168201915b5050505050905090565b6000610ac8826115f0565b506000828152600960205260409020546001600160a01b0316610a25565b610af1828233611629565b5050565b7f00000000000000000000000000000000000000000000000000000000000000006001600160a01b03163314610b45576040516391ac5e4f60e01b81523360048201526024015b60405180910390fd5b60208701803590610b5f90610b5a908a613262565b611636565b14610b9d57610b716020880188613262565b60405163309afaf360e21b815263ffffffff909116600482015260208801356024820152604401610b3c565b610bac87878787878787611672565b50505050505050565b610bbd612b18565b60208401356000610bd16040870135610dfa565b9050806001600160a01b0316826001600160a01b031614610c055760405163185024ef60e31b815260040160405180910390fd5b610c20336040880135610c1b60208a018a613262565b6117d1565b600080610c2c88611831565b9092509050610c58610c4160208a018a613262565b8383610c52368c90038c018c6133b8565b8a611970565b805190955033907f986156872b2ee0022b9585231dbbfde457f87f8a16b6c45e1a81c54c4ad8351f610c8d60208c018c613262565b6040805163ffffffff9092168252808d013560208301520160405180910390a3505050509392505050565b60405163185024ef60e31b815260040160405180910390fd5b610cd9611a7b565b610af18282611aa8565b610cfe83838360405180602001604052806000815250610f8a565b505050565b600360209081526000928352604080842090915290825290208054610d2790613384565b80601f0160208091040260200160405190810160405280929190818152602001828054610d5390613384565b8015610da05780601f10610d7557610100808354040283529160200191610da0565b820191906000526020600020905b815481529060010190602001808311610d8357829003601f168201915b505050505081565b610db0611a7b565b600b610dbd828483613432565b507ff9c7803e94e0d3c02900d8a90893a6d5e90dd04d32a4cfe825520f82bf9f32f6600b604051610dee91906134f1565b60405180910390a15050565b6000610a25826115f0565b600d6020526000908152604090208054610d2790613384565b610e26611a7b565b600480546001600160a01b0319166001600160a01b0383169081179091556040519081527ff0be4f1e87349231d80c36b33f9e8639658eeaf474014dee15a3e6a4d4414197906020015b60405180910390a150565b60006001600160a01b038216610ea7576040516322718ad960e21b815260006004820152602401610b3c565b506001600160a01b031660009081526008602052604090205490565b610ecb611a7b565b610ed56000611af6565b565b6001600160a01b03811630145b949350505050565b610ef4611a7b565b600f80546001600160a01b038381166001600160a01b0319831681179093556040519116919082907f9e2d3ed415d34da100911f5b4fb5181e942551a7f84f1963cd70e57252ceb64290600090a35050565b606060068054610a3a90613384565b33610f638187868686611b46565b610f6c84611be3565b610f77818688611c7e565b505050505050565b610af1338383611d87565b610f95848484610cb8565b610fa23385858585611e26565b50505050565b610fb0611a7b565b610af1610fbd8284613581565b611f48565b63ffffffff8416600090815260036020908152604080832061ffff87168452909152812080546060929190610ff690613384565b80601f016020809104026020016040519081016040528092919081815260200182805461102290613384565b801561106f5780601f106110445761010080835404028352916020019161106f565b820191906000526020600020905b81548152906001019060200180831161105257829003601f168201915b5050505050905080516000036110bf5783838080601f016020809104026020016040519081016040528093929190818152602001838380828437600092019190915250929450610ee49350505050565b60008390036110cf579050610ee4565b6002831061114d5761111684848080601f01602080910402602001604051908101604052809392919081815260200183838082843760009201919091525061204f92505050565b806111248460028188613656565b60405160200161113693929190613680565b604051602081830303815290604052915050610ee4565b8383604051639a6d49cd60e01b8152600401610b3c9291906136d1565b60005b818110156112735736838383818110611188576111886136e5565b905060200281019061119a91906136fb565b90506111cd6111ac6020830183613262565b602083013563ffffffff919091166000908152600160205260409020541490565b6111d7575061126b565b3063d045a0dc60c08301358360a08101356111f661010083018361371c565b611207610100890160e08a01612f0b565b6112156101208a018a61371c565b6040518963ffffffff1660e01b81526004016112379796959493929190613777565b6000604051808303818588803b15801561125057600080fd5b505af1158015611264573d6000803e3d6000fd5b5050505050505b60010161116d565b50336001600160a01b0316638e9e70996040518163ffffffff1660e01b8152600401600060405180830381865afa1580156112b2573d6000803e3d6000fd5b505050506040513d6000823e601f3d908101601f191682016040526112da91908101906137fd565b604051638351eea760e01b8152600401610b3c9190612be2565b6112fc611a7b565b6011819055604051819081907f7df1edf8d5e7998c35b686a43cf0f4b6d269eeca013436542d583d06626e089890600090a350565b604080518082019091526000808252602082015260008061135185611831565b909250905061136e6113666020870187613262565b83838761207b565b95945050505050565b6060611382826115f0565b50600061138d612153565b905060008151116113ad57604051806020016040528060008152506113e2565b80600d60008581526020019081526020016000206040516020016113d292919061386a565b6040516020818303038152906040525b9392505050565b6113f1611a7b565b60405163ca5eb5e160e01b81526001600160a01b0382811660048301527f0000000000000000000000000000000000000000000000000000000000000000169063ca5eb5e190602401600060405180830381600087803b15801561145457600080fd5b505af1158015611468573d6000803e3d6000fd5b5050505050565b33301461148f5760405163029a949d60e31b815260040160405180910390fd5b610bac87878787878787610b9d565b6114a6611a7b565b600e80546001600160a01b038381166001600160a01b0319831681179093556040519116919082907f3b52453507047b8a718e69742f2c7a3eeb0fb33a1c714c568d7a875ff5476c9090600090a35050565b611500611a7b565b600280546001600160a01b0319166001600160a01b0383169081179091556040519081527fd48d879cef83a1c0bdda516f27b13ddb1b3f8bbac1c9e1511bb2a659c242776090602001610e70565b6001600160a01b039182166000908152600a6020908152604080832093909416825291909152205460ff1690565b611584611a7b565b6001600160a01b0381166115ae57604051631e4fbdf760e01b815260006004820152602401610b3c565b6115b781611af6565b50565b60006020820180359060019083906115d29086613262565b63ffffffff1681526020810191909152604001600020541492915050565b6000818152600760205260408120546001600160a01b031680610a2557604051637e27328960e01b815260048101849052602401610b3c565b610cfe8383836001612162565b63ffffffff811660009081526001602052604081205480610a255760405163f6ff4fb760e01b815263ffffffff84166004820152602401610b3c565b60006116846116818787612268565b90565b905060006116928787612280565b90506116ab82826116a660208d018d613262565b612290565b604086111561176f5760006116e56116c960608c0160408d016138f9565b6116d660208d018d613262565b6116e08b8b61229a565b6122e5565b604051633e5ac80960e11b81529091506001600160a01b037f00000000000000000000000000000000000000000000000000000000000000001690637cb590129061173b9086908d906000908790600401613916565b600060405180830381600087803b15801561175557600080fd5b505af1158015611769573d6000803e3d6000fd5b50505050505b6001600160a01b038216887f7883fa30ea56937810e36990b0bbb8d629d0cf59f68baf8431ff657cebe7eef56117a860208d018d613262565b6040805163ffffffff9092168252602082018690520160405180910390a3505050505050505050565b6117da82610dfa565b6001600160a01b0316836001600160a01b03161461182857826117fc83610dfa565b604051634342715b60e11b81526001600160a01b03928316600482015291166024820152604401610b3c565b610cfe82612314565b606080602083013561185657604051631e4ec46b60e01b815260040160405180910390fd5b60006118ac60208501356040860135611872608088018861371c565b8080601f01602080910402602001604051908101604052809392919081815260200183838082843760009201919091525061234f92505050565b90935090506000816118bf5760016118c2565b60025b90506118e26118d46020870187613262565b82610881606089018961371c565b6004549093506001600160a01b031680156119685760405163043a78eb60e01b81526001600160a01b0382169063043a78eb906119259088908890600401613951565b602060405180830381865afa158015611942573d6000803e3d6000fd5b505050506040513d601f19601f820116820180604052508101906119669190613976565b505b505050915091565b611978612b18565b600061198784600001516123b4565b6020850151909150156119a1576119a184602001516123dc565b7f00000000000000000000000000000000000000000000000000000000000000006001600160a01b0316632637a450826040518060a001604052808b63ffffffff1681526020016119f18c611636565b81526020018a815260200189815260200160008960200151111515815250866040518463ffffffff1660e01b8152600401611a2d929190613993565b60806040518083038185885af1158015611a4b573d6000803e3d6000fd5b50505050506040513d601f19601f82011682018060405250810190611a709190613a3c565b979650505050505050565b6000546001600160a01b03163314610ed55760405163118cdaa760e01b8152336004820152602401610b3c565b63ffffffff8216600081815260016020908152604091829020849055815192835282018390527f238399d427b947898edb290f5ff0f9109849b1c3ba196a42e35f00c50a54b98b9101610dee565b600080546001600160a01b038381166001600160a01b0319831681178455604051919092169283917f8be0079c531659141344cd1fd0a4f28419497f9722a3daafe3b4186f6b6457e09190a35050565b6040805160038082526080820190925260009160208201606080368337019050509050856001600160a01b031660001b81600081518110611b8957611b896136e5565b6020026020010181815250508481600181518110611ba957611ba96136e5565b6020026020010181815250508360001b81600281518110611bcc57611bcc6136e5565b602002602001018181525050610f778184846124be565b80156115b75780341015611c0a5760405163cd1c886760e01b815260040160405180910390fd5b600f546040516000916001600160a01b03169034908381818185875af1925050503d8060008114611c57576040519150601f19603f3d011682016040523d82523d6000602084013e611c5c565b606091505b5050905080610af15760405163cc7744d560e01b815260040160405180910390fd5b6000818152600c6020526040902054819015611cad57604051634c1f741560e01b815260040160405180910390fd5b6000611cb885610e7b565b1115611cd757604051631bbdf5c560e31b815260040160405180910390fd5b60108054906000611ce783613a86565b91905055506011546010541115611d115760405163303b682f60e01b815260040160405180910390fd5b6010546000838152600c60209081526040808320849055928252600d905220611d3a8482613aad565b50611d47846010546125f7565b81601054856001600160a01b03167fc263b302aec62d29105026245f19e16f8e0137066ccd4a8bd941f716bd4096bb60405160405180910390a450505050565b6001600160a01b038216611db957604051630b61174360e31b81526001600160a01b0383166004820152602401610b3c565b6001600160a01b038381166000818152600a6020908152604080832094871680845294825291829020805460ff191686151590811790915591519182527f17307eab39ab6107e8899845ad3d59bd9653f200f220920489ca2b5937696c31910160405180910390a3505050565b6001600160a01b0383163b1561146857604051630a85bd0160e11b81526001600160a01b0384169063150b7a0290611e68908890889087908790600401613b6c565b6020604051808303816000875af1925050508015611ea3575060408051601f3d908101601f19168201909252611ea091810190613b9f565b60015b611f0c573d808015611ed1576040519150601f19603f3d011682016040523d82523d6000602084013e611ed6565b606091505b508051600003611f0457604051633250574960e11b81526001600160a01b0385166004820152602401610b3c565b805181602001fd5b6001600160e01b03198116630a85bd0160e11b14610f7757604051633250574960e11b81526001600160a01b0385166004820152602401610b3c565b60005b815181101561201f57611f7a828281518110611f6957611f696136e5565b60200260200101516040015161204f565b818181518110611f8c57611f8c6136e5565b60200260200101516040015160036000848481518110611fae57611fae6136e5565b60200260200101516000015163ffffffff1663ffffffff1681526020019081526020016000206000848481518110611fe857611fe86136e5565b60200260200101516020015161ffff1661ffff16815260200190815260200160002090816120169190613aad565b50600101611f4b565b507fbe4864a8e820971c0247f5992e2da559595f7bf076a21cb5928d443d2a13b67481604051610e709190613bbc565b600281015161ffff8116600314610af15781604051639a6d49cd60e01b8152600401610b3c9190612be2565b60408051808201909152600080825260208201527f00000000000000000000000000000000000000000000000000000000000000006001600160a01b031663ddc28c586040518060a001604052808863ffffffff1681526020016120de89611636565b8152602001878152602001868152602001851515815250306040518363ffffffff1660e01b8152600401612113929190613993565b6040805180830381865afa15801561212f573d6000803e3d6000fd5b505050506040513d601f19601f8201168201806040525081019061136e9190613c47565b6060600b8054610a3a90613384565b808061217657506001600160a01b03821615155b15612238576000612186846115f0565b90506001600160a01b038316158015906121b25750826001600160a01b0316816001600160a01b031614155b80156121c557506121c3818461154e565b155b156121ee5760405163a9fbf51f60e01b81526001600160a01b0384166004820152602401610b3c565b81156122365783856001600160a01b0316826001600160a01b03167f8c5be1e5ebec7d5bd14f71427d1e84f3dd0314c0f7b2291e5b200ac8c7c3b92560405160405180910390a45b505b5050600090815260096020526040902080546001600160a01b0319166001600160a01b0392909216919091179055565b60006122776020828486613656565b6113e291613c63565b6000612277604060208486613656565b610cfe8383612611565b60606122a98260408186613656565b8080601f016020809104026020016040519081016040528093929190818152602001838380828437600092019190915250929695505050505050565b60608383836040516020016122fc93929190613c81565b60405160208183030381529060405290509392505050565b60006123236000836000612676565b90506001600160a01b038116610af157604051637e27328960e01b815260048101839052602401610b3c565b80516060901515806123835760408051602081018790529081018590526060016040516020818303038152906040526123aa565b8484338560405160200161239a9493929190613ccb565b6040516020818303038152906040525b9150935093915050565b60008134146123d8576040516304fb820960e51b8152346004820152602401610b3c565b5090565b60007f00000000000000000000000000000000000000000000000000000000000000006001600160a01b031663e4fe1d946040518163ffffffff1660e01b8152600401602060405180830381865afa15801561243c573d6000803e3d6000fd5b505050506040513d601f19601f820116820180604052508101906124609190613cff565b90506001600160a01b038116612489576040516329b99a9560e11b815260040160405180910390fd5b610af16001600160a01b038216337f00000000000000000000000000000000000000000000000000000000000000008561276f565b825160609060005b8181101561251457828682815181106124e1576124e16136e5565b60200260200101516040516020016124fa929190613d1c565b60408051601f1981840301815291905292506001016124c6565b5060008280519060200120905060008160405160200161256091907f19457468657265756d205369676e6564204d6573736167653a0a3332000000008152601c810191909152603c0190565b60405160208183030381529060405280519060200120905060006125bc87878080601f01602080910402602001604051908101604052809392919081815260200183838082843760009201919091525086939250506127c99050565b600e549091506001600160a01b038083169116146125ed57604051638baa579f60e01b815260040160405180910390fd5b5050505050505050565b610af18282604051806020016040528060008152506127f3565b6001600160a01b03821661263b57604051633250574960e11b815260006004820152602401610b3c565b600061264983836000612676565b90506001600160a01b03811615610cfe576040516339e3563760e11b815260006004820152602401610b3c565b6000828152600760205260408120546001600160a01b03908116908316156126a3576126a381848661280b565b6001600160a01b038116156126e1576126c0600085600080612162565b6001600160a01b038116600090815260086020526040902080546000190190555b6001600160a01b03851615612710576001600160a01b0385166000908152600860205260409020805460010190555b60008481526007602052604080822080546001600160a01b0319166001600160a01b0389811691821790925591518793918516917fddf252ad1be2c89b69c2b068fc378daa952ba7f163c4a11628f55a4df523b3ef91a4949350505050565b604080516001600160a01b0385811660248301528416604482015260648082018490528251808303909101815260849091019091526020810180516001600160e01b03166323b872dd60e01b179052610fa290859061286f565b6000806000806127d986866128e0565b9250925092506127e9828261292d565b5090949350505050565b6127fd8383612611565b610cfe336000858585611e26565b6128168383836129e6565b610cfe576001600160a01b03831661284457604051637e27328960e01b815260048101829052602401610b3c565b60405163177e802f60e01b81526001600160a01b038316600482015260248101829052604401610b3c565b600080602060008451602086016000885af180612892576040513d6000823e3d81fd5b50506000513d915081156128aa5780600114156128b7565b6001600160a01b0384163b155b15610fa257604051635274afe760e01b81526001600160a01b0385166004820152602401610b3c565b6000806000835160410361291a5760208401516040850151606086015160001a61290c88828585612a49565b955095509550505050612926565b50508151600091506002905b9250925092565b600082600381111561294157612941613d3e565b0361294a575050565b600182600381111561295e5761295e613d3e565b0361297c5760405163f645eedf60e01b815260040160405180910390fd5b600282600381111561299057612990613d3e565b036129b15760405163fce698f760e01b815260048101829052602401610b3c565b60038260038111156129c5576129c5613d3e565b03610af1576040516335e2f38360e21b815260048101829052602401610b3c565b60006001600160a01b03831615801590610ee45750826001600160a01b0316846001600160a01b03161480612a205750612a20848461154e565b80610ee45750506000908152600960205260409020546001600160a01b03908116911614919050565b600080807f7fffffffffffffffffffffffffffffff5d576e7357a4501ddfe92f46681b20a0841115612a845750600091506003905082612b0e565b604080516000808252602082018084528a905260ff891692820192909252606081018790526080810186905260019060a0016020604051602081039080840390855afa158015612ad8573d6000803e3d6000fd5b5050604051601f1901519150506001600160a01b038116612b0457506000925060019150829050612b0e565b9250600091508190505b9450945094915050565b60405180606001604052806000801916815260200160006001600160401b03168152602001612b5a604051806040016040528060008152602001600081525090565b905290565b6001600160e01b0319811681146115b757600080fd5b600060208284031215612b8757600080fd5b81356113e281612b5f565b60005b83811015612bad578181015183820152602001612b95565b50506000910152565b60008151808452612bce816020860160208601612b92565b601f01601f19169290920160200192915050565b6020815260006113e26020830184612bb6565b600060208284031215612c0757600080fd5b5035919050565b6001600160a01b03811681146115b757600080fd5b60008060408385031215612c3657600080fd5b8235612c4181612c0e565b946020939093013593505050565b600060608284031215612c6157600080fd5b50919050565b60008083601f840112612c7957600080fd5b5081356001600160401b03811115612c9057600080fd5b602083019150836020828501011115612ca857600080fd5b9250929050565b600080600080600080600060e0888a031215612cca57600080fd5b612cd48989612c4f565b96506060880135955060808801356001600160401b0380821115612cf757600080fd5b612d038b838c01612c67565b909750955060a08a01359150612d1882612c0e565b90935060c08901359080821115612d2e57600080fd5b50612d3b8a828b01612c67565b989b979a50959850939692959293505050565b600060c08284031215612c6157600080fd5b60008060008385036080811215612d7657600080fd5b84356001600160401b03811115612d8c57600080fd5b612d9887828801612d4e565b9450506040601f1982011215612dad57600080fd5b506020840191506060840135612dc281612c0e565b809150509250925092565b6000608082019050825182526001600160401b0360208401511660208301526040830151612e08604084018280518252602090810151910152565b5092915050565b600080600060608486031215612e2457600080fd5b8335612e2f81612c0e565b92506020840135612e3f81612c0e565b929592945050506040919091013590565b803563ffffffff81168114612e6457600080fd5b919050565b60008060408385031215612e7c57600080fd5b612c4183612e50565b803561ffff81168114612e6457600080fd5b60008060408385031215612eaa57600080fd5b612eb383612e50565b9150612ec160208401612e85565b90509250929050565b60008060208385031215612edd57600080fd5b82356001600160401b03811115612ef357600080fd5b612eff85828601612c67565b90969095509350505050565b600060208284031215612f1d57600080fd5b81356113e281612c0e565b60008060008060a08587031215612f3e57600080fd5b612f488686612c4f565b935060608501356001600160401b03811115612f6357600080fd5b612f6f87828801612c67565b9094509250506080850135612f8381612c0e565b939692955090935050565b634e487b7160e01b600052604160045260246000fd5b604080519081016001600160401b0381118282101715612fc657612fc6612f8e565b60405290565b604051606081016001600160401b0381118282101715612fc657612fc6612f8e565b604051601f8201601f191681016001600160401b038111828210171561301657613016612f8e565b604052919050565b60006001600160401b0382111561303757613037612f8e565b50601f01601f191660200190565b60006130586130538461301e565b612fee565b905082815283838301111561306c57600080fd5b828260208301376000602084830101529392505050565b60008060008060006080868803121561309b57600080fd5b8535945060208601356001600160401b03808211156130b957600080fd5b818801915088601f8301126130cd57600080fd5b6130dc89833560208501613045565b95506040880135945060608801359150808211156130f957600080fd5b5061310688828901612c67565b969995985093965092949392505050565b80151581146115b757600080fd5b6000806040838503121561313857600080fd5b823561314381612c0e565b9150602083013561315381613117565b809150509250929050565b600082601f83011261316f57600080fd5b6113e283833560208501613045565b6000806000806080858703121561319457600080fd5b843561319f81612c0e565b935060208501356131af81612c0e565b92506040850135915060608501356001600160401b038111156131d157600080fd5b6131dd8782880161315e565b91505092959194509250565b60008083601f8401126131fb57600080fd5b5081356001600160401b0381111561321257600080fd5b6020830191508360208260051b8501011115612ca857600080fd5b6000806020838503121561324057600080fd5b82356001600160401b0381111561325657600080fd5b612eff858286016131e9565b60006020828403121561327457600080fd5b6113e282612e50565b6000806000806060858703121561329357600080fd5b61329c85612e50565b93506132aa60208601612e85565b925060408501356001600160401b038111156132c557600080fd5b6132d187828801612c67565b95989497509550505050565b600080604083850312156132f057600080fd5b82356001600160401b0381111561330657600080fd5b61331285828601612d4e565b925050602083013561315381613117565b815181526020808301519082015260408101610a25565b6000806040838503121561334d57600080fd5b823561335881612c0e565b9150602083013561315381612c0e565b60006060828403121561337a57600080fd5b6113e28383612c4f565b600181811c9082168061339857607f821691505b602082108103612c6157634e487b7160e01b600052602260045260246000fd5b6000604082840312156133ca57600080fd5b6133d2612fa4565b82358152602083013560208201528091505092915050565b601f821115610cfe576000816000526020600020601f850160051c810160208610156134135750805b601f850160051c820191505b81811015610f775782815560010161341f565b6001600160401b0383111561344957613449612f8e565b61345d836134578354613384565b836133ea565b6000601f84116001811461349157600085156134795750838201355b600019600387901b1c1916600186901b178355611468565b600083815260209020601f19861690835b828110156134c257868501358255602094850194600190920191016134a2565b50868210156134df5760001960f88860031b161c19848701351681555b505060018560011b0183555050505050565b600060208083526000845461350581613384565b8060208701526040600180841660008114613527576001811461354357613573565b60ff19851660408a0152604084151560051b8a01019550613573565b89600052602060002060005b8581101561356a5781548b820186015290830190880161354f565b8a016040019650505b509398975050505050505050565b60006001600160401b038084111561359b5761359b612f8e565b8360051b60206135ac818301612fee565b8681529185019181810190368411156135c457600080fd5b865b8481101561364a578035868111156135de5760008081fd5b880160603682900312156135f25760008081fd5b6135fa612fcc565b61360382612e50565b8152613610868301612e85565b86820152604080830135898111156136285760008081fd5b6136343682860161315e565b91830191909152508452509183019183016135c6565b50979650505050505050565b6000808585111561366657600080fd5b8386111561367357600080fd5b5050820193919092039150565b60008451613692818460208901612b92565b8201838582376000930192835250909392505050565b81835281816020850137506000828201602090810191909152601f909101601f19169091010190565b602081526000610ee46020830184866136a8565b634e487b7160e01b600052603260045260246000fd5b6000823561013e1983360301811261371257600080fd5b9190910192915050565b6000808335601e1984360301811261373357600080fd5b8301803591506001600160401b0382111561374d57600080fd5b602001915036819003821315612ca857600080fd5b6001600160401b03811681146115b757600080fd5b63ffffffff61378589612e50565b16815260208801356020820152600060408901356137a281613762565b6001600160401b03811660408401525087606083015260e060808301526137cd60e0830187896136a8565b6001600160a01b03861660a084015282810360c08401526137ef8185876136a8565b9a9950505050505050505050565b60006020828403121561380f57600080fd5b81516001600160401b0381111561382557600080fd5b8201601f8101841361383657600080fd5b80516138446130538261301e565b81815285602083850101111561385957600080fd5b61136e826020830160208601612b92565b60008351602061387e828560208901612b92565b81840191506000855461389081613384565b600182811680156138a857600181146138bd576138ea565b60ff19841687528215158302870194506138ea565b89600052602060002060005b848110156138e2578154898201529083019087016138c9565b505082870194505b50929998505050505050505050565b60006020828403121561390b57600080fd5b81356113e281613762565b60018060a01b038516815283602082015261ffff831660408201526080606082015260006139476080830184612bb6565b9695505050505050565b6040815260006139646040830185612bb6565b828103602084015261136e8185612bb6565b60006020828403121561398857600080fd5b81516113e281613117565b6040815263ffffffff8351166040820152602083015160608201526000604084015160a060808401526139c960e0840182612bb6565b90506060850151603f198483030160a08501526139e68282612bb6565b60809690960151151560c08501525050506001600160a01b039190911660209091015290565b600060408284031215613a1e57600080fd5b613a26612fa4565b9050815181526020820151602082015292915050565b600060808284031215613a4e57600080fd5b613a56612fcc565b825181526020830151613a6881613762565b6020820152613a7a8460408501613a0c565b60408201529392505050565b600060018201613aa657634e487b7160e01b600052601160045260246000fd5b5060010190565b81516001600160401b03811115613ac657613ac6612f8e565b613ada81613ad48454613384565b846133ea565b602080601f831160018114613b0f5760008415613af75750858301515b600019600386901b1c1916600185901b178555610f77565b600085815260208120601f198616915b82811015613b3e57888601518255948401946001909101908401613b1f565b5085821015613b5c5787850151600019600388901b60f8161c191681555b5050505050600190811b01905550565b6001600160a01b038581168252841660208201526040810183905260806060820181905260009061394790830184612bb6565b600060208284031215613bb157600080fd5b81516113e281612b5f565b600060208083018184528085518083526040925060408601915060408160051b87010184880160005b83811015613c3957888303603f190185528151805163ffffffff1684528781015161ffff16888501528601516060878501819052613c2581860183612bb6565b968901969450505090860190600101613be5565b509098975050505050505050565b600060408284031215613c5957600080fd5b6113e28383613a0c565b80356020831015610a2557600019602084900360031b1b1692915050565b60c084901b6001600160c01b031916815260e083901b6001600160e01b03191660088201528151600090613cbc81600c850160208701612b92565b91909101600c01949350505050565b84815283602082015282604082015260008251613cef816060850160208701612b92565b9190910160600195945050505050565b600060208284031215613d1157600080fd5b81516113e281612c0e565b60008351613d2e818460208801612b92565b9190910191825250602001919050565b634e487b7160e01b600052602160045260246000fdfea26469706673582212206d9a8634968177d7442507e3efd38f8f36ddee25a01c0fb715340f7fd92e7b6364736f6c63430008160033",
  "linkReferences": {},
  "deployedLinkReferences": {}
}