{
  "_format": "hh-sol-artifact-1",
  "contractName": "LemonheadNFT",
  "sourceName": "contracts/LemonheadNFT.sol",
  "abi": [
    {
      "inputs": [
        {
          "internalType": "string",
          "name": "_name",
          "type": "string"
        },
        {
          "internalType": "string",
          "name": "_symbol",
          "type": "string"
        },
        {
          "internalType": "uint256",
          "name": "_tokenLimit",
          "type": "uint256"
        },
        {
          "internalType": "address",
          "name": "_lzEndpoint",
          "type": "address"
        },
        {
          "internalType": "address",
          "name": "_owner",
          "type": "address"
        },
        {
          "internalType": "address",
          "name": "_destinationVault",
          "type": "address"
        },
        {
          "internalType": "address",
          "name": "_authorizedSigner",
          "type": "address"
        },
        {
          "internalType": "string",
          "name": "_baseURI",
          "type": "string"
        }
      ],
      "stateMutability": "nonpayable",
      "type": "constructor"
    },
    {
      "inputs": [],
      "name": "AlreadyMinted",
      "type": "error"
    },
    {
      "inputs": [],
      "name": "CannotTransfer",
      "type": "error"
    },
    {
      "inputs": [],
      "name": "ECDSAInvalidSignature",
      "type": "error"
    },
    {
      "inputs": [
        {
          "internalType": "uint256",
          "name": "length",
          "type": "uint256"
        }
      ],
      "name": "ECDSAInvalidSignatureLength",
      "type": "error"
    },
    {
      "inputs": [
        {
          "internalType": "bytes32",
          "name": "s",
          "type": "bytes32"
        }
      ],
      "name": "ECDSAInvalidSignatureS",
      "type": "error"
    },
    {
      "inputs": [
        {
          "internalType": "address",
          "name": "sender",
          "type": "address"
        },
        {
          "internalType": "uint256",
          "name": "tokenId",
          "type": "uint256"
        },
        {
          "internalType": "address",
          "name": "owner",
          "type": "address"
        }
      ],
      "name": "ERC721IncorrectOwner",
      "type": "error"
    },
    {
      "inputs": [
        {
          "internalType": "address",
          "name": "operator",
          "type": "address"
        },
        {
          "internalType": "uint256",
          "name": "tokenId",
          "type": "uint256"
        }
      ],
      "name": "ERC721InsufficientApproval",
      "type": "error"
    },
    {
      "inputs": [
        {
          "internalType": "address",
          "name": "approver",
          "type": "address"
        }
      ],
      "name": "ERC721InvalidApprover",
      "type": "error"
    },
    {
      "inputs": [
        {
          "internalType": "address",
          "name": "operator",
          "type": "address"
        }
      ],
      "name": "ERC721InvalidOperator",
      "type": "error"
    },
    {
      "inputs": [
        {
          "internalType": "address",
          "name": "owner",
          "type": "address"
        }
      ],
      "name": "ERC721InvalidOwner",
      "type": "error"
    },
    {
      "inputs": [
        {
          "internalType": "address",
          "name": "receiver",
          "type": "address"
        }
      ],
      "name": "ERC721InvalidReceiver",
      "type": "error"
    },
    {
      "inputs": [
        {
          "internalType": "address",
          "name": "sender",
          "type": "address"
        }
      ],
      "name": "ERC721InvalidSender",
      "type": "error"
    },
    {
      "inputs": [
        {
          "internalType": "uint256",
          "name": "tokenId",
          "type": "uint256"
        }
      ],
      "name": "ERC721NonexistentToken",
      "type": "error"
    },
    {
      "inputs": [],
      "name": "InsufficientPayment",
      "type": "error"
    },
    {
      "inputs": [],
      "name": "InvalidDelegate",
      "type": "error"
    },
    {
      "inputs": [],
      "name": "InvalidEndpointCall",
      "type": "error"
    },
    {
      "inputs": [
        {
          "internalType": "bytes",
          "name": "options",
          "type": "bytes"
        }
      ],
      "name": "InvalidOptions",
      "type": "error"
    },
    {
      "inputs": [],
      "name": "InvalidReceiver",
      "type": "error"
    },
    {
      "inputs": [],
      "name": "InvalidSignature",
      "type": "error"
    },
    {
      "inputs": [],
      "name": "LookAlreadyMinted",
      "type": "error"
    },
    {
      "inputs": [],
      "name": "LzTokenUnavailable",
      "type": "error"
    },
    {
      "inputs": [],
      "name": "MintLimitReached",
      "type": "error"
    },
    {
      "inputs": [
        {
          "internalType": "uint32",
          "name": "eid",
          "type": "uint32"
        }
      ],
      "name": "NoPeer",
      "type": "error"
    },
    {
      "inputs": [
        {
          "internalType": "uint256",
          "name": "msgValue",
          "type": "uint256"
        }
      ],
      "name": "NotEnoughNative",
      "type": "error"
    },
    {
      "inputs": [
        {
          "internalType": "address",
          "name": "addr",
          "type": "address"
        }
      ],
      "name": "OnlyEndpoint",
      "type": "error"
    },
    {
      "inputs": [
        {
          "internalType": "address",
          "name": "caller",
          "type": "address"
        },
        {
          "internalType": "address",
          "name": "owner",
          "type": "address"
        }
      ],
      "name": "OnlyNFTOwner",
      "type": "error"
    },
    {
      "inputs": [
        {
          "internalType": "uint32",
          "name": "eid",
          "type": "uint32"
        },
        {
          "internalType": "bytes32",
          "name": "sender",
          "type": "bytes32"
        }
      ],
      "name": "OnlyPeer",
      "type": "error"
    },
    {
      "inputs": [],
      "name": "OnlySelf",
      "type": "error"
    },
    {
      "inputs": [
        {
          "internalType": "address",
          "name": "owner",
          "type": "address"
        }
      ],
      "name": "OwnableInvalidOwner",
      "type": "error"
    },
    {
      "inputs": [
        {
          "internalType": "address",
          "name": "account",
          "type": "address"
        }
      ],
      "name": "OwnableUnauthorizedAccount",
      "type": "error"
    },
    {
      "inputs": [
        {
          "internalType": "address",
          "name": "token",
          "type": "address"
        }
      ],
      "name": "SafeERC20FailedOperation",
      "type": "error"
    },
    {
      "inputs": [
        {
          "internalType": "bytes",
          "name": "result",
          "type": "bytes"
        }
      ],
      "name": "SimulationResult",
      "type": "error"
    },
    {
      "inputs": [],
      "name": "SoulBoundToken",
      "type": "error"
    },
    {
      "anonymous": false,
      "inputs": [
        {
          "indexed": true,
          "internalType": "address",
          "name": "owner",
          "type": "address"
        },
        {
          "indexed": true,
          "internalType": "address",
          "name": "approved",
          "type": "address"
        },
        {
          "indexed": true,
          "internalType": "uint256",
          "name": "tokenId",
          "type": "uint256"
        }
      ],
      "name": "Approval",
      "type": "event"
    },
    {
      "anonymous": false,
      "inputs": [
        {
          "indexed": true,
          "internalType": "address",
          "name": "owner",
          "type": "address"
        },
        {
          "indexed": true,
          "internalType": "address",
          "name": "operator",
          "type": "address"
        },
        {
          "indexed": false,
          "internalType": "bool",
          "name": "approved",
          "type": "bool"
        }
      ],
      "name": "ApprovalForAll",
      "type": "event"
    },
    {
      "anonymous": false,
      "inputs": [
        {
          "indexed": true,
          "internalType": "address",
          "name": "oldSigner",
          "type": "address"
        },
        {
          "indexed": true,
          "internalType": "address",
          "name": "newSigner",
          "type": "address"
        }
      ],
      "name": "AuthorizedSignerSet",
      "type": "event"
    },
    {
      "anonymous": false,
      "inputs": [
        {
          "indexed": false,
          "internalType": "string",
          "name": "baseURI",
          "type": "string"
        }
      ],
      "name": "BaseURISet",
      "type": "event"
    },
    {
      "anonymous": false,
      "inputs": [
        {
          "indexed": true,
          "internalType": "address",
          "name": "oldVault",
          "type": "address"
        },
        {
          "indexed": true,
          "internalType": "address",
          "name": "newVault",
          "type": "address"
        }
      ],
      "name": "DestinationVaultSet",
      "type": "event"
    },
    {
      "anonymous": false,
      "inputs": [
        {
          "components": [
            {
              "internalType": "uint32",
              "name": "eid",
              "type": "uint32"
            },
            {
              "internalType": "uint16",
              "name": "msgType",
              "type": "uint16"
            },
            {
              "internalType": "bytes",
              "name": "options",
              "type": "bytes"
            }
          ],
          "indexed": false,
          "internalType": "struct EnforcedOptionParam[]",
          "name": "_enforcedOptions",
          "type": "tuple[]"
        }
      ],
      "name": "EnforcedOptionSet",
      "type": "event"
    },
    {
      "anonymous": false,
      "inputs": [
        {
          "indexed": true,
          "internalType": "address",
          "name": "receiver",
          "type": "address"
        },
        {
          "indexed": true,
          "internalType": "uint256",
          "name": "tokenId",
          "type": "uint256"
        },
        {
          "indexed": true,
          "internalType": "bytes32",
          "name": "look",
          "type": "bytes32"
        }
      ],
      "name": "Minted",
      "type": "event"
    },
    {
      "anonymous": false,
      "inputs": [
        {
          "indexed": false,
          "internalType": "address",
          "name": "inspector",
          "type": "address"
        }
      ],
      "name": "MsgInspectorSet",
      "type": "event"
    },
    {
      "anonymous": false,
      "inputs": [
        {
          "indexed": true,
          "internalType": "bytes32",
          "name": "guid",
          "type": "bytes32"
        },
        {
          "indexed": false,
          "internalType": "uint32",
          "name": "srcEid",
          "type": "uint32"
        },
        {
          "indexed": true,
          "internalType": "address",
          "name": "toAddress",
          "type": "address"
        },
        {
          "indexed": false,
          "internalType": "uint256",
          "name": "tokenId",
          "type": "uint256"
        }
      ],
      "name": "ONFTReceived",
      "type": "event"
    },
    {
      "anonymous": false,
      "inputs": [
        {
          "indexed": true,
          "internalType": "bytes32",
          "name": "guid",
          "type": "bytes32"
        },
        {
          "indexed": false,
          "internalType": "uint32",
          "name": "dstEid",
          "type": "uint32"
        },
        {
          "indexed": true,
          "internalType": "address",
          "name": "fromAddress",
          "type": "address"
        },
        {
          "indexed": false,
          "internalType": "uint256",
          "name": "tokenId",
          "type": "uint256"
        }
      ],
      "name": "ONFTSent",
      "type": "event"
    },
    {
      "anonymous": false,
      "inputs": [
        {
          "indexed": true,
          "internalType": "address",
          "name": "previousOwner",
          "type": "address"
        },
        {
          "indexed": true,
          "internalType": "address",
          "name": "newOwner",
          "type": "address"
        }
      ],
      "name": "OwnershipTransferred",
      "type": "event"
    },
    {
      "anonymous": false,
      "inputs": [
        {
          "indexed": false,
          "internalType": "uint32",
          "name": "eid",
          "type": "uint32"
        },
        {
          "indexed": false,
          "internalType": "bytes32",
          "name": "peer",
          "type": "bytes32"
        }
      ],
      "name": "PeerSet",
      "type": "event"
    },
    {
      "anonymous": false,
      "inputs": [
        {
          "indexed": false,
          "internalType": "address",
          "name": "preCrimeAddress",
          "type": "address"
        }
      ],
      "name": "PreCrimeSet",
      "type": "event"
    },
    {
      "anonymous": false,
      "inputs": [
        {
          "indexed": true,
          "internalType": "uint256",
          "name": "oldLimit",
          "type": "uint256"
        },
        {
          "indexed": true,
          "internalType": "uint256",
          "name": "newLimit",
          "type": "uint256"
        }
      ],
      "name": "TokenLimitSet",
      "type": "event"
    },
    {
      "anonymous": false,
      "inputs": [
        {
          "indexed": true,
          "internalType": "address",
          "name": "from",
          "type": "address"
        },
        {
          "indexed": true,
          "internalType": "address",
          "name": "to",
          "type": "address"
        },
        {
          "indexed": true,
          "internalType": "uint256",
          "name": "tokenId",
          "type": "uint256"
        }
      ],
      "name": "Transfer",
      "type": "event"
    },
    {
      "inputs": [],
      "name": "SEND",
      "outputs": [
        {
          "internalType": "uint16",
          "name": "",
          "type": "uint16"
        }
      ],
      "stateMutability": "view",
      "type": "function"
    },
    {
      "inputs": [],
      "name": "SEND_AND_COMPOSE",
      "outputs": [
        {
          "internalType": "uint16",
          "name": "",
          "type": "uint16"
        }
      ],
      "stateMutability": "view",
      "type": "function"
    },
    {
      "inputs": [
        {
          "components": [
            {
              "internalType": "uint32",
              "name": "srcEid",
              "type": "uint32"
            },
            {
              "internalType": "bytes32",
              "name": "sender",
              "type": "bytes32"
            },
            {
              "internalType": "uint64",
              "name": "nonce",
              "type": "uint64"
            }
          ],
          "internalType": "struct Origin",
          "name": "origin",
          "type": "tuple"
        }
      ],
      "name": "allowInitializePath",
      "outputs": [
        {
          "internalType": "bool",
          "name": "",
          "type": "bool"
        }
      ],
      "stateMutability": "view",
      "type": "function"
    },
    {
      "inputs": [],
      "name": "approvalRequired",
      "outputs": [
        {
          "internalType": "bool",
          "name": "",
          "type": "bool"
        }
      ],
      "stateMutability": "pure",
      "type": "function"
    },
    {
      "inputs": [
        {
          "internalType": "address",
          "name": "to",
          "type": "address"
        },
        {
          "internalType": "uint256",
          "name": "tokenId",
          "type": "uint256"
        }
      ],
      "name": "approve",
      "outputs": [],
      "stateMutability": "nonpayable",
      "type": "function"
    },
    {
      "inputs": [
        {
          "internalType": "address",
          "name": "owner",
          "type": "address"
        }
      ],
      "name": "balanceOf",
      "outputs": [
        {
          "internalType": "uint256",
          "name": "",
          "type": "uint256"
        }
      ],
      "stateMutability": "view",
      "type": "function"
    },
    {
      "inputs": [
        {
          "internalType": "address",
          "name": "",
          "type": "address"
        }
      ],
      "name": "bounds",
      "outputs": [
        {
          "internalType": "uint256",
          "name": "",
          "type": "uint256"
        }
      ],
      "stateMutability": "view",
      "type": "function"
    },
    {
      "inputs": [
        {
          "internalType": "uint32",
          "name": "_eid",
          "type": "uint32"
        },
        {
          "internalType": "uint16",
          "name": "_msgType",
          "type": "uint16"
        },
        {
          "internalType": "bytes",
          "name": "_extraOptions",
          "type": "bytes"
        }
      ],
      "name": "combineOptions",
      "outputs": [
        {
          "internalType": "bytes",
          "name": "",
          "type": "bytes"
        }
      ],
      "stateMutability": "view",
      "type": "function"
    },
    {
      "inputs": [],
      "name": "destinationVault",
      "outputs": [
        {
          "internalType": "address",
          "name": "",
          "type": "address"
        }
      ],
      "stateMutability": "view",
      "type": "function"
    },
    {
      "inputs": [],
      "name": "endpoint",
      "outputs": [
        {
          "internalType": "contract ILayerZeroEndpointV2",
          "name": "",
          "type": "address"
        }
      ],
      "stateMutability": "view",
      "type": "function"
    },
    {
      "inputs": [
        {
          "internalType": "uint32",
          "name": "eid",
          "type": "uint32"
        },
        {
          "internalType": "uint16",
          "name": "msgType",
          "type": "uint16"
        }
      ],
      "name": "enforcedOptions",
      "outputs": [
        {
          "internalType": "bytes",
          "name": "enforcedOption",
          "type": "bytes"
        }
      ],
      "stateMutability": "view",
      "type": "function"
    },
    {
      "inputs": [
        {
          "internalType": "uint256",
          "name": "tokenId",
          "type": "uint256"
        }
      ],
      "name": "getApproved",
      "outputs": [
        {
          "internalType": "address",
          "name": "",
          "type": "address"
        }
      ],
      "stateMutability": "view",
      "type": "function"
    },
    {
      "inputs": [
        {
          "internalType": "address",
          "name": "owner",
          "type": "address"
        },
        {
          "internalType": "address",
          "name": "operator",
          "type": "address"
        }
      ],
      "name": "isApprovedForAll",
      "outputs": [
        {
          "internalType": "bool",
          "name": "",
          "type": "bool"
        }
      ],
      "stateMutability": "view",
      "type": "function"
    },
    {
      "inputs": [
        {
          "components": [
            {
              "internalType": "uint32",
              "name": "srcEid",
              "type": "uint32"
            },
            {
              "internalType": "bytes32",
              "name": "sender",
              "type": "bytes32"
            },
            {
              "internalType": "uint64",
              "name": "nonce",
              "type": "uint64"
            }
          ],
          "internalType": "struct Origin",
          "name": "",
          "type": "tuple"
        },
        {
          "internalType": "bytes",
          "name": "",
          "type": "bytes"
        },
        {
          "internalType": "address",
          "name": "_sender",
          "type": "address"
        }
      ],
      "name": "isComposeMsgSender",
      "outputs": [
        {
          "internalType": "bool",
          "name": "",
          "type": "bool"
        }
      ],
      "stateMutability": "view",
      "type": "function"
    },
    {
      "inputs": [
        {
          "internalType": "uint32",
          "name": "_eid",
          "type": "uint32"
        },
        {
          "internalType": "bytes32",
          "name": "_peer",
          "type": "bytes32"
        }
      ],
      "name": "isPeer",
      "outputs": [
        {
          "internalType": "bool",
          "name": "",
          "type": "bool"
        }
      ],
      "stateMutability": "view",
      "type": "function"
    },
    {
      "inputs": [
        {
          "components": [
            {
              "internalType": "uint32",
              "name": "srcEid",
              "type": "uint32"
            },
            {
              "internalType": "bytes32",
              "name": "sender",
              "type": "bytes32"
            },
            {
              "internalType": "uint64",
              "name": "nonce",
              "type": "uint64"
            }
          ],
          "internalType": "struct Origin",
          "name": "_origin",
          "type": "tuple"
        },
        {
          "internalType": "bytes32",
          "name": "_guid",
          "type": "bytes32"
        },
        {
          "internalType": "bytes",
          "name": "_message",
          "type": "bytes"
        },
        {
          "internalType": "address",
          "name": "_executor",
          "type": "address"
        },
        {
          "internalType": "bytes",
          "name": "_extraData",
          "type": "bytes"
        }
      ],
      "name": "lzReceive",
      "outputs": [],
      "stateMutability": "payable",
      "type": "function"
    },
    {
      "inputs": [
        {
          "components": [
            {
              "components": [
                {
                  "internalType": "uint32",
                  "name": "srcEid",
                  "type": "uint32"
                },
                {
                  "internalType": "bytes32",
                  "name": "sender",
                  "type": "bytes32"
                },
                {
                  "internalType": "uint64",
                  "name": "nonce",
                  "type": "uint64"
                }
              ],
              "internalType": "struct Origin",
              "name": "origin",
              "type": "tuple"
            },
            {
              "internalType": "uint32",
              "name": "dstEid",
              "type": "uint32"
            },
            {
              "internalType": "address",
              "name": "receiver",
              "type": "address"
            },
            {
              "internalType": "bytes32",
              "name": "guid",
              "type": "bytes32"
            },
            {
              "internalType": "uint256",
              "name": "value",
              "type": "uint256"
            },
            {
              "internalType": "address",
              "name": "executor",
              "type": "address"
            },
            {
              "internalType": "bytes",
              "name": "message",
              "type": "bytes"
            },
            {
              "internalType": "bytes",
              "name": "extraData",
              "type": "bytes"
            }
          ],
          "internalType": "struct InboundPacket[]",
          "name": "_packets",
          "type": "tuple[]"
        }
      ],
      "name": "lzReceiveAndRevert",
      "outputs": [],
      "stateMutability": "payable",
      "type": "function"
    },
    {
      "inputs": [
        {
          "components": [
            {
              "internalType": "uint32",
              "name": "srcEid",
              "type": "uint32"
            },
            {
              "internalType": "bytes32",
              "name": "sender",
              "type": "bytes32"
            },
            {
              "internalType": "uint64",
              "name": "nonce",
              "type": "uint64"
            }
          ],
          "internalType": "struct Origin",
          "name": "_origin",
          "type": "tuple"
        },
        {
          "internalType": "bytes32",
          "name": "_guid",
          "type": "bytes32"
        },
        {
          "internalType": "bytes",
          "name": "_message",
          "type": "bytes"
        },
        {
          "internalType": "address",
          "name": "_executor",
          "type": "address"
        },
        {
          "internalType": "bytes",
          "name": "_extraData",
          "type": "bytes"
        }
      ],
      "name": "lzReceiveSimulate",
      "outputs": [],
      "stateMutability": "payable",
      "type": "function"
    },
    {
      "inputs": [
        {
          "internalType": "bytes32",
          "name": "look",
          "type": "bytes32"
        },
        {
          "internalType": "string",
          "name": "uri",
          "type": "string"
        },
        {
          "internalType": "uint256",
          "name": "price",
          "type": "uint256"
        },
        {
          "internalType": "bytes",
          "name": "signature",
          "type": "bytes"
        }
      ],
      "name": "mint",
      "outputs": [],
      "stateMutability": "payable",
      "type": "function"
    },
    {
      "inputs": [],
      "name": "msgInspector",
      "outputs": [
        {
          "internalType": "address",
          "name": "",
          "type": "address"
        }
      ],
      "stateMutability": "view",
      "type": "function"
    },
    {
      "inputs": [],
      "name": "name",
      "outputs": [
        {
          "internalType": "string",
          "name": "",
          "type": "string"
        }
      ],
      "stateMutability": "view",
      "type": "function"
    },
    {
      "inputs": [
        {
          "internalType": "uint32",
          "name": "",
          "type": "uint32"
        },
        {
          "internalType": "bytes32",
          "name": "",
          "type": "bytes32"
        }
      ],
      "name": "nextNonce",
      "outputs": [
        {
          "internalType": "uint64",
          "name": "nonce",
          "type": "uint64"
        }
      ],
      "stateMutability": "view",
      "type": "function"
    },
    {
      "inputs": [],
      "name": "oApp",
      "outputs": [
        {
          "internalType": "address",
          "name": "",
          "type": "address"
        }
      ],
      "stateMutability": "view",
      "type": "function"
    },
    {
      "inputs": [],
      "name": "oAppVersion",
      "outputs": [
        {
          "internalType": "uint64",
          "name": "senderVersion",
          "type": "uint64"
        },
        {
          "internalType": "uint64",
          "name": "receiverVersion",
          "type": "uint64"
        }
      ],
      "stateMutability": "pure",
      "type": "function"
    },
    {
      "inputs": [],
      "name": "onftVersion",
      "outputs": [
        {
          "internalType": "bytes4",
          "name": "interfaceId",
          "type": "bytes4"
        },
        {
          "internalType": "uint64",
          "name": "version",
          "type": "uint64"
        }
      ],
      "stateMutability": "pure",
      "type": "function"
    },
    {
      "inputs": [],
      "name": "owner",
      "outputs": [
        {
          "internalType": "address",
          "name": "",
          "type": "address"
        }
      ],
      "stateMutability": "view",
      "type": "function"
    },
    {
      "inputs": [
        {
          "internalType": "uint256",
          "name": "tokenId",
          "type": "uint256"
        }
      ],
      "name": "ownerOf",
      "outputs": [
        {
          "internalType": "address",
          "name": "",
          "type": "address"
        }
      ],
      "stateMutability": "view",
      "type": "function"
    },
    {
      "inputs": [
        {
          "internalType": "uint32",
          "name": "eid",
          "type": "uint32"
        }
      ],
      "name": "peers",
      "outputs": [
        {
          "internalType": "bytes32",
          "name": "peer",
          "type": "bytes32"
        }
      ],
      "stateMutability": "view",
      "type": "function"
    },
    {
      "inputs": [],
      "name": "preCrime",
      "outputs": [
        {
          "internalType": "address",
          "name": "",
          "type": "address"
        }
      ],
      "stateMutability": "view",
      "type": "function"
    },
    {
      "inputs": [
        {
          "components": [
            {
              "internalType": "uint32",
              "name": "dstEid",
              "type": "uint32"
            },
            {
              "internalType": "bytes32",
              "name": "to",
              "type": "bytes32"
            },
            {
              "internalType": "uint256",
              "name": "tokenId",
              "type": "uint256"
            },
            {
              "internalType": "bytes",
              "name": "extraOptions",
              "type": "bytes"
            },
            {
              "internalType": "bytes",
              "name": "composeMsg",
              "type": "bytes"
            },
            {
              "internalType": "bytes",
              "name": "onftCmd",
              "type": "bytes"
            }
          ],
          "internalType": "struct SendParam",
          "name": "_sendParam",
          "type": "tuple"
        },
        {
          "internalType": "bool",
          "name": "_payInLzToken",
          "type": "bool"
        }
      ],
      "name": "quoteSend",
      "outputs": [
        {
          "components": [
            {
              "internalType": "uint256",
              "name": "nativeFee",
              "type": "uint256"
            },
            {
              "internalType": "uint256",
              "name": "lzTokenFee",
              "type": "uint256"
            }
          ],
          "internalType": "struct MessagingFee",
          "name": "msgFee",
          "type": "tuple"
        }
      ],
      "stateMutability": "view",
      "type": "function"
    },
    {
      "inputs": [],
      "name": "renounceOwnership",
      "outputs": [],
      "stateMutability": "nonpayable",
      "type": "function"
    },
    {
      "inputs": [
        {
          "internalType": "address",
          "name": "from",
          "type": "address"
        },
        {
          "internalType": "address",
          "name": "to",
          "type": "address"
        },
        {
          "internalType": "uint256",
          "name": "tokenId",
          "type": "uint256"
        }
      ],
      "name": "safeTransferFrom",
      "outputs": [],
      "stateMutability": "nonpayable",
      "type": "function"
    },
    {
      "inputs": [
        {
          "internalType": "address",
          "name": "from",
          "type": "address"
        },
        {
          "internalType": "address",
          "name": "to",
          "type": "address"
        },
        {
          "internalType": "uint256",
          "name": "tokenId",
          "type": "uint256"
        },
        {
          "internalType": "bytes",
          "name": "data",
          "type": "bytes"
        }
      ],
      "name": "safeTransferFrom",
      "outputs": [],
      "stateMutability": "nonpayable",
      "type": "function"
    },
    {
      "inputs": [
        {
          "components": [
            {
              "internalType": "uint32",
              "name": "dstEid",
              "type": "uint32"
            },
            {
              "internalType": "bytes32",
              "name": "to",
              "type": "bytes32"
            },
            {
              "internalType": "uint256",
              "name": "tokenId",
              "type": "uint256"
            },
            {
              "internalType": "bytes",
              "name": "extraOptions",
              "type": "bytes"
            },
            {
              "internalType": "bytes",
              "name": "composeMsg",
              "type": "bytes"
            },
            {
              "internalType": "bytes",
              "name": "onftCmd",
              "type": "bytes"
            }
          ],
          "internalType": "struct SendParam",
          "name": "_sendParam",
          "type": "tuple"
        },
        {
          "components": [
            {
              "internalType": "uint256",
              "name": "nativeFee",
              "type": "uint256"
            },
            {
              "internalType": "uint256",
              "name": "lzTokenFee",
              "type": "uint256"
            }
          ],
          "internalType": "struct MessagingFee",
          "name": "_fee",
          "type": "tuple"
        },
        {
          "internalType": "address",
          "name": "_refundAddress",
          "type": "address"
        }
      ],
      "name": "send",
      "outputs": [
        {
          "components": [
            {
              "internalType": "bytes32",
              "name": "guid",
              "type": "bytes32"
            },
            {
              "internalType": "uint64",
              "name": "nonce",
              "type": "uint64"
            },
            {
              "components": [
                {
                  "internalType": "uint256",
                  "name": "nativeFee",
                  "type": "uint256"
                },
                {
                  "internalType": "uint256",
                  "name": "lzTokenFee",
                  "type": "uint256"
                }
              ],
              "internalType": "struct MessagingFee",
              "name": "fee",
              "type": "tuple"
            }
          ],
          "internalType": "struct MessagingReceipt",
          "name": "msgReceipt",
          "type": "tuple"
        }
      ],
      "stateMutability": "payable",
      "type": "function"
    },
    {
      "inputs": [
        {
          "internalType": "address",
          "name": "operator",
          "type": "address"
        },
        {
          "internalType": "bool",
          "name": "approved",
          "type": "bool"
        }
      ],
      "name": "setApprovalForAll",
      "outputs": [],
      "stateMutability": "nonpayable",
      "type": "function"
    },
    {
      "inputs": [
        {
          "internalType": "address",
          "name": "signer",
          "type": "address"
        }
      ],
      "name": "setAuthorizedSigner",
      "outputs": [],
      "stateMutability": "nonpayable",
      "type": "function"
    },
    {
      "inputs": [
        {
          "internalType": "string",
          "name": "_baseTokenURI",
          "type": "string"
        }
      ],
      "name": "setBaseURI",
      "outputs": [],
      "stateMutability": "nonpayable",
      "type": "function"
    },
    {
      "inputs": [
        {
          "internalType": "address",
          "name": "_delegate",
          "type": "address"
        }
      ],
      "name": "setDelegate",
      "outputs": [],
      "stateMutability": "nonpayable",
      "type": "function"
    },
    {
      "inputs": [
        {
          "internalType": "address",
          "name": "newVault",
          "type": "address"
        }
      ],
      "name": "setDestinationVault",
      "outputs": [],
      "stateMutability": "nonpayable",
      "type": "function"
    },
    {
      "inputs": [
        {
          "components": [
            {
              "internalType": "uint32",
              "name": "eid",
              "type": "uint32"
            },
            {
              "internalType": "uint16",
              "name": "msgType",
              "type": "uint16"
            },
            {
              "internalType": "bytes",
              "name": "options",
              "type": "bytes"
            }
          ],
          "internalType": "struct EnforcedOptionParam[]",
          "name": "_enforcedOptions",
          "type": "tuple[]"
        }
      ],
      "name": "setEnforcedOptions",
      "outputs": [],
      "stateMutability": "nonpayable",
      "type": "function"
    },
    {
      "inputs": [
        {
          "internalType": "address",
          "name": "_msgInspector",
          "type": "address"
        }
      ],
      "name": "setMsgInspector",
      "outputs": [],
      "stateMutability": "nonpayable",
      "type": "function"
    },
    {
      "inputs": [
        {
          "internalType": "uint32",
          "name": "_eid",
          "type": "uint32"
        },
        {
          "internalType": "bytes32",
          "name": "_peer",
          "type": "bytes32"
        }
      ],
      "name": "setPeer",
      "outputs": [],
      "stateMutability": "nonpayable",
      "type": "function"
    },
    {
      "inputs": [
        {
          "internalType": "address",
          "name": "_preCrime",
          "type": "address"
        }
      ],
      "name": "setPreCrime",
      "outputs": [],
      "stateMutability": "nonpayable",
      "type": "function"
    },
    {
      "inputs": [
        {
          "internalType": "uint256",
          "name": "newLimit",
          "type": "uint256"
        }
      ],
      "name": "setTokenLimit",
      "outputs": [],
      "stateMutability": "nonpayable",
      "type": "function"
    },
    {
      "inputs": [
        {
          "internalType": "bytes4",
          "name": "interfaceId",
          "type": "bytes4"
        }
      ],
      "name": "supportsInterface",
      "outputs": [
        {
          "internalType": "bool",
          "name": "",
          "type": "bool"
        }
      ],
      "stateMutability": "view",
      "type": "function"
    },
    {
      "inputs": [],
      "name": "symbol",
      "outputs": [
        {
          "internalType": "string",
          "name": "",
          "type": "string"
        }
      ],
      "stateMutability": "view",
      "type": "function"
    },
    {
      "inputs": [],
      "name": "token",
      "outputs": [
        {
          "internalType": "address",
          "name": "",
          "type": "address"
        }
      ],
      "stateMutability": "view",
      "type": "function"
    },
    {
      "inputs": [],
      "name": "tokenId",
      "outputs": [
        {
          "internalType": "uint256",
          "name": "",
          "type": "uint256"
        }
      ],
      "stateMutability": "view",
      "type": "function"
    },
    {
      "inputs": [],
      "name": "tokenLimit",
      "outputs": [
        {
          "internalType": "uint256",
          "name": "",
          "type": "uint256"
        }
      ],
      "stateMutability": "view",
      "type": "function"
    },
    {
      "inputs": [
        {
          "internalType": "uint256",
          "name": "id",
          "type": "uint256"
        }
      ],
      "name": "tokenURI",
      "outputs": [
        {
          "internalType": "string",
          "name": "",
          "type": "string"
        }
      ],
      "stateMutability": "view",
      "type": "function"
    },
    {
      "inputs": [
        {
          "internalType": "uint256",
          "name": "",
          "type": "uint256"
        }
      ],
      "name": "tokenURIs",
      "outputs": [
        {
          "internalType": "string",
          "name": "",
          "type": "string"
        }
      ],
      "stateMutability": "view",
      "type": "function"
    },
    {
      "inputs": [
        {
          "internalType": "address",
          "name": "",
          "type": "address"
        },
        {
          "internalType": "address",
          "name": "",
          "type": "address"
        },
        {
          "internalType": "uint256",
          "name": "",
          "type": "uint256"
        }
      ],
      "name": "transferFrom",
      "outputs": [],
      "stateMutability": "nonpayable",
      "type": "function"
    },
    {
      "inputs": [
        {
          "internalType": "address",
          "name": "newOwner",
          "type": "address"
        }
      ],
      "name": "transferOwnership",
      "outputs": [],
      "stateMutability": "nonpayable",
      "type": "function"
    },
    {
      "inputs": [
        {
          "internalType": "bytes32",
          "name": "",
          "type": "bytes32"
        }
      ],
      "name": "uniqueLooks",
      "outputs": [
        {
          "internalType": "uint256",
          "name": "",
          "type": "uint256"
        }
      ],
      "stateMutability": "view",
      "type": "function"
    }
  ],
  "bytecode": "0x60a06040523480156200001157600080fd5b5060405162004353380380620043538339810160408190526200003491620002c0565b878786868383838381818181806001600160a01b0381166200007057604051631e4fbdf760e01b81526000600482015260240160405180910390fd5b6200007b816200018b565b506001600160a01b038083166080528116620000aa57604051632d618d8160e21b815260040160405180910390fd5b60805160405163ca5eb5e160e01b81526001600160a01b0383811660048301529091169063ca5eb5e190602401600060405180830381600087803b158015620000f257600080fd5b505af115801562000107573d6000803e3d6000fd5b50505050505050505050816005908162000122919062000437565b50600662000131828262000437565b50505060128a90555050601080546001600160a01b038088166001600160a01b031992831617909255600f80549287169290911691909117905550600b90506200017c828262000437565b50505050505050505062000503565b600080546001600160a01b038381166001600160a01b0319831681178455604051919092169283917f8be0079c531659141344cd1fd0a4f28419497f9722a3daafe3b4186f6b6457e09190a35050565b634e487b7160e01b600052604160045260246000fd5b600082601f8301126200020357600080fd5b81516001600160401b0380821115620002205762000220620001db565b604051601f8301601f19908116603f011681019082821181831017156200024b576200024b620001db565b81604052838152602092508660208588010111156200026957600080fd5b600091505b838210156200028d57858201830151818301840152908201906200026e565b6000602085830101528094505050505092915050565b80516001600160a01b0381168114620002bb57600080fd5b919050565b600080600080600080600080610100898b031215620002de57600080fd5b88516001600160401b0380821115620002f657600080fd5b620003048c838d01620001f1565b995060208b01519150808211156200031b57600080fd5b620003298c838d01620001f1565b985060408b015197506200034060608c01620002a3565b96506200035060808c01620002a3565b95506200036060a08c01620002a3565b94506200037060c08c01620002a3565b935060e08b01519150808211156200038757600080fd5b50620003968b828c01620001f1565b9150509295985092959890939650565b600181811c90821680620003bb57607f821691505b602082108103620003dc57634e487b7160e01b600052602260045260246000fd5b50919050565b601f82111562000432576000816000526020600020601f850160051c810160208610156200040d5750805b601f850160051c820191505b818110156200042e5782815560010162000419565b5050505b505050565b81516001600160401b03811115620004535762000453620001db565b6200046b81620004648454620003a6565b84620003e2565b602080601f831160018114620004a357600084156200048a5750858301515b600019600386901b1c1916600185901b1785556200042e565b600085815260208120601f198616915b82811015620004d457888601518255948401946001909101908401620004b3565b5085821015620004f35787850151600019600388901b60f8161c191681555b5050505050600190811b01905550565b608051613e0362000550600039600081816105be01528181610b3f0152818161145801528181611747015281816119eb0152818161210a0152818161245901526125120152613e036000f3fe6080604052600436106103355760003560e01c8063861ab248116101ab578063bb0b6a53116100f7578063d045a0dc11610095578063e985e9c51161006f578063e985e9c5146109c1578063f2fde38b146109e1578063fc0c546a1461050c578063ff7bd03d14610a0157600080fd5b8063d045a0dc1461096e578063d279b0ca14610981578063d4243885146109a157600080fd5b8063c0e68fec116100d1578063c0e68fec146108e1578063c6414e7b14610901578063c87b56dd1461092e578063ca5eb5e11461094e57600080fd5b8063bb0b6a5314610881578063bc70b354146108ae578063bd815db0146108ce57600080fd5b8063a02f079e11610164578063b21a33e41161013e578063b21a33e41461080c578063b731ea0a14610821578063b88d4fde14610841578063b98bd0701461086157600080fd5b8063a02f079e146107b1578063a22cb465146107c4578063a72f5dd8146107e457600080fd5b8063861ab248146106fd5780638da5cb5b1461071d57806395d89b411461073b57806398c55a2a146107505780639a7699a41461077d5780639f68b9641461079d57600080fd5b806352ae2879116102855780636c8b703f11610223578063715018a6116101fd578063715018a614610660578063761cc6f4146106755780637d25a05e146106a257806382413eac146106dd57600080fd5b80636c8b703f146106005780636fc1b31e1461062057806370a082311461064057600080fd5b806356c7627e1161025f57806356c7627e1461055f5780635a0dfe4d146105755780635e280f11146105ac5780636352211e146105e057600080fd5b806352ae28791461050c5780635535d4611461051f57806355f804b31461053f57600080fd5b806317442b70116102f257806321eb730b116102cc57806321eb730b1461048c57806323b872dd146104ac5780633400288b146104cc57806342842e0e146104ec57600080fd5b806317442b701461041e57806317d70f7c146104405780631f5e13341461046457600080fd5b806301ffc9a71461033a57806306fdde031461036f578063081812fc14610391578063095ea7b3146103c9578063111ecdad146103eb57806313137d651461040b575b600080fd5b34801561034657600080fd5b5061035a610355366004612bee565b610a21565b60405190151581526020015b60405180910390f35b34801561037b57600080fd5b50610384610a73565b6040516103669190612c5b565b34801561039d57600080fd5b506103b16103ac366004612c6e565b610b05565b6040516001600160a01b039091168152602001610366565b3480156103d557600080fd5b506103e96103e4366004612c9c565b610b2e565b005b3480156103f757600080fd5b506004546103b1906001600160a01b031681565b6103e9610419366004612d28565b610b3d565b34801561042a57600080fd5b5060408051600181526002602082015201610366565b34801561044c57600080fd5b5061045660115481565b604051908152602001610366565b34801561047057600080fd5b50610479600181565b60405161ffff9091168152602001610366565b61049f61049a366004612dd9565b610bfd565b6040516103669190612e46565b3480156104b857600080fd5b506103e96104c7366004612e88565b610d00565b3480156104d857600080fd5b506103e96104e7366004612ee2565b610d19565b3480156104f857600080fd5b506103e9610507366004612e88565b610d2b565b34801561051857600080fd5b50306103b1565b34801561052b57600080fd5b5061038461053a366004612f10565b610d4b565b34801561054b57600080fd5b506103e961055a366004612f43565b610df0565b34801561056b57600080fd5b5061045660125481565b34801561058157600080fd5b5061035a610590366004612ee2565b63ffffffff919091166000908152600160205260409020541490565b3480156105b857600080fd5b506103b17f000000000000000000000000000000000000000000000000000000000000000081565b3480156105ec57600080fd5b506103b16105fb366004612c6e565b610e42565b34801561060c57600080fd5b5061038461061b366004612c6e565b610e4d565b34801561062c57600080fd5b506103e961063b366004612f84565b610e66565b34801561064c57600080fd5b5061045661065b366004612f84565b610ec3565b34801561066c57600080fd5b506103e9610f0b565b34801561068157600080fd5b50610456610690366004612f84565b600e6020526000908152604090205481565b3480156106ae57600080fd5b506106c56106bd366004612ee2565b600092915050565b6040516001600160401b039091168152602001610366565b3480156106e957600080fd5b5061035a6106f8366004612fa1565b610f1f565b34801561070957600080fd5b506103e9610718366004612f84565b610f34565b34801561072957600080fd5b506000546001600160a01b03166103b1565b34801561074757600080fd5b50610384610f8e565b34801561075c57600080fd5b5061045661076b366004612c6e565b600c6020526000908152604090205481565b34801561078957600080fd5b506010546103b1906001600160a01b031681565b3480156107a957600080fd5b50600061035a565b6103e96107bf3660046130fc565b610f9d565b3480156107d057600080fd5b506103e96107df36600461319e565b610fc7565b3480156107f057600080fd5b50604080516311f0c6d360e11b81526001602082015201610366565b34801561081857600080fd5b50610479600281565b34801561082d57600080fd5b506002546103b1906001600160a01b031681565b34801561084d57600080fd5b506103e961085c3660046131f7565b610fd2565b34801561086d57600080fd5b506103e961087c3660046132a6565b610ff0565b34801561088d57600080fd5b5061045661089c3660046132db565b60016020526000908152604090205481565b3480156108ba57600080fd5b506103846108c93660046132f6565b61100a565b6103e96108dc3660046132a6565b6111b2565b3480156108ed57600080fd5b506103e96108fc366004612c6e565b61133c565b34801561090d57600080fd5b5061092161091c366004613356565b611379565b604051610366919061339c565b34801561093a57600080fd5b50610384610949366004612c6e565b6113bf565b34801561095a57600080fd5b506103e9610969366004612f84565b611431565b6103e961097c366004612d28565b6114b7565b34801561098d57600080fd5b506103e961099c366004612f84565b6114e6565b3480156109ad57600080fd5b506103e96109bc366004612f84565b611540565b3480156109cd57600080fd5b5061035a6109dc3660046133b3565b611596565b3480156109ed57600080fd5b506103e96109fc366004612f84565b6115c4565b348015610a0d57600080fd5b5061035a610a1c3660046133e1565b611602565b60006001600160e01b031982166380ac58cd60e01b1480610a5257506001600160e01b03198216635b5e139f60e01b145b80610a6d57506301ffc9a760e01b6001600160e01b03198316145b92915050565b606060058054610a82906133fd565b80601f0160208091040260200160405190810160405280929190818152602001828054610aae906133fd565b8015610afb5780601f10610ad057610100808354040283529160200191610afb565b820191906000526020600020905b815481529060010190602001808311610ade57829003601f168201915b5050505050905090565b6000610b1082611638565b506000828152600960205260409020546001600160a01b0316610a6d565b610b39828233611671565b5050565b7f00000000000000000000000000000000000000000000000000000000000000006001600160a01b03163314610b8d576040516391ac5e4f60e01b81523360048201526024015b60405180910390fd5b60208701803590610ba790610ba2908a6132db565b61167e565b14610be557610bb960208801886132db565b60405163309afaf360e21b815263ffffffff909116600482015260208801356024820152604401610b84565b610bf4878787878787876116ba565b50505050505050565b610c05612b91565b60208401356000610c196040870135610e42565b9050806001600160a01b0316826001600160a01b031614610c4d5760405163185024ef60e31b815260040160405180910390fd5b610c68336040880135610c6360208a018a6132db565b611819565b600080610c7488611879565b9092509050610ca0610c8960208a018a6132db565b8383610c9a368c90038c018c613431565b8a6119b8565b805190955033907f986156872b2ee0022b9585231dbbfde457f87f8a16b6c45e1a81c54c4ad8351f610cd560208c018c6132db565b6040805163ffffffff9092168252808d013560208301520160405180910390a3505050509392505050565b60405163185024ef60e31b815260040160405180910390fd5b610d21611ac3565b610b398282611af0565b610d4683838360405180602001604052806000815250610fd2565b505050565b600360209081526000928352604080842090915290825290208054610d6f906133fd565b80601f0160208091040260200160405190810160405280929190818152602001828054610d9b906133fd565b8015610de85780601f10610dbd57610100808354040283529160200191610de8565b820191906000526020600020905b815481529060010190602001808311610dcb57829003601f168201915b505050505081565b610df8611ac3565b600b610e058284836134ab565b507ff9c7803e94e0d3c02900d8a90893a6d5e90dd04d32a4cfe825520f82bf9f32f6600b604051610e36919061356a565b60405180910390a15050565b6000610a6d82611638565b600d6020526000908152604090208054610d6f906133fd565b610e6e611ac3565b600480546001600160a01b0319166001600160a01b0383169081179091556040519081527ff0be4f1e87349231d80c36b33f9e8639658eeaf474014dee15a3e6a4d4414197906020015b60405180910390a150565b60006001600160a01b038216610eef576040516322718ad960e21b815260006004820152602401610b84565b506001600160a01b031660009081526008602052604090205490565b610f13611ac3565b610f1d6000611b3e565b565b6001600160a01b03811630145b949350505050565b610f3c611ac3565b601080546001600160a01b038381166001600160a01b0319831681179093556040519116919082907f9e2d3ed415d34da100911f5b4fb5181e942551a7f84f1963cd70e57252ceb64290600090a35050565b606060068054610a82906133fd565b33610fab8187868686611b8e565b610fb484611c2b565b610fbf818688611cc6565b505050505050565b610b39338383611e00565b610fdd848484610d00565b610fea3385858585611e9f565b50505050565b610ff8611ac3565b610b3961100582846135fa565b611fc1565b63ffffffff8416600090815260036020908152604080832061ffff8716845290915281208054606092919061103e906133fd565b80601f016020809104026020016040519081016040528092919081815260200182805461106a906133fd565b80156110b75780601f1061108c576101008083540402835291602001916110b7565b820191906000526020600020905b81548152906001019060200180831161109a57829003601f168201915b5050505050905080516000036111075783838080601f016020809104026020016040519081016040528093929190818152602001838380828437600092019190915250929450610f2c9350505050565b6000839003611117579050610f2c565b600283106111955761115e84848080601f0160208091040260200160405190810160405280939291908181526020018383808284376000920191909152506120c892505050565b8061116c84600281886136cf565b60405160200161117e939291906136f9565b604051602081830303815290604052915050610f2c565b8383604051639a6d49cd60e01b8152600401610b8492919061374a565b60005b818110156112bb57368383838181106111d0576111d061375e565b90506020028101906111e29190613774565b90506112156111f460208301836132db565b602083013563ffffffff919091166000908152600160205260409020541490565b61121f57506112b3565b3063d045a0dc60c08301358360a081013561123e610100830183613795565b61124f610100890160e08a01612f84565b61125d6101208a018a613795565b6040518963ffffffff1660e01b815260040161127f97969594939291906137f0565b6000604051808303818588803b15801561129857600080fd5b505af11580156112ac573d6000803e3d6000fd5b5050505050505b6001016111b5565b50336001600160a01b0316638e9e70996040518163ffffffff1660e01b8152600401600060405180830381865afa1580156112fa573d6000803e3d6000fd5b505050506040513d6000823e601f3d908101601f191682016040526113229190810190613876565b604051638351eea760e01b8152600401610b849190612c5b565b611344611ac3565b6012819055604051819081907f7df1edf8d5e7998c35b686a43cf0f4b6d269eeca013436542d583d06626e089890600090a350565b604080518082019091526000808252602082015260008061139985611879565b90925090506113b66113ae60208701876132db565b8383876120f4565b95945050505050565b60606113ca82611638565b5060006113d56121cc565b905060008151116113f5576040518060200160405280600081525061142a565b80600d600085815260200190815260200160002060405160200161141a9291906138e3565b6040516020818303038152906040525b9392505050565b611439611ac3565b60405163ca5eb5e160e01b81526001600160a01b0382811660048301527f0000000000000000000000000000000000000000000000000000000000000000169063ca5eb5e190602401600060405180830381600087803b15801561149c57600080fd5b505af11580156114b0573d6000803e3d6000fd5b5050505050565b3330146114d75760405163029a949d60e31b815260040160405180910390fd5b610bf487878787878787610be5565b6114ee611ac3565b600f80546001600160a01b038381166001600160a01b0319831681179093556040519116919082907f3b52453507047b8a718e69742f2c7a3eeb0fb33a1c714c568d7a875ff5476c9090600090a35050565b611548611ac3565b600280546001600160a01b0319166001600160a01b0383169081179091556040519081527fd48d879cef83a1c0bdda516f27b13ddb1b3f8bbac1c9e1511bb2a659c242776090602001610eb8565b6001600160a01b039182166000908152600a6020908152604080832093909416825291909152205460ff1690565b6115cc611ac3565b6001600160a01b0381166115f657604051631e4fbdf760e01b815260006004820152602401610b84565b6115ff81611b3e565b50565b600060208201803590600190839061161a90866132db565b63ffffffff1681526020810191909152604001600020541492915050565b6000818152600760205260408120546001600160a01b031680610a6d57604051637e27328960e01b815260048101849052602401610b84565b610d4683838360016121db565b63ffffffff811660009081526001602052604081205480610a6d5760405163f6ff4fb760e01b815263ffffffff84166004820152602401610b84565b60006116cc6116c987876122e1565b90565b905060006116da87876122f9565b90506116f382826116ee60208d018d6132db565b612309565b60408611156117b757600061172d61171160608c0160408d01613972565b61171e60208d018d6132db565b6117288b8b612313565b61235e565b604051633e5ac80960e11b81529091506001600160a01b037f00000000000000000000000000000000000000000000000000000000000000001690637cb59012906117839086908d90600090879060040161398f565b600060405180830381600087803b15801561179d57600080fd5b505af11580156117b1573d6000803e3d6000fd5b50505050505b6001600160a01b038216887f7883fa30ea56937810e36990b0bbb8d629d0cf59f68baf8431ff657cebe7eef56117f060208d018d6132db565b6040805163ffffffff9092168252602082018690520160405180910390a3505050505050505050565b61182282610e42565b6001600160a01b0316836001600160a01b031614611870578261184483610e42565b604051634342715b60e11b81526001600160a01b03928316600482015291166024820152604401610b84565b610d468261238d565b606080602083013561189e57604051631e4ec46b60e01b815260040160405180910390fd5b60006118f4602085013560408601356118ba6080880188613795565b8080601f0160208091040260200160405190810160405280939291908181526020018383808284376000920191909152506123c892505050565b909350905060008161190757600161190a565b60025b905061192a61191c60208701876132db565b826108c96060890189613795565b6004549093506001600160a01b031680156119b05760405163043a78eb60e01b81526001600160a01b0382169063043a78eb9061196d90889088906004016139ca565b602060405180830381865afa15801561198a573d6000803e3d6000fd5b505050506040513d601f19601f820116820180604052508101906119ae91906139ef565b505b505050915091565b6119c0612b91565b60006119cf846000015161242d565b6020850151909150156119e9576119e98460200151612455565b7f00000000000000000000000000000000000000000000000000000000000000006001600160a01b0316632637a450826040518060a001604052808b63ffffffff168152602001611a398c61167e565b81526020018a815260200189815260200160008960200151111515815250866040518463ffffffff1660e01b8152600401611a75929190613a0c565b60806040518083038185885af1158015611a93573d6000803e3d6000fd5b50505050506040513d601f19601f82011682018060405250810190611ab89190613ab5565b979650505050505050565b6000546001600160a01b03163314610f1d5760405163118cdaa760e01b8152336004820152602401610b84565b63ffffffff8216600081815260016020908152604091829020849055815192835282018390527f238399d427b947898edb290f5ff0f9109849b1c3ba196a42e35f00c50a54b98b9101610e36565b600080546001600160a01b038381166001600160a01b0319831681178455604051919092169283917f8be0079c531659141344cd1fd0a4f28419497f9722a3daafe3b4186f6b6457e09190a35050565b6040805160038082526080820190925260009160208201606080368337019050509050856001600160a01b031660001b81600081518110611bd157611bd161375e565b6020026020010181815250508481600181518110611bf157611bf161375e565b6020026020010181815250508360001b81600281518110611c1457611c1461375e565b602002602001018181525050610fbf818484612537565b80156115ff5780341015611c525760405163cd1c886760e01b815260040160405180910390fd5b6010546040516000916001600160a01b03169034908381818185875af1925050503d8060008114611c9f576040519150601f19603f3d011682016040523d82523d6000602084013e611ca4565b606091505b5050905080610b395760405163cc7744d560e01b815260040160405180910390fd5b6000818152600c6020526040902054819015611cf557604051634c1f741560e01b815260040160405180910390fd5b6001600160a01b0384166000908152600e602052604090205415611d2c57604051631bbdf5c560e31b815260040160405180910390fd5b60118054906000611d3c83613aff565b91905055506000601254118015611d565750601254601154115b15611d745760405163303b682f60e01b815260040160405180910390fd5b6011546000838152600c602090815260408083208490556001600160a01b0388168352600e8252808320849055928252600d905220611db38482613b26565b50611dc084601154612670565b81601154856001600160a01b03167fc263b302aec62d29105026245f19e16f8e0137066ccd4a8bd941f716bd4096bb60405160405180910390a450505050565b6001600160a01b038216611e3257604051630b61174360e31b81526001600160a01b0383166004820152602401610b84565b6001600160a01b038381166000818152600a6020908152604080832094871680845294825291829020805460ff191686151590811790915591519182527f17307eab39ab6107e8899845ad3d59bd9653f200f220920489ca2b5937696c31910160405180910390a3505050565b6001600160a01b0383163b156114b057604051630a85bd0160e11b81526001600160a01b0384169063150b7a0290611ee1908890889087908790600401613be5565b6020604051808303816000875af1925050508015611f1c575060408051601f3d908101601f19168201909252611f1991810190613c18565b60015b611f85573d808015611f4a576040519150601f19603f3d011682016040523d82523d6000602084013e611f4f565b606091505b508051600003611f7d57604051633250574960e11b81526001600160a01b0385166004820152602401610b84565b805181602001fd5b6001600160e01b03198116630a85bd0160e11b14610fbf57604051633250574960e11b81526001600160a01b0385166004820152602401610b84565b60005b815181101561209857611ff3828281518110611fe257611fe261375e565b6020026020010151604001516120c8565b8181815181106120055761200561375e565b602002602001015160400151600360008484815181106120275761202761375e565b60200260200101516000015163ffffffff1663ffffffff16815260200190815260200160002060008484815181106120615761206161375e565b60200260200101516020015161ffff1661ffff168152602001908152602001600020908161208f9190613b26565b50600101611fc4565b507fbe4864a8e820971c0247f5992e2da559595f7bf076a21cb5928d443d2a13b67481604051610eb89190613c35565b600281015161ffff8116600314610b395781604051639a6d49cd60e01b8152600401610b849190612c5b565b60408051808201909152600080825260208201527f00000000000000000000000000000000000000000000000000000000000000006001600160a01b031663ddc28c586040518060a001604052808863ffffffff1681526020016121578961167e565b8152602001878152602001868152602001851515815250306040518363ffffffff1660e01b815260040161218c929190613a0c565b6040805180830381865afa1580156121a8573d6000803e3d6000fd5b505050506040513d601f19601f820116820180604052508101906113b69190613cc0565b6060600b8054610a82906133fd565b80806121ef57506001600160a01b03821615155b156122b15760006121ff84611638565b90506001600160a01b0383161580159061222b5750826001600160a01b0316816001600160a01b031614155b801561223e575061223c8184611596565b155b156122675760405163a9fbf51f60e01b81526001600160a01b0384166004820152602401610b84565b81156122af5783856001600160a01b0316826001600160a01b03167f8c5be1e5ebec7d5bd14f71427d1e84f3dd0314c0f7b2291e5b200ac8c7c3b92560405160405180910390a45b505b5050600090815260096020526040902080546001600160a01b0319166001600160a01b0392909216919091179055565b60006122f060208284866136cf565b61142a91613cdc565b60006122f06040602084866136cf565b610d46838361268a565b606061232282604081866136cf565b8080601f016020809104026020016040519081016040528093929190818152602001838380828437600092019190915250929695505050505050565b606083838360405160200161237593929190613cfa565b60405160208183030381529060405290509392505050565b600061239c60008360006126ef565b90506001600160a01b038116610b3957604051637e27328960e01b815260048101839052602401610b84565b80516060901515806123fc576040805160208101879052908101859052606001604051602081830303815290604052612423565b848433856040516020016124139493929190613d44565b6040516020818303038152906040525b9150935093915050565b6000813414612451576040516304fb820960e51b8152346004820152602401610b84565b5090565b60007f00000000000000000000000000000000000000000000000000000000000000006001600160a01b031663e4fe1d946040518163ffffffff1660e01b8152600401602060405180830381865afa1580156124b5573d6000803e3d6000fd5b505050506040513d601f19601f820116820180604052508101906124d99190613d78565b90506001600160a01b038116612502576040516329b99a9560e11b815260040160405180910390fd5b610b396001600160a01b038216337f0000000000000000000000000000000000000000000000000000000000000000856127e8565b825160609060005b8181101561258d578286828151811061255a5761255a61375e565b6020026020010151604051602001612573929190613d95565b60408051601f19818403018152919052925060010161253f565b506000828051906020012090506000816040516020016125d991907f19457468657265756d205369676e6564204d6573736167653a0a3332000000008152601c810191909152603c0190565b604051602081830303815290604052805190602001209050600061263587878080601f01602080910402602001604051908101604052809392919081815260200183838082843760009201919091525086939250506128429050565b600f549091506001600160a01b0380831691161461266657604051638baa579f60e01b815260040160405180910390fd5b5050505050505050565b610b3982826040518060200160405280600081525061286c565b6001600160a01b0382166126b457604051633250574960e11b815260006004820152602401610b84565b60006126c2838360006126ef565b90506001600160a01b03811615610d46576040516339e3563760e11b815260006004820152602401610b84565b6000828152600760205260408120546001600160a01b039081169083161561271c5761271c818486612884565b6001600160a01b0381161561275a576127396000856000806121db565b6001600160a01b038116600090815260086020526040902080546000190190555b6001600160a01b03851615612789576001600160a01b0385166000908152600860205260409020805460010190555b60008481526007602052604080822080546001600160a01b0319166001600160a01b0389811691821790925591518793918516917fddf252ad1be2c89b69c2b068fc378daa952ba7f163c4a11628f55a4df523b3ef91a4949350505050565b604080516001600160a01b0385811660248301528416604482015260648082018490528251808303909101815260849091019091526020810180516001600160e01b03166323b872dd60e01b179052610fea9085906128e8565b6000806000806128528686612959565b92509250925061286282826129a6565b5090949350505050565b612876838361268a565b610d46336000858585611e9f565b61288f838383612a5f565b610d46576001600160a01b0383166128bd57604051637e27328960e01b815260048101829052602401610b84565b60405163177e802f60e01b81526001600160a01b038316600482015260248101829052604401610b84565b600080602060008451602086016000885af18061290b576040513d6000823e3d81fd5b50506000513d91508115612923578060011415612930565b6001600160a01b0384163b155b15610fea57604051635274afe760e01b81526001600160a01b0385166004820152602401610b84565b600080600083516041036129935760208401516040850151606086015160001a61298588828585612ac2565b95509550955050505061299f565b50508151600091506002905b9250925092565b60008260038111156129ba576129ba613db7565b036129c3575050565b60018260038111156129d7576129d7613db7565b036129f55760405163f645eedf60e01b815260040160405180910390fd5b6002826003811115612a0957612a09613db7565b03612a2a5760405163fce698f760e01b815260048101829052602401610b84565b6003826003811115612a3e57612a3e613db7565b03610b39576040516335e2f38360e21b815260048101829052602401610b84565b60006001600160a01b03831615801590610f2c5750826001600160a01b0316846001600160a01b03161480612a995750612a998484611596565b80610f2c5750506000908152600960205260409020546001600160a01b03908116911614919050565b600080807f7fffffffffffffffffffffffffffffff5d576e7357a4501ddfe92f46681b20a0841115612afd5750600091506003905082612b87565b604080516000808252602082018084528a905260ff891692820192909252606081018790526080810186905260019060a0016020604051602081039080840390855afa158015612b51573d6000803e3d6000fd5b5050604051601f1901519150506001600160a01b038116612b7d57506000925060019150829050612b87565b9250600091508190505b9450945094915050565b60405180606001604052806000801916815260200160006001600160401b03168152602001612bd3604051806040016040528060008152602001600081525090565b905290565b6001600160e01b0319811681146115ff57600080fd5b600060208284031215612c0057600080fd5b813561142a81612bd8565b60005b83811015612c26578181015183820152602001612c0e565b50506000910152565b60008151808452612c47816020860160208601612c0b565b601f01601f19169290920160200192915050565b60208152600061142a6020830184612c2f565b600060208284031215612c8057600080fd5b5035919050565b6001600160a01b03811681146115ff57600080fd5b60008060408385031215612caf57600080fd5b8235612cba81612c87565b946020939093013593505050565b600060608284031215612cda57600080fd5b50919050565b60008083601f840112612cf257600080fd5b5081356001600160401b03811115612d0957600080fd5b602083019150836020828501011115612d2157600080fd5b9250929050565b600080600080600080600060e0888a031215612d4357600080fd5b612d4d8989612cc8565b96506060880135955060808801356001600160401b0380821115612d7057600080fd5b612d7c8b838c01612ce0565b909750955060a08a01359150612d9182612c87565b90935060c08901359080821115612da757600080fd5b50612db48a828b01612ce0565b989b979a50959850939692959293505050565b600060c08284031215612cda57600080fd5b60008060008385036080811215612def57600080fd5b84356001600160401b03811115612e0557600080fd5b612e1187828801612dc7565b9450506040601f1982011215612e2657600080fd5b506020840191506060840135612e3b81612c87565b809150509250925092565b6000608082019050825182526001600160401b0360208401511660208301526040830151612e81604084018280518252602090810151910152565b5092915050565b600080600060608486031215612e9d57600080fd5b8335612ea881612c87565b92506020840135612eb881612c87565b929592945050506040919091013590565b803563ffffffff81168114612edd57600080fd5b919050565b60008060408385031215612ef557600080fd5b612cba83612ec9565b803561ffff81168114612edd57600080fd5b60008060408385031215612f2357600080fd5b612f2c83612ec9565b9150612f3a60208401612efe565b90509250929050565b60008060208385031215612f5657600080fd5b82356001600160401b03811115612f6c57600080fd5b612f7885828601612ce0565b90969095509350505050565b600060208284031215612f9657600080fd5b813561142a81612c87565b60008060008060a08587031215612fb757600080fd5b612fc18686612cc8565b935060608501356001600160401b03811115612fdc57600080fd5b612fe887828801612ce0565b9094509250506080850135612ffc81612c87565b939692955090935050565b634e487b7160e01b600052604160045260246000fd5b604080519081016001600160401b038111828210171561303f5761303f613007565b60405290565b604051606081016001600160401b038111828210171561303f5761303f613007565b604051601f8201601f191681016001600160401b038111828210171561308f5761308f613007565b604052919050565b60006001600160401b038211156130b0576130b0613007565b50601f01601f191660200190565b60006130d16130cc84613097565b613067565b90508281528383830111156130e557600080fd5b828260208301376000602084830101529392505050565b60008060008060006080868803121561311457600080fd5b8535945060208601356001600160401b038082111561313257600080fd5b818801915088601f83011261314657600080fd5b613155898335602085016130be565b955060408801359450606088013591508082111561317257600080fd5b5061317f88828901612ce0565b969995985093965092949392505050565b80151581146115ff57600080fd5b600080604083850312156131b157600080fd5b82356131bc81612c87565b915060208301356131cc81613190565b809150509250929050565b600082601f8301126131e857600080fd5b61142a838335602085016130be565b6000806000806080858703121561320d57600080fd5b843561321881612c87565b9350602085013561322881612c87565b92506040850135915060608501356001600160401b0381111561324a57600080fd5b613256878288016131d7565b91505092959194509250565b60008083601f84011261327457600080fd5b5081356001600160401b0381111561328b57600080fd5b6020830191508360208260051b8501011115612d2157600080fd5b600080602083850312156132b957600080fd5b82356001600160401b038111156132cf57600080fd5b612f7885828601613262565b6000602082840312156132ed57600080fd5b61142a82612ec9565b6000806000806060858703121561330c57600080fd5b61331585612ec9565b935061332360208601612efe565b925060408501356001600160401b0381111561333e57600080fd5b61334a87828801612ce0565b95989497509550505050565b6000806040838503121561336957600080fd5b82356001600160401b0381111561337f57600080fd5b61338b85828601612dc7565b92505060208301356131cc81613190565b815181526020808301519082015260408101610a6d565b600080604083850312156133c657600080fd5b82356133d181612c87565b915060208301356131cc81612c87565b6000606082840312156133f357600080fd5b61142a8383612cc8565b600181811c9082168061341157607f821691505b602082108103612cda57634e487b7160e01b600052602260045260246000fd5b60006040828403121561344357600080fd5b61344b61301d565b82358152602083013560208201528091505092915050565b601f821115610d46576000816000526020600020601f850160051c8101602086101561348c5750805b601f850160051c820191505b81811015610fbf57828155600101613498565b6001600160401b038311156134c2576134c2613007565b6134d6836134d083546133fd565b83613463565b6000601f84116001811461350a57600085156134f25750838201355b600019600387901b1c1916600186901b1783556114b0565b600083815260209020601f19861690835b8281101561353b578685013582556020948501946001909201910161351b565b50868210156135585760001960f88860031b161c19848701351681555b505060018560011b0183555050505050565b600060208083526000845461357e816133fd565b80602087015260406001808416600081146135a057600181146135bc576135ec565b60ff19851660408a0152604084151560051b8a010195506135ec565b89600052602060002060005b858110156135e35781548b82018601529083019088016135c8565b8a016040019650505b509398975050505050505050565b60006001600160401b038084111561361457613614613007565b8360051b6020613625818301613067565b86815291850191818101903684111561363d57600080fd5b865b848110156136c3578035868111156136575760008081fd5b8801606036829003121561366b5760008081fd5b613673613045565b61367c82612ec9565b8152613689868301612efe565b86820152604080830135898111156136a15760008081fd5b6136ad368286016131d7565b918301919091525084525091830191830161363f565b50979650505050505050565b600080858511156136df57600080fd5b838611156136ec57600080fd5b5050820193919092039150565b6000845161370b818460208901612c0b565b8201838582376000930192835250909392505050565b81835281816020850137506000828201602090810191909152601f909101601f19169091010190565b602081526000610f2c602083018486613721565b634e487b7160e01b600052603260045260246000fd5b6000823561013e1983360301811261378b57600080fd5b9190910192915050565b6000808335601e198436030181126137ac57600080fd5b8301803591506001600160401b038211156137c657600080fd5b602001915036819003821315612d2157600080fd5b6001600160401b03811681146115ff57600080fd5b63ffffffff6137fe89612ec9565b168152602088013560208201526000604089013561381b816137db565b6001600160401b03811660408401525087606083015260e0608083015261384660e083018789613721565b6001600160a01b03861660a084015282810360c0840152613868818587613721565b9a9950505050505050505050565b60006020828403121561388857600080fd5b81516001600160401b0381111561389e57600080fd5b8201601f810184136138af57600080fd5b80516138bd6130cc82613097565b8181528560208385010111156138d257600080fd5b6113b6826020830160208601612c0b565b6000835160206138f7828560208901612c0b565b818401915060008554613909816133fd565b60018281168015613921576001811461393657613963565b60ff1984168752821515830287019450613963565b89600052602060002060005b8481101561395b57815489820152908301908701613942565b505082870194505b50929998505050505050505050565b60006020828403121561398457600080fd5b813561142a816137db565b60018060a01b038516815283602082015261ffff831660408201526080606082015260006139c06080830184612c2f565b9695505050505050565b6040815260006139dd6040830185612c2f565b82810360208401526113b68185612c2f565b600060208284031215613a0157600080fd5b815161142a81613190565b6040815263ffffffff8351166040820152602083015160608201526000604084015160a06080840152613a4260e0840182612c2f565b90506060850151603f198483030160a0850152613a5f8282612c2f565b60809690960151151560c08501525050506001600160a01b039190911660209091015290565b600060408284031215613a9757600080fd5b613a9f61301d565b9050815181526020820151602082015292915050565b600060808284031215613ac757600080fd5b613acf613045565b825181526020830151613ae1816137db565b6020820152613af38460408501613a85565b60408201529392505050565b600060018201613b1f57634e487b7160e01b600052601160045260246000fd5b5060010190565b81516001600160401b03811115613b3f57613b3f613007565b613b5381613b4d84546133fd565b84613463565b602080601f831160018114613b885760008415613b705750858301515b600019600386901b1c1916600185901b178555610fbf565b600085815260208120601f198616915b82811015613bb757888601518255948401946001909101908401613b98565b5085821015613bd55787850151600019600388901b60f8161c191681555b5050505050600190811b01905550565b6001600160a01b03858116825284166020820152604081018390526080606082018190526000906139c090830184612c2f565b600060208284031215613c2a57600080fd5b815161142a81612bd8565b600060208083018184528085518083526040925060408601915060408160051b87010184880160005b83811015613cb257888303603f190185528151805163ffffffff1684528781015161ffff16888501528601516060878501819052613c9e81860183612c2f565b968901969450505090860190600101613c5e565b509098975050505050505050565b600060408284031215613cd257600080fd5b61142a8383613a85565b80356020831015610a6d57600019602084900360031b1b1692915050565b60c084901b6001600160c01b031916815260e083901b6001600160e01b03191660088201528151600090613d3581600c850160208701612c0b565b91909101600c01949350505050565b84815283602082015282604082015260008251613d68816060850160208701612c0b565b9190910160600195945050505050565b600060208284031215613d8a57600080fd5b815161142a81612c87565b60008351613da7818460208801612c0b565b9190910191825250602001919050565b634e487b7160e01b600052602160045260246000fdfea26469706673582212204cb4029e970bde3d89643f0fbc3330b0546abfd6c3e5fd6029795f9ec66bc3f364736f6c63430008160033",
  "linkReferences": {},
  "deployedLinkReferences": {}
}