{
  "abi": [
    {
      "type": "constructor",
      "inputs": [
        {
          "name": "_name",
          "type": "string",
          "internalType": "string"
        },
        {
          "name": "_symbol",
          "type": "string",
          "internalType": "string"
        },
        {
          "name": "_uri",
          "type": "string",
          "internalType": "string"
        },
        {
          "name": "_beneficiary",
          "type": "address",
          "internalType": "address"
        },
        {
          "name": "_authorizedSigner",
          "type": "address",
          "internalType": "address"
        }
      ],
      "stateMutability": "nonpayable"
    },
    {
      "type": "function",
      "name": "approve",
      "inputs": [
        {
          "name": "to",
          "type": "address",
          "internalType": "address"
        },
        {
          "name": "tokenId",
          "type": "uint256",
          "internalType": "uint256"
        }
      ],
      "outputs": [],
      "stateMutability": "nonpayable"
    },
    {
      "type": "function",
      "name": "balanceOf",
      "inputs": [
        {
          "name": "owner",
          "type": "address",
          "internalType": "address"
        }
      ],
      "outputs": [
        {
          "name": "",
          "type": "uint256",
          "internalType": "uint256"
        }
      ],
      "stateMutability": "view"
    },
    {
      "type": "function",
      "name": "beneficiary",
      "inputs": [],
      "outputs": [
        {
          "name": "",
          "type": "address",
          "internalType": "address"
        }
      ],
      "stateMutability": "view"
    },
    {
      "type": "function",
      "name": "currency",
      "inputs": [],
      "outputs": [
        {
          "name": "",
          "type": "address",
          "internalType": "address"
        }
      ],
      "stateMutability": "view"
    },
    {
      "type": "function",
      "name": "getApproved",
      "inputs": [
        {
          "name": "tokenId",
          "type": "uint256",
          "internalType": "uint256"
        }
      ],
      "outputs": [
        {
          "name": "",
          "type": "address",
          "internalType": "address"
        }
      ],
      "stateMutability": "view"
    },
    {
      "type": "function",
      "name": "isApprovedForAll",
      "inputs": [
        {
          "name": "owner",
          "type": "address",
          "internalType": "address"
        },
        {
          "name": "operator",
          "type": "address",
          "internalType": "address"
        }
      ],
      "outputs": [
        {
          "name": "",
          "type": "bool",
          "internalType": "bool"
        }
      ],
      "stateMutability": "view"
    },
    {
      "type": "function",
      "name": "mint",
      "inputs": [
        {
          "name": "to",
          "type": "address",
          "internalType": "address"
        }
      ],
      "outputs": [],
      "stateMutability": "payable"
    },
    {
      "type": "function",
      "name": "name",
      "inputs": [],
      "outputs": [
        {
          "name": "",
          "type": "string",
          "internalType": "string"
        }
      ],
      "stateMutability": "view"
    },
    {
      "type": "function",
      "name": "nextTokenId",
      "inputs": [],
      "outputs": [
        {
          "name": "",
          "type": "uint256",
          "internalType": "uint256"
        }
      ],
      "stateMutability": "view"
    },
    {
      "type": "function",
      "name": "owner",
      "inputs": [],
      "outputs": [
        {
          "name": "",
          "type": "address",
          "internalType": "address"
        }
      ],
      "stateMutability": "view"
    },
    {
      "type": "function",
      "name": "ownerOf",
      "inputs": [
        {
          "name": "tokenId",
          "type": "uint256",
          "internalType": "uint256"
        }
      ],
      "outputs": [
        {
          "name": "",
          "type": "address",
          "internalType": "address"
        }
      ],
      "stateMutability": "view"
    },
    {
      "type": "function",
      "name": "price",
      "inputs": [],
      "outputs": [
        {
          "name": "",
          "type": "uint256",
          "internalType": "uint256"
        }
      ],
      "stateMutability": "view"
    },
    {
      "type": "function",
      "name": "renounceOwnership",
      "inputs": [],
      "outputs": [],
      "stateMutability": "nonpayable"
    },
    {
      "type": "function",
      "name": "safeTransferFrom",
      "inputs": [
        {
          "name": "from",
          "type": "address",
          "internalType": "address"
        },
        {
          "name": "to",
          "type": "address",
          "internalType": "address"
        },
        {
          "name": "tokenId",
          "type": "uint256",
          "internalType": "uint256"
        }
      ],
      "outputs": [],
      "stateMutability": "nonpayable"
    },
    {
      "type": "function",
      "name": "safeTransferFrom",
      "inputs": [
        {
          "name": "from",
          "type": "address",
          "internalType": "address"
        },
        {
          "name": "to",
          "type": "address",
          "internalType": "address"
        },
        {
          "name": "tokenId",
          "type": "uint256",
          "internalType": "uint256"
        },
        {
          "name": "data",
          "type": "bytes",
          "internalType": "bytes"
        }
      ],
      "outputs": [],
      "stateMutability": "nonpayable"
    },
    {
      "type": "function",
      "name": "setApprovalForAll",
      "inputs": [
        {
          "name": "operator",
          "type": "address",
          "internalType": "address"
        },
        {
          "name": "approved",
          "type": "bool",
          "internalType": "bool"
        }
      ],
      "outputs": [],
      "stateMutability": "nonpayable"
    },
    {
      "type": "function",
      "name": "setBeneficiary",
      "inputs": [
        {
          "name": "_beneficiary",
          "type": "address",
          "internalType": "address"
        }
      ],
      "outputs": [],
      "stateMutability": "nonpayable"
    },
    {
      "type": "function",
      "name": "setCurrency",
      "inputs": [
        {
          "name": "_currency",
          "type": "address",
          "internalType": "address"
        }
      ],
      "outputs": [],
      "stateMutability": "nonpayable"
    },
    {
      "type": "function",
      "name": "setPrice",
      "inputs": [
        {
          "name": "_price",
          "type": "uint256",
          "internalType": "uint256"
        }
      ],
      "outputs": [],
      "stateMutability": "nonpayable"
    },
    {
      "type": "function",
      "name": "setTokenLimit",
      "inputs": [
        {
          "name": "_tokenLimit",
          "type": "uint256",
          "internalType": "uint256"
        }
      ],
      "outputs": [],
      "stateMutability": "nonpayable"
    },
    {
      "type": "function",
      "name": "settle",
      "inputs": [],
      "outputs": [],
      "stateMutability": "payable"
    },
    {
      "type": "function",
      "name": "supportsInterface",
      "inputs": [
        {
          "name": "interfaceId",
          "type": "bytes4",
          "internalType": "bytes4"
        }
      ],
      "outputs": [
        {
          "name": "",
          "type": "bool",
          "internalType": "bool"
        }
      ],
      "stateMutability": "view"
    },
    {
      "type": "function",
      "name": "symbol",
      "inputs": [],
      "outputs": [
        {
          "name": "",
          "type": "string",
          "internalType": "string"
        }
      ],
      "stateMutability": "view"
    },
    {
      "type": "function",
      "name": "tokenLimit",
      "inputs": [],
      "outputs": [
        {
          "name": "",
          "type": "uint256",
          "internalType": "uint256"
        }
      ],
      "stateMutability": "view"
    },
    {
      "type": "function",
      "name": "tokenURI",
      "inputs": [
        {
          "name": "",
          "type": "uint256",
          "internalType": "uint256"
        }
      ],
      "outputs": [
        {
          "name": "",
          "type": "string",
          "internalType": "string"
        }
      ],
      "stateMutability": "view"
    },
    {
      "type": "function",
      "name": "transferFrom",
      "inputs": [
        {
          "name": "from",
          "type": "address",
          "internalType": "address"
        },
        {
          "name": "to",
          "type": "address",
          "internalType": "address"
        },
        {
          "name": "tokenId",
          "type": "uint256",
          "internalType": "uint256"
        }
      ],
      "outputs": [],
      "stateMutability": "nonpayable"
    },
    {
      "type": "function",
      "name": "transferOwnership",
      "inputs": [
        {
          "name": "newOwner",
          "type": "address",
          "internalType": "address"
        }
      ],
      "outputs": [],
      "stateMutability": "nonpayable"
    },
    {
      "type": "function",
      "name": "uri",
      "inputs": [],
      "outputs": [
        {
          "name": "",
          "type": "string",
          "internalType": "string"
        }
      ],
      "stateMutability": "view"
    },
    {
      "type": "function",
      "name": "version",
      "inputs": [],
      "outputs": [
        {
          "name": "",
          "type": "uint256",
          "internalType": "uint256"
        }
      ],
      "stateMutability": "view"
    },
    {
      "type": "event",
      "name": "Approval",
      "inputs": [
        {
          "name": "owner",
          "type": "address",
          "indexed": true,
          "internalType": "address"
        },
        {
          "name": "approved",
          "type": "address",
          "indexed": true,
          "internalType": "address"
        },
        {
          "name": "tokenId",
          "type": "uint256",
          "indexed": true,
          "internalType": "uint256"
        }
      ],
      "anonymous": false
    },
    {
      "type": "event",
      "name": "ApprovalForAll",
      "inputs": [
        {
          "name": "owner",
          "type": "address",
          "indexed": true,
          "internalType": "address"
        },
        {
          "name": "operator",
          "type": "address",
          "indexed": true,
          "internalType": "address"
        },
        {
          "name": "approved",
          "type": "bool",
          "indexed": false,
          "internalType": "bool"
        }
      ],
      "anonymous": false
    },
    {
      "type": "event",
      "name": "OwnershipTransferred",
      "inputs": [
        {
          "name": "previousOwner",
          "type": "address",
          "indexed": true,
          "internalType": "address"
        },
        {
          "name": "newOwner",
          "type": "address",
          "indexed": true,
          "internalType": "address"
        }
      ],
      "anonymous": false
    },
    {
      "type": "event",
      "name": "TokenLimitSet",
      "inputs": [
        {
          "name": "tokenLimit",
          "type": "uint256",
          "indexed": false,
          "internalType": "uint256"
        }
      ],
      "anonymous": false
    },
    {
      "type": "event",
      "name": "Transfer",
      "inputs": [
        {
          "name": "from",
          "type": "address",
          "indexed": true,
          "internalType": "address"
        },
        {
          "name": "to",
          "type": "address",
          "indexed": true,
          "internalType": "address"
        },
        {
          "name": "tokenId",
          "type": "uint256",
          "indexed": true,
          "internalType": "uint256"
        }
      ],
      "anonymous": false
    },
    {
      "type": "error",
      "name": "CannotSettle",
      "inputs": []
    },
    {
      "type": "error",
      "name": "ERC721IncorrectOwner",
      "inputs": [
        {
          "name": "sender",
          "type": "address",
          "internalType": "address"
        },
        {
          "name": "tokenId",
          "type": "uint256",
          "internalType": "uint256"
        },
        {
          "name": "owner",
          "type": "address",
          "internalType": "address"
        }
      ]
    },
    {
      "type": "error",
      "name": "ERC721InsufficientApproval",
      "inputs": [
        {
          "name": "operator",
          "type": "address",
          "internalType": "address"
        },
        {
          "name": "tokenId",
          "type": "uint256",
          "internalType": "uint256"
        }
      ]
    },
    {
      "type": "error",
      "name": "ERC721InvalidApprover",
      "inputs": [
        {
          "name": "approver",
          "type": "address",
          "internalType": "address"
        }
      ]
    },
    {
      "type": "error",
      "name": "ERC721InvalidOperator",
      "inputs": [
        {
          "name": "operator",
          "type": "address",
          "internalType": "address"
        }
      ]
    },
    {
      "type": "error",
      "name": "ERC721InvalidOwner",
      "inputs": [
        {
          "name": "owner",
          "type": "address",
          "internalType": "address"
        }
      ]
    },
    {
      "type": "error",
      "name": "ERC721InvalidReceiver",
      "inputs": [
        {
          "name": "receiver",
          "type": "address",
          "internalType": "address"
        }
      ]
    },
    {
      "type": "error",
      "name": "ERC721InvalidSender",
      "inputs": [
        {
          "name": "sender",
          "type": "address",
          "internalType": "address"
        }
      ]
    },
    {
      "type": "error",
      "name": "ERC721NonexistentToken",
      "inputs": [
        {
          "name": "tokenId",
          "type": "uint256",
          "internalType": "uint256"
        }
      ]
    },
    {
      "type": "error",
      "name": "InvalidBalance",
      "inputs": []
    },
    {
      "type": "error",
      "name": "InvalidBeneficiary",
      "inputs": []
    },
    {
      "type": "error",
      "name": "OwnableInvalidOwner",
      "inputs": [
        {
          "name": "owner",
          "type": "address",
          "internalType": "address"
        }
      ]
    },
    {
      "type": "error",
      "name": "OwnableUnauthorizedAccount",
      "inputs": [
        {
          "name": "account",
          "type": "address",
          "internalType": "address"
        }
      ]
    },
    {
      "type": "error",
      "name": "TokenLimitReached",
      "inputs": []
    }
  ],
  "bytecode": {
    "object": "0x608060405234801561000f575f80fd5b506040516117ff3803806117ff83398101604081905261002e916101cf565b813386865f61003d8382610303565b50600161004a8282610303565b5050506001600160a01b03811661007a57604051631e4fbdf760e01b81525f600482015260240160405180910390fd5b610083816100c6565b50600980546001600160a01b0319166001600160a01b0392909216919091179055600d6100b08482610303565b50506001600a819055600b55506103bd92505050565b600680546001600160a01b038381166001600160a01b0319831681179093556040519116919082907f8be0079c531659141344cd1fd0a4f28419497f9722a3daafe3b4186f6b6457e0905f90a35050565b634e487b7160e01b5f52604160045260245ffd5b5f82601f83011261013a575f80fd5b81516001600160401b0381111561015357610153610117565b604051601f8201601f19908116603f011681016001600160401b038111828210171561018157610181610117565b604052818152838201602001851015610198575f80fd5b8160208501602083015e5f918101602001919091529392505050565b80516001600160a01b03811681146101ca575f80fd5b919050565b5f805f805f60a086880312156101e3575f80fd5b85516001600160401b038111156101f8575f80fd5b6102048882890161012b565b602088015190965090506001600160401b03811115610221575f80fd5b61022d8882890161012b565b604088015190955090506001600160401b0381111561024a575f80fd5b6102568882890161012b565b935050610265606087016101b4565b9150610273608087016101b4565b90509295509295909350565b600181811c9082168061029357607f821691505b6020821081036102b157634e487b7160e01b5f52602260045260245ffd5b50919050565b601f8211156102fe57805f5260205f20601f840160051c810160208510156102dc5750805b601f840160051c820191505b818110156102fb575f81556001016102e8565b50505b505050565b81516001600160401b0381111561031c5761031c610117565b6103308161032a845461027f565b846102b7565b6020601f821160018114610362575f831561034b5750848201515b5f19600385901b1c1916600184901b1784556102fb565b5f84815260208120601f198516915b828110156103915787850151825560209485019460019092019101610371565b50848210156103ae57868401515f19600387901b60f8161c191681555b50505050600190811b01905550565b611435806103ca5f395ff3fe608060405260043610610151575f3560e01c806301ffc9a71461015557806306fdde0314610189578063081812fc146101aa578063095ea7b3146101d657806311da60b4146101f75780631c31f710146101ff57806323b872dd1461021e5780632f84c3911461023d57806338af3eed1461025c57806342842e0e1461027b57806354fd4d501461029a57806356c7627e146102bd5780636352211e146102d25780636a627842146102f157806370a0823114610304578063715018a61461032357806375794a3c146103375780638da5cb5b1461034c57806391b7f5ed1461036057806395d89b411461037f578063a035b1fe14610393578063a22cb465146103a8578063b88d4fde146103c7578063c0e68fec146103e6578063c87b56dd14610405578063e5a6b10f14610424578063e985e9c514610443578063eac989f814610462578063f2fde38b14610476575b5f80fd5b348015610160575f80fd5b5061017461016f3660046110ad565b610495565b60405190151581526020015b60405180910390f35b348015610194575f80fd5b5061019d6104e6565b60405161018091906110fd565b3480156101b5575f80fd5b506101c96101c436600461110f565b610575565b6040516101809190611126565b3480156101e1575f80fd5b506101f56101f0366004611155565b610589565b005b6101f5610598565b34801561020a575f80fd5b506101f561021936600461117d565b610708565b348015610229575f80fd5b506101f5610238366004611196565b610732565b348015610248575f80fd5b506101f561025736600461117d565b6107c4565b348015610267575f80fd5b506009546101c9906001600160a01b031681565b348015610286575f80fd5b506101f5610295366004611196565b6107ee565b3480156102a5575f80fd5b506102af600a5481565b604051908152602001610180565b3480156102c8575f80fd5b506102af600c5481565b3480156102dd575f80fd5b506101c96102ec36600461110f565b61080d565b6101f56102ff36600461117d565b610817565b34801561030f575f80fd5b506102af61031e36600461117d565b610874565b34801561032e575f80fd5b506101f56108b9565b348015610342575f80fd5b506102af600b5481565b348015610357575f80fd5b506101c96108ca565b34801561036b575f80fd5b506101f561037a36600461110f565b6108d9565b34801561038a575f80fd5b5061019d6108e6565b34801561039e575f80fd5b506102af60075481565b3480156103b3575f80fd5b506101f56103c23660046111dd565b6108f5565b3480156103d2575f80fd5b506101f56103e1366004611226565b610900565b3480156103f1575f80fd5b506101f561040036600461110f565b610918565b348015610410575f80fd5b5061019d61041f36600461110f565b61095b565b34801561042f575f80fd5b506008546101c9906001600160a01b031681565b34801561044e575f80fd5b5061017461045d366004611300565b6109ed565b34801561046d575f80fd5b5061019d610a1a565b348015610481575f80fd5b506101f561049036600461117d565b610aa6565b5f6001600160e01b031982166380ac58cd60e01b14806104c557506001600160e01b03198216635b5e139f60e01b145b806104e057506301ffc9a760e01b6001600160e01b03198316145b92915050565b60605f80546104f490611331565b80601f016020809104026020016040519081016040528092919081815260200182805461052090611331565b801561056b5780601f106105425761010080835404028352916020019161056b565b820191905f5260205f20905b81548152906001019060200180831161054e57829003601f168201915b5050505050905090565b5f61057f82610ae0565b506104e082610b17565b610594828233610b31565b5050565b6007545f036105a357565b6009546001600160a01b03166105cc57604051631559b7d760e21b815260040160405180910390fd5b6008546001600160a01b03166106735760075434146105fe5760405163c52e3eff60e01b815260040160405180910390fd5b6009546007546040515f926001600160a01b031691908381818185875af1925050503d805f811461064a576040519150601f19603f3d011682016040523d82523d5f602084013e61064f565b606091505b505090508061067157604051633c2c1d5160e11b815260040160405180910390fd5b505b6008546001600160a01b031615610706576008546009546007546040516323b872dd60e01b81523360048201526001600160a01b03928316602482015260448101919091529116906323b872dd906064016020604051808303815f875af11580156106e0573d5f803e3d5ffd5b505050506040513d601f19601f820116820180604052508101906107049190611369565b505b565b610710610b3e565b600980546001600160a01b0319166001600160a01b0392909216919091179055565b6001600160a01b038216610764575f604051633250574960e11b815260040161075b9190611126565b60405180910390fd5b5f610770838333610b70565b9050836001600160a01b0316816001600160a01b0316146107be576040516364283d7b60e01b81526001600160a01b038086166004830152602482018490528216604482015260640161075b565b50505050565b6107cc610b3e565b600880546001600160a01b0319166001600160a01b0392909216919091179055565b61080883838360405180602001604052805f815250610900565b505050565b5f6104e082610ae0565b5f600c5411801561082b5750600c54600b54115b15610849576040516353bb24f960e01b815260040160405180910390fd5b610851610598565b61085d81600b54610c5d565b600b8054905f61086c83611384565b919050555050565b5f6001600160a01b03821661089e575f6040516322718ad960e21b815260040161075b9190611126565b506001600160a01b03165f9081526003602052604090205490565b6108c1610b3e565b6107065f610cbe565b6006546001600160a01b031690565b6108e1610b3e565b600755565b6060600180546104f490611331565b610594338383610d0f565b61090b848484610732565b6107be3385858585610da4565b610920610b3e565b600c8190556040518181527f2234301274fb41d523ef06ea34da96c763ebe8f4aaa0c846d293649164efbdd49060200160405180910390a150565b6060600d805461096a90611331565b80601f016020809104026020016040519081016040528092919081815260200182805461099690611331565b80156109e15780601f106109b8576101008083540402835291602001916109e1565b820191905f5260205f20905b8154815290600101906020018083116109c457829003601f168201915b50505050509050919050565b6001600160a01b039182165f90815260056020908152604080832093909416825291909152205460ff1690565b600d8054610a2790611331565b80601f0160208091040260200160405190810160405280929190818152602001828054610a5390611331565b8015610a9e5780601f10610a7557610100808354040283529160200191610a9e565b820191905f5260205f20905b815481529060010190602001808311610a8157829003601f168201915b505050505081565b610aae610b3e565b6001600160a01b038116610ad7575f604051631e4fbdf760e01b815260040161075b9190611126565b61070481610cbe565b5f80610aeb83610eba565b90506001600160a01b0381166104e057604051637e27328960e01b81526004810184905260240161075b565b5f908152600460205260409020546001600160a01b031690565b6108088383836001610ed4565b33610b476108ca565b6001600160a01b031614610706573360405163118cdaa760e01b815260040161075b9190611126565b5f80610b7b84610eba565b90506001600160a01b03831615610b9757610b97818486610fcf565b6001600160a01b03811615610bd157610bb25f855f80610ed4565b6001600160a01b0381165f90815260036020526040902080545f190190555b6001600160a01b03851615610bff576001600160a01b0385165f908152600360205260409020805460010190555b5f8481526002602052604080822080546001600160a01b0319166001600160a01b0389811691821790925591518793918516917fddf252ad1be2c89b69c2b068fc378daa952ba7f163c4a11628f55a4df523b3ef91a4949350505050565b6001600160a01b038216610c86575f604051633250574960e11b815260040161075b9190611126565b5f610c9283835f610b70565b90506001600160a01b03811615610808575f6040516339e3563760e11b815260040161075b9190611126565b600680546001600160a01b038381166001600160a01b0319831681179093556040519116919082907f8be0079c531659141344cd1fd0a4f28419497f9722a3daafe3b4186f6b6457e0905f90a35050565b6001600160a01b038216610d385781604051630b61174360e31b815260040161075b9190611126565b6001600160a01b038381165f81815260056020908152604080832094871680845294825291829020805460ff191686151590811790915591519182527f17307eab39ab6107e8899845ad3d59bd9653f200f220920489ca2b5937696c31910160405180910390a3505050565b6001600160a01b0383163b15610eb357604051630a85bd0160e11b81526001600160a01b0384169063150b7a0290610de69088908890879087906004016113a8565b6020604051808303815f875af1925050508015610e20575060408051601f3d908101601f19168201909252610e1d918101906113e4565b60015b610e7e573d808015610e4d576040519150601f19603f3d011682016040523d82523d5f602084013e610e52565b606091505b5080515f03610e765783604051633250574960e11b815260040161075b9190611126565b805181602001fd5b6001600160e01b03198116630a85bd0160e11b14610eb15783604051633250574960e11b815260040161075b9190611126565b505b5050505050565b5f908152600260205260409020546001600160a01b031690565b8080610ee857506001600160a01b03821615155b15610fa0575f610ef784610ae0565b90506001600160a01b03831615801590610f235750826001600160a01b0316816001600160a01b031614155b8015610f365750610f3481846109ed565b155b15610f56578260405163a9fbf51f60e01b815260040161075b9190611126565b8115610f9e5783856001600160a01b0316826001600160a01b03167f8c5be1e5ebec7d5bd14f71427d1e84f3dd0314c0f7b2291e5b200ac8c7c3b92560405160405180910390a45b505b50505f90815260046020526040902080546001600160a01b0319166001600160a01b0392909216919091179055565b610fda838383611033565b610808576001600160a01b03831661100857604051637e27328960e01b81526004810182905260240161075b565b60405163177e802f60e01b81526001600160a01b03831660048201526024810182905260440161075b565b5f6001600160a01b038316158015906110905750826001600160a01b0316846001600160a01b0316148061106c575061106c84846109ed565b806110905750826001600160a01b031661108583610b17565b6001600160a01b0316145b949350505050565b6001600160e01b031981168114610704575f80fd5b5f602082840312156110bd575f80fd5b81356110c881611098565b9392505050565b5f81518084528060208401602086015e5f602082860101526020601f19601f83011685010191505092915050565b602081525f6110c860208301846110cf565b5f6020828403121561111f575f80fd5b5035919050565b6001600160a01b0391909116815260200190565b80356001600160a01b0381168114611150575f80fd5b919050565b5f8060408385031215611166575f80fd5b61116f8361113a565b946020939093013593505050565b5f6020828403121561118d575f80fd5b6110c88261113a565b5f805f606084860312156111a8575f80fd5b6111b18461113a565b92506111bf6020850161113a565b929592945050506040919091013590565b8015158114610704575f80fd5b5f80604083850312156111ee575f80fd5b6111f78361113a565b91506020830135611207816111d0565b809150509250929050565b634e487b7160e01b5f52604160045260245ffd5b5f805f8060808587031215611239575f80fd5b6112428561113a565b93506112506020860161113a565b92506040850135915060608501356001600160401b03811115611271575f80fd5b8501601f81018713611281575f80fd5b80356001600160401b0381111561129a5761129a611212565b604051601f8201601f19908116603f011681016001600160401b03811182821017156112c8576112c8611212565b6040528181528282016020018910156112df575f80fd5b816020840160208301375f6020838301015280935050505092959194509250565b5f8060408385031215611311575f80fd5b61131a8361113a565b91506113286020840161113a565b90509250929050565b600181811c9082168061134557607f821691505b60208210810361136357634e487b7160e01b5f52602260045260245ffd5b50919050565b5f60208284031215611379575f80fd5b81516110c8816111d0565b5f600182016113a157634e487b7160e01b5f52601160045260245ffd5b5060010190565b6001600160a01b03858116825284166020820152604081018390526080606082018190525f906113da908301846110cf565b9695505050505050565b5f602082840312156113f4575f80fd5b81516110c88161109856fea2646970667358221220bacac54b56227d0bbbedeb63960c55591d1de24794eab2e78dff759122d35bf064736f6c634300081a0033",
    "linkReferences": {}
  },
  "methodIdentifiers": {
    "approve(address,uint256)": "095ea7b3",
    "balanceOf(address)": "70a08231",
    "beneficiary()": "38af3eed",
    "currency()": "e5a6b10f",
    "getApproved(uint256)": "081812fc",
    "isApprovedForAll(address,address)": "e985e9c5",
    "mint(address)": "6a627842",
    "name()": "06fdde03",
    "nextTokenId()": "75794a3c",
    "owner()": "8da5cb5b",
    "ownerOf(uint256)": "6352211e",
    "price()": "a035b1fe",
    "renounceOwnership()": "715018a6",
    "safeTransferFrom(address,address,uint256)": "42842e0e",
    "safeTransferFrom(address,address,uint256,bytes)": "b88d4fde",
    "setApprovalForAll(address,bool)": "a22cb465",
    "setBeneficiary(address)": "1c31f710",
    "setCurrency(address)": "2f84c391",
    "setPrice(uint256)": "91b7f5ed",
    "setTokenLimit(uint256)": "c0e68fec",
    "settle()": "11da60b4",
    "supportsInterface(bytes4)": "01ffc9a7",
    "symbol()": "95d89b41",
    "tokenLimit()": "56c7627e",
    "tokenURI(uint256)": "c87b56dd",
    "transferFrom(address,address,uint256)": "23b872dd",
    "transferOwnership(address)": "f2fde38b",
    "uri()": "eac989f8",
    "version()": "54fd4d50"
  },
  "id": 21
}