{
  "_format": "hh-sol-artifact-1",
  "contractName": "PaymentSplitter",
  "sourceName": "contracts/payment/PaymentSplitter.sol",
  "abi": [
    {
      "inputs": [
        {
          "internalType": "address[]",
          "name": "payees",
          "type": "address[]"
        },
        {
          "internalType": "uint256[]",
          "name": "shares_",
          "type": "uint256[]"
        }
      ],
      "stateMutability": "payable",
      "type": "constructor"
    },
    {
      "inputs": [],
      "name": "AccountHasNoShare",
      "type": "error"
    },
    {
      "inputs": [],
      "name": "AccountHasShare",
      "type": "error"
    },
    {
      "inputs": [],
      "name": "InvalidAddress",
      "type": "error"
    },
    {
      "inputs": [],
      "name": "InvalidShare",
      "type": "error"
    },
    {
      "inputs": [],
      "name": "LengthMismatch",
      "type": "error"
    },
    {
      "inputs": [],
      "name": "NoDueAmount",
      "type": "error"
    },
    {
      "inputs": [],
      "name": "ZeroLength",
      "type": "error"
    },
    {
      "anonymous": false,
      "inputs": [
        {
          "indexed": true,
          "internalType": "contract IERC20",
          "name": "token",
          "type": "address"
        },
        {
          "indexed": false,
          "internalType": "address",
          "name": "to",
          "type": "address"
        },
        {
          "indexed": false,
          "internalType": "uint256",
          "name": "amount",
          "type": "uint256"
        }
      ],
      "name": "ERC20PaymentReleased",
      "type": "event"
    },
    {
      "anonymous": false,
      "inputs": [
        {
          "indexed": false,
          "internalType": "address",
          "name": "account",
          "type": "address"
        },
        {
          "indexed": false,
          "internalType": "uint256",
          "name": "shares",
          "type": "uint256"
        }
      ],
      "name": "PayeeAdded",
      "type": "event"
    },
    {
      "anonymous": false,
      "inputs": [],
      "name": "PayeesReset",
      "type": "event"
    },
    {
      "anonymous": false,
      "inputs": [
        {
          "indexed": false,
          "internalType": "address",
          "name": "from",
          "type": "address"
        },
        {
          "indexed": false,
          "internalType": "uint256",
          "name": "amount",
          "type": "uint256"
        }
      ],
      "name": "PaymentReceived",
      "type": "event"
    },
    {
      "anonymous": false,
      "inputs": [
        {
          "indexed": false,
          "internalType": "address",
          "name": "to",
          "type": "address"
        },
        {
          "indexed": false,
          "internalType": "uint256",
          "name": "amount",
          "type": "uint256"
        }
      ],
      "name": "PaymentReleased",
      "type": "event"
    },
    {
      "inputs": [],
      "name": "allPayees",
      "outputs": [
        {
          "components": [
            {
              "internalType": "address",
              "name": "account",
              "type": "address"
            },
            {
              "internalType": "uint256",
              "name": "shares",
              "type": "uint256"
            }
          ],
          "internalType": "struct Payee[]",
          "name": "payees",
          "type": "tuple[]"
        }
      ],
      "stateMutability": "view",
      "type": "function"
    },
    {
      "inputs": [
        {
          "internalType": "contract IERC20",
          "name": "token",
          "type": "address"
        },
        {
          "internalType": "address",
          "name": "account",
          "type": "address"
        }
      ],
      "name": "pending",
      "outputs": [
        {
          "internalType": "uint256",
          "name": "",
          "type": "uint256"
        }
      ],
      "stateMutability": "view",
      "type": "function"
    },
    {
      "inputs": [
        {
          "internalType": "address[]",
          "name": "currencies",
          "type": "address[]"
        },
        {
          "internalType": "address",
          "name": "account",
          "type": "address"
        }
      ],
      "name": "pending",
      "outputs": [
        {
          "internalType": "uint256[]",
          "name": "balances",
          "type": "uint256[]"
        }
      ],
      "stateMutability": "view",
      "type": "function"
    },
    {
      "inputs": [
        {
          "internalType": "address",
          "name": "account",
          "type": "address"
        }
      ],
      "name": "pending",
      "outputs": [
        {
          "internalType": "uint256",
          "name": "",
          "type": "uint256"
        }
      ],
      "stateMutability": "view",
      "type": "function"
    },
    {
      "inputs": [
        {
          "internalType": "address payable",
          "name": "account",
          "type": "address"
        }
      ],
      "name": "release",
      "outputs": [],
      "stateMutability": "nonpayable",
      "type": "function"
    },
    {
      "inputs": [
        {
          "internalType": "contract IERC20",
          "name": "token",
          "type": "address"
        },
        {
          "internalType": "address",
          "name": "account",
          "type": "address"
        }
      ],
      "name": "release",
      "outputs": [],
      "stateMutability": "nonpayable",
      "type": "function"
    },
    {
      "inputs": [
        {
          "internalType": "address[]",
          "name": "currencies",
          "type": "address[]"
        },
        {
          "internalType": "address payable",
          "name": "account",
          "type": "address"
        }
      ],
      "name": "release",
      "outputs": [],
      "stateMutability": "nonpayable",
      "type": "function"
    },
    {
      "inputs": [
        {
          "internalType": "address[]",
          "name": "currencies",
          "type": "address[]"
        },
        {
          "internalType": "address",
          "name": "account",
          "type": "address"
        }
      ],
      "name": "released",
      "outputs": [
        {
          "internalType": "uint256[]",
          "name": "balances",
          "type": "uint256[]"
        }
      ],
      "stateMutability": "view",
      "type": "function"
    },
    {
      "inputs": [
        {
          "internalType": "contract IERC20",
          "name": "token",
          "type": "address"
        },
        {
          "internalType": "address",
          "name": "account",
          "type": "address"
        }
      ],
      "name": "released",
      "outputs": [
        {
          "internalType": "uint256",
          "name": "",
          "type": "uint256"
        }
      ],
      "stateMutability": "view",
      "type": "function"
    },
    {
      "inputs": [
        {
          "internalType": "address",
          "name": "account",
          "type": "address"
        }
      ],
      "name": "released",
      "outputs": [
        {
          "internalType": "uint256",
          "name": "",
          "type": "uint256"
        }
      ],
      "stateMutability": "view",
      "type": "function"
    },
    {
      "inputs": [
        {
          "internalType": "address",
          "name": "account",
          "type": "address"
        }
      ],
      "name": "shares",
      "outputs": [
        {
          "internalType": "uint256",
          "name": "",
          "type": "uint256"
        }
      ],
      "stateMutability": "view",
      "type": "function"
    },
    {
      "inputs": [
        {
          "internalType": "contract IERC20",
          "name": "token",
          "type": "address"
        }
      ],
      "name": "totalReleased",
      "outputs": [
        {
          "internalType": "uint256",
          "name": "",
          "type": "uint256"
        }
      ],
      "stateMutability": "view",
      "type": "function"
    },
    {
      "inputs": [],
      "name": "totalReleased",
      "outputs": [
        {
          "internalType": "uint256",
          "name": "",
          "type": "uint256"
        }
      ],
      "stateMutability": "view",
      "type": "function"
    },
    {
      "inputs": [],
      "name": "totalShares",
      "outputs": [
        {
          "internalType": "uint256",
          "name": "",
          "type": "uint256"
        }
      ],
      "stateMutability": "view",
      "type": "function"
    },
    {
      "stateMutability": "payable",
      "type": "receive"
    }
  ],
  "bytecode": "0x6080604052604051620015d1380380620015d18339810160408190526200002691620002a0565b8151620000465760405163bf55749760e01b815260040160405180910390fd5b80518251146200006c576040516001621398b960e31b0319815260040160405180910390fd5b60005b8251811015620000f057620000db8382815181106200009e57634e487b7160e01b600052603260045260246000fd5b6020026020010151838381518110620000c757634e487b7160e01b600052603260045260246000fd5b6020026020010151620000f960201b60201c565b80620000e781620003f1565b9150506200006f565b5050506200043b565b6001600160a01b038216620001215760405163e6c4247b60e01b815260040160405180910390fd5b80620001405760405163040357dd60e21b815260040160405180910390fd5b6001600160a01b03821660009081526002602052604090205415620001785760405163523504ff60e01b815260040160405180910390fd5b60048054600181019091557f8a35acfbc15ff81a39ae7d344fd709f28e8600b4aa8c65c6b64bfe7fe36bd19b0180546001600160a01b0319166001600160a01b038416908117909155600090815260026020526040812082905554620001e0908290620003d6565b600055604080516001600160a01b0384168152602081018390527f40c340f65e17194d14ddddb073d3c9f888e3cb52b5aae0c6c7706b4fbc905fac910160405180910390a15050565b600082601f8301126200023a578081fd5b81516020620002536200024d83620003b0565b6200037d565b80838252828201915082860187848660051b890101111562000273578586fd5b855b85811015620002935781518452928401929084019060010162000275565b5090979650505050505050565b60008060408385031215620002b3578182fd5b82516001600160401b0380821115620002ca578384fd5b818501915085601f830112620002de578384fd5b81516020620002f16200024d83620003b0565b8083825282820191508286018a848660051b890101111562000311578889fd5b8896505b848710156200034a5780516001600160a01b03811681146200033557898afd5b83526001969096019591830191830162000315565b509188015191965090935050508082111562000364578283fd5b50620003738582860162000229565b9150509250929050565b604051601f8201601f191681016001600160401b0381118282101715620003a857620003a862000425565b604052919050565b60006001600160401b03821115620003cc57620003cc62000425565b5060051b60200190565b60008219821115620003ec57620003ec6200040f565b500190565b60006000198214156200040857620004086200040f565b5060010190565b634e487b7160e01b600052601160045260246000fd5b634e487b7160e01b600052604160045260246000fd5b611186806200044b6000396000f3fe6080604052600436106100e15760003560e01c806348b750441161007f578063a7d092b211610059578063a7d092b21461029e578063ce7c2ac2146102be578063d79779b2146102f4578063e33b7de31461032a57600080fd5b806348b75044146102285780635eebea20146102485780639852595c1461026857600080fd5b8063230d0b4d116100bb578063230d0b4d146101b1578063339b3544146101d35780633a98ef39146101f3578063406072a91461020857600080fd5b8063191655871461012f57806319bc9ae8146101515780631a48bb9c1461018457600080fd5b3661012a577f6ef95f06320e7a25a04a175ca677b7052bdd97131872c2192525a629f51be77033604080516001600160a01b0390921682523460208301520160405180910390a1005b600080fd5b34801561013b57600080fd5b5061014f61014a366004610e8e565b61033f565b005b34801561015d57600080fd5b5061017161016c366004610f49565b610437565b6040519081526020015b60405180910390f35b34801561019057600080fd5b506101a461019f366004610eaa565b6104f1565b60405161017b919061100d565b3480156101bd57600080fd5b506101c661064b565b60405161017b9190610fb5565b3480156101df57600080fd5b506101a46101ee366004610eaa565b610763565b3480156101ff57600080fd5b50600054610171565b34801561021457600080fd5b50610171610223366004610f49565b6108a3565b34801561023457600080fd5b5061014f610243366004610f49565b6108ce565b34801561025457600080fd5b50610171610263366004610e8e565b6109f0565b34801561027457600080fd5b50610171610283366004610e8e565b6001600160a01b031660009081526003602052604090205490565b3480156102aa57600080fd5b5061014f6102b9366004610eff565b610a2c565b3480156102ca57600080fd5b506101716102d9366004610e8e565b6001600160a01b031660009081526002602052604090205490565b34801561030057600080fd5b5061017161030f366004610e8e565b6001600160a01b031660009081526005602052604090205490565b34801561033657600080fd5b50600154610171565b6001600160a01b038116600090815260026020526040902054610375576040516353b9982160e11b815260040160405180910390fd5b6000610380826109f0565b9050806103a057604051638f93f3cf60e01b815260040160405180910390fd5b6001600160a01b038216600090815260036020526040812080548392906103c8908490611084565b9250508190555080600160008282546103e19190611084565b909155506103f190508282610ac5565b604080516001600160a01b0384168152602081018390527fdf20fd1e76bc69d672e4814fafb2c449bba3a5369d8359adf9e05e6fde87b056910160405180910390a15050565b6001600160a01b03821660009081526005602052604081205481906040516370a0823160e01b81523060048201526001600160a01b038616906370a082319060240160206040518083038186803b15801561049157600080fd5b505afa1580156104a5573d6000803e3d6000fd5b505050506040513d601f19601f820116820180604052508101906104c99190610f81565b6104d39190611084565b90506104e983826104e487876108a3565b610be8565b949350505050565b606082806105125760405163bf55749760e01b815260040160405180910390fd5b8067ffffffffffffffff81111561053957634e487b7160e01b600052604160045260246000fd5b604051908082528060200260200182016040528015610562578160200160208202803683370190505b50915060005b8181101561064157600086868381811061059257634e487b7160e01b600052603260045260246000fd5b90506020020160208101906105a79190610e8e565b90506001600160a01b038116610601576001600160a01b0385166000908152600360205260409020548483815181106105f057634e487b7160e01b600052603260045260246000fd5b602002602001018181525050610638565b61060b81866108a3565b84838151811061062b57634e487b7160e01b600052603260045260246000fd5b6020026020010181815250505b50600101610568565b50505b9392505050565b6004546060908067ffffffffffffffff81111561067857634e487b7160e01b600052604160045260246000fd5b6040519080825280602002602001820160405280156106bd57816020015b60408051808201909152600080825260208201528152602001906001900390816106965790505b50915060005b8181101561075e576000600482815481106106ee57634e487b7160e01b600052603260045260246000fd5b60009182526020808320909101546040805180820182526001600160a01b03909216808352808552600284529320549181019190915285519192509085908490811061074a57634e487b7160e01b600052603260045260246000fd5b6020908102919091010152506001016106c3565b505090565b606082806107845760405163bf55749760e01b815260040160405180910390fd5b8067ffffffffffffffff8111156107ab57634e487b7160e01b600052604160045260246000fd5b6040519080825280602002602001820160405280156107d4578160200160208202803683370190505b50915060005b8181101561064157600086868381811061080457634e487b7160e01b600052603260045260246000fd5b90506020020160208101906108199190610e8e565b90506001600160a01b03811661086357610832856109f0565b84838151811061085257634e487b7160e01b600052603260045260246000fd5b60200260200101818152505061089a565b61086d8186610437565b84838151811061088d57634e487b7160e01b600052603260045260246000fd5b6020026020010181815250505b506001016107da565b6001600160a01b03918216600090815260066020908152604080832093909416825291909152205490565b6001600160a01b038116600090815260026020526040902054610904576040516353b9982160e11b815260040160405180910390fd5b60006109108383610437565b90508061093057604051638f93f3cf60e01b815260040160405180910390fd5b6001600160a01b03808416600090815260066020908152604080832093861683529290529081208054839290610967908490611084565b90915550506001600160a01b03831660009081526005602052604081208054839290610994908490611084565b909155506109a59050838383610c23565b604080516001600160a01b038481168252602082018490528516917f3be5b7a71e84ed12875d241991c70855ac5817d847039e17a9d895c1ceb0f18a910160405180910390a2505050565b6000806109fc60015490565b610a069047611084565b905061064483826104e4866001600160a01b031660009081526003602052604090205490565b8180610a4b5760405163bf55749760e01b815260040160405180910390fd5b60005b81811015610abe576000858583818110610a7857634e487b7160e01b600052603260045260246000fd5b9050602002016020810190610a8d9190610e8e565b90506001600160a01b038116610aab57610aa68461033f565b610ab5565b610ab581856108ce565b50600101610a4e565b5050505050565b80471015610b1a5760405162461bcd60e51b815260206004820152601d60248201527f416464726573733a20696e73756666696369656e742062616c616e636500000060448201526064015b60405180910390fd5b6000826001600160a01b03168260405160006040518083038185875af1925050503d8060008114610b67576040519150601f19603f3d011682016040523d82523d6000602084013e610b6c565b606091505b5050905080610be35760405162461bcd60e51b815260206004820152603a60248201527f416464726573733a20756e61626c6520746f2073656e642076616c75652c207260448201527f6563697069656e74206d617920686176652072657665727465640000000000006064820152608401610b11565b505050565b600080546001600160a01b038516825260026020526040822054839190610c0f90866110bc565b610c19919061109c565b6104e991906110db565b604080516001600160a01b03848116602483015260448083018590528351808403909101815260649092018352602080830180516001600160e01b031663a9059cbb60e01b17905283518085019094528084527f5361666545524332303a206c6f772d6c6576656c2063616c6c206661696c656490840152610be392869291600091610cb3918516908490610d30565b805190915015610be35780806020019051810190610cd19190610f29565b610be35760405162461bcd60e51b815260206004820152602a60248201527f5361666545524332303a204552433230206f7065726174696f6e20646964206e6044820152691bdd081cdd58d8d9595960b21b6064820152608401610b11565b60606104e98484600085856001600160a01b0385163b610d925760405162461bcd60e51b815260206004820152601d60248201527f416464726573733a2063616c6c20746f206e6f6e2d636f6e74726163740000006044820152606401610b11565b600080866001600160a01b03168587604051610dae9190610f99565b60006040518083038185875af1925050503d8060008114610deb576040519150601f19603f3d011682016040523d82523d6000602084013e610df0565b606091505b5091509150610e00828286610e0b565b979650505050505050565b60608315610e1a575081610644565b825115610e2a5782518084602001fd5b8160405162461bcd60e51b8152600401610b119190611051565b60008083601f840112610e55578182fd5b50813567ffffffffffffffff811115610e6c578182fd5b6020830191508360208260051b8501011115610e8757600080fd5b9250929050565b600060208284031215610e9f578081fd5b813561064481611138565b600080600060408486031215610ebe578182fd5b833567ffffffffffffffff811115610ed4578283fd5b610ee086828701610e44565b9094509250506020840135610ef481611138565b809150509250925092565b600080600060408486031215610f13578283fd5b833567ffffffffffffffff811115610ed4578384fd5b600060208284031215610f3a578081fd5b81518015158114610644578182fd5b60008060408385031215610f5b578182fd5b8235610f6681611138565b91506020830135610f7681611138565b809150509250929050565b600060208284031215610f92578081fd5b5051919050565b60008251610fab8184602087016110f2565b9190910192915050565b602080825282518282018190526000919060409081850190868401855b8281101561100057815180516001600160a01b03168552860151868501529284019290850190600101610fd2565b5091979650505050505050565b6020808252825182820181905260009190848201906040850190845b8181101561104557835183529284019291840191600101611029565b50909695505050505050565b60208152600082518060208401526110708160408501602087016110f2565b601f01601f19169190910160400192915050565b6000821982111561109757611097611122565b500190565b6000826110b757634e487b7160e01b81526012600452602481fd5b500490565b60008160001904831182151516156110d6576110d6611122565b500290565b6000828210156110ed576110ed611122565b500390565b60005b8381101561110d5781810151838201526020016110f5565b8381111561111c576000848401525b50505050565b634e487b7160e01b600052601160045260246000fd5b6001600160a01b038116811461114d57600080fd5b5056fea2646970667358221220e9b4c4043c99700922d235bae3c23cfd5c6c803b0596b30f0f8403304132688c64736f6c63430008040033",
  "linkReferences": {},
  "deployedLinkReferences": {}
}