{
  "_format": "hh-sol-artifact-1",
  "contractName": "StakeVault",
  "sourceName": "contracts/payment/stake/StakeVault.sol",
  "abi": [
    {
      "inputs": [
        {
          "internalType": "address",
          "name": "owner",
          "type": "address"
        },
        {
          "internalType": "address",
          "name": "payout",
          "type": "address"
        },
        {
          "internalType": "address",
          "name": "operator",
          "type": "address"
        },
        {
          "internalType": "uint256",
          "name": "ppm",
          "type": "uint256"
        }
      ],
      "stateMutability": "nonpayable",
      "type": "constructor"
    },
    {
      "inputs": [],
      "name": "AccessDenied",
      "type": "error"
    },
    {
      "inputs": [],
      "name": "AlreadyStaked",
      "type": "error"
    },
    {
      "inputs": [],
      "name": "CannotTransfer",
      "type": "error"
    },
    {
      "inputs": [],
      "name": "FundsNotAvailable",
      "type": "error"
    },
    {
      "inputs": [],
      "name": "InvalidData",
      "type": "error"
    },
    {
      "inputs": [],
      "name": "NoStaking",
      "type": "error"
    },
    {
      "anonymous": false,
      "inputs": [
        {
          "indexed": true,
          "internalType": "bytes32",
          "name": "role",
          "type": "bytes32"
        },
        {
          "indexed": true,
          "internalType": "bytes32",
          "name": "previousAdminRole",
          "type": "bytes32"
        },
        {
          "indexed": true,
          "internalType": "bytes32",
          "name": "newAdminRole",
          "type": "bytes32"
        }
      ],
      "name": "RoleAdminChanged",
      "type": "event"
    },
    {
      "anonymous": false,
      "inputs": [
        {
          "indexed": true,
          "internalType": "bytes32",
          "name": "role",
          "type": "bytes32"
        },
        {
          "indexed": true,
          "internalType": "address",
          "name": "account",
          "type": "address"
        },
        {
          "indexed": true,
          "internalType": "address",
          "name": "sender",
          "type": "address"
        }
      ],
      "name": "RoleGranted",
      "type": "event"
    },
    {
      "anonymous": false,
      "inputs": [
        {
          "indexed": true,
          "internalType": "bytes32",
          "name": "role",
          "type": "bytes32"
        },
        {
          "indexed": true,
          "internalType": "address",
          "name": "account",
          "type": "address"
        },
        {
          "indexed": true,
          "internalType": "address",
          "name": "sender",
          "type": "address"
        }
      ],
      "name": "RoleRevoked",
      "type": "event"
    },
    {
      "inputs": [],
      "name": "DEFAULT_ADMIN_ROLE",
      "outputs": [
        {
          "internalType": "bytes32",
          "name": "",
          "type": "bytes32"
        }
      ],
      "stateMutability": "view",
      "type": "function"
    },
    {
      "inputs": [
        {
          "internalType": "bytes32",
          "name": "role",
          "type": "bytes32"
        }
      ],
      "name": "getRoleAdmin",
      "outputs": [
        {
          "internalType": "bytes32",
          "name": "",
          "type": "bytes32"
        }
      ],
      "stateMutability": "view",
      "type": "function"
    },
    {
      "inputs": [
        {
          "internalType": "bytes32",
          "name": "role",
          "type": "bytes32"
        },
        {
          "internalType": "address",
          "name": "account",
          "type": "address"
        }
      ],
      "name": "grantRole",
      "outputs": [],
      "stateMutability": "nonpayable",
      "type": "function"
    },
    {
      "inputs": [
        {
          "internalType": "bytes32",
          "name": "role",
          "type": "bytes32"
        },
        {
          "internalType": "address",
          "name": "account",
          "type": "address"
        }
      ],
      "name": "hasRole",
      "outputs": [
        {
          "internalType": "bool",
          "name": "",
          "type": "bool"
        }
      ],
      "stateMutability": "view",
      "type": "function"
    },
    {
      "inputs": [],
      "name": "payoutAddress",
      "outputs": [
        {
          "internalType": "address",
          "name": "",
          "type": "address"
        }
      ],
      "stateMutability": "view",
      "type": "function"
    },
    {
      "inputs": [
        {
          "internalType": "bytes32",
          "name": "stakeId",
          "type": "bytes32"
        }
      ],
      "name": "refund",
      "outputs": [],
      "stateMutability": "nonpayable",
      "type": "function"
    },
    {
      "inputs": [],
      "name": "refundPPM",
      "outputs": [
        {
          "internalType": "uint256",
          "name": "",
          "type": "uint256"
        }
      ],
      "stateMutability": "view",
      "type": "function"
    },
    {
      "inputs": [
        {
          "internalType": "bytes32",
          "name": "role",
          "type": "bytes32"
        },
        {
          "internalType": "address",
          "name": "account",
          "type": "address"
        }
      ],
      "name": "renounceRole",
      "outputs": [],
      "stateMutability": "nonpayable",
      "type": "function"
    },
    {
      "inputs": [
        {
          "internalType": "bytes32",
          "name": "role",
          "type": "bytes32"
        },
        {
          "internalType": "address",
          "name": "account",
          "type": "address"
        }
      ],
      "name": "revokeRole",
      "outputs": [],
      "stateMutability": "nonpayable",
      "type": "function"
    },
    {
      "inputs": [
        {
          "internalType": "address",
          "name": "payout",
          "type": "address"
        }
      ],
      "name": "setPayoutAddress",
      "outputs": [],
      "stateMutability": "nonpayable",
      "type": "function"
    },
    {
      "inputs": [
        {
          "internalType": "uint256",
          "name": "ppm",
          "type": "uint256"
        }
      ],
      "name": "setRefundPPM",
      "outputs": [],
      "stateMutability": "nonpayable",
      "type": "function"
    },
    {
      "inputs": [
        {
          "internalType": "bytes32[]",
          "name": "stakeIds",
          "type": "bytes32[]"
        }
      ],
      "name": "slash",
      "outputs": [],
      "stateMutability": "nonpayable",
      "type": "function"
    },
    {
      "inputs": [
        {
          "internalType": "bytes32",
          "name": "stakeId",
          "type": "bytes32"
        },
        {
          "internalType": "address",
          "name": "currency",
          "type": "address"
        },
        {
          "internalType": "uint256",
          "name": "stakeAmount",
          "type": "uint256"
        },
        {
          "internalType": "address",
          "name": "guest",
          "type": "address"
        }
      ],
      "name": "stake",
      "outputs": [],
      "stateMutability": "payable",
      "type": "function"
    },
    {
      "inputs": [
        {
          "internalType": "bytes32",
          "name": "",
          "type": "bytes32"
        }
      ],
      "name": "stakings",
      "outputs": [
        {
          "internalType": "address",
          "name": "guest",
          "type": "address"
        },
        {
          "internalType": "address",
          "name": "currency",
          "type": "address"
        },
        {
          "internalType": "uint256",
          "name": "stakeAmount",
          "type": "uint256"
        },
        {
          "internalType": "uint256",
          "name": "refundAmount",
          "type": "uint256"
        },
        {
          "internalType": "bool",
          "name": "slashed",
          "type": "bool"
        },
        {
          "internalType": "bool",
          "name": "refunded",
          "type": "bool"
        }
      ],
      "stateMutability": "view",
      "type": "function"
    },
    {
      "inputs": [
        {
          "internalType": "bytes4",
          "name": "interfaceId",
          "type": "bytes4"
        }
      ],
      "name": "supportsInterface",
      "outputs": [
        {
          "internalType": "bool",
          "name": "",
          "type": "bool"
        }
      ],
      "stateMutability": "view",
      "type": "function"
    },
    {
      "inputs": [
        {
          "internalType": "address",
          "name": "destination",
          "type": "address"
        },
        {
          "internalType": "address",
          "name": "currency",
          "type": "address"
        },
        {
          "internalType": "uint256",
          "name": "amount",
          "type": "uint256"
        }
      ],
      "name": "withdraw",
      "outputs": [],
      "stateMutability": "nonpayable",
      "type": "function"
    },
    {
      "stateMutability": "payable",
      "type": "receive"
    }
  ],
  "bytecode": "0x60806040523480156200001157600080fd5b506040516200158038038062001580833981016040819052620000349162000193565b62000041600085620000a1565b6200006d7f97667070c54ef182b0f5858b034beac1b6f3089aa2d3188bb1e8929f4fa9b92983620000a1565b620000788162000142565b5050600180546001600160a01b0319166001600160a01b039290921691909117905550620001e4565b6000828152602081815260408083206001600160a01b038516845290915290205460ff166200013e576000828152602081815260408083206001600160a01b03851684529091529020805460ff19166001179055620000fd3390565b6001600160a01b0316816001600160a01b0316837f2f8788117e7eff1d82e926ec794901d17c78024a50270940304540a733656f0d60405160405180910390a45b5050565b620f424081118062000152575080155b156200017157604051635cb045db60e01b815260040160405180910390fd5b600255565b80516001600160a01b03811681146200018e57600080fd5b919050565b60008060008060808587031215620001a9578384fd5b620001b48562000176565b9350620001c46020860162000176565b9250620001d46040860162000176565b6060959095015193969295505050565b61138c80620001f46000396000f3fe6080604052600436106100f75760003560e01c80635da8cc341161008a578063ac6070b711610059578063ac6070b71461033a578063ce2634341461034d578063d547741f1461036d578063d9caed121461038d57600080fd5b80635da8cc34146102465780637249fbb6146102e557806391d1485414610305578063a217fddf1461032557600080fd5b806333ea51a8116100c657806333ea51a8146101ae57806336568abe146101ce5780633e0869be146101ee5780635b8d02d71461020e57600080fd5b806301ffc9a71461010357806310eaceb214610138578063248a9ca31461015c5780632f2ff15d1461018c57600080fd5b366100fe57005b600080fd5b34801561010f57600080fd5b5061012361011e3660046111bf565b6103ad565b60405190151581526020015b60405180910390f35b34801561014457600080fd5b5061014e60025481565b60405190815260200161012f565b34801561016857600080fd5b5061014e610177366004611137565b60009081526020819052604090206001015490565b34801561019857600080fd5b506101ac6101a736600461114f565b6103e4565b005b3480156101ba57600080fd5b506101ac6101c9366004611052565b61040e565b3480156101da57600080fd5b506101ac6101e936600461114f565b61043c565b3480156101fa57600080fd5b506101ac6102093660046110a7565b6104bf565b34801561021a57600080fd5b5060015461022e906001600160a01b031681565b6040516001600160a01b03909116815260200161012f565b34801561025257600080fd5b506102a9610261366004611137565b6003602081905260009182526040909120805460018201546002830154938301546004909301546001600160a01b039283169492909116929060ff8082169161010090041686565b604080516001600160a01b03978816815296909516602087015293850192909252606084015215156080830152151560a082015260c00161012f565b3480156102f157600080fd5b506101ac610300366004611137565b610724565b34801561031157600080fd5b5061012361032036600461114f565b6107b8565b34801561033157600080fd5b5061014e600081565b6101ac61034836600461117a565b6107e1565b34801561035957600080fd5b506101ac610368366004611137565b610b37565b34801561037957600080fd5b506101ac61038836600461114f565b610b4b565b34801561039957600080fd5b506101ac6103a836600461106c565b610b70565b60006001600160e01b03198216637965db0b60e01b14806103de57506301ffc9a760e01b6001600160e01b03198316145b92915050565b6000828152602081905260409020600101546103ff81610b8c565b6104098383610b99565b505050565b600061041981610b8c565b50600180546001600160a01b0319166001600160a01b0392909216919091179055565b6001600160a01b03811633146104b15760405162461bcd60e51b815260206004820152602f60248201527f416363657373436f6e74726f6c3a2063616e206f6e6c792072656e6f756e636560448201526e103937b632b9903337b91039b2b63360891b60648201526084015b60405180910390fd5b6104bb8282610c1d565b5050565b7f97667070c54ef182b0f5858b034beac1b6f3089aa2d3188bb1e8929f4fa9b9296104e981610b8c565b600554829060008167ffffffffffffffff81111561051757634e487b7160e01b600052604160045260246000fd5b604051908082528060200260200182016040528015610540578160200160208202803683370190505b50905060005b8381101561066557600087878381811061057057634e487b7160e01b600052603260045260246000fd5b602090810292909201356000818152600390935260409092208054929350916001600160a01b0316151590506105a7575050610546565b600481015460ff16806105c357506004810154610100900460ff165b156105e1576040516330d88e3b60e01b815260040160405180910390fd5b6001818101546001600160a01b0316600090815260066020526040812054909161060a916112e6565b9050816002015485828151811061063157634e487b7160e01b600052603260045260246000fd5b60200260200101818151610645919061128f565b90525050600401805460ff19166001908117909155919091019050610546565b5060005b8281101561071b5760006005828154811061069457634e487b7160e01b600052603260045260246000fd5b60009182526020808320909101546001600160a01b03168083526006909152604082205490925084906106c9906001906112e6565b815181106106e757634e487b7160e01b600052603260045260246000fd5b60200260200101519050600081111561071157600154610711906001600160a01b03168383610c82565b5050600101610669565b50505050505050565b7f97667070c54ef182b0f5858b034beac1b6f3089aa2d3188bb1e8929f4fa9b92961074e81610b8c565b600082815260036020526040902080546001600160a01b031661078457604051632eaa084d60e21b815260040160405180910390fd5b60048101805461ff001916610100179055805460018201546003830154610409926001600160a01b03908116921690610c82565b6000918252602082815260408084206001600160a01b0393909316845291905290205460ff1690565b7f97667070c54ef182b0f5858b034beac1b6f3089aa2d3188bb1e8929f4fa9b92961080b81610b8c565b336001600160a01b03831661083357604051635cb045db60e01b815260040160405180910390fd5b6000868152600360205260409020546001600160a01b03161561086957604051630ae3514d60e01b815260040160405180910390fd5b6001600160a01b03851615801561089f5784341461089a57604051635cb045db60e01b815260040160405180910390fd5b61094d565b6040516323b872dd60e01b81526001600160a01b03838116600483015230602483015260448201879052600091908816906323b872dd90606401602060405180830381600087803b1580156108f357600080fd5b505af1158015610907573d6000803e3d6000fd5b505050506040513d601f19601f8201168201806040525081019061092b9190611117565b90508061094b5760405163cc7744d560e01b815260040160405180910390fd5b505b6001600160a01b0386166000908152600660205260409020546109d55760055460009061097b90600161128f565b60058054600181019091557f036b6384b5eca791c62761152d0c79bb0604c104a5fb6f4eb0703f3154bb3db00180546001600160a01b0319166001600160a01b038a16908117909155600090815260066020526040902055505b6000620f4240600254876109e991906112c7565b6109f391906112a7565b905060006040518060c00160405280876001600160a01b03168152602001896001600160a01b03168152602001888152602001838152602001600015158152602001600015158152509050600489908060018154018082558091505060019003906000526020600020016000909190919091505580600360008b815260200190815260200160002060008201518160000160006101000a8154816001600160a01b0302191690836001600160a01b0316021790555060208201518160010160006101000a8154816001600160a01b0302191690836001600160a01b03160217905550604082015181600201556060820151816003015560808201518160040160006101000a81548160ff02191690831515021790555060a08201518160040160016101000a81548160ff021916908315150217905550905050505050505050505050565b6000610b4281610b8c565b6104bb82610db0565b600082815260208190526040902060010154610b6681610b8c565b6104098383610c1d565b6000610b7b81610b8c565b610b86848484610c82565b50505050565b610b968133610de2565b50565b610ba382826107b8565b6104bb576000828152602081815260408083206001600160a01b03851684529091529020805460ff19166001179055610bd93390565b6001600160a01b0316816001600160a01b0316837f2f8788117e7eff1d82e926ec794901d17c78024a50270940304540a733656f0d60405160405180910390a45050565b610c2782826107b8565b156104bb576000828152602081815260408083206001600160a01b0385168085529252808320805460ff1916905551339285917ff6391f5c32d9c69d2a47ea670b442974b53935d1edc7fd64eb21e047a839171b9190a45050565b6001600160a01b038216610d04576000836001600160a01b03168260405160006040518083038185875af1925050503d8060008114610cdd576040519150601f19603f3d011682016040523d82523d6000602084013e610ce2565b606091505b5050905080610b865760405163cc7744d560e01b815260040160405180910390fd5b6040516323b872dd60e01b81523060048201526001600160a01b03848116602483015260448201839052600091908416906323b872dd90606401602060405180830381600087803b158015610d5857600080fd5b505af1158015610d6c573d6000803e3d6000fd5b505050506040513d601f19601f82011682018060405250810190610d909190611117565b905080610b865760405163cc7744d560e01b815260040160405180910390fd5b620f4240811180610dbf575080155b15610ddd57604051635cb045db60e01b815260040160405180910390fd5b600255565b610dec82826107b8565b6104bb57610df981610e3b565b610e04836020610e4d565b604051602001610e159291906111e7565b60408051601f198184030181529082905262461bcd60e51b82526104a89160040161125c565b60606103de6001600160a01b03831660145b60606000610e5c8360026112c7565b610e6790600261128f565b67ffffffffffffffff811115610e8d57634e487b7160e01b600052604160045260246000fd5b6040519080825280601f01601f191660200182016040528015610eb7576020820181803683370190505b509050600360fc1b81600081518110610ee057634e487b7160e01b600052603260045260246000fd5b60200101906001600160f81b031916908160001a905350600f60fb1b81600181518110610f1d57634e487b7160e01b600052603260045260246000fd5b60200101906001600160f81b031916908160001a9053506000610f418460026112c7565b610f4c90600161128f565b90505b6001811115610fe0576f181899199a1a9b1b9c1cb0b131b232b360811b85600f1660108110610f8e57634e487b7160e01b600052603260045260246000fd5b1a60f81b828281518110610fb257634e487b7160e01b600052603260045260246000fd5b60200101906001600160f81b031916908160001a90535060049490941c93610fd981611329565b9050610f4f565b50831561102f5760405162461bcd60e51b815260206004820181905260248201527f537472696e67733a20686578206c656e67746820696e73756666696369656e7460448201526064016104a8565b9392505050565b80356001600160a01b038116811461104d57600080fd5b919050565b600060208284031215611063578081fd5b61102f82611036565b600080600060608486031215611080578182fd5b61108984611036565b925061109760208501611036565b9150604084013590509250925092565b600080602083850312156110b9578182fd5b823567ffffffffffffffff808211156110d0578384fd5b818501915085601f8301126110e3578384fd5b8135818111156110f1578485fd5b8660208260051b8501011115611105578485fd5b60209290920196919550909350505050565b600060208284031215611128578081fd5b8151801515811461102f578182fd5b600060208284031215611148578081fd5b5035919050565b60008060408385031215611161578182fd5b8235915061117160208401611036565b90509250929050565b6000806000806080858703121561118f578081fd5b8435935061119f60208601611036565b9250604085013591506111b460608601611036565b905092959194509250565b6000602082840312156111d0578081fd5b81356001600160e01b03198116811461102f578182fd5b7f416363657373436f6e74726f6c3a206163636f756e742000000000000000000081526000835161121f8160178501602088016112fd565b7001034b99036b4b9b9b4b733903937b6329607d1b60179184019182015283516112508160288401602088016112fd565b01602801949350505050565b602081526000825180602084015261127b8160408501602087016112fd565b601f01601f19169190910160400192915050565b600082198211156112a2576112a2611340565b500190565b6000826112c257634e487b7160e01b81526012600452602481fd5b500490565b60008160001904831182151516156112e1576112e1611340565b500290565b6000828210156112f8576112f8611340565b500390565b60005b83811015611318578181015183820152602001611300565b83811115610b865750506000910152565b60008161133857611338611340565b506000190190565b634e487b7160e01b600052601160045260246000fdfea26469706673582212205281c79c115586619d6de3cb45ddb0203b4b31ca5e54f4f51f2cb314ea8d1c7464736f6c63430008040033",
  "linkReferences": {},
  "deployedLinkReferences": {}
}