{
  "_format": "hh3-artifact-1",
  "contractName": "ZuGramaPassport",
  "sourceName": "contracts/ZuGramaPassport.sol",
  "abi": [
    {
      "inputs": [
        {
          "internalType": "address",
          "name": "_owner",
          "type": "address"
        },
        {
          "internalType": "address",
          "name": "_signer",
          "type": "address"
        },
        {
          "internalType": "address",
          "name": "_vault",
          "type": "address"
        },
        {
          "internalType": "uint256",
          "name": "_mintPrice",
          "type": "uint256"
        },
        {
          "internalType": "string",
          "name": "_tokenBaseURI",
          "type": "string"
        }
      ],
      "stateMutability": "nonpayable",
      "type": "constructor"
    },
    {
      "inputs": [],
      "name": "AlreadyMinted",
      "type": "error"
    },
    {
      "inputs": [],
      "name": "CannotTransfer",
      "type": "error"
    },
    {
      "inputs": [],
      "name": "ECDSAInvalidSignature",
      "type": "error"
    },
    {
      "inputs": [
        {
          "internalType": "uint256",
          "name": "length",
          "type": "uint256"
        }
      ],
      "name": "ECDSAInvalidSignatureLength",
      "type": "error"
    },
    {
      "inputs": [
        {
          "internalType": "bytes32",
          "name": "s",
          "type": "bytes32"
        }
      ],
      "name": "ECDSAInvalidSignatureS",
      "type": "error"
    },
    {
      "inputs": [
        {
          "internalType": "address",
          "name": "sender",
          "type": "address"
        },
        {
          "internalType": "uint256",
          "name": "tokenId",
          "type": "uint256"
        },
        {
          "internalType": "address",
          "name": "owner",
          "type": "address"
        }
      ],
      "name": "ERC721IncorrectOwner",
      "type": "error"
    },
    {
      "inputs": [
        {
          "internalType": "address",
          "name": "operator",
          "type": "address"
        },
        {
          "internalType": "uint256",
          "name": "tokenId",
          "type": "uint256"
        }
      ],
      "name": "ERC721InsufficientApproval",
      "type": "error"
    },
    {
      "inputs": [
        {
          "internalType": "address",
          "name": "approver",
          "type": "address"
        }
      ],
      "name": "ERC721InvalidApprover",
      "type": "error"
    },
    {
      "inputs": [
        {
          "internalType": "address",
          "name": "operator",
          "type": "address"
        }
      ],
      "name": "ERC721InvalidOperator",
      "type": "error"
    },
    {
      "inputs": [
        {
          "internalType": "address",
          "name": "owner",
          "type": "address"
        }
      ],
      "name": "ERC721InvalidOwner",
      "type": "error"
    },
    {
      "inputs": [
        {
          "internalType": "address",
          "name": "receiver",
          "type": "address"
        }
      ],
      "name": "ERC721InvalidReceiver",
      "type": "error"
    },
    {
      "inputs": [
        {
          "internalType": "address",
          "name": "sender",
          "type": "address"
        }
      ],
      "name": "ERC721InvalidSender",
      "type": "error"
    },
    {
      "inputs": [
        {
          "internalType": "uint256",
          "name": "tokenId",
          "type": "uint256"
        }
      ],
      "name": "ERC721NonexistentToken",
      "type": "error"
    },
    {
      "inputs": [],
      "name": "GateNotPassed",
      "type": "error"
    },
    {
      "inputs": [],
      "name": "InsufficientFunds",
      "type": "error"
    },
    {
      "inputs": [],
      "name": "InvalidSignature",
      "type": "error"
    },
    {
      "inputs": [
        {
          "internalType": "address",
          "name": "owner",
          "type": "address"
        }
      ],
      "name": "OwnableInvalidOwner",
      "type": "error"
    },
    {
      "inputs": [
        {
          "internalType": "address",
          "name": "account",
          "type": "address"
        }
      ],
      "name": "OwnableUnauthorizedAccount",
      "type": "error"
    },
    {
      "inputs": [],
      "name": "SoulBound",
      "type": "error"
    },
    {
      "inputs": [],
      "name": "VaultNotSet",
      "type": "error"
    },
    {
      "anonymous": false,
      "inputs": [
        {
          "indexed": true,
          "internalType": "address",
          "name": "owner",
          "type": "address"
        },
        {
          "indexed": true,
          "internalType": "address",
          "name": "approved",
          "type": "address"
        },
        {
          "indexed": true,
          "internalType": "uint256",
          "name": "tokenId",
          "type": "uint256"
        }
      ],
      "name": "Approval",
      "type": "event"
    },
    {
      "anonymous": false,
      "inputs": [
        {
          "indexed": true,
          "internalType": "address",
          "name": "owner",
          "type": "address"
        },
        {
          "indexed": true,
          "internalType": "address",
          "name": "operator",
          "type": "address"
        },
        {
          "indexed": false,
          "internalType": "bool",
          "name": "approved",
          "type": "bool"
        }
      ],
      "name": "ApprovalForAll",
      "type": "event"
    },
    {
      "anonymous": false,
      "inputs": [
        {
          "indexed": true,
          "internalType": "address",
          "name": "previousOwner",
          "type": "address"
        },
        {
          "indexed": true,
          "internalType": "address",
          "name": "newOwner",
          "type": "address"
        }
      ],
      "name": "OwnershipTransferred",
      "type": "event"
    },
    {
      "anonymous": false,
      "inputs": [
        {
          "indexed": true,
          "internalType": "address",
          "name": "from",
          "type": "address"
        },
        {
          "indexed": true,
          "internalType": "address",
          "name": "to",
          "type": "address"
        },
        {
          "indexed": true,
          "internalType": "uint256",
          "name": "tokenId",
          "type": "uint256"
        }
      ],
      "name": "Transfer",
      "type": "event"
    },
    {
      "inputs": [
        {
          "internalType": "address",
          "name": "to",
          "type": "address"
        },
        {
          "internalType": "uint256",
          "name": "tokenId",
          "type": "uint256"
        }
      ],
      "name": "approve",
      "outputs": [],
      "stateMutability": "nonpayable",
      "type": "function"
    },
    {
      "inputs": [],
      "name": "authorizedSigner",
      "outputs": [
        {
          "internalType": "address",
          "name": "",
          "type": "address"
        }
      ],
      "stateMutability": "view",
      "type": "function"
    },
    {
      "inputs": [
        {
          "internalType": "address",
          "name": "owner",
          "type": "address"
        }
      ],
      "name": "balanceOf",
      "outputs": [
        {
          "internalType": "uint256",
          "name": "",
          "type": "uint256"
        }
      ],
      "stateMutability": "view",
      "type": "function"
    },
    {
      "inputs": [
        {
          "internalType": "address",
          "name": "",
          "type": "address"
        }
      ],
      "name": "bounds",
      "outputs": [
        {
          "internalType": "uint256",
          "name": "",
          "type": "uint256"
        }
      ],
      "stateMutability": "view",
      "type": "function"
    },
    {
      "inputs": [
        {
          "internalType": "address",
          "name": "user",
          "type": "address"
        }
      ],
      "name": "gatePassed",
      "outputs": [
        {
          "internalType": "bool",
          "name": "",
          "type": "bool"
        }
      ],
      "stateMutability": "view",
      "type": "function"
    },
    {
      "inputs": [],
      "name": "gatedAmount",
      "outputs": [
        {
          "internalType": "uint256",
          "name": "",
          "type": "uint256"
        }
      ],
      "stateMutability": "view",
      "type": "function"
    },
    {
      "inputs": [],
      "name": "gatedToken",
      "outputs": [
        {
          "internalType": "address",
          "name": "",
          "type": "address"
        }
      ],
      "stateMutability": "view",
      "type": "function"
    },
    {
      "inputs": [
        {
          "internalType": "uint256",
          "name": "tokenId",
          "type": "uint256"
        }
      ],
      "name": "getApproved",
      "outputs": [
        {
          "internalType": "address",
          "name": "",
          "type": "address"
        }
      ],
      "stateMutability": "view",
      "type": "function"
    },
    {
      "inputs": [
        {
          "internalType": "address",
          "name": "owner",
          "type": "address"
        },
        {
          "internalType": "address",
          "name": "operator",
          "type": "address"
        }
      ],
      "name": "isApprovedForAll",
      "outputs": [
        {
          "internalType": "bool",
          "name": "",
          "type": "bool"
        }
      ],
      "stateMutability": "view",
      "type": "function"
    },
    {
      "inputs": [
        {
          "internalType": "bytes32[]",
          "name": "data",
          "type": "bytes32[]"
        },
        {
          "internalType": "bytes",
          "name": "signature",
          "type": "bytes"
        }
      ],
      "name": "isValidSignature",
      "outputs": [
        {
          "internalType": "bool",
          "name": "",
          "type": "bool"
        }
      ],
      "stateMutability": "view",
      "type": "function"
    },
    {
      "inputs": [
        {
          "internalType": "string",
          "name": "uri",
          "type": "string"
        },
        {
          "internalType": "uint256",
          "name": "price",
          "type": "uint256"
        },
        {
          "internalType": "bytes",
          "name": "signature",
          "type": "bytes"
        }
      ],
      "name": "mint",
      "outputs": [],
      "stateMutability": "payable",
      "type": "function"
    },
    {
      "inputs": [],
      "name": "mintPrice",
      "outputs": [
        {
          "internalType": "uint256",
          "name": "",
          "type": "uint256"
        }
      ],
      "stateMutability": "view",
      "type": "function"
    },
    {
      "inputs": [
        {
          "internalType": "uint256",
          "name": "",
          "type": "uint256"
        }
      ],
      "name": "mintedURIs",
      "outputs": [
        {
          "internalType": "string",
          "name": "",
          "type": "string"
        }
      ],
      "stateMutability": "view",
      "type": "function"
    },
    {
      "inputs": [],
      "name": "name",
      "outputs": [
        {
          "internalType": "string",
          "name": "",
          "type": "string"
        }
      ],
      "stateMutability": "view",
      "type": "function"
    },
    {
      "inputs": [],
      "name": "owner",
      "outputs": [
        {
          "internalType": "address",
          "name": "",
          "type": "address"
        }
      ],
      "stateMutability": "view",
      "type": "function"
    },
    {
      "inputs": [
        {
          "internalType": "uint256",
          "name": "tokenId",
          "type": "uint256"
        }
      ],
      "name": "ownerOf",
      "outputs": [
        {
          "internalType": "address",
          "name": "",
          "type": "address"
        }
      ],
      "stateMutability": "view",
      "type": "function"
    },
    {
      "inputs": [],
      "name": "renounceOwnership",
      "outputs": [],
      "stateMutability": "nonpayable",
      "type": "function"
    },
    {
      "inputs": [
        {
          "internalType": "address",
          "name": "from",
          "type": "address"
        },
        {
          "internalType": "address",
          "name": "to",
          "type": "address"
        },
        {
          "internalType": "uint256",
          "name": "tokenId",
          "type": "uint256"
        }
      ],
      "name": "safeTransferFrom",
      "outputs": [],
      "stateMutability": "nonpayable",
      "type": "function"
    },
    {
      "inputs": [
        {
          "internalType": "address",
          "name": "from",
          "type": "address"
        },
        {
          "internalType": "address",
          "name": "to",
          "type": "address"
        },
        {
          "internalType": "uint256",
          "name": "tokenId",
          "type": "uint256"
        },
        {
          "internalType": "bytes",
          "name": "data",
          "type": "bytes"
        }
      ],
      "name": "safeTransferFrom",
      "outputs": [],
      "stateMutability": "nonpayable",
      "type": "function"
    },
    {
      "inputs": [
        {
          "internalType": "address",
          "name": "operator",
          "type": "address"
        },
        {
          "internalType": "bool",
          "name": "approved",
          "type": "bool"
        }
      ],
      "name": "setApprovalForAll",
      "outputs": [],
      "stateMutability": "nonpayable",
      "type": "function"
    },
    {
      "inputs": [
        {
          "internalType": "uint256",
          "name": "amount",
          "type": "uint256"
        }
      ],
      "name": "setGatedAmount",
      "outputs": [],
      "stateMutability": "nonpayable",
      "type": "function"
    },
    {
      "inputs": [
        {
          "internalType": "address",
          "name": "_gatedToken",
          "type": "address"
        }
      ],
      "name": "setGatedToken",
      "outputs": [],
      "stateMutability": "nonpayable",
      "type": "function"
    },
    {
      "inputs": [
        {
          "internalType": "uint256",
          "name": "price",
          "type": "uint256"
        }
      ],
      "name": "setMintPrice",
      "outputs": [],
      "stateMutability": "nonpayable",
      "type": "function"
    },
    {
      "inputs": [
        {
          "internalType": "address",
          "name": "signer",
          "type": "address"
        }
      ],
      "name": "setSigner",
      "outputs": [],
      "stateMutability": "nonpayable",
      "type": "function"
    },
    {
      "inputs": [
        {
          "internalType": "address",
          "name": "_vault",
          "type": "address"
        }
      ],
      "name": "setVault",
      "outputs": [],
      "stateMutability": "nonpayable",
      "type": "function"
    },
    {
      "inputs": [
        {
          "internalType": "bytes4",
          "name": "interfaceId",
          "type": "bytes4"
        }
      ],
      "name": "supportsInterface",
      "outputs": [
        {
          "internalType": "bool",
          "name": "",
          "type": "bool"
        }
      ],
      "stateMutability": "view",
      "type": "function"
    },
    {
      "inputs": [],
      "name": "symbol",
      "outputs": [
        {
          "internalType": "string",
          "name": "",
          "type": "string"
        }
      ],
      "stateMutability": "view",
      "type": "function"
    },
    {
      "inputs": [],
      "name": "tokenBaseURI",
      "outputs": [
        {
          "internalType": "string",
          "name": "",
          "type": "string"
        }
      ],
      "stateMutability": "view",
      "type": "function"
    },
    {
      "inputs": [],
      "name": "tokenIdCounter",
      "outputs": [
        {
          "internalType": "uint256",
          "name": "",
          "type": "uint256"
        }
      ],
      "stateMutability": "view",
      "type": "function"
    },
    {
      "inputs": [
        {
          "internalType": "uint256",
          "name": "tokenId",
          "type": "uint256"
        }
      ],
      "name": "tokenURI",
      "outputs": [
        {
          "internalType": "string",
          "name": "",
          "type": "string"
        }
      ],
      "stateMutability": "view",
      "type": "function"
    },
    {
      "inputs": [
        {
          "internalType": "address",
          "name": "from",
          "type": "address"
        },
        {
          "internalType": "address",
          "name": "to",
          "type": "address"
        },
        {
          "internalType": "uint256",
          "name": "tokenId",
          "type": "uint256"
        }
      ],
      "name": "transferFrom",
      "outputs": [],
      "stateMutability": "nonpayable",
      "type": "function"
    },
    {
      "inputs": [
        {
          "internalType": "address",
          "name": "newOwner",
          "type": "address"
        }
      ],
      "name": "transferOwnership",
      "outputs": [],
      "stateMutability": "nonpayable",
      "type": "function"
    },
    {
      "inputs": [],
      "name": "vault",
      "outputs": [
        {
          "internalType": "address",
          "name": "",
          "type": "address"
        }
      ],
      "stateMutability": "view",
      "type": "function"
    }
  ],
  "bytecode": "0x608060405234801561000f575f5ffd5b50604051613f10380380613f10833981810160405281019061003191906104df565b6040518060400160405280601081526020017f5a754772616d612050617373706f7274000000000000000000000000000000008152506040518060400160405280600581526020017f4752414d41000000000000000000000000000000000000000000000000000000815250868685875f5f88888881818987878d5f73ffffffffffffffffffffffffffffffffffffffff168173ffffffffffffffffffffffffffffffffffffffff160361011c575f6040517f1e4fbdf70000000000000000000000000000000000000000000000000000000081526004016101139190610581565b60405180910390fd5b61012b8161024460201b60201c565b508160015f6101000a81548173ffffffffffffffffffffffffffffffffffffffff021916908373ffffffffffffffffffffffffffffffffffffffff1602179055508060028190555050508060035f6101000a81548173ffffffffffffffffffffffffffffffffffffffff021916908373ffffffffffffffffffffffffffffffffffffffff1602179055505081600490816101c591906107a1565b5080600590816101d591906107a1565b505050505084600c8190555083600d5f6101000a81548173ffffffffffffffffffffffffffffffffffffffff021916908373ffffffffffffffffffffffffffffffffffffffff16021790555080600e908161023091906107a1565b505050505050505050505050505050610870565b5f5f5f9054906101000a900473ffffffffffffffffffffffffffffffffffffffff169050815f5f6101000a81548173ffffffffffffffffffffffffffffffffffffffff021916908373ffffffffffffffffffffffffffffffffffffffff1602179055508173ffffffffffffffffffffffffffffffffffffffff168173ffffffffffffffffffffffffffffffffffffffff167f8be0079c531659141344cd1fd0a4f28419497f9722a3daafe3b4186f6b6457e060405160405180910390a35050565b5f604051905090565b5f5ffd5b5f5ffd5b5f73ffffffffffffffffffffffffffffffffffffffff82169050919050565b5f61033f82610316565b9050919050565b61034f81610335565b8114610359575f5ffd5b50565b5f8151905061036a81610346565b92915050565b5f819050919050565b61038281610370565b811461038c575f5ffd5b50565b5f8151905061039d81610379565b92915050565b5f5ffd5b5f5ffd5b5f601f19601f8301169050919050565b7f4e487b71000000000000000000000000000000000000000000000000000000005f52604160045260245ffd5b6103f1826103ab565b810181811067ffffffffffffffff821117156104105761040f6103bb565b5b80604052505050565b5f610422610305565b905061042e82826103e8565b919050565b5f67ffffffffffffffff82111561044d5761044c6103bb565b5b610456826103ab565b9050602081019050919050565b8281835e5f83830152505050565b5f61048361047e84610433565b610419565b90508281526020810184848401111561049f5761049e6103a7565b5b6104aa848285610463565b509392505050565b5f82601f8301126104c6576104c56103a3565b5b81516104d6848260208601610471565b91505092915050565b5f5f5f5f5f60a086880312156104f8576104f761030e565b5b5f6105058882890161035c565b95505060206105168882890161035c565b94505060406105278882890161035c565b93505060606105388882890161038f565b925050608086015167ffffffffffffffff81111561055957610558610312565b5b610565888289016104b2565b9150509295509295909350565b61057b81610335565b82525050565b5f6020820190506105945f830184610572565b92915050565b5f81519050919050565b7f4e487b71000000000000000000000000000000000000000000000000000000005f52602260045260245ffd5b5f60028204905060018216806105e857607f821691505b6020821081036105fb576105fa6105a4565b5b50919050565b5f819050815f5260205f209050919050565b5f6020601f8301049050919050565b5f82821b905092915050565b5f6008830261065d7fffffffffffffffffffffffffffffffffffffffffffffffffffffffffffffffff82610622565b6106678683610622565b95508019841693508086168417925050509392505050565b5f819050919050565b5f6106a261069d61069884610370565b61067f565b610370565b9050919050565b5f819050919050565b6106bb83610688565b6106cf6106c7826106a9565b84845461062e565b825550505050565b5f5f905090565b6106e66106d7565b6106f18184846106b2565b505050565b5b81811015610714576107095f826106de565b6001810190506106f7565b5050565b601f8211156107595761072a81610601565b61073384610613565b81016020851015610742578190505b61075661074e85610613565b8301826106f6565b50505b505050565b5f82821c905092915050565b5f6107795f198460080261075e565b1980831691505092915050565b5f610791838361076a565b9150826002028217905092915050565b6107aa8261059a565b67ffffffffffffffff8111156107c3576107c26103bb565b5b6107cd82546105d1565b6107d8828285610718565b5f60209050601f831160018114610809575f84156107f7578287015190505b6108018582610786565b865550610868565b601f19841661081786610601565b5f5b8281101561083e57848901518255600182019150602085019450602081019050610819565b8683101561085b5784890151610857601f89168261076a565b8355505b6001600288020188555050505b505050505050565b6136938061087d5f395ff3fe6080604052600436106101ed575f3560e01c806370a082311161010c578063a22cb4651161009f578063c87b56dd1161006e578063c87b56dd146106e5578063e985e9c514610721578063f2fde38b1461075d578063f4a0a52814610785578063fbfa77cf146107ad576101ed565b8063a22cb4651461062f578063b4dd3af014610657578063b88d4fde14610693578063c771909c146106bb576101ed565b80638bd05547116100db5780638bd05547146105895780638da5cb5b146105b157806395d89b41146105db57806398bdf6f514610605576101ed565b806370a08231146104d1578063715018a61461050d578063761cc6f4146105235780637a2ba9c41461055f576101ed565b806342842e0e116101845780636352211e116101535780636352211e1461041b5780636817031b146104575780636817c76c1461047f5780636c19e783146104a9576101ed565b806342842e0e1461036357806342871ab41461038b578063457ffe03146103b55780634e99b800146103f1576101ed565b806310662e91116101c057806310662e91146102bb57806323b872dd146102d75780632a6c9530146102ff5780632d8026f81461033b576101ed565b806301ffc9a7146101f157806306fdde031461022d578063081812fc14610257578063095ea7b314610293575b5f5ffd5b3480156101fc575f5ffd5b50610217600480360381019061021291906126ed565b6107d7565b6040516102249190612732565b60405180910390f35b348015610238575f5ffd5b506102416108b8565b60405161024e91906127bb565b60405180910390f35b348015610262575f5ffd5b5061027d6004803603810190610278919061280e565b610948565b60405161028a9190612878565b60405180910390f35b34801561029e575f5ffd5b506102b960048036038101906102b491906128bb565b610963565b005b6102d560048036038101906102d091906129af565b610979565b005b3480156102e2575f5ffd5b506102fd60048036038101906102f89190612a40565b610ae1565b005b34801561030a575f5ffd5b5061032560048036038101906103209190612bfb565b610be0565b6040516103329190612732565b60405180910390f35b348015610346575f5ffd5b50610361600480360381019061035c919061280e565b610d2b565b005b34801561036e575f5ffd5b5061038960048036038101906103849190612a40565b610d3d565b005b348015610396575f5ffd5b5061039f610d5c565b6040516103ac9190612c83565b60405180910390f35b3480156103c0575f5ffd5b506103db60048036038101906103d6919061280e565b610d62565b6040516103e891906127bb565b60405180910390f35b3480156103fc575f5ffd5b50610405610dfd565b60405161041291906127bb565b60405180910390f35b348015610426575f5ffd5b50610441600480360381019061043c919061280e565b610e89565b60405161044e9190612878565b60405180910390f35b348015610462575f5ffd5b5061047d60048036038101906104789190612c9c565b610e9a565b005b34801561048a575f5ffd5b50610493610ee5565b6040516104a09190612c83565b60405180910390f35b3480156104b4575f5ffd5b506104cf60048036038101906104ca9190612c9c565b610eeb565b005b3480156104dc575f5ffd5b506104f760048036038101906104f29190612c9c565b610f36565b6040516105049190612c83565b60405180910390f35b348015610518575f5ffd5b50610521610fec565b005b34801561052e575f5ffd5b5061054960048036038101906105449190612c9c565b610fff565b6040516105569190612c83565b60405180910390f35b34801561056a575f5ffd5b50610573611014565b6040516105809190612878565b60405180910390f35b348015610594575f5ffd5b506105af60048036038101906105aa9190612c9c565b611039565b005b3480156105bc575f5ffd5b506105c5611084565b6040516105d29190612878565b60405180910390f35b3480156105e6575f5ffd5b506105ef6110ab565b6040516105fc91906127bb565b60405180910390f35b348015610610575f5ffd5b5061061961113b565b6040516106269190612c83565b60405180910390f35b34801561063a575f5ffd5b5061065560048036038101906106509190612cf1565b611141565b005b348015610662575f5ffd5b5061067d60048036038101906106789190612c9c565b611157565b60405161068a9190612732565b60405180910390f35b34801561069e575f5ffd5b506106b960048036038101906106b49190612ddf565b6111fd565b005b3480156106c6575f5ffd5b506106cf611222565b6040516106dc9190612878565b60405180910390f35b3480156106f0575f5ffd5b5061070b6004803603810190610706919061280e565b611247565b60405161071891906127bb565b60405180910390f35b34801561072c575f5ffd5b5061074760048036038101906107429190612e5f565b61128d565b6040516107549190612732565b60405180910390f35b348015610768575f5ffd5b50610783600480360381019061077e9190612c9c565b61131b565b005b348015610790575f5ffd5b506107ab60048036038101906107a6919061280e565b61139f565b005b3480156107b8575f5ffd5b506107c16113b1565b6040516107ce9190612878565b60405180910390f35b5f7f80ac58cd000000000000000000000000000000000000000000000000000000007bffffffffffffffffffffffffffffffffffffffffffffffffffffffff1916827bffffffffffffffffffffffffffffffffffffffffffffffffffffffff191614806108a157507f5b5e139f000000000000000000000000000000000000000000000000000000007bffffffffffffffffffffffffffffffffffffffffffffffffffffffff1916827bffffffffffffffffffffffffffffffffffffffffffffffffffffffff1916145b806108b157506108b0826113d6565b5b9050919050565b6060600480546108c790612eca565b80601f01602080910402602001604051908101604052809291908181526020018280546108f390612eca565b801561093e5780601f106109155761010080835404028352916020019161093e565b820191905f5260205f20905b81548152906001019060200180831161092157829003601f168201915b5050505050905090565b5f6109528261143f565b5061095c826114c5565b9050919050565b61097582826109706114fe565b611505565b5050565b5f6109826114fe565b905061098d81611517565b5f600367ffffffffffffffff8111156109a9576109a8612a90565b5b6040519080825280602002602001820160405280156109d75781602001602082028036833780820191505090505b5090508173ffffffffffffffffffffffffffffffffffffffff165f1b815f81518110610a0657610a05612efa565b5b6020026020010181815250508686604051602001610a25929190612f53565b6040516020818303038152906040528051906020012081600181518110610a4f57610a4e612efa565b5b602002602001018181525050845f1b81600281518110610a7257610a71612efa565b5b602002602001018181525050610a89818585611559565b610a92856115a4565b600b5f815480929190610aa490612fa2565b9190505550610ab582600b54611730565b8686600f5f600b5481526020019081526020015f209182610ad7929190613193565b5050505050505050565b5f73ffffffffffffffffffffffffffffffffffffffff168273ffffffffffffffffffffffffffffffffffffffff1603610b51575f6040517f64a0ae92000000000000000000000000000000000000000000000000000000008152600401610b489190612878565b60405180910390fd5b5f610b648383610b5f6114fe565b61174d565b90508373ffffffffffffffffffffffffffffffffffffffff168173ffffffffffffffffffffffffffffffffffffffff1614610bda578382826040517f64283d7b000000000000000000000000000000000000000000000000000000008152600401610bd193929190613260565b60405180910390fd5b50505050565b5f60605f855190505f5f90505b81811015610c3e5782878281518110610c0957610c08612efa565b5b6020026020010151604051602001610c229291906132f9565b6040516020818303038152906040529250806001019050610bed565b505f828051906020012090505f81604051602001610c5c9190613374565b6040516020818303038152906040528051906020012090505f610ccb88888080601f0160208091040260200160405190810160405280939291908181526020018383808284375f81840152601f19601f82011690508083019250505050505050836118c690919063ffffffff16565b905060035f9054906101000a900473ffffffffffffffffffffffffffffffffffffffff1673ffffffffffffffffffffffffffffffffffffffff168173ffffffffffffffffffffffffffffffffffffffff1614955050505050509392505050565b610d336118f0565b8060028190555050565b610d5783838360405180602001604052805f8152506111fd565b505050565b60025481565b600f602052805f5260405f205f915090508054610d7e90612eca565b80601f0160208091040260200160405190810160405280929190818152602001828054610daa90612eca565b8015610df55780601f10610dcc57610100808354040283529160200191610df5565b820191905f5260205f20905b815481529060010190602001808311610dd857829003601f168201915b505050505081565b600e8054610e0a90612eca565b80601f0160208091040260200160405190810160405280929190818152602001828054610e3690612eca565b8015610e815780601f10610e5857610100808354040283529160200191610e81565b820191905f5260205f20905b815481529060010190602001808311610e6457829003601f168201915b505050505081565b5f610e938261143f565b9050919050565b610ea26118f0565b80600d5f6101000a81548173ffffffffffffffffffffffffffffffffffffffff021916908373ffffffffffffffffffffffffffffffffffffffff16021790555050565b600c5481565b610ef36118f0565b8060035f6101000a81548173ffffffffffffffffffffffffffffffffffffffff021916908373ffffffffffffffffffffffffffffffffffffffff16021790555050565b5f5f73ffffffffffffffffffffffffffffffffffffffff168273ffffffffffffffffffffffffffffffffffffffff1603610fa7575f6040517f89c62b64000000000000000000000000000000000000000000000000000000008152600401610f9e9190612878565b60405180910390fd5b60075f8373ffffffffffffffffffffffffffffffffffffffff1673ffffffffffffffffffffffffffffffffffffffff1681526020019081526020015f20549050919050565b610ff46118f0565b610ffd5f611977565b565b600a602052805f5260405f205f915090505481565b60015f9054906101000a900473ffffffffffffffffffffffffffffffffffffffff1681565b6110416118f0565b8060015f6101000a81548173ffffffffffffffffffffffffffffffffffffffff021916908373ffffffffffffffffffffffffffffffffffffffff16021790555050565b5f5f5f9054906101000a900473ffffffffffffffffffffffffffffffffffffffff16905090565b6060600580546110ba90612eca565b80601f01602080910402602001604051908101604052809291908181526020018280546110e690612eca565b80156111315780601f1061110857610100808354040283529160200191611131565b820191905f5260205f20905b81548152906001019060200180831161111457829003601f168201915b5050505050905090565b600b5481565b61115361114c6114fe565b8383611a38565b5050565b5f60025460015f9054906101000a900473ffffffffffffffffffffffffffffffffffffffff1673ffffffffffffffffffffffffffffffffffffffff166370a08231846040518263ffffffff1660e01b81526004016111b59190612878565b602060405180830381865afa1580156111d0573d5f5f3e3d5ffd5b505050506040513d601f19601f820116820180604052508101906111f491906133ad565b10159050919050565b611208848484610ae1565b61121c6112136114fe565b85858585611ba1565b50505050565b60035f9054906101000a900473ffffffffffffffffffffffffffffffffffffffff1681565b60606112528261143f565b50600e600f5f8481526020019081526020015f20604051602001611277929190613458565b6040516020818303038152906040529050919050565b5f60095f8473ffffffffffffffffffffffffffffffffffffffff1673ffffffffffffffffffffffffffffffffffffffff1681526020019081526020015f205f8373ffffffffffffffffffffffffffffffffffffffff1673ffffffffffffffffffffffffffffffffffffffff1681526020019081526020015f205f9054906101000a900460ff16905092915050565b6113236118f0565b5f73ffffffffffffffffffffffffffffffffffffffff168173ffffffffffffffffffffffffffffffffffffffff1603611393575f6040517f1e4fbdf700000000000000000000000000000000000000000000000000000000815260040161138a9190612878565b60405180910390fd5b61139c81611977565b50565b6113a76118f0565b80600c8190555050565b600d5f9054906101000a900473ffffffffffffffffffffffffffffffffffffffff1681565b5f7f01ffc9a7000000000000000000000000000000000000000000000000000000007bffffffffffffffffffffffffffffffffffffffffffffffffffffffff1916827bffffffffffffffffffffffffffffffffffffffffffffffffffffffff1916149050919050565b5f5f61144a83611d4d565b90505f73ffffffffffffffffffffffffffffffffffffffff168173ffffffffffffffffffffffffffffffffffffffff16036114bc57826040517f7e2732890000000000000000000000000000000000000000000000000000000081526004016114b39190612c83565b60405180910390fd5b80915050919050565b5f60085f8381526020019081526020015f205f9054906101000a900473ffffffffffffffffffffffffffffffffffffffff169050919050565b5f33905090565b6115128383836001611d86565b505050565b61152081611157565b611556576040517f9cd4c6a900000000000000000000000000000000000000000000000000000000815260040160405180910390fd5b50565b5f611565848484610be0565b90508061159e576040517f8baa579f00000000000000000000000000000000000000000000000000000000815260040160405180910390fd5b50505050565b8034146115dd576040517f356680b700000000000000000000000000000000000000000000000000000000815260040160405180910390fd5b5f81111561172d575f73ffffffffffffffffffffffffffffffffffffffff16600d5f9054906101000a900473ffffffffffffffffffffffffffffffffffffffff1673ffffffffffffffffffffffffffffffffffffffff160361166b576040517fc8e2816000000000000000000000000000000000000000000000000000000000815260040160405180910390fd5b5f600d5f9054906101000a900473ffffffffffffffffffffffffffffffffffffffff1673ffffffffffffffffffffffffffffffffffffffff16346040516116b19061349e565b5f6040518083038185875af1925050503d805f81146116eb576040519150601f19603f3d011682016040523d82523d5f602084013e6116f0565b606091505b505090508061172b576040517fcc7744d500000000000000000000000000000000000000000000000000000000815260040160405180910390fd5b505b50565b611749828260405180602001604052805f815250611f45565b5050565b5f5f61175884611d4d565b90505f73ffffffffffffffffffffffffffffffffffffffff168173ffffffffffffffffffffffffffffffffffffffff16141580156117c257505f73ffffffffffffffffffffffffffffffffffffffff168573ffffffffffffffffffffffffffffffffffffffff1614155b156117f9576040517f24cf071e00000000000000000000000000000000000000000000000000000000815260040160405180910390fd5b5f600a5f8773ffffffffffffffffffffffffffffffffffffffff1673ffffffffffffffffffffffffffffffffffffffff1681526020019081526020015f20541461186f576040517fddefae2800000000000000000000000000000000000000000000000000000000815260040160405180910390fd5b83600a5f8773ffffffffffffffffffffffffffffffffffffffff1673ffffffffffffffffffffffffffffffffffffffff1681526020019081526020015f20819055506118bc858585611f68565b9150509392505050565b5f5f5f5f6118d48686612173565b9250925092506118e482826121c8565b82935050505092915050565b6118f86114fe565b73ffffffffffffffffffffffffffffffffffffffff16611916611084565b73ffffffffffffffffffffffffffffffffffffffff1614611975576119396114fe565b6040517f118cdaa700000000000000000000000000000000000000000000000000000000815260040161196c9190612878565b60405180910390fd5b565b5f5f5f9054906101000a900473ffffffffffffffffffffffffffffffffffffffff169050815f5f6101000a81548173ffffffffffffffffffffffffffffffffffffffff021916908373ffffffffffffffffffffffffffffffffffffffff1602179055508173ffffffffffffffffffffffffffffffffffffffff168173ffffffffffffffffffffffffffffffffffffffff167f8be0079c531659141344cd1fd0a4f28419497f9722a3daafe3b4186f6b6457e060405160405180910390a35050565b5f73ffffffffffffffffffffffffffffffffffffffff168273ffffffffffffffffffffffffffffffffffffffff1603611aa857816040517f5b08ba18000000000000000000000000000000000000000000000000000000008152600401611a9f9190612878565b60405180910390fd5b8060095f8573ffffffffffffffffffffffffffffffffffffffff1673ffffffffffffffffffffffffffffffffffffffff1681526020019081526020015f205f8473ffffffffffffffffffffffffffffffffffffffff1673ffffffffffffffffffffffffffffffffffffffff1681526020019081526020015f205f6101000a81548160ff0219169083151502179055508173ffffffffffffffffffffffffffffffffffffffff168373ffffffffffffffffffffffffffffffffffffffff167f17307eab39ab6107e8899845ad3d59bd9653f200f220920489ca2b5937696c3183604051611b949190612732565b60405180910390a3505050565b5f8373ffffffffffffffffffffffffffffffffffffffff163b1115611d46578273ffffffffffffffffffffffffffffffffffffffff1663150b7a02868685856040518563ffffffff1660e01b8152600401611bff94939291906134fa565b6020604051808303815f875af1925050508015611c3a57506040513d601f19601f82011682018060405250810190611c379190613558565b60015b611cbb573d805f8114611c68576040519150601f19603f3d011682016040523d82523d5f602084013e611c6d565b606091505b505f815103611cb357836040517f64a0ae92000000000000000000000000000000000000000000000000000000008152600401611caa9190612878565b60405180910390fd5b805160208201fd5b63150b7a0260e01b7bffffffffffffffffffffffffffffffffffffffffffffffffffffffff1916817bffffffffffffffffffffffffffffffffffffffffffffffffffffffff191614611d4457836040517f64a0ae92000000000000000000000000000000000000000000000000000000008152600401611d3b9190612878565b60405180910390fd5b505b5050505050565b5f60065f8381526020019081526020015f205f9054906101000a900473ffffffffffffffffffffffffffffffffffffffff169050919050565b8080611dbe57505f73ffffffffffffffffffffffffffffffffffffffff168273ffffffffffffffffffffffffffffffffffffffff1614155b15611ef0575f611dcd8461143f565b90505f73ffffffffffffffffffffffffffffffffffffffff168373ffffffffffffffffffffffffffffffffffffffff1614158015611e3757508273ffffffffffffffffffffffffffffffffffffffff168173ffffffffffffffffffffffffffffffffffffffff1614155b8015611e4a5750611e48818461128d565b155b15611e8c57826040517fa9fbf51f000000000000000000000000000000000000000000000000000000008152600401611e839190612878565b60405180910390fd5b8115611eee57838573ffffffffffffffffffffffffffffffffffffffff168273ffffffffffffffffffffffffffffffffffffffff167f8c5be1e5ebec7d5bd14f71427d1e84f3dd0314c0f7b2291e5b200ac8c7c3b92560405160405180910390a45b505b8360085f8581526020019081526020015f205f6101000a81548173ffffffffffffffffffffffffffffffffffffffff021916908373ffffffffffffffffffffffffffffffffffffffff16021790555050505050565b611f4f838361232a565b611f63611f5a6114fe565b5f858585611ba1565b505050565b5f5f611f7384611d4d565b90505f73ffffffffffffffffffffffffffffffffffffffff168373ffffffffffffffffffffffffffffffffffffffff1614611fb457611fb381848661241d565b5b5f73ffffffffffffffffffffffffffffffffffffffff168173ffffffffffffffffffffffffffffffffffffffff161461203f57611ff35f855f5f611d86565b600160075f8373ffffffffffffffffffffffffffffffffffffffff1673ffffffffffffffffffffffffffffffffffffffff1681526020019081526020015f205f82825403925050819055505b5f73ffffffffffffffffffffffffffffffffffffffff168573ffffffffffffffffffffffffffffffffffffffff16146120be57600160075f8773ffffffffffffffffffffffffffffffffffffffff1673ffffffffffffffffffffffffffffffffffffffff1681526020019081526020015f205f82825401925050819055505b8460065f8681526020019081526020015f205f6101000a81548173ffffffffffffffffffffffffffffffffffffffff021916908373ffffffffffffffffffffffffffffffffffffffff160217905550838573ffffffffffffffffffffffffffffffffffffffff168273ffffffffffffffffffffffffffffffffffffffff167fddf252ad1be2c89b69c2b068fc378daa952ba7f163c4a11628f55a4df523b3ef60405160405180910390a4809150509392505050565b5f5f5f60418451036121b3575f5f5f602087015192506040870151915060608701515f1a90506121a5888285856124e0565b9550955095505050506121c1565b5f600285515f1b9250925092505b9250925092565b5f60038111156121db576121da613583565b5b8260038111156121ee576121ed613583565b5b0315612326576001600381111561220857612207613583565b5b82600381111561221b5761221a613583565b5b03612252576040517ff645eedf00000000000000000000000000000000000000000000000000000000815260040160405180910390fd5b6002600381111561226657612265613583565b5b82600381111561227957612278613583565b5b036122bd57805f1c6040517ffce698f70000000000000000000000000000000000000000000000000000000081526004016122b49190612c83565b60405180910390fd5b6003808111156122d0576122cf613583565b5b8260038111156122e3576122e2613583565b5b0361232557806040517fd78bce0c00000000000000000000000000000000000000000000000000000000815260040161231c91906135bf565b60405180910390fd5b5b5050565b5f73ffffffffffffffffffffffffffffffffffffffff168273ffffffffffffffffffffffffffffffffffffffff160361239a575f6040517f64a0ae920000000000000000000000000000000000000000000000000000000081526004016123919190612878565b60405180910390fd5b5f6123a683835f61174d565b90505f73ffffffffffffffffffffffffffffffffffffffff168173ffffffffffffffffffffffffffffffffffffffff1614612418575f6040517f73c6ac6e00000000000000000000000000000000000000000000000000000000815260040161240f9190612878565b60405180910390fd5b505050565b6124288383836125c7565b6124db575f73ffffffffffffffffffffffffffffffffffffffff168373ffffffffffffffffffffffffffffffffffffffff160361249c57806040517f7e2732890000000000000000000000000000000000000000000000000000000081526004016124939190612c83565b60405180910390fd5b81816040517f177e802f0000000000000000000000000000000000000000000000000000000081526004016124d29291906135d8565b60405180910390fd5b505050565b5f5f5f7f7fffffffffffffffffffffffffffffff5d576e7357a4501ddfe92f46681b20a0845f1c111561251c575f6003859250925092506125bd565b5f6001888888886040515f815260200160405260405161253f949392919061361a565b6020604051602081039080840390855afa15801561255f573d5f5f3e3d5ffd5b5050506020604051035190505f73ffffffffffffffffffffffffffffffffffffffff168173ffffffffffffffffffffffffffffffffffffffff16036125b0575f60015f5f1b935093509350506125bd565b805f5f5f1b935093509350505b9450945094915050565b5f5f73ffffffffffffffffffffffffffffffffffffffff168373ffffffffffffffffffffffffffffffffffffffff161415801561267e57508273ffffffffffffffffffffffffffffffffffffffff168473ffffffffffffffffffffffffffffffffffffffff16148061263f575061263e848461128d565b5b8061267d57508273ffffffffffffffffffffffffffffffffffffffff16612665836114c5565b73ffffffffffffffffffffffffffffffffffffffff16145b5b90509392505050565b5f604051905090565b5f5ffd5b5f5ffd5b5f7fffffffff0000000000000000000000000000000000000000000000000000000082169050919050565b6126cc81612698565b81146126d6575f5ffd5b50565b5f813590506126e7816126c3565b92915050565b5f6020828403121561270257612701612690565b5b5f61270f848285016126d9565b91505092915050565b5f8115159050919050565b61272c81612718565b82525050565b5f6020820190506127455f830184612723565b92915050565b5f81519050919050565b5f82825260208201905092915050565b8281835e5f83830152505050565b5f601f19601f8301169050919050565b5f61278d8261274b565b6127978185612755565b93506127a7818560208601612765565b6127b081612773565b840191505092915050565b5f6020820190508181035f8301526127d38184612783565b905092915050565b5f819050919050565b6127ed816127db565b81146127f7575f5ffd5b50565b5f81359050612808816127e4565b92915050565b5f6020828403121561282357612822612690565b5b5f612830848285016127fa565b91505092915050565b5f73ffffffffffffffffffffffffffffffffffffffff82169050919050565b5f61286282612839565b9050919050565b61287281612858565b82525050565b5f60208201905061288b5f830184612869565b92915050565b61289a81612858565b81146128a4575f5ffd5b50565b5f813590506128b581612891565b92915050565b5f5f604083850312156128d1576128d0612690565b5b5f6128de858286016128a7565b92505060206128ef858286016127fa565b9150509250929050565b5f5ffd5b5f5ffd5b5f5ffd5b5f5f83601f84011261291a576129196128f9565b5b8235905067ffffffffffffffff811115612937576129366128fd565b5b60208301915083600182028301111561295357612952612901565b5b9250929050565b5f5f83601f84011261296f5761296e6128f9565b5b8235905067ffffffffffffffff81111561298c5761298b6128fd565b5b6020830191508360018202830111156129a8576129a7612901565b5b9250929050565b5f5f5f5f5f606086880312156129c8576129c7612690565b5b5f86013567ffffffffffffffff8111156129e5576129e4612694565b5b6129f188828901612905565b95509550506020612a04888289016127fa565b935050604086013567ffffffffffffffff811115612a2557612a24612694565b5b612a318882890161295a565b92509250509295509295909350565b5f5f5f60608486031215612a5757612a56612690565b5b5f612a64868287016128a7565b9350506020612a75868287016128a7565b9250506040612a86868287016127fa565b9150509250925092565b7f4e487b71000000000000000000000000000000000000000000000000000000005f52604160045260245ffd5b612ac682612773565b810181811067ffffffffffffffff82111715612ae557612ae4612a90565b5b80604052505050565b5f612af7612687565b9050612b038282612abd565b919050565b5f67ffffffffffffffff821115612b2257612b21612a90565b5b602082029050602081019050919050565b5f819050919050565b612b4581612b33565b8114612b4f575f5ffd5b50565b5f81359050612b6081612b3c565b92915050565b5f612b78612b7384612b08565b612aee565b90508083825260208201905060208402830185811115612b9b57612b9a612901565b5b835b81811015612bc45780612bb08882612b52565b845260208401935050602081019050612b9d565b5050509392505050565b5f82601f830112612be257612be16128f9565b5b8135612bf2848260208601612b66565b91505092915050565b5f5f5f60408486031215612c1257612c11612690565b5b5f84013567ffffffffffffffff811115612c2f57612c2e612694565b5b612c3b86828701612bce565b935050602084013567ffffffffffffffff811115612c5c57612c5b612694565b5b612c688682870161295a565b92509250509250925092565b612c7d816127db565b82525050565b5f602082019050612c965f830184612c74565b92915050565b5f60208284031215612cb157612cb0612690565b5b5f612cbe848285016128a7565b91505092915050565b612cd081612718565b8114612cda575f5ffd5b50565b5f81359050612ceb81612cc7565b92915050565b5f5f60408385031215612d0757612d06612690565b5b5f612d14858286016128a7565b9250506020612d2585828601612cdd565b9150509250929050565b5f5ffd5b5f67ffffffffffffffff821115612d4d57612d4c612a90565b5b612d5682612773565b9050602081019050919050565b828183375f83830152505050565b5f612d83612d7e84612d33565b612aee565b905082815260208101848484011115612d9f57612d9e612d2f565b5b612daa848285612d63565b509392505050565b5f82601f830112612dc657612dc56128f9565b5b8135612dd6848260208601612d71565b91505092915050565b5f5f5f5f60808587031215612df757612df6612690565b5b5f612e04878288016128a7565b9450506020612e15878288016128a7565b9350506040612e26878288016127fa565b925050606085013567ffffffffffffffff811115612e4757612e46612694565b5b612e5387828801612db2565b91505092959194509250565b5f5f60408385031215612e7557612e74612690565b5b5f612e82858286016128a7565b9250506020612e93858286016128a7565b9150509250929050565b7f4e487b71000000000000000000000000000000000000000000000000000000005f52602260045260245ffd5b5f6002820490506001821680612ee157607f821691505b602082108103612ef457612ef3612e9d565b5b50919050565b7f4e487b71000000000000000000000000000000000000000000000000000000005f52603260045260245ffd5b5f612f328385612755565b9350612f3f838584612d63565b612f4883612773565b840190509392505050565b5f6020820190508181035f830152612f6c818486612f27565b90509392505050565b7f4e487b71000000000000000000000000000000000000000000000000000000005f52601160045260245ffd5b5f612fac826127db565b91507fffffffffffffffffffffffffffffffffffffffffffffffffffffffffffffffff8203612fde57612fdd612f75565b5b600182019050919050565b5f82905092915050565b5f819050815f5260205f209050919050565b5f6020601f8301049050919050565b5f82821b905092915050565b5f6008830261304f7fffffffffffffffffffffffffffffffffffffffffffffffffffffffffffffffff82613014565b6130598683613014565b95508019841693508086168417925050509392505050565b5f819050919050565b5f61309461308f61308a846127db565b613071565b6127db565b9050919050565b5f819050919050565b6130ad8361307a565b6130c16130b98261309b565b848454613020565b825550505050565b5f5f905090565b6130d86130c9565b6130e38184846130a4565b505050565b5b81811015613106576130fb5f826130d0565b6001810190506130e9565b5050565b601f82111561314b5761311c81612ff3565b61312584613005565b81016020851015613134578190505b61314861314085613005565b8301826130e8565b50505b505050565b5f82821c905092915050565b5f61316b5f1984600802613150565b1980831691505092915050565b5f613183838361315c565b9150826002028217905092915050565b61319d8383612fe9565b67ffffffffffffffff8111156131b6576131b5612a90565b5b6131c08254612eca565b6131cb82828561310a565b5f601f8311600181146131f8575f84156131e6578287013590505b6131f08582613178565b865550613257565b601f19841661320686612ff3565b5f5b8281101561322d57848901358255600182019150602085019450602081019050613208565b8683101561324a5784890135613246601f89168261315c565b8355505b6001600288020188555050505b50505050505050565b5f6060820190506132735f830186612869565b6132806020830185612c74565b61328d6040830184612869565b949350505050565b5f81519050919050565b5f81905092915050565b5f6132b382613295565b6132bd818561329f565b93506132cd818560208601612765565b80840191505092915050565b5f819050919050565b6132f36132ee82612b33565b6132d9565b82525050565b5f61330482856132a9565b915061331082846132e2565b6020820191508190509392505050565b5f81905092915050565b7f19457468657265756d205369676e6564204d6573736167653a0a3332000000005f82015250565b5f61335e601c83613320565b91506133698261332a565b601c82019050919050565b5f61337e82613352565b915061338a82846132e2565b60208201915081905092915050565b5f815190506133a7816127e4565b92915050565b5f602082840312156133c2576133c1612690565b5b5f6133cf84828501613399565b91505092915050565b5f81546133e481612eca565b6133ee8186613320565b9450600182165f8114613408576001811461341d5761344f565b60ff198316865281151582028601935061344f565b61342685612ff3565b5f5b8381101561344757815481890152600182019150602081019050613428565b838801955050505b50505092915050565b5f61346382856133d8565b915061346f82846133d8565b91508190509392505050565b50565b5f6134895f8361329f565b91506134948261347b565b5f82019050919050565b5f6134a88261347e565b9150819050919050565b5f82825260208201905092915050565b5f6134cc82613295565b6134d681856134b2565b93506134e6818560208601612765565b6134ef81612773565b840191505092915050565b5f60808201905061350d5f830187612869565b61351a6020830186612869565b6135276040830185612c74565b818103606083015261353981846134c2565b905095945050505050565b5f81519050613552816126c3565b92915050565b5f6020828403121561356d5761356c612690565b5b5f61357a84828501613544565b91505092915050565b7f4e487b71000000000000000000000000000000000000000000000000000000005f52602160045260245ffd5b6135b981612b33565b82525050565b5f6020820190506135d25f8301846135b0565b92915050565b5f6040820190506135eb5f830185612869565b6135f86020830184612c74565b9392505050565b5f60ff82169050919050565b613614816135ff565b82525050565b5f60808201905061362d5f8301876135b0565b61363a602083018661360b565b61364760408301856135b0565b61365460608301846135b0565b9594505050505056fea264697066735822122050b2991583bade7d93c9062cc35320e90ea149179040b42a526d7b5c62d7a7d064736f6c634300081c0033",
  "linkReferences": {},
  "deployedLinkReferences": {},
  "immutableReferences": {},
  "inputSourceName": "project/contracts/ZuGramaPassport.sol",
  "buildInfoId": "solc-0_8_28-c1381ece2fc5381bc40940f9f8acb06ee0beb660"
}