{"abi":[{"type":"constructor","inputs":[{"name":"_nativeToken","type":"address","internalType":"address"},{"name":"_indexer","type":"address","internalType":"address"}],"stateMutability":"nonpayable"},{"type":"receive","stateMutability":"payable"},{"type":"function","name":"allocateFees","inputs":[{"name":"_poolId","type":"bytes32","internalType":"PoolId"},{"name":"_recipient","type":"address","internalType":"address"},{"name":"_amount","type":"uint256","internalType":"uint256"}],"outputs":[],"stateMutability":"nonpayable"},{"type":"function","name":"balances","inputs":[{"name":"_recipient","type":"address","internalType":"address"}],"outputs":[{"name":"_amount","type":"uint256","internalType":"uint256"}],"stateMutability":"view"},{"type":"function","name":"cancelOwnershipHandover","inputs":[],"outputs":[],"stateMutability":"payable"},{"type":"function","name":"completeOwnershipHandover","inputs":[{"name":"pendingOwner","type":"address","internalType":"address"}],"outputs":[],"stateMutability":"payable"},{"type":"function","name":"indexer","inputs":[],"outputs":[{"name":"","type":"address","internalType":"contract IndexerSubscriber"}],"stateMutability":"view"},{"type":"function","name":"nativeToken","inputs":[],"outputs":[{"name":"","type":"address","internalType":"address"}],"stateMutability":"view"},{"type":"function","name":"owner","inputs":[],"outputs":[{"name":"result","type":"address","internalType":"address"}],"stateMutability":"view"},{"type":"function","name":"ownershipHandoverExpiresAt","inputs":[{"name":"pendingOwner","type":"address","internalType":"address"}],"outputs":[{"name":"result","type":"uint256","internalType":"uint256"}],"stateMutability":"view"},{"type":"function","name":"renounceOwnership","inputs":[],"outputs":[],"stateMutability":"payable"},{"type":"function","name":"requestOwnershipHandover","inputs":[],"outputs":[],"stateMutability":"payable"},{"type":"function","name":"setIndexer","inputs":[{"name":"_indexer","type":"address","internalType":"address"}],"outputs":[],"stateMutability":"nonpayable"},{"type":"function","name":"totalFeesAllocated","inputs":[{"name":"_poolId","type":"bytes32","internalType":"PoolId"}],"outputs":[{"name":"_amount","type":"uint256","internalType":"uint256"}],"stateMutability":"view"},{"type":"function","name":"transferOwnership","inputs":[{"name":"newOwner","type":"address","internalType":"address"}],"outputs":[],"stateMutability":"payable"},{"type":"function","name":"withdrawFees","inputs":[{"name":"_recipient","type":"address","internalType":"address"},{"name":"_unwrap","type":"bool","internalType":"bool"}],"outputs":[],"stateMutability":"nonpayable"},{"type":"event","name":"Deposit","inputs":[{"name":"_poolId","type":"bytes32","indexed":true,"internalType":"PoolId"},{"name":"_payee","type":"address","indexed":false,"internalType":"address"},{"name":"_token","type":"address","indexed":false,"internalType":"address"},{"name":"_amount","type":"uint256","indexed":false,"internalType":"uint256"}],"anonymous":false},{"type":"event","name":"OwnershipHandoverCanceled","inputs":[{"name":"pendingOwner","type":"address","indexed":true,"internalType":"address"}],"anonymous":false},{"type":"event","name":"OwnershipHandoverRequested","inputs":[{"name":"pendingOwner","type":"address","indexed":true,"internalType":"address"}],"anonymous":false},{"type":"event","name":"OwnershipTransferred","inputs":[{"name":"oldOwner","type":"address","indexed":true,"internalType":"address"},{"name":"newOwner","type":"address","indexed":true,"internalType":"address"}],"anonymous":false},{"type":"event","name":"Withdrawal","inputs":[{"name":"_sender","type":"address","indexed":false,"internalType":"address"},{"name":"_recipient","type":"address","indexed":false,"internalType":"address"},{"name":"_token","type":"address","indexed":false,"internalType":"address"},{"name":"_amount","type":"uint256","indexed":false,"internalType":"uint256"}],"anonymous":false},{"type":"error","name":"AlreadyInitialized","inputs":[]},{"type":"error","name":"InvalidRecipient","inputs":[]},{"type":"error","name":"NewOwnerIsZeroAddress","inputs":[]},{"type":"error","name":"NoHandoverRequest","inputs":[]},{"type":"error","name":"PoolIdNotIndexed","inputs":[]},{"type":"error","name":"RecipientZeroAddress","inputs":[]},{"type":"error","name":"Unauthorized","inputs":[]}],"bytecode":{"object":"0x60a060405234801561000f575f80fd5b50604051610bc2380380610bc283398101604081905261002e916100b8565b6001600160a01b038281166080525f80546001600160a01b03191691831691909117905561005b33610062565b50506100e9565b6001600160a01b0316638b78c6d819819055805f7f8be0079c531659141344cd1fd0a4f28419497f9722a3daafe3b4186f6b6457e08180a350565b80516001600160a01b03811681146100b3575f80fd5b919050565b5f80604083850312156100c9575f80fd5b6100d28361009d565b91506100e06020840161009d565b90509250929050565b608051610a9e6101245f395f81816101ca0152818161032a015281816104570152818161048f015281816106a801526107470152610a9e5ff3fe6080604052600436106100af575f3560e01c806325692962146100ba57806327e235e3146100c45780633b431e92146101025780634c2d94c01461012157806354d1f13d14610140578063715018a6146101485780638da5cb5b14610150578063b23fd7641461017c578063e06118b71461019b578063e1758bd8146101b9578063e3d87443146101ec578063f04e283e14610217578063f2fde38b1461022a578063fee81cf41461023d575f80fd5b366100b657005b5f80fd5b6100c261026e565b005b3480156100cf575f80fd5b506100ef6100de36600461089d565b60016020525f908152604090205481565b6040519081526020015b60405180910390f35b34801561010d575f80fd5b506100c261011c36600461089d565b6102ba565b34801561012c575f80fd5b506100c261013b3660046108cc565b6102e3565b6100c26104cc565b6100c2610505565b34801561015b575f80fd5b50638b78c6d819545b6040516001600160a01b0390911681526020016100f9565b348015610187575f80fd5b506100c2610196366004610903565b610518565b3480156101a6575f80fd5b505f54610164906001600160a01b031681565b3480156101c4575f80fd5b506101647f000000000000000000000000000000000000000000000000000000000000000081565b3480156101f7575f80fd5b506100ef610206366004610938565b60026020525f908152604090205481565b6100c261022536600461089d565b610785565b6100c261023836600461089d565b6107c2565b348015610248575f80fd5b506100ef61025736600461089d565b63389a75e1600c9081525f91909152602090205490565b5f6202a3006001600160401b03164201905063389a75e1600c52335f52806020600c2055337fdbf36a107da19e49527a7176a1babf963b4b0ff8cde35ee35d6cd8f1f9ac7e1d5f80a250565b6102c26107e8565b5f80546001600160a01b0319166001600160a01b0392909216919091179055565b335f90815260016020526040812054908190036102ff57505050565b335f90815260016020526040812055811561045257604051632e1a7d4d60e01b8152600481018290527f00000000000000000000000000000000000000000000000000000000000000006001600160a01b031690632e1a7d4d906024015f604051808303815f87803b158015610373575f80fd5b505af1158015610385573d5f803e3d5ffd5b505050505f836001600160a01b0316826040515f6040518083038185875af1925050503d805f81146103d2576040519150601f19603f3d011682016040523d82523d5f602084013e6103d7565b606091505b50509050806104225760405162461bcd60e51b815260206004820152601360248201527211551208151c985b9cd9995c8811985a5b1959606a1b604482015260640160405180910390fd5b5f80516020610a4983398151915233855f85604051610444949392919061094f565b60405180910390a150505050565b61047d7f00000000000000000000000000000000000000000000000000000000000000008483610802565b5f80516020610a4983398151915233847f0000000000000000000000000000000000000000000000000000000000000000846040516104bf949392919061094f565b60405180910390a1505050565b63389a75e1600c52335f525f6020600c2055337ffa7b8eab7da67f412cc9575ed43464468f9bfbae89d1675917346ca6d8fe3c925f80a2565b61050d6107e8565b6105165f61084c565b565b805f0361052457505050565b6001600160a01b03821661054b576040516384bc540160e01b815260040160405180910390fd5b6001600160a01b0382165f9081526001602052604081208054839290610572908490610979565b90915550505f80546040516221282160ea1b81526004810186905282916001600160a01b0316906384a0840090602401608060405180830381865afa1580156105bd573d5f803e3d5ffd5b505050506040513d601f19601f820116820180604052508101906105e1919061099e565b935050509150805f1415801561066957506040516331a9108f60e11b8152600481018290526001600160a01b038086169190841690636352211e90602401602060405180830381865afa15801561063a573d5f803e3d5ffd5b505050506040513d601f19601f8201168201806040525081019061065e91906109ee565b6001600160a01b0316145b15610691575f858152600260205260408120805485929061068b908490610979565b90915550505b6040516323b872dd60e01b81526001600160a01b037f000000000000000000000000000000000000000000000000000000000000000016906323b872dd906106e190339030908890600401610a09565b6020604051808303815f875af11580156106fd573d5f803e3d5ffd5b505050506040513d601f19601f820116820180604052508101906107219190610a2d565b50847fc95ddcaddf83340b68d0d44c01b1703f5d28d0611a3fd87e69d79ba7e2ac21d3857f00000000000000000000000000000000000000000000000000000000000000008660405161077693929190610a09565b60405180910390a25050505050565b61078d6107e8565b63389a75e1600c52805f526020600c2080544211156107b357636f5e88185f526004601cfd5b5f90556107bf8161084c565b50565b6107ca6107e8565b8060601b6107df57637448fbae5f526004601cfd5b6107bf8161084c565b638b78c6d819543314610516576382b429005f526004601cfd5b816014528060345263a9059cbb60601b5f5260205f604460105f875af18060015f51141661084257803d853b151710610842576390b8ec185f526004601cfd5b505f603452505050565b638b78c6d81980546001600160a01b039092169182907f8be0079c531659141344cd1fd0a4f28419497f9722a3daafe3b4186f6b6457e05f80a355565b6001600160a01b03811681146107bf575f80fd5b5f602082840312156108ad575f80fd5b81356108b881610889565b9392505050565b80151581146107bf575f80fd5b5f80604083850312156108dd575f80fd5b82356108e881610889565b915060208301356108f8816108bf565b809150509250929050565b5f805f60608486031215610915575f80fd5b83359250602084013561092781610889565b929592945050506040919091013590565b5f60208284031215610948575f80fd5b5035919050565b6001600160a01b039485168152928416602084015292166040820152606081019190915260800190565b8082018082111561099857634e487b7160e01b5f52601160045260245ffd5b92915050565b5f805f80608085870312156109b1575f80fd5b84516109bc81610889565b60208601519094506109cd81610889565b60408601519093506109de81610889565b6060959095015193969295505050565b5f602082840312156109fe575f80fd5b81516108b881610889565b6001600160a01b039384168152919092166020820152604081019190915260600190565b5f60208284031215610a3d575f80fd5b81516108b8816108bf56fe342e7ff505a8a0364cd0dc2ff195c315e43bce86b204846ecd36913e117b109ea264697066735822122021b9e2c5fb07b14c603122ab0715809c07afb928aaaeaab44daef15ea9194bd564736f6c634300081a0033","linkReferences":{}},"methodIdentifiers":{"allocateFees(bytes32,address,uint256)":"b23fd764","balances(address)":"27e235e3","cancelOwnershipHandover()":"54d1f13d","completeOwnershipHandover(address)":"f04e283e","indexer()":"e06118b7","nativeToken()":"e1758bd8","owner()":"8da5cb5b","ownershipHandoverExpiresAt(address)":"fee81cf4","renounceOwnership()":"715018a6","requestOwnershipHandover()":"25692962","setIndexer(address)":"3b431e92","totalFeesAllocated(bytes32)":"e3d87443","transferOwnership(address)":"f2fde38b","withdrawFees(address,bool)":"4c2d94c0"},"id":145}