{
  "abi": [
    {
      "type": "constructor",
      "inputs": [
        {
          "name": "_positionManager",
          "type": "address",
          "internalType": "contract PositionManager"
        },
        {
          "name": "_flaunchContract",
          "type": "address",
          "internalType": "contract Flaunch"
        },
        {
          "name": "_flETH",
          "type": "address",
          "internalType": "contract IFLETH"
        },
        {
          "name": "_poolSwap",
          "type": "address",
          "internalType": "contract PoolSwap"
        },
        {
          "name": "_treasuryManagerFactory",
          "type": "address",
          "internalType": "contract ITreasuryManagerFactory"
        },
        {
          "name": "_merkleAirdrop",
          "type": "address",
          "internalType": "contract IMerkleAirdrop"
        },
        {
          "name": "_whitelistFairLaunch",
          "type": "address",
          "internalType": "contract WhitelistFairLaunch"
        }
      ],
      "stateMutability": "nonpayable"
    },
    {
      "type": "receive",
      "stateMutability": "payable"
    },
    {
      "type": "function",
      "name": "calculateFee",
      "inputs": [
        {
          "name": "_premineAmount",
          "type": "uint256",
          "internalType": "uint256"
        },
        {
          "name": "_slippage",
          "type": "uint256",
          "internalType": "uint256"
        },
        {
          "name": "_initialPriceParams",
          "type": "bytes",
          "internalType": "bytes"
        }
      ],
      "outputs": [
        {
          "name": "ethRequired_",
          "type": "uint256",
          "internalType": "uint256"
        }
      ],
      "stateMutability": "view"
    },
    {
      "type": "function",
      "name": "deployAndInitializeManager",
      "inputs": [
        {
          "name": "_managerImplementation",
          "type": "address",
          "internalType": "address"
        },
        {
          "name": "_owner",
          "type": "address",
          "internalType": "address"
        },
        {
          "name": "_data",
          "type": "bytes",
          "internalType": "bytes"
        },
        {
          "name": "_permissions",
          "type": "address",
          "internalType": "address"
        }
      ],
      "outputs": [
        {
          "name": "manager_",
          "type": "address",
          "internalType": "address payable"
        }
      ],
      "stateMutability": "nonpayable"
    },
    {
      "type": "function",
      "name": "flETH",
      "inputs": [],
      "outputs": [
        {
          "name": "",
          "type": "address",
          "internalType": "contract IFLETH"
        }
      ],
      "stateMutability": "view"
    },
    {
      "type": "function",
      "name": "flaunch",
      "inputs": [
        {
          "name": "_flaunchParams",
          "type": "tuple",
          "internalType": "struct PositionManager.FlaunchParams",
          "components": [
            {
              "name": "name",
              "type": "string",
              "internalType": "string"
            },
            {
              "name": "symbol",
              "type": "string",
              "internalType": "string"
            },
            {
              "name": "tokenUri",
              "type": "string",
              "internalType": "string"
            },
            {
              "name": "initialTokenFairLaunch",
              "type": "uint256",
              "internalType": "uint256"
            },
            {
              "name": "fairLaunchDuration",
              "type": "uint256",
              "internalType": "uint256"
            },
            {
              "name": "premineAmount",
              "type": "uint256",
              "internalType": "uint256"
            },
            {
              "name": "creator",
              "type": "address",
              "internalType": "address"
            },
            {
              "name": "creatorFeeAllocation",
              "type": "uint24",
              "internalType": "uint24"
            },
            {
              "name": "flaunchAt",
              "type": "uint256",
              "internalType": "uint256"
            },
            {
              "name": "initialPriceParams",
              "type": "bytes",
              "internalType": "bytes"
            },
            {
              "name": "feeCalculatorParams",
              "type": "bytes",
              "internalType": "bytes"
            },
            {
              "name": "creatorVestingParams",
              "type": "bytes",
              "internalType": "bytes"
            }
          ]
        },
        {
          "name": "_trustedFeeSigner",
          "type": "address",
          "internalType": "address"
        },
        {
          "name": "_premineSwapHookData",
          "type": "bytes",
          "internalType": "bytes"
        }
      ],
      "outputs": [
        {
          "name": "memecoin_",
          "type": "address",
          "internalType": "address"
        },
        {
          "name": "ethSpent_",
          "type": "uint256",
          "internalType": "uint256"
        },
        {
          "name": "",
          "type": "address",
          "internalType": "address"
        }
      ],
      "stateMutability": "payable"
    },
    {
      "type": "function",
      "name": "flaunch",
      "inputs": [
        {
          "name": "_flaunchParams",
          "type": "tuple",
          "internalType": "struct PositionManager.FlaunchParams",
          "components": [
            {
              "name": "name",
              "type": "string",
              "internalType": "string"
            },
            {
              "name": "symbol",
              "type": "string",
              "internalType": "string"
            },
            {
              "name": "tokenUri",
              "type": "string",
              "internalType": "string"
            },
            {
              "name": "initialTokenFairLaunch",
              "type": "uint256",
              "internalType": "uint256"
            },
            {
              "name": "fairLaunchDuration",
              "type": "uint256",
              "internalType": "uint256"
            },
            {
              "name": "premineAmount",
              "type": "uint256",
              "internalType": "uint256"
            },
            {
              "name": "creator",
              "type": "address",
              "internalType": "address"
            },
            {
              "name": "creatorFeeAllocation",
              "type": "uint24",
              "internalType": "uint24"
            },
            {
              "name": "flaunchAt",
              "type": "uint256",
              "internalType": "uint256"
            },
            {
              "name": "initialPriceParams",
              "type": "bytes",
              "internalType": "bytes"
            },
            {
              "name": "feeCalculatorParams",
              "type": "bytes",
              "internalType": "bytes"
            },
            {
              "name": "creatorVestingParams",
              "type": "bytes",
              "internalType": "bytes"
            }
          ]
        },
        {
          "name": "_trustedFeeSigner",
          "type": "address",
          "internalType": "address"
        },
        {
          "name": "_premineSwapHookData",
          "type": "bytes",
          "internalType": "bytes"
        },
        {
          "name": "_whitelistParams",
          "type": "tuple",
          "internalType": "struct FlaunchZap.WhitelistParams",
          "components": [
            {
              "name": "merkleRoot",
              "type": "bytes32",
              "internalType": "bytes32"
            },
            {
              "name": "merkleIPFSHash",
              "type": "string",
              "internalType": "string"
            },
            {
              "name": "maxTokens",
              "type": "uint256",
              "internalType": "uint256"
            }
          ]
        },
        {
          "name": "_airdropParams",
          "type": "tuple",
          "internalType": "struct FlaunchZap.AirdropParams",
          "components": [
            {
              "name": "airdropIndex",
              "type": "uint256",
              "internalType": "uint256"
            },
            {
              "name": "airdropAmount",
              "type": "uint256",
              "internalType": "uint256"
            },
            {
              "name": "airdropEndTime",
              "type": "uint256",
              "internalType": "uint256"
            },
            {
              "name": "merkleRoot",
              "type": "bytes32",
              "internalType": "bytes32"
            },
            {
              "name": "merkleIPFSHash",
              "type": "string",
              "internalType": "string"
            }
          ]
        },
        {
          "name": "_treasuryManagerParams",
          "type": "tuple",
          "internalType": "struct FlaunchZap.TreasuryManagerParams",
          "components": [
            {
              "name": "manager",
              "type": "address",
              "internalType": "address"
            },
            {
              "name": "permissions",
              "type": "address",
              "internalType": "address"
            },
            {
              "name": "initializeData",
              "type": "bytes",
              "internalType": "bytes"
            },
            {
              "name": "depositData",
              "type": "bytes",
              "internalType": "bytes"
            }
          ]
        }
      ],
      "outputs": [
        {
          "name": "memecoin_",
          "type": "address",
          "internalType": "address"
        },
        {
          "name": "ethSpent_",
          "type": "uint256",
          "internalType": "uint256"
        },
        {
          "name": "deployedManager_",
          "type": "address",
          "internalType": "address"
        }
      ],
      "stateMutability": "payable"
    },
    {
      "type": "function",
      "name": "flaunchContract",
      "inputs": [],
      "outputs": [
        {
          "name": "",
          "type": "address",
          "internalType": "contract Flaunch"
        }
      ],
      "stateMutability": "view"
    },
    {
      "type": "function",
      "name": "merkleAirdrop",
      "inputs": [],
      "outputs": [
        {
          "name": "",
          "type": "address",
          "internalType": "contract IMerkleAirdrop"
        }
      ],
      "stateMutability": "view"
    },
    {
      "type": "function",
      "name": "poolSwap",
      "inputs": [],
      "outputs": [
        {
          "name": "",
          "type": "address",
          "internalType": "contract PoolSwap"
        }
      ],
      "stateMutability": "view"
    },
    {
      "type": "function",
      "name": "positionManager",
      "inputs": [],
      "outputs": [
        {
          "name": "",
          "type": "address",
          "internalType": "contract PositionManager"
        }
      ],
      "stateMutability": "view"
    },
    {
      "type": "function",
      "name": "treasuryManagerFactory",
      "inputs": [],
      "outputs": [
        {
          "name": "",
          "type": "address",
          "internalType": "contract ITreasuryManagerFactory"
        }
      ],
      "stateMutability": "view"
    },
    {
      "type": "function",
      "name": "whitelistFairLaunch",
      "inputs": [],
      "outputs": [
        {
          "name": "",
          "type": "address",
          "internalType": "contract WhitelistFairLaunch"
        }
      ],
      "stateMutability": "view"
    },
    {
      "type": "error",
      "name": "CreatorCannotBeZero",
      "inputs": []
    },
    {
      "type": "error",
      "name": "InsufficientMemecoinsForAirdrop",
      "inputs": []
    }
  ],
  "bytecode": {
    "object": "0x610160604052348015610010575f80fd5b50604051612aca380380612aca83398101604081905261002f9161007c565b6001600160a01b0396871660805294861660a05292851660c05290841660e0528316610120528216610100521661014052610113565b6001600160a01b0381168114610079575f80fd5b50565b5f805f805f805f60e0888a031215610092575f80fd5b875161009d81610065565b60208901519097506100ae81610065565b60408901519096506100bf81610065565b60608901519095506100d081610065565b60808901519094506100e181610065565b60a08901519093506100f281610065565b60c089015190925061010381610065565b8091505092959891949750929550565b60805160a05160c05160e0516101005161012051610140516128876102435f395f818161020501526114ef01525f8181610238015281816109a3015281816116af015281816117760152611a2901525f81816101a5015281816113d9015261145201525f818160ec01528181610fd8015281816110ca015261113a01525f818161026b01528181610f6a015281816110090152818161109d015261129801525f818161015f01528181610dac01528181610ddd0152818161161a0152818161182f015281816118af01528181611ad701528181611b7d0152611c3701525f818161012c015281816105d8015281816106c10152818161072f0152818161089e01528181610b0201528181610bb401528181610c4501528181610cc601528181610ebe015261152101526128875ff3fe60806040526004361061008e575f3560e01c80631cebc9201461009957806333809ad0146100db578063791b98bc1461011b57806384aa1da01461014e57806388d9490214610181578063a643703314610194578063bbce3594146101c7578063df82ffbb146101f4578063ea799e4e14610227578063f6baab4d1461025a578063fea485141461028d575f80fd5b3661009557005b5f80fd5b6100ac6100a7366004611f81565b6102ac565b604080516001600160a01b03948516815260208101939093529216918101919091526060015b60405180910390f35b3480156100e6575f80fd5b5061010e7f000000000000000000000000000000000000000000000000000000000000000081565b6040516100d29190611ff8565b348015610126575f80fd5b5061010e7f000000000000000000000000000000000000000000000000000000000000000081565b348015610159575f80fd5b5061010e7f000000000000000000000000000000000000000000000000000000000000000081565b6100ac61018f366004612042565b6103df565b34801561019f575f80fd5b5061010e7f000000000000000000000000000000000000000000000000000000000000000081565b3480156101d2575f80fd5b506101e66101e1366004612135565b6105c6565b6040519081526020016100d2565b3480156101ff575f80fd5b5061010e7f000000000000000000000000000000000000000000000000000000000000000081565b348015610232575f80fd5b5061010e7f000000000000000000000000000000000000000000000000000000000000000081565b348015610265575f80fd5b5061010e7f000000000000000000000000000000000000000000000000000000000000000081565b348015610298575f80fd5b5061010e6102a736600461216b565b61098a565b5f805f6102b98787610adc565b92508660a001515f146103c2576102d6838860a001518787610eba565b91505f836001600160a01b03166370a08231306040518263ffffffff1660e01b81526004016103059190611ff8565b602060405180830381865afa158015610320573d5f803e3d5ffd5b505050506040513d601f19601f8201168201806040525081019061034491906121e2565b905080156103c05760c088015160405163a9059cbb60e01b81526001600160a01b0386169163a9059cbb9161037e919085906004016121f9565b6020604051808303815f875af115801561039a573d5f803e3d5ffd5b505050506040513d601f19601f820116820180604052508101906103be9190612221565b505b505b303180156103d4576103d43382611305565b509450945094915050565b60c08701515f90819081906001600160a01b0381166104115760405163fb95330b60e01b815260040160405180910390fd5b5f61041f6020870187612241565b6001600160a01b031614610434573060c08c01525b61043e8b8b610adc565b93508a60a001515f146105595761045b848c60a001518b8b610eba565b925060208601351561047257610472848288611322565b6040516370a0823160e01b81525f906001600160a01b038616906370a08231906104a0903090600401611ff8565b602060405180830381865afa1580156104bb573d5f803e3d5ffd5b505050506040513d601f19601f820116820180604052508101906104df91906121e2565b905080156105575760405163a9059cbb60e01b81526001600160a01b0386169063a9059cbb9061051590859085906004016121f9565b6020604051808303815f875af1158015610531573d5f803e3d5ffd5b505050506040513d601f19601f820116820180604052508101906105559190612221565b505b505b60608b01511580159061056c5750863515155b1561057b5761057b84886114ed565b5f6105896020870187612241565b6001600160a01b0316146105a5576105a2848287611616565b91505b50303180156105b8576105b83382611305565b509750975097945050505050565b5f80680a18f07d736b90be55601d1b867f00000000000000000000000000000000000000000000000000000000000000006001600160a01b031663ff3575e487876040518363ffffffff1660e01b8152600401610624929190612284565b602060405180830381865afa15801561063f573d5f803e3d5ffd5b505050506040513d601f19601f8201168201806040525081019061066391906121e2565b61066d91906122b3565b61067791906122ca565b6040805160a0810182525f80825260208201819052818301819052603c606083015260808201819052915163071c4ddb60e41b815260016004820152929350916001600160a01b037f000000000000000000000000000000000000000000000000000000000000000016906371c4ddb090602401602060405180830381865afa158015610706573d5f803e3d5ffd5b505050506040513d601f19601f8201168201806040525081019061072a91906122e9565b90505f7f00000000000000000000000000000000000000000000000000000000000000006001600160a01b031663b3b427956107678560a0902090565b6040518263ffffffff1660e01b815260040161078591815260200190565b608060405180830381865afa1580156107a0573d5f803e3d5ffd5b505050506040513d601f19601f820116820180604052508101906107c49190612304565b5190506001600160a01b0382161561088557816001600160a01b031663403910858460405180606001604052805f151581526020016108028e611ca6565b815273fffd8963efd1fc6a506488495d951d5263988d266020909101526040516001600160e01b031960e085901b16815261084392919086906004016123ed565b602060405180830381865afa15801561085e573d5f803e3d5ffd5b505050506040513d601f19601f82011682018060405250810190610882919061241d565b90505b60405163ec876d7160e01b815284906001600160a01b037f0000000000000000000000000000000000000000000000000000000000000000169063ec876d71906108d5908b908b90600401612284565b602060405180830381865afa1580156108f0573d5f803e3d5ffd5b505050506040513d601f19601f8201168201806040525081019061091491906121e2565b61091e9190612438565b945062ffffff8116156109545761271061093d62ffffff8316866122b3565b61094791906122ca565b6109519086612438565b94505b871561097e5761271061096789876122b3565b61097191906122ca565b61097b9086612438565b94505b50505050949350505050565b604051635bc53feb60e11b81525f906001600160a01b037f0000000000000000000000000000000000000000000000000000000000000000169063b78a7fd6906109de90899030908990899060040161244b565b6020604051808303815f875af11580156109fa573d5f803e3d5ffd5b505050506040513d601f19601f82011682018060405250810190610a1e91906122e9565b60405163456d28d960e01b81529091506001600160a01b0382169063456d28d990610a4d908590600401611ff8565b5f604051808303815f87803b158015610a64575f80fd5b505af1158015610a76573d5f803e3d5ffd5b5050604051632a6d6a3760e11b81526001600160a01b03841692506354dad46e9150610aa6908890600401611ff8565b5f604051808303815f87803b158015610abd575f80fd5b505af1158015610acf573d5f803e3d5ffd5b5050505095945050505050565b5f6001600160a01b038216610b8157604051633fa4d95760e01b81526001600160a01b037f00000000000000000000000000000000000000000000000000000000000000001690633fa4d957903490610b399087906004016124af565b60206040518083038185885af1158015610b55573d5f803e3d5ffd5b50505050506040513d601f19601f82011682018060405250810190610b7a91906122e9565b9050610eb4565b60c08301516001600160a01b0381163014610b9d573060c08501525b604051633fa4d95760e01b81526001600160a01b037f00000000000000000000000000000000000000000000000000000000000000001690633fa4d957903490610beb9088906004016124af565b60206040518083038185885af1158015610c07573d5f803e3d5ffd5b50505050506040513d601f19601f82011682018060405250810190610c2c91906122e9565b60405163071c4ddb60e41b8152600160048201529092507f00000000000000000000000000000000000000000000000000000000000000006001600160a01b0316906371c4ddb090602401602060405180830381865afa158015610c92573d5f803e3d5ffd5b505050506040513d601f19601f82011682018060405250810190610cb691906122e9565b6001600160a01b03166359acd7067f00000000000000000000000000000000000000000000000000000000000000006001600160a01b03166355d1cb60856040518263ffffffff1660e01b8152600401610d109190611ff8565b60a060405180830381865afa158015610d2b573d5f803e3d5ffd5b505050506040513d601f19601f82011682018060405250810190610d4f91906125c7565b856040518363ffffffff1660e01b8152600401610d6d929190612664565b5f604051808303815f87803b158015610d84575f80fd5b505af1158015610d96573d5f803e3d5ffd5b505050506001600160a01b0381163014610eb2577f00000000000000000000000000000000000000000000000000000000000000006001600160a01b03166323b872dd30837f00000000000000000000000000000000000000000000000000000000000000006001600160a01b0316637ca31724876040518263ffffffff1660e01b8152600401610e279190611ff8565b602060405180830381865afa158015610e42573d5f803e3d5ffd5b505050506040513d601f19601f82011682018060405250810190610e6691906121e2565b6040518463ffffffff1660e01b8152600401610e849392919061268a565b5f604051808303815f87803b158015610e9b575f80fd5b505af1158015610ead573d5f803e3d5ffd5b505050505b505b92915050565b5f807f00000000000000000000000000000000000000000000000000000000000000006001600160a01b03166355d1cb60876040518263ffffffff1660e01b8152600401610f089190611ff8565b60a060405180830381865afa158015610f23573d5f803e3d5ffd5b505050506040513d601f19601f82011682018060405250810190610f4791906125c7565b60405163b6b55f2560e01b81525f60048201529091503031906001600160a01b037f0000000000000000000000000000000000000000000000000000000000000000169063b6b55f259083906024015f604051808303818588803b158015610fad575f80fd5b505af1158015610fbf573d5f803e3d5ffd5b50508451604051636eb1769f60e11b81523060048201527f00000000000000000000000000000000000000000000000000000000000000006001600160a01b0390811660248301527f000000000000000000000000000000000000000000000000000000000000000081169216821415945085935090915063dd62ed3e906044016020604051808303815f875af115801561105c573d5f803e3d5ffd5b505050506040513d601f19601f8201168201806040525081019061108091906121e2565b10156111375760405163095ea7b360e01b81526001600160a01b037f0000000000000000000000000000000000000000000000000000000000000000169063095ea7b3906110f5907f0000000000000000000000000000000000000000000000000000000000000000905f19906004016121f9565b6020604051808303815f875af1158015611111573d5f803e3d5ffd5b505050506040513d601f19601f820116820180604052508101906111359190612221565b505b5f7f00000000000000000000000000000000000000000000000000000000000000006001600160a01b031663f3cd914c8560405180606001604052808615151581526020016111858d611ca6565b815260200186156111b4576111af600173fffd8963efd1fc6a506488495d951d5263988d266126ae565b6111c4565b6111c46401000276a360016126cd565b6001600160a01b03168152508a8a6040518563ffffffff1660e01b81526004016111f194939291906126ec565b6020604051808303815f875af115801561120d573d5f803e3d5ffd5b505050506040513d601f19601f8201168201806040525081019061123191906121e2565b905081156112515761124381600f0b90565b61124c9061271c565b611264565b61125b8160801d90565b6112649061271c565b6001600160801b031694505f61127a868561273d565b905080156112f857604051632e1a7d4d60e01b8152600481018290527f00000000000000000000000000000000000000000000000000000000000000006001600160a01b031690632e1a7d4d906024015f604051808303815f87803b1580156112e1575f80fd5b505af11580156112f3573d5f803e3d5ffd5b505050505b5050505050949350505050565b5f385f3884865af161131e5763b12d13eb5f526004601cfd5b5050565b6040516370a0823160e01b81525f906001600160a01b038516906370a0823190611350903090600401611ff8565b602060405180830381865afa15801561136b573d5f803e3d5ffd5b505050506040513d601f19601f8201168201806040525081019061138f91906121e2565b905081602001358110156113b557604051622a319d60e81b815260040160405180910390fd5b60405163095ea7b360e01b81526001600160a01b0385169063095ea7b390611407907f0000000000000000000000000000000000000000000000000000000000000000906020870135906004016121f9565b6020604051808303815f875af1158015611423573d5f803e3d5ffd5b505050506040513d601f19601f820116820180604052508101906114479190612221565b506001600160a01b037f00000000000000000000000000000000000000000000000000000000000000001663545fdd2e8484358760208701356040880135606089013561149760808b018b612750565b6040518963ffffffff1660e01b81526004016114ba989796959493929190612792565b5f604051808303815f87803b1580156114d1575f80fd5b505af11580156114e3573d5f803e3d5ffd5b5050505050505050565b7f00000000000000000000000000000000000000000000000000000000000000006001600160a01b031663de89c1a66115b17f00000000000000000000000000000000000000000000000000000000000000006001600160a01b03166355d1cb60866040518263ffffffff1660e01b815260040161156b9190611ff8565b60a060405180830381865afa158015611586573d5f803e3d5ffd5b505050506040513d601f19601f820116820180604052508101906115aa91906125c7565b60a0902090565b83356115c06020860186612750565b86604001356040518663ffffffff1660e01b81526004016115e59594939291906127e8565b5f604051808303815f87803b1580156115fc575f80fd5b505af115801561160e573d5f803e3d5ffd5b505050505050565b5f807f00000000000000000000000000000000000000000000000000000000000000006001600160a01b0316637ca31724866040518263ffffffff1660e01b81526004016116649190611ff8565b602060405180830381865afa15801561167f573d5f803e3d5ffd5b505050506040513d601f19601f820116820180604052508101906116a391906121e2565b90506001600160a01b037f00000000000000000000000000000000000000000000000000000000000000001663ec485b1b6116e16020860186612241565b6040518263ffffffff1660e01b81526004016116fd9190611ff8565b6020604051808303815f875af1158015611719573d5f803e3d5ffd5b505050506040513d601f19601f8201168201806040525081019061173d9190612221565b15611a26575f806117546040860160208701612241565b6001600160a01b031614611768573061176a565b845b90506001600160a01b037f00000000000000000000000000000000000000000000000000000000000000001663b78a7fd66117a86020870187612241565b836117b66040890189612750565b6040518563ffffffff1660e01b81526004016117d5949392919061244b565b6020604051808303815f875af11580156117f1573d5f803e3d5ffd5b505050506040513d601f19601f8201168201806040525081019061181591906122e9565b60405163095ea7b360e01b81529093506001600160a01b037f0000000000000000000000000000000000000000000000000000000000000000169063095ea7b39061186690869086906004016121f9565b5f604051808303815f87803b15801561187d575f80fd5b505af115801561188f573d5f803e3d5ffd5b50505050826001600160a01b031663dd89e3d260405180604001604052807f00000000000000000000000000000000000000000000000000000000000000006001600160a01b0316815260200185815250878780606001906118f19190612750565b6040518563ffffffff1660e01b81526004016119109493929190612819565b5f604051808303815f87803b158015611927575f80fd5b505af1158015611939573d5f803e3d5ffd5b505f92506119509150506040860160208701612241565b6001600160a01b031614611a20576001600160a01b03831663456d28d961197d6040870160208801612241565b6040518263ffffffff1660e01b81526004016119999190611ff8565b5f604051808303815f87803b1580156119b0575f80fd5b505af11580156119c2573d5f803e3d5ffd5b5050604051632a6d6a3760e11b81526001600160a01b03861692506354dad46e91506119f2908890600401611ff8565b5f604051808303815f87803b158015611a09575f80fd5b505af1158015611a1b573d5f803e3d5ffd5b505050505b50611c9e565b5f7f00000000000000000000000000000000000000000000000000000000000000006001600160a01b0316636eefb952611a636020870187612241565b6040518263ffffffff1660e01b8152600401611a7f9190611ff8565b6020604051808303815f875af1158015611a9b573d5f803e3d5ffd5b505050506040513d601f19601f82011682018060405250810190611abf91906122e9565b6001600160a01b031614611c10576001600160a01b037f00000000000000000000000000000000000000000000000000000000000000001663095ea7b3611b096020860186612241565b836040518363ffffffff1660e01b8152600401611b279291906121f9565b5f604051808303815f87803b158015611b3e575f80fd5b505af1158015611b50573d5f803e3d5ffd5b50611b62925050506020840184612241565b6001600160a01b031663dd89e3d260405180604001604052807f00000000000000000000000000000000000000000000000000000000000000006001600160a01b031681526020018481525086868060600190611bbf9190612750565b6040518563ffffffff1660e01b8152600401611bde9493929190612819565b5f604051808303815f87803b158015611bf5575f80fd5b505af1158015611c07573d5f803e3d5ffd5b50505050611c9e565b611c1d6020840184612241565b6040516323b872dd60e01b81529092506001600160a01b037f000000000000000000000000000000000000000000000000000000000000000016906323b872dd90611c709030908690869060040161268a565b5f604051808303815f87803b158015611c87575f80fd5b505af1158015611c99573d5f803e3d5ffd5b505050505b509392505050565b805f811215611cbf57611cbf6393dafdf160e01b611cc4565b919050565b805f5260045ffd5b634e487b7160e01b5f52604160045260245ffd5b60405161018081016001600160401b0381118282101715611d0357611d03611ccc565b60405290565b5f82601f830112611d18575f80fd5b8135602083015f806001600160401b03841115611d3757611d37611ccc565b50604051601f19601f85018116603f011681018181106001600160401b0382111715611d6557611d65611ccc565b604052838152905080828401871015611d7c575f80fd5b838360208301375f602085830101528094505050505092915050565b6001600160a01b0381168114611dac575f80fd5b50565b8035611cbf81611d98565b62ffffff81168114611dac575f80fd5b8035611cbf81611dba565b5f6101808284031215611de6575f80fd5b611dee611ce0565b905081356001600160401b03811115611e05575f80fd5b611e1184828501611d09565b82525060208201356001600160401b03811115611e2c575f80fd5b611e3884828501611d09565b60208301525060408201356001600160401b03811115611e56575f80fd5b611e6284828501611d09565b604083015250606082810135908201526080808301359082015260a08083013590820152611e9260c08301611daf565b60c0820152611ea360e08301611dca565b60e082015261010082810135908201526101208201356001600160401b03811115611ecc575f80fd5b611ed884828501611d09565b610120830152506101408201356001600160401b03811115611ef8575f80fd5b611f0484828501611d09565b610140830152506101608201356001600160401b03811115611f24575f80fd5b611f3084828501611d09565b6101608301525092915050565b5f8083601f840112611f4d575f80fd5b5081356001600160401b03811115611f63575f80fd5b602083019150836020828501011115611f7a575f80fd5b9250929050565b5f805f8060608587031215611f94575f80fd5b84356001600160401b03811115611fa9575f80fd5b611fb587828801611dd5565b9450506020850135611fc681611d98565b925060408501356001600160401b03811115611fe0575f80fd5b611fec87828801611f3d565b95989497509550505050565b6001600160a01b0391909116815260200190565b5f6060828403121561201c575f80fd5b50919050565b5f60a0828403121561201c575f80fd5b5f6080828403121561201c575f80fd5b5f805f805f805f60c0888a031215612058575f80fd5b87356001600160401b0381111561206d575f80fd5b6120798a828b01611dd5565b97505061208860208901611daf565b955060408801356001600160401b038111156120a2575f80fd5b6120ae8a828b01611f3d565b90965094505060608801356001600160401b038111156120cc575f80fd5b6120d88a828b0161200c565b93505060808801356001600160401b038111156120f3575f80fd5b6120ff8a828b01612022565b92505060a08801356001600160401b0381111561211a575f80fd5b6121268a828b01612032565b91505092959891949750929550565b5f805f8060608587031215612148575f80fd5b843593506020850135925060408501356001600160401b03811115611fe0575f80fd5b5f805f805f6080868803121561217f575f80fd5b853561218a81611d98565b9450602086013561219a81611d98565b935060408601356001600160401b038111156121b4575f80fd5b6121c088828901611f3d565b90945092505060608601356121d481611d98565b809150509295509295909350565b5f602082840312156121f2575f80fd5b5051919050565b6001600160a01b03929092168252602082015260400190565b80518015158114611cbf575f80fd5b5f60208284031215612231575f80fd5b61223a82612212565b9392505050565b5f60208284031215612251575f80fd5b813561223a81611d98565b81835281816020850137505f828201602090810191909152601f909101601f19169091010190565b602081525f61229760208301848661225c565b949350505050565b634e487b7160e01b5f52601160045260245ffd5b8082028115828204841417610eb457610eb461229f565b5f826122e457634e487b7160e01b5f52601260045260245ffd5b500490565b5f602082840312156122f9575f80fd5b815161223a81611d98565b5f6080828403128015612315575f80fd5b50604051608081016001600160401b038111828210171561233857612338611ccc565b604052825161234681611dba565b8152602083015161235681611dba565b6020820152604083015161236981611dba565b604082015261237a60608401612212565b60608201529392505050565b80516001600160a01b03908116835260208083015182169084015260408083015162ffffff169084015260608083015160020b9084015260809182015116910152565b805115158252602080820151908301526040908101516001600160a01b0316910152565b61012081016123fc8286612386565b61240960a08301856123c9565b62ffffff8316610100830152949350505050565b5f6020828403121561242d575f80fd5b815161223a81611dba565b80820180821115610eb457610eb461229f565b6001600160a01b038581168252841660208201526060604082018190525f90612477908301848661225c565b9695505050505050565b5f81518084528060208401602086015e5f602082860101526020601f19601f83011685010191505092915050565b602081525f825161018060208401526124cc6101a0840182612481565b90506020840151601f198483030160408501526124e98282612481565b9150506040840151601f198483030160608501526125078282612481565b91505060608401516080840152608084015160a084015260a084015160c084015260c084015161254260e08501826001600160a01b03169052565b5060e084015162ffffff811661010085015250610100840151610120840152610120840151601f198483030161014085015261257e8282612481565b915050610140840151601f198483030161016085015261259e8282612481565b915050610160840151601f19848303016101808501526125be8282612481565b95945050505050565b5f60a08284031280156125d8575f80fd5b5060405160a081016001600160401b03811182821017156125fb576125fb611ccc565b604052825161260981611d98565b8152602083015161261981611d98565b6020820152604083015161262c81611dba565b60408201526060830151600281900b8114612645575f80fd5b6060820152608083015161265881611d98565b60808201529392505050565b60c081016126728285612386565b6001600160a01b039290921660a09190910152919050565b6001600160a01b039384168152919092166020820152604081019190915260600190565b6001600160a01b038281168282160390811115610eb457610eb461229f565b6001600160a01b038181168382160190811115610eb457610eb461229f565b6126f68186612386565b61270360a08201856123c9565b6101206101008201525f6124776101208301848661225c565b5f600f82900b6001607f1b81016127355761273561229f565b5f0392915050565b81810381811115610eb457610eb461229f565b5f808335601e19843603018112612765575f80fd5b8301803591506001600160401b0382111561277e575f80fd5b602001915036819003821315611f7a575f80fd5b6001600160a01b0389811682526020820189905287166040820152606081018690526080810185905260a0810184905260e060c082018190525f906127da908301848661225c565b9a9950505050505050505050565b858152846020820152608060408201525f61280760808301858761225c565b90508260608301529695505050505050565b84516001600160a01b03908116825260208087015190830152841660408201526080606082018190525f90612477908301848661225c56fea26469706673582212209b457133605dd11a348a7b1378582b3b796bdf7c393aba7bb2d60152ad49e68a64736f6c634300081a0033",
    "linkReferences": {}
  },
  "methodIdentifiers": {
    "calculateFee(uint256,uint256,bytes)": "bbce3594",
    "deployAndInitializeManager(address,address,bytes,address)": "fea48514",
    "flETH()": "f6baab4d",
    "flaunch((string,string,string,uint256,uint256,uint256,address,uint24,uint256,bytes,bytes,bytes),address,bytes)": "1cebc920",
    "flaunch((string,string,string,uint256,uint256,uint256,address,uint24,uint256,bytes,bytes,bytes),address,bytes,(bytes32,string,uint256),(uint256,uint256,uint256,bytes32,string),(address,address,bytes,bytes))": "88d94902",
    "flaunchContract()": "84aa1da0",
    "merkleAirdrop()": "a6437033",
    "poolSwap()": "33809ad0",
    "positionManager()": "791b98bc",
    "treasuryManagerFactory()": "ea799e4e",
    "whitelistFairLaunch()": "df82ffbb"
  },
  "id": 93
}