{"abi":[{"type":"constructor","inputs":[{"name":"_memecoinImplementation","type":"address","internalType":"address"},{"name":"_baseURI","type":"string","internalType":"string"}],"stateMutability":"nonpayable"},{"type":"function","name":"MAX_BRIDGING_WINDOW","inputs":[],"outputs":[{"name":"","type":"uint256","internalType":"uint256"}],"stateMutability":"view"},{"type":"function","name":"MAX_CREATOR_ALLOCATION","inputs":[],"outputs":[{"name":"","type":"uint256","internalType":"uint256"}],"stateMutability":"view"},{"type":"function","name":"MAX_FAIR_LAUNCH_TOKENS","inputs":[],"outputs":[{"name":"","type":"uint256","internalType":"uint256"}],"stateMutability":"view"},{"type":"function","name":"MAX_SCHEDULE_DURATION","inputs":[],"outputs":[{"name":"","type":"uint256","internalType":"uint256"}],"stateMutability":"view"},{"type":"function","name":"approve","inputs":[{"name":"account","type":"address","internalType":"address"},{"name":"id","type":"uint256","internalType":"uint256"}],"outputs":[],"stateMutability":"payable"},{"type":"function","name":"balanceOf","inputs":[{"name":"owner","type":"address","internalType":"address"}],"outputs":[{"name":"result","type":"uint256","internalType":"uint256"}],"stateMutability":"view"},{"type":"function","name":"baseURI","inputs":[],"outputs":[{"name":"","type":"string","internalType":"string"}],"stateMutability":"view"},{"type":"function","name":"bridgingFinalized","inputs":[{"name":"_tokenId","type":"uint256","internalType":"uint256"},{"name":"_chainId","type":"uint256","internalType":"uint256"}],"outputs":[{"name":"_finalized","type":"bool","internalType":"bool"}],"stateMutability":"view"},{"type":"function","name":"bridgingStarted","inputs":[{"name":"_tokenId","type":"uint256","internalType":"uint256"},{"name":"_chainId","type":"uint256","internalType":"uint256"}],"outputs":[{"name":"_startedAt","type":"uint256","internalType":"uint256"}],"stateMutability":"view"},{"type":"function","name":"burn","inputs":[{"name":"_tokenId","type":"uint256","internalType":"uint256"}],"outputs":[],"stateMutability":"nonpayable"},{"type":"function","name":"cancelOwnershipHandover","inputs":[],"outputs":[],"stateMutability":"payable"},{"type":"function","name":"completeOwnershipHandover","inputs":[{"name":"pendingOwner","type":"address","internalType":"address"}],"outputs":[],"stateMutability":"payable"},{"type":"function","name":"finalizeBridge","inputs":[{"name":"_tokenId","type":"uint256","internalType":"uint256"},{"name":"_metadata","type":"tuple","internalType":"struct Flaunch.MemecoinMetadata","components":[{"name":"name","type":"string","internalType":"string"},{"name":"symbol","type":"string","internalType":"string"},{"name":"tokenUri","type":"string","internalType":"string"}]}],"outputs":[],"stateMutability":"nonpayable"},{"type":"function","name":"flaunch","inputs":[{"name":"_params","type":"tuple","internalType":"struct PositionManager.FlaunchParams","components":[{"name":"name","type":"string","internalType":"string"},{"name":"symbol","type":"string","internalType":"string"},{"name":"tokenUri","type":"string","internalType":"string"},{"name":"initialTokenFairLaunch","type":"uint256","internalType":"uint256"},{"name":"fairLaunchDuration","type":"uint256","internalType":"uint256"},{"name":"premineAmount","type":"uint256","internalType":"uint256"},{"name":"creator","type":"address","internalType":"address"},{"name":"creatorFeeAllocation","type":"uint24","internalType":"uint24"},{"name":"flaunchAt","type":"uint256","internalType":"uint256"},{"name":"initialPriceParams","type":"bytes","internalType":"bytes"},{"name":"feeCalculatorParams","type":"bytes","internalType":"bytes"},{"name":"creatorVestingParams","type":"bytes","internalType":"bytes"}]}],"outputs":[{"name":"memecoin_","type":"address","internalType":"address"},{"name":"memecoinTreasury_","type":"address","internalType":"address payable"},{"name":"tokenId_","type":"uint256","internalType":"uint256"}],"stateMutability":"nonpayable"},{"type":"function","name":"getApproved","inputs":[{"name":"id","type":"uint256","internalType":"uint256"}],"outputs":[{"name":"result","type":"address","internalType":"address"}],"stateMutability":"view"},{"type":"function","name":"initialize","inputs":[{"name":"_positionManager","type":"address","internalType":"contract PositionManager"},{"name":"_memecoinTreasuryImplementation","type":"address","internalType":"address"}],"outputs":[],"stateMutability":"nonpayable"},{"type":"function","name":"initializeBridge","inputs":[{"name":"_tokenId","type":"uint256","internalType":"uint256"},{"name":"_chainId","type":"uint256","internalType":"uint256"}],"outputs":[],"stateMutability":"nonpayable"},{"type":"function","name":"isApprovedForAll","inputs":[{"name":"owner","type":"address","internalType":"address"},{"name":"operator","type":"address","internalType":"address"}],"outputs":[{"name":"result","type":"bool","internalType":"bool"}],"stateMutability":"view"},{"type":"function","name":"memecoin","inputs":[{"name":"_tokenId","type":"uint256","internalType":"uint256"}],"outputs":[{"name":"","type":"address","internalType":"address"}],"stateMutability":"view"},{"type":"function","name":"memecoinImplementation","inputs":[],"outputs":[{"name":"","type":"address","internalType":"address"}],"stateMutability":"view"},{"type":"function","name":"memecoinTreasury","inputs":[{"name":"_tokenId","type":"uint256","internalType":"uint256"}],"outputs":[{"name":"","type":"address","internalType":"address payable"}],"stateMutability":"view"},{"type":"function","name":"memecoinTreasuryImplementation","inputs":[],"outputs":[{"name":"","type":"address","internalType":"address"}],"stateMutability":"view"},{"type":"function","name":"name","inputs":[],"outputs":[{"name":"","type":"string","internalType":"string"}],"stateMutability":"view"},{"type":"function","name":"nextTokenId","inputs":[],"outputs":[{"name":"","type":"uint256","internalType":"uint256"}],"stateMutability":"view"},{"type":"function","name":"owner","inputs":[],"outputs":[{"name":"result","type":"address","internalType":"address"}],"stateMutability":"view"},{"type":"function","name":"ownerOf","inputs":[{"name":"id","type":"uint256","internalType":"uint256"}],"outputs":[{"name":"result","type":"address","internalType":"address"}],"stateMutability":"view"},{"type":"function","name":"ownershipHandoverExpiresAt","inputs":[{"name":"pendingOwner","type":"address","internalType":"address"}],"outputs":[{"name":"result","type":"uint256","internalType":"uint256"}],"stateMutability":"view"},{"type":"function","name":"poolId","inputs":[{"name":"_tokenId","type":"uint256","internalType":"uint256"}],"outputs":[{"name":"","type":"bytes32","internalType":"PoolId"}],"stateMutability":"view"},{"type":"function","name":"positionManager","inputs":[],"outputs":[{"name":"","type":"address","internalType":"contract PositionManager"}],"stateMutability":"view"},{"type":"function","name":"renounceOwnership","inputs":[],"outputs":[],"stateMutability":"payable"},{"type":"function","name":"requestOwnershipHandover","inputs":[],"outputs":[],"stateMutability":"payable"},{"type":"function","name":"safeTransferFrom","inputs":[{"name":"from","type":"address","internalType":"address"},{"name":"to","type":"address","internalType":"address"},{"name":"id","type":"uint256","internalType":"uint256"}],"outputs":[],"stateMutability":"payable"},{"type":"function","name":"safeTransferFrom","inputs":[{"name":"from","type":"address","internalType":"address"},{"name":"to","type":"address","internalType":"address"},{"name":"id","type":"uint256","internalType":"uint256"},{"name":"data","type":"bytes","internalType":"bytes"}],"outputs":[],"stateMutability":"payable"},{"type":"function","name":"setApprovalForAll","inputs":[{"name":"operator","type":"address","internalType":"address"},{"name":"isApproved","type":"bool","internalType":"bool"}],"outputs":[],"stateMutability":"nonpayable"},{"type":"function","name":"setBaseURI","inputs":[{"name":"_baseURI","type":"string","internalType":"string"}],"outputs":[],"stateMutability":"nonpayable"},{"type":"function","name":"setMemecoinImplementation","inputs":[{"name":"_memecoinImplementation","type":"address","internalType":"address"}],"outputs":[],"stateMutability":"nonpayable"},{"type":"function","name":"setMemecoinMetadata","inputs":[{"name":"_memecoin","type":"address","internalType":"address"},{"name":"name_","type":"string","internalType":"string"},{"name":"symbol_","type":"string","internalType":"string"}],"outputs":[],"stateMutability":"nonpayable"},{"type":"function","name":"setMemecoinTreasuryImplementation","inputs":[{"name":"_memecoinTreasuryImplementation","type":"address","internalType":"address"}],"outputs":[],"stateMutability":"nonpayable"},{"type":"function","name":"supportsInterface","inputs":[{"name":"interfaceId","type":"bytes4","internalType":"bytes4"}],"outputs":[{"name":"result","type":"bool","internalType":"bool"}],"stateMutability":"view"},{"type":"function","name":"symbol","inputs":[],"outputs":[{"name":"","type":"string","internalType":"string"}],"stateMutability":"view"},{"type":"function","name":"tokenId","inputs":[{"name":"_memecoin","type":"address","internalType":"address"}],"outputs":[{"name":"_tokenId","type":"uint256","internalType":"uint256"}],"stateMutability":"view"},{"type":"function","name":"tokenURI","inputs":[{"name":"_tokenId","type":"uint256","internalType":"uint256"}],"outputs":[{"name":"","type":"string","internalType":"string"}],"stateMutability":"view"},{"type":"function","name":"transferFrom","inputs":[{"name":"from","type":"address","internalType":"address"},{"name":"to","type":"address","internalType":"address"},{"name":"id","type":"uint256","internalType":"uint256"}],"outputs":[],"stateMutability":"payable"},{"type":"function","name":"transferOwnership","inputs":[{"name":"newOwner","type":"address","internalType":"address"}],"outputs":[],"stateMutability":"payable"},{"type":"function","name":"vestingContract","inputs":[],"outputs":[{"name":"","type":"address","internalType":"address"}],"stateMutability":"view"},{"type":"event","name":"Approval","inputs":[{"name":"owner","type":"address","indexed":true,"internalType":"address"},{"name":"account","type":"address","indexed":true,"internalType":"address"},{"name":"id","type":"uint256","indexed":true,"internalType":"uint256"}],"anonymous":false},{"type":"event","name":"ApprovalForAll","inputs":[{"name":"owner","type":"address","indexed":true,"internalType":"address"},{"name":"operator","type":"address","indexed":true,"internalType":"address"},{"name":"isApproved","type":"bool","indexed":false,"internalType":"bool"}],"anonymous":false},{"type":"event","name":"BaseURIUpdated","inputs":[{"name":"_newBaseURI","type":"string","indexed":false,"internalType":"string"}],"anonymous":false},{"type":"event","name":"CreatorVestingCreated","inputs":[{"name":"_tokenId","type":"uint256","indexed":true,"internalType":"uint256"},{"name":"_vestingContract","type":"address","indexed":false,"internalType":"address"},{"name":"_vestingAmount","type":"uint256","indexed":false,"internalType":"uint256"}],"anonymous":false},{"type":"event","name":"Initialized","inputs":[{"name":"version","type":"uint64","indexed":false,"internalType":"uint64"}],"anonymous":false},{"type":"event","name":"MemecoinImplementationUpdated","inputs":[{"name":"_newImplementation","type":"address","indexed":false,"internalType":"address"}],"anonymous":false},{"type":"event","name":"MemecoinTreasuryImplementationUpdated","inputs":[{"name":"_newImplementation","type":"address","indexed":false,"internalType":"address"}],"anonymous":false},{"type":"event","name":"OwnershipHandoverCanceled","inputs":[{"name":"pendingOwner","type":"address","indexed":true,"internalType":"address"}],"anonymous":false},{"type":"event","name":"OwnershipHandoverRequested","inputs":[{"name":"pendingOwner","type":"address","indexed":true,"internalType":"address"}],"anonymous":false},{"type":"event","name":"OwnershipTransferred","inputs":[{"name":"oldOwner","type":"address","indexed":true,"internalType":"address"},{"name":"newOwner","type":"address","indexed":true,"internalType":"address"}],"anonymous":false},{"type":"event","name":"TokenBridged","inputs":[{"name":"_tokenId","type":"uint256","indexed":false,"internalType":"uint256"},{"name":"_chainId","type":"uint256","indexed":false,"internalType":"uint256"},{"name":"_memecoin","type":"address","indexed":false,"internalType":"address"},{"name":"_messageSource","type":"uint256","indexed":false,"internalType":"uint256"}],"anonymous":false},{"type":"event","name":"TokenBridging","inputs":[{"name":"_tokenId","type":"uint256","indexed":false,"internalType":"uint256"},{"name":"_chainId","type":"uint256","indexed":false,"internalType":"uint256"},{"name":"_memecoin","type":"address","indexed":false,"internalType":"address"}],"anonymous":false},{"type":"event","name":"Transfer","inputs":[{"name":"from","type":"address","indexed":true,"internalType":"address"},{"name":"to","type":"address","indexed":true,"internalType":"address"},{"name":"id","type":"uint256","indexed":true,"internalType":"uint256"}],"anonymous":false},{"type":"error","name":"AccountBalanceOverflow","inputs":[]},{"type":"error","name":"AlreadyInitialized","inputs":[]},{"type":"error","name":"BalanceQueryForZeroAddress","inputs":[]},{"type":"error","name":"CallerIsNotPositionManager","inputs":[]},{"type":"error","name":"CallerNotL2ToL2CrossDomainMessenger","inputs":[]},{"type":"error","name":"CreatorFeeAllocationInvalid","inputs":[{"name":"_allocation","type":"uint24","internalType":"uint24"},{"name":"_maxAllocation","type":"uint256","internalType":"uint256"}]},{"type":"error","name":"CreatorVestingExceedsSupply","inputs":[]},{"type":"error","name":"InvalidCrossDomainSender","inputs":[]},{"type":"error","name":"InvalidDestinationChain","inputs":[]},{"type":"error","name":"InvalidFlaunchSchedule","inputs":[]},{"type":"error","name":"InvalidInitialSupply","inputs":[{"name":"_initialSupply","type":"uint256","internalType":"uint256"}]},{"type":"error","name":"InvalidInitialization","inputs":[]},{"type":"error","name":"NewOwnerIsZeroAddress","inputs":[]},{"type":"error","name":"NoHandoverRequest","inputs":[]},{"type":"error","name":"NotInitializing","inputs":[]},{"type":"error","name":"NotOwnerNorApproved","inputs":[]},{"type":"error","name":"PremineExceedsInitialAmount","inputs":[{"name":"_buyAmount","type":"uint256","internalType":"uint256"},{"name":"_initialSupply","type":"uint256","internalType":"uint256"}]},{"type":"error","name":"TokenAlreadyBridged","inputs":[]},{"type":"error","name":"TokenAlreadyBridging","inputs":[]},{"type":"error","name":"TokenAlreadyExists","inputs":[]},{"type":"error","name":"TokenDoesNotExist","inputs":[]},{"type":"error","name":"TransferFromIncorrectOwner","inputs":[]},{"type":"error","name":"TransferToNonERC721ReceiverImplementer","inputs":[]},{"type":"error","name":"TransferToZeroAddress","inputs":[]},{"type":"error","name":"Unauthorized","inputs":[]},{"type":"error","name":"UnknownMemecoin","inputs":[]}],"bytecode":{"object":"0x5f80546001600160a01b03191673420000000000000000000000000000000000002317905560c0604052601760809081527f466c61756e636820526576656e75652053747265616d7300000000000000000060a05260019061006190826101e5565b5060408051808201909152600781526608c9882aa9c86960cb1b602082015260029061008d90826101e5565b50600160045534801561009e575f80fd5b50604051613bf0380380613bf08339810160408190526100bd9161029f565b600680546001600160a01b0319166001600160a01b03841617905560036100e482826101e5565b506100ee336100f5565b505061036e565b638b78c6d81980541561010f57630dc149f05f526004601cfd5b6001600160a01b03909116801560ff1b8117909155805f7f8be0079c531659141344cd1fd0a4f28419497f9722a3daafe3b4186f6b6457e08180a350565b634e487b7160e01b5f52604160045260245ffd5b600181811c9082168061017557607f821691505b60208210810361019357634e487b7160e01b5f52602260045260245ffd5b50919050565b601f8211156101e057805f5260205f20601f840160051c810160208510156101be5750805b601f840160051c820191505b818110156101dd575f81556001016101ca565b50505b505050565b81516001600160401b038111156101fe576101fe61014d565b6102128161020c8454610161565b84610199565b6020601f821160018114610244575f831561022d5750848201515b5f19600385901b1c1916600184901b1784556101dd565b5f84815260208120601f198516915b828110156102735787850151825560209485019460019092019101610253565b508482101561029057868401515f19600387901b60f8161c191681555b50505050600190811b01905550565b5f80604083850312156102b0575f80fd5b82516001600160a01b03811681146102c6575f80fd5b60208401519092506001600160401b038111156102e1575f80fd5b8301601f810185136102f1575f80fd5b80516001600160401b0381111561030a5761030a61014d565b604051601f8201601f19908116603f011681016001600160401b03811182821017156103385761033861014d565b60405281815282820160200187101561034f575f80fd5b8160208401602083015e5f602083830101528093505050509250929050565b6138758061037b5f395ff3fe608060405260043610610201575f3560e01c806301ffc9a71461020557806306fdde0314610256578063081812fc14610277578063095ea7b3146102a35780630a57aaf5146102b85780631a5de1df146102f157806323b872dd1461031057806324f9bbb81461032357806325692962146103425780632b31d94a1461034a5780633fa4d9571461036957806342842e0e146103ae57806342966c68146103c157806346ce21f8146103e0578063485cc955146103ff57806354d1f13d1461041e57806355f804b3146104265780635a3617fc146104455780635b7426be146104725780635e6f6045146104885780635f151475146104a75780636352211e146104bc5780636c0360eb146104db57806370a08231146104ef578063715018a61461050e57806375794a3c14610516578063791b98bc1461052b5780637ca317241461054a578063829f042a146105755780638da5cb5b1461059457806395d89b41146105ac57806397cd41a8146105c05780639dab7831146105df578063a22cb46514610615578063b88d4fde14610634578063bb100a1a14610647578063bf989c781461065c578063c87b56dd1461067b578063e49c18541461069a578063e4b47c0b146106b9578063e985e9c5146106d8578063f04e283e1461070b578063f2fde38b1461071e578063f38f955014610731578063fee81cf414610768575b5f80fd5b348015610210575f80fd5b5061024161021f366004611f1c565b6301ffc9a760e09190911c9081146380ac58cd821417635b5e139f9091141790565b60405190151581526020015b60405180910390f35b348015610261575f80fd5b5061026a610799565b60405161024d9190611f71565b348015610282575f80fd5b50610296610291366004611f83565b610829565b60405161024d9190611f9a565b6102b66102b1366004611fc2565b610864565b005b3480156102c3575f80fd5b506102416102d2366004611fec565b600c60209081525f928352604080842090915290825290205460ff1681565b3480156102fc575f80fd5b50600754610296906001600160a01b031681565b6102b661031e36600461200c565b610873565b34801561032e575f80fd5b506102b661033d36600461204a565b61095a565b6102b66109b8565b348015610355575f80fd5b506102b661036436600461216b565b610a04565b348015610374575f80fd5b50610388610383366004612235565b610c33565b604080516001600160a01b0394851681529390921660208401529082015260600161024d565b6102b66103bc36600461200c565b611189565b3480156103cc575f80fd5b506102b66103db366004611f83565b6111b5565b3480156103eb575f80fd5b506102b66103fa36600461204a565b6111c2565b34801561040a575f80fd5b506102b661041936600461226c565b611215565b6102b66112bd565b348015610431575f80fd5b506102b66104403660046122a3565b6112f6565b348015610450575f80fd5b5061046461045f366004611f83565b61133a565b60405190815260200161024d565b34801561047d575f80fd5b5061046462278d0081565b348015610493575f80fd5b50600854610296906001600160a01b031681565b3480156104b2575f80fd5b5061046461271081565b3480156104c7575f80fd5b506102966104d6366004611f83565b6113cb565b3480156104e6575f80fd5b5061026a611407565b3480156104fa575f80fd5b5061046461050936600461204a565b611493565b6102b66114cb565b348015610521575f80fd5b5061046460045481565b348015610536575f80fd5b50600554610296906001600160a01b031681565b348015610555575f80fd5b5061046461056436600461204a565b600a6020525f908152604090205481565b348015610580575f80fd5b506102b661058f366004612320565b6114de565b34801561059f575f80fd5b50638b78c6d81954610296565b3480156105b7575f80fd5b5061026a61154c565b3480156105cb575f80fd5b50610464680a18f07d736b90be55601d1b81565b3480156105ea575f80fd5b506104646105f9366004611fec565b600b60209081525f928352604080842090915290825290205481565b348015610620575f80fd5b506102b661062f3660046123ad565b61155b565b6102b66106423660046123d9565b6115ad565b348015610652575f80fd5b50610464610e1081565b348015610667575f80fd5b50600654610296906001600160a01b031681565b348015610686575f80fd5b5061026a610695366004611f83565b611607565b3480156106a5575f80fd5b506102966106b4366004611f83565b611759565b3480156106c4575f80fd5b506102b66106d3366004611fec565b611773565b3480156106e3575f80fd5b506102416106f236600461226c565b601c5263052d173d60211b6008525f526030600c205490565b6102b661071936600461204a565b611ae1565b6102b661072c36600461204a565b611b1b565b34801561073c575f80fd5b5061029661074b366004611f83565b5f908152600960205260409020600101546001600160a01b031690565b348015610773575f80fd5b5061046461078236600461204a565b63389a75e1600c9081525f91909152602090205490565b6060600180546107a890612429565b80601f01602080910402602001604051908101604052809291908181526020018280546107d490612429565b801561081f5780601f106107f65761010080835404028352916020019161081f565b820191905f5260205f20905b81548152906001019060200180831161080257829003601f168201915b5050505050905090565b5f815f52673ec412a9852d173d60c11b601c5260205f2082018201805460601b61085a5763ceea21b65f526004601cfd5b6001015492915050565b61086f338383611b41565b5050565b5f818152673ec412a9852d173d60c11b3317601c52602090208101810180546001600160a01b0394851694938416938116919082861483026108c45767ceea21b6a1148100831560021b526004601cfd5b855f5281600101549250823314863314176108f0576030600c20546108f057634b6e7f185f526004601cfd5b82156108fd575f82600101555b85851818905550601c600c81812080545f190190555f84905220805460010163ffffffff8116840261093e5767ea553b3401336cea841560021b526004601cfd5b90558082845f805160206138208339815191525f38a45b505050565b610962611bdb565b600680546001600160a01b0319166001600160a01b0383161790556040517fbe7d62d85347642e2d9359b1cdd36015e64d5fc54b52bb4be4f23a56aa6f0701906109ad908390611f9a565b60405180910390a150565b5f6202a3006001600160401b03164201905063389a75e1600c52335f52806020600c2055337fdbf36a107da19e49527a7176a1babf963b4b0ff8cde35ee35d6cd8f1f9ac7e1d5f80a250565b5f546001600160a01b03163314610a2d576040516265d51560e41b815260040160405180910390fd5b5f546040805163071ffbc360e31b8152905130926001600160a01b0316916338ffde189160048083019260209291908290030181865afa158015610a73573d5f803e3d5ffd5b505050506040513d601f19601f82011682018060405250810190610a979190612461565b6001600160a01b031614610abe57604051635e11715560e11b815260040160405180910390fd5b5f828152600c602090815260408083204684529091528120805460ff19166001179055600654610af7906001600160a01b031684611bf5565b82516020840151604080860151905163a6487c5360e01b81529394506001600160a01b0385169363a6487c5393610b34939092909160040161247c565b5f604051808303815f87803b158015610b4b575f80fd5b505af1158015610b5d573d5f803e3d5ffd5b505050507fd953cced6d6de41e29efa3f395f6815b35e5a0bb1bff016cb796b95e34a932548346835f8054906101000a90046001600160a01b03166001600160a01b031663247944626040518163ffffffff1660e01b8152600401602060405180830381865afa158015610bd3573d5f803e3d5ffd5b505050506040513d601f19601f82011682018060405250810190610bf791906124be565b604051610c26949392919093845260208401929092526001600160a01b03166040830152606082015260800190565b60405180910390a1505050565b6005545f90819081906001600160a01b03163314610c6457604051630a2840f360e01b815260040160405180910390fd5b610c7162278d00426124e9565b8461010001351115610c9657604051630f0ffca560e41b815260040160405180910390fd5b680a18f07d736b90be55601d1b84606001351115610cd257604051631554010f60e01b8152606085013560048201526024015b60405180910390fd5b83606001358460a001351115610d0b57604051639f68473d60e01b815260a0850135600482015260608501356024820152604401610cc9565b612710610d1f610100860160e0870161250c565b62ffffff161115610d6457610d3b610100850160e0860161250c565b604051633707e93960e21b815262ffffff90911660048201526127106024820152604401610cc9565b5f606081610d76610160880188612527565b90501115610d9f57610d8c610160870187612527565b810190610d999190612569565b90925090505b8115610de5575f610db46060880135846124e9565b9050680a18f07d736b90be55601d1b811115610de357604051630774bad360e41b815260040160405180910390fd5b505b60048054600181019091559250610e0b610e0560e0880160c0890161204a565b84611c08565b600654610e21906001600160a01b031684611bf5565b6001600160a01b0381165f818152600a60205260409020859055909550859063a6487c53610e4f8980612527565b610e5c60208c018c612527565b610e6960408e018e612527565b6040518763ffffffff1660e01b8152600401610e8a96959493929190612693565b5f604051808303815f87803b158015610ea1575f80fd5b505af1158015610eb3573d5f803e3d5ffd5b5050600754610ece92506001600160a01b0316905085611bf5565b6040805180820182526001600160a01b03808a16825280841660208084019182525f8a8152600990915293909320915182549082166001600160a01b0319918216178355925160019092018054929091169190921617905594508215611111576040516340c10f1960e01b81526001600160a01b038216906340c10f1990610f5c90309087906004016126db565b5f604051808303815f87803b158015610f73575f80fd5b505af1158015610f85573d5f803e3d5ffd5b505050505f604051610f9690611f0f565b604051809103905ff080158015610faf573d5f803e3d5ffd5b50600880546001600160a01b0319166001600160a01b0383811691821790925560405163095ea7b360e01b81529293509084169163095ea7b391610ff79188906004016126db565b6020604051808303815f875af1158015611013573d5f803e3d5ffd5b505050506040513d601f19601f8201168201806040525081019061103791906126f4565b506040516375dd86bd60e01b81526001600160a01b038216906375dd86bd90611068908a908890889060040161270f565b5f604051808303815f87803b15801561107f575f80fd5b505af1158015611091573d5f803e3d5ffd5b50506005546001600160a01b0380861693506340c10f199250166110c187680a18f07d736b90be55601d1b6127a1565b6040518363ffffffff1660e01b81526004016110de9291906126db565b5f604051808303815f87803b1580156110f5575f80fd5b505af1158015611107573d5f803e3d5ffd5b505050505061117f565b6005546040516340c10f1960e01b81526001600160a01b03838116926340c10f19926111519290911690680a18f07d736b90be55601d1b906004016126db565b5f604051808303815f87803b158015611168575f80fd5b505af115801561117a573d5f803e3d5ffd5b505050505b5050509193909250565b611194838383610873565b813b156109555761095583838360405180602001604052805f815250611c91565b6111bf3382611d1a565b50565b6111ca611bdb565b600780546001600160a01b0319166001600160a01b0383161790556040517fcaaf51427c43b5149933a25a5d5506daee532e95fd7a9b406c37db11b8674d39906109ad908390611f9a565b61121d611bdb565b63409feecd1980546003825580156112535760018160011c14303b1061124a5763f92ee8a95f526004601cfd5b818160ff1b1b91505b50600580546001600160a01b038086166001600160a01b03199283161790925560078054928516929091169190911790558015610955576002815560016020527fc7f505b2f371ae2175ee4913f4499e1f2633a7b5936321eed1cdaeb6115181d2602080a1505050565b63389a75e1600c52335f525f6020600c2055337ffa7b8eab7da67f412cc9575ed43464468f9bfbae89d1675917346ca6d8fe3c925f80a2565b6112fe611bdb565b600361130a82826127f8565b507f6741b2fc379fad678116fe3d4d4b9a1a184ab53ba36b86ad0fa66340b1ab41ad816040516109ad9190611f71565b6005545f828152600960205260408082205490516302ae8e5b60e51b815291926113c5926001600160a01b03918216926355d1cb609261137f92911690600401611f9a565b60a060405180830381865afa15801561139a573d5f803e3d5ffd5b505050506040513d601f19601f820116820180604052508101906113be91906128b2565b60a0902090565b92915050565b5f818152673ec412a9852d173d60c11b601c526020902081018101546001600160a01b0316806114025763ceea21b65f526004601cfd5b919050565b6003805461141490612429565b80601f016020809104026020016040519081016040528092919081815260200182805461144090612429565b801561148b5780601f106114625761010080835404028352916020019161148b565b820191905f5260205f20905b81548152906001019060200180831161146e57829003601f168201915b505050505081565b5f816114a657638f4eb6045f526004601cfd5b673ec412a9852d173d60c11b601c52815f5263ffffffff601c600c2054169050919050565b6114d3611bdb565b6114dc5f611dcd565b565b6114e6611bdb565b60405163051335b560e41b81526001600160a01b038616906351335b5090611518908790879087908790600401612932565b5f604051808303815f87803b15801561152f575f80fd5b505af1158015611541573d5f803e3d5ffd5b505050505050505050565b6060600280546107a890612429565b801515905081601c5263052d173d60211b600852335f52806030600c2055805f528160601b60601c337f17307eab39ab6107e8899845ad3d59bd9653f200f220920489ca2b5937696c3160205fa35050565b6115b8858585610873565b833b156116005761160085858585858080601f0160208091040260200160405190810160405280939291908181526020018383808284375f92019190915250611c9192505050565b5050505050565b606081158061161857506004548210155b156116365760405163677510db60e11b815260040160405180910390fd5b6003805461164390612429565b90505f036116bf575f828152600960205260408082205481516303c130d960e41b815291516001600160a01b0390911692633c130d9092600480820193918290030181865afa158015611698573d5f803e3d5ffd5b505050506040513d5f823e601f3d908101601f191682016040526113c59190810190612963565b6113c5600380546116cf90612429565b80601f01602080910402602001604051908101604052809291908181526020018280546116fb90612429565b80156117465780601f1061171d57610100808354040283529160200191611746565b820191905f5260205f20905b81548152906001019060200180831161172957829003601f168201915b505050505061175484611e13565b611e55565b5f908152600960205260409020546001600160a01b031690565b4681036117935760405163b86ac1ef60e01b815260040160405180910390fd5b5f828152600c6020908152604080832084845290915290205460ff16156117cd57604051635314a19160e11b815260040160405180910390fd5b5f828152600b602090815260408083208484529091529020541580159061181857505f828152600b6020908152604080832084845290915290205461181590610e10906124e9565b42105b1561183657604051636e4dce4b60e11b815260040160405180910390fd5b5f828152600b60209081526040808320848452909152812042905561185a83611759565b90506001600160a01b0381166118835760405163a4c0139760e01b815260040160405180910390fd5b5f8190505f8054906101000a90046001600160a01b03166001600160a01b0316637056f41f8430306001600160a01b0316632b31d94a896040518060600160405280896001600160a01b03166306fdde036040518163ffffffff1660e01b81526004015f60405180830381865afa158015611900573d5f803e3d5ffd5b505050506040513d5f823e601f3d908101601f191682016040526119279190810190612963565b8152602001896001600160a01b03166395d89b416040518163ffffffff1660e01b81526004015f60405180830381865afa158015611967573d5f803e3d5ffd5b505050506040513d5f823e601f3d908101601f1916820160405261198e9190810190612963565b8152602001896001600160a01b0316633c130d906040518163ffffffff1660e01b81526004015f60405180830381865afa1580156119ce573d5f803e3d5ffd5b505050506040513d5f823e601f3d908101601f191682016040526119f59190810190612963565b9052604051611a089291906024016129d7565b60408051808303601f1901815291815260208201805160e094851b6001600160e01b03909116179052519186901b6001600160e01b0319168252611a529493925090600401612a33565b6020604051808303815f875af1158015611a6e573d5f803e3d5ffd5b505050506040513d601f19601f82011682018060405250810190611a9291906124be565b5060408051858152602081018590526001600160a01b0384168183015290517ff2a584a2309fee3f807e426ce11328f237b9bc191989cbc6f62cc5fee1d6b46f9181900360600190a150505050565b611ae9611bdb565b63389a75e1600c52805f526020600c208054421115611b0f57636f5e88185f526004601cfd5b5f90556111bf81611dcd565b611b23611bdb565b8060601b611b3857637448fbae5f526004601cfd5b6111bf81611dcd565b5f1960601c82811692508381169350815f5283673ec412a9852d173d60c11b17601c5260205f208201820180548216915081611b845763ceea21b65f526004601cfd5b818514851517611ba857815f526030600c2054611ba857634b6e7f185f526004601cfd5b6001018390558183827f8c5be1e5ebec7d5bd14f71427d1e84f3dd0314c0f7b2291e5b200ac8c7c3b9255f38a450505050565b638b78c6d8195433146114dc576382b429005f526004601cfd5b5f611c015f8484611e61565b9392505050565b8160601b60601c9150805f52673ec412a9852d173d60c11b601c5260205f208101810180548060601b15611c435763c991cbb15f526004601cfd5b831790555f829052601c600c20805460010163ffffffff81168402611c775767ea553b3401336cea841560021b526004601cfd5b905580825f5f805160206138208339815191528138a45050565b60405163150b7a028082523360208301528560601b60601c604083015283606083015260808083015282518060a08401528015611cd8578060c08401826020870160045afa505b60208360a48301601c86015f8a5af1611cf9573d15611cf9573d5f843e3d83fd5b508060e01b825114611d125763d1a57ed65f526004601cfd5b505050505050565b5f611d24826113cb565b9050505f8181526001600160a01b03928316673ec412a9852d173d60c11b8117601c526020909120820182018054919382169182611d695763ceea21b65f526004601cfd5b825f52816001015480861484871417861517611d96576030600c2054611d9657634b6e7f185f526004601cfd5b8015611da3575f83600101555b5082189055601c600c2080545f19019055815f825f805160206138208339815191528238a4505050565b638b78c6d81980546001600160a01b039092169182907f8be0079c531659141344cd1fd0a4f28419497f9722a3daafe3b4186f6b6457e05f80a3811560ff1b8217905550565b60606080604051019050602081016040525f8152805f19835b928101926030600a8206018453600a900480611e2c575050819003601f19909101908152919050565b6060611c018383611eb4565b5f6c5af43d3d93803e602a57fd5bf36021528260145273602c3d8160093d39f33d3d3d3d363d3d37363d735f52816035600c86f5905080611ea95763301164255f526004601cfd5b5f6021529392505050565b6040518251601f19906020810182165b8581015184820152820180611ec4575083518184018360208301165b8681015182820152840180611ee05750505f910183810160208101929092528352604090810190525092915050565b610dba80612a6683390190565b5f60208284031215611f2c575f80fd5b81356001600160e01b031981168114611c01575f80fd5b5f81518084528060208401602086015e5f602082860101526020601f19601f83011685010191505092915050565b602081525f611c016020830184611f43565b5f60208284031215611f93575f80fd5b5035919050565b6001600160a01b0391909116815260200190565b6001600160a01b03811681146111bf575f80fd5b5f8060408385031215611fd3575f80fd5b8235611fde81611fae565b946020939093013593505050565b5f8060408385031215611ffd575f80fd5b50508035926020909101359150565b5f805f6060848603121561201e575f80fd5b833561202981611fae565b9250602084013561203981611fae565b929592945050506040919091013590565b5f6020828403121561205a575f80fd5b8135611c0181611fae565b634e487b7160e01b5f52604160045260245ffd5b604051606081016001600160401b038111828210171561209b5761209b612065565b60405290565b60405160a081016001600160401b038111828210171561209b5761209b612065565b604051601f8201601f191681016001600160401b03811182821017156120eb576120eb612065565b604052919050565b5f6001600160401b0382111561210b5761210b612065565b50601f01601f191660200190565b5f82601f830112612128575f80fd5b813561213b612136826120f3565b6120c3565b81815284602083860101111561214f575f80fd5b816020850160208301375f918101602001919091529392505050565b5f806040838503121561217c575f80fd5b8235915060208301356001600160401b03811115612198575f80fd5b8301606081860312156121a9575f80fd5b6121b1612079565b81356001600160401b038111156121c6575f80fd5b6121d287828501612119565b82525060208201356001600160401b038111156121ed575f80fd5b6121f987828501612119565b60208301525060408201356001600160401b03811115612217575f80fd5b61222387828501612119565b60408301525080925050509250929050565b5f60208284031215612245575f80fd5b81356001600160401b0381111561225a575f80fd5b82016101808185031215611c01575f80fd5b5f806040838503121561227d575f80fd5b823561228881611fae565b9150602083013561229881611fae565b809150509250929050565b5f602082840312156122b3575f80fd5b81356001600160401b038111156122c8575f80fd5b6122d484828501612119565b949350505050565b5f8083601f8401126122ec575f80fd5b5081356001600160401b03811115612302575f80fd5b602083019150836020828501011115612319575f80fd5b9250929050565b5f805f805f60608688031215612334575f80fd5b853561233f81611fae565b945060208601356001600160401b03811115612359575f80fd5b612365888289016122dc565b90955093505060408601356001600160401b03811115612383575f80fd5b61238f888289016122dc565b969995985093965092949392505050565b80151581146111bf575f80fd5b5f80604083850312156123be575f80fd5b82356123c981611fae565b91506020830135612298816123a0565b5f805f805f608086880312156123ed575f80fd5b85356123f881611fae565b9450602086013561240881611fae565b93506040860135925060608601356001600160401b03811115612383575f80fd5b600181811c9082168061243d57607f821691505b60208210810361245b57634e487b7160e01b5f52602260045260245ffd5b50919050565b5f60208284031215612471575f80fd5b8151611c0181611fae565b606081525f61248e6060830186611f43565b82810360208401526124a08186611f43565b905082810360408401526124b48185611f43565b9695505050505050565b5f602082840312156124ce575f80fd5b5051919050565b634e487b7160e01b5f52601160045260245ffd5b808201808211156113c5576113c56124d5565b62ffffff811681146111bf575f80fd5b5f6020828403121561251c575f80fd5b8135611c01816124fc565b5f808335601e1984360301811261253c575f80fd5b8301803591506001600160401b03821115612555575f80fd5b602001915036819003821315612319575f80fd5b5f806040838503121561257a575f80fd5b8235915060208301356001600160401b03811115612596575f80fd5b8301601f810185136125a6575f80fd5b80356001600160401b038111156125bf576125bf612065565b6125ce60208260051b016120c3565b80828252602082019150602060a084028501019250878311156125ef575f80fd5b6020840193505b8284101561265d5760a0848903121561260d575f80fd5b6126156120a1565b843581526020808601359082015260408086013590820152606085013561263b81611fae565b606082015260808581013590820152825260a0909301926020909101906125f6565b809450505050509250929050565b81835281816020850137505f828201602090810191909152601f909101601f19169091010190565b606081525f6126a660608301888a61266b565b82810360208401526126b981878961266b565b905082810360408401526126ce81858761266b565b9998505050505050505050565b6001600160a01b03929092168252602082015260400190565b5f60208284031215612704575f80fd5b8151611c01816123a0565b6001600160a01b0384168152602080820184905260606040830181905283519083018190525f918401906080840190835b818110156127945783518051845260208082015181860152604080830151908601526060808301516001600160a01b031690860152608091820151918501919091529093019260a090920191600101612740565b5090979650505050505050565b818103818111156113c5576113c56124d5565b601f82111561095557805f5260205f20601f840160051c810160208510156127d95750805b601f840160051c820191505b81811015611600575f81556001016127e5565b81516001600160401b0381111561281157612811612065565b6128258161281f8454612429565b846127b4565b6020601f821160018114612857575f83156128405750848201515b5f19600385901b1c1916600184901b178455611600565b5f84815260208120601f198516915b828110156128865787850151825560209485019460019092019101612866565b50848210156128a357868401515f19600387901b60f8161c191681555b50505050600190811b01905550565b5f60a08284031280156128c3575f80fd5b506128cc6120a1565b82516128d781611fae565b815260208301516128e781611fae565b602082015260408301516128fa816124fc565b60408201526060830151600281900b8114612913575f80fd5b6060820152608083015161292681611fae565b60808201529392505050565b604081525f61294560408301868861266b565b828103602084015261295881858761266b565b979650505050505050565b5f60208284031215612973575f80fd5b81516001600160401b03811115612988575f80fd5b8201601f81018413612998575f80fd5b80516129a6612136826120f3565b8181528560208385010111156129ba575f80fd5b8160208401602083015e5f91810160200191909152949350505050565b828152604060208201525f8251606060408401526129f860a0840182611f43565b90506020840151603f19848303016060850152612a158282611f43565b9150506040840151603f198483030160808501526124b48282611f43565b8381526001600160a01b03831660208201526060604082018190525f90612a5c90830184611f43565b9594505050505056fe6080604052348015600e575f80fd5b50610d9e8061001c5f395ff3fe608060405234801561000f575f80fd5b5060043610610097575f3560e01c8063158ef93e1461009b5780632db94d19146100bd5780632e390359146100d45780637571af221461011857806375dd86bd1461012b57806378e979251461014057806386d1a69f146101495780639852595c14610151578063ed858d30146101d0578063f78e633d146101e3578063fc0c546a14610267575b5f80fd5b6003546100a89060ff1681565b60405190151581526020015b60405180910390f35b6100c660015481565b6040519081526020016100b4565b6100e76100e2366004610adb565b610286565b604080519586526020860194909452928401919091526001600160a01b03166060830152608082015260a0016100b4565b6100c6610126366004610b0d565b6102d1565b61013e610139366004610b99565b6102e2565b005b6100c660025481565b61013e610585565b6100c661015f366004610b0d565b6001600160a01b03165f90815260046020818152604092839020835160e0810185528154815260018201549281019290925260028101549382019390935260038301546060820152908201546080820152600582015460a0820181905260069092015460ff16151560c09091015290565b6100c66101de366004610ca8565b61066f565b6102306101f1366004610b0d565b600460208190525f9182526040909120805460018201546002830154600384015494840154600585015460069095015493959294919390919060ff1687565b604080519788526020880196909652948601939093526060850191909152608084015260a0830152151560c082015260e0016100b4565b5f54610279906001600160a01b031681565b6040516100b49190610cd0565b60058181548110610295575f80fd5b5f91825260209091206005909102018054600182015460028301546003840154600490940154929450909290916001600160a01b039091169085565b5f6102dc824261066f565b92915050565b80515f0361030357604051632a67cf2360e01b815260040160405180910390fd5b60035460ff16156103265760405162dc149f60e41b815260040160405180910390fd5b6003805460ff1916600117905561033c8161070f565b5f80546001600160a01b0319166001600160a01b03851617815560018390554260025582905b8251811015610524575f83828151811061037e5761037e610ce4565b602002602001015190505f600185516103979190610d0c565b83036103a45750826103c4565b6127108260800151876103b79190610d1f565b6103c19190610d36565b90505b6103ce8185610d0c565b93506040518060e00160405280835f015181526020018360200151815260200183604001518152602001836080015181526020018281526020015f81526020016001151581525060045f84606001516001600160a01b03166001600160a01b031681526020019081526020015f205f820151815f01556020820151816001015560408201518160020155606082015181600301556080820151816004015560a0820151816005015560c0820151816006015f6101000a81548160ff021916908315150217905550905050600582908060018154018082558091505060019003905f5260205f2090600502015f909190919091505f820151815f015560208201518160010155604082015181600201556060820151816003015f6101000a8154816001600160a01b0302191690836001600160a01b0316021790555060808201518160040155505050508080600101915050610362565b5061053c335f546001600160a01b031690308661083d565b836001600160a01b03167fdc1716814322e2d8399f88119b1ff48a2eb7777ef0dc8aa981477a59ae3616178460405161057791815260200190565b60405180910390a250505050565b60035460ff166105a8576040516321c4e35760e21b815260040160405180910390fd5b335f908152600460205260409020600681015460ff166105db57604051631559b7d760e21b815260040160405180910390fd5b5f6105e633426108aa565b9050805f036106085760405163094b911b60e41b815260040160405180910390fd5b80826005015f82825461061b9190610d55565b90915550505f54610636906001600160a01b03163383610a39565b60405181815233907fc7798891864187665ac6dd119286e44ec13f014527aeeb2b8eb3fd413df931799060200160405180910390a25050565b6003545f9060ff1661068257505f6102dc565b6001600160a01b0383165f90815260046020818152604092839020835160e0810185528154815260018201549281019290925260028101549382019390935260038301546060820152908201546080820152600582015460a082015260069091015460ff16151560c082018190526106fd575f9150506102dc565b61070784846108aa565b949350505050565b5f805b8251811015610816575f83828151811061072e5761072e610ce4565b602002602001015190505f6001600160a01b031681606001516001600160a01b03160361076e57604051631559b7d760e21b815260040160405180910390fd5b6080810151158061078457506127108160800151115b156107a257604051631f3b85d360e01b815260040160405180910390fd5b80602001515f036107c657604051637616640160e01b815260040160405180910390fd5b604081015115806107de575080602001518160400151115b156107fc576040516302e8f35960e31b815260040160405180910390fd5b608081015161080b9084610d55565b925050600101610712565b50612710811461083957604051631f3b85d360e01b815260040160405180910390fd5b5050565b6040516001600160a01b0384811660248301528381166044830152606482018390526108a49186918216906323b872dd906084015b604051602081830303815290604052915060e01b6020820180516001600160e01b038381831617835250505050610a6f565b50505050565b6001600160a01b0382165f908152600460208181526040808420815160e08101835281548082526001830154948201949094526002808301549382019390935260038201546060820152938101546080850152600581015460a08501526006015460ff16151560c0840152546109209190610d55565b831015610930575f9150506102dc565b80516002545f9161094091610d55565b90505f8260200151826109539190610d55565b905080851061097a578260a0015183608001516109709190610d0c565b93505050506102dc565b5f6109858387610d0c565b90505f846020015182866080015161099d9190610d1f565b6109a79190610d36565b90505f8560400151836109ba9190610d36565b90505f866020015187604001518389608001516109d79190610d1f565b6109e19190610d1f565b6109eb9190610d36565b90505f8184106109fb57816109fd565b835b90508760a00151811115610a295760a0880151610a1a9082610d0c565b985050505050505050506102dc565b505f9a9950505050505050505050565b6040516001600160a01b03838116602483015260448201839052610a6a91859182169063a9059cbb90606401610872565b505050565b5f8060205f8451602086015f885af180610a8e576040513d5f823e3d81fd5b50505f513d91508115610aa5578060011415610ab2565b6001600160a01b0384163b155b156108a45783604051635274afe760e01b8152600401610ad29190610cd0565b60405180910390fd5b5f60208284031215610aeb575f80fd5b5035919050565b80356001600160a01b0381168114610b08575f80fd5b919050565b5f60208284031215610b1d575f80fd5b610b2682610af2565b9392505050565b634e487b7160e01b5f52604160045260245ffd5b60405160a081016001600160401b0381118282101715610b6357610b63610b2d565b60405290565b604051601f8201601f191681016001600160401b0381118282101715610b9157610b91610b2d565b604052919050565b5f805f60608486031215610bab575f80fd5b610bb484610af2565b92506020840135915060408401356001600160401b03811115610bd5575f80fd5b8401601f81018613610be5575f80fd5b80356001600160401b03811115610bfe57610bfe610b2d565b610c0d60208260051b01610b69565b80828252602082019150602060a08402850101925088831115610c2e575f80fd5b6020840193505b82841015610c9a5760a0848a031215610c4c575f80fd5b610c54610b41565b843581526020808601359082015260408086013590820152610c7860608601610af2565b606082015260808581013590820152825260a090930192602090910190610c35565b809450505050509250925092565b5f8060408385031215610cb9575f80fd5b610cc283610af2565b946020939093013593505050565b6001600160a01b0391909116815260200190565b634e487b7160e01b5f52603260045260245ffd5b634e487b7160e01b5f52601160045260245ffd5b818103818111156102dc576102dc610cf8565b80820281158282048414176102dc576102dc610cf8565b5f82610d5057634e487b7160e01b5f52601260045260245ffd5b500490565b808201808211156102dc576102dc610cf856fea264697066735822122031c284594f6be50426e5b322abc31af12ffbeca0b0d6185df850e5f18b6dc60264736f6c634300081a0033ddf252ad1be2c89b69c2b068fc378daa952ba7f163c4a11628f55a4df523b3efa26469706673582212209103dac330136d634ac2c4be3e39e6200716312d1a783ebc01ba0ae687a6f63a64736f6c634300081a0033","linkReferences":{}},"methodIdentifiers":{"MAX_BRIDGING_WINDOW()":"bb100a1a","MAX_CREATOR_ALLOCATION()":"5f151475","MAX_FAIR_LAUNCH_TOKENS()":"97cd41a8","MAX_SCHEDULE_DURATION()":"5b7426be","approve(address,uint256)":"095ea7b3","balanceOf(address)":"70a08231","baseURI()":"6c0360eb","bridgingFinalized(uint256,uint256)":"0a57aaf5","bridgingStarted(uint256,uint256)":"9dab7831","burn(uint256)":"42966c68","cancelOwnershipHandover()":"54d1f13d","completeOwnershipHandover(address)":"f04e283e","finalizeBridge(uint256,(string,string,string))":"2b31d94a","flaunch((string,string,string,uint256,uint256,uint256,address,uint24,uint256,bytes,bytes,bytes))":"3fa4d957","getApproved(uint256)":"081812fc","initialize(address,address)":"485cc955","initializeBridge(uint256,uint256)":"e4b47c0b","isApprovedForAll(address,address)":"e985e9c5","memecoin(uint256)":"e49c1854","memecoinImplementation()":"bf989c78","memecoinTreasury(uint256)":"f38f9550","memecoinTreasuryImplementation()":"1a5de1df","name()":"06fdde03","nextTokenId()":"75794a3c","owner()":"8da5cb5b","ownerOf(uint256)":"6352211e","ownershipHandoverExpiresAt(address)":"fee81cf4","poolId(uint256)":"5a3617fc","positionManager()":"791b98bc","renounceOwnership()":"715018a6","requestOwnershipHandover()":"25692962","safeTransferFrom(address,address,uint256)":"42842e0e","safeTransferFrom(address,address,uint256,bytes)":"b88d4fde","setApprovalForAll(address,bool)":"a22cb465","setBaseURI(string)":"55f804b3","setMemecoinImplementation(address)":"24f9bbb8","setMemecoinMetadata(address,string,string)":"829f042a","setMemecoinTreasuryImplementation(address)":"46ce21f8","supportsInterface(bytes4)":"01ffc9a7","symbol()":"95d89b41","tokenId(address)":"7ca31724","tokenURI(uint256)":"c87b56dd","transferFrom(address,address,uint256)":"23b872dd","transferOwnership(address)":"f2fde38b","vestingContract()":"5e6f6045"},"id":163}