{"abi":[{"type":"constructor","inputs":[{"name":"_flaunch","type":"address","internalType":"address"},{"name":"_poolManager","type":"address","internalType":"address"}],"stateMutability":"nonpayable"},{"type":"function","name":"marketCap","inputs":[{"name":"memecoin","type":"address","internalType":"address"},{"name":"tokenAmount","type":"uint256","internalType":"uint256"}],"outputs":[{"name":"","type":"uint256","internalType":"uint256"}],"stateMutability":"view"},{"type":"function","name":"poolLiquidity","inputs":[{"name":"memecoin","type":"address","internalType":"address"}],"outputs":[{"name":"_tokenAmount","type":"uint256","internalType":"uint256"},{"name":"_ethAmount","type":"uint256","internalType":"uint256"}],"stateMutability":"view"}],"bytecode":{"object":"0x60c0604052348015600e575f80fd5b50604051610b46380380610b46833981016040819052602b91605b565b6001600160a01b039182166080521660a0526087565b80516001600160a01b03811681146056575f80fd5b919050565b5f8060408385031215606b575f80fd5b6072836041565b9150607e602084016041565b90509250929050565b60805160a051610a6e6100d85f395f81816101b0015281816101e2015261046201525f8181608b01528181610137015281816102820152818161033d015281816103e901526104b40152610a6e5ff3fe608060405234801561000f575f80fd5b5060043610610034575f3560e01c8063a135ef1714610038578063a337eeff14610065575b5f80fd5b61004b610046366004610929565b610086565b604080519283526020830191909152015b60405180910390f35b610078610073366004610944565b610339565b60405190815260200161005c565b5f805f7f00000000000000000000000000000000000000000000000000000000000000006001600160a01b0316637ca31724856040518263ffffffff1660e01b81526004016100d5919061096e565b602060405180830381865afa1580156100f0573d5f803e3d5ffd5b505050506040513d601f19601f820116820180604052508101906101149190610982565b60405163168d85ff60e21b8152600481018290529091505f906001600160a01b037f00000000000000000000000000000000000000000000000000000000000000001690635a3617fc90602401602060405180830381865afa15801561017c573d5f803e3d5ffd5b505050506040513d601f19601f820116820180604052508101906101a09190610982565b90505f6101d66001600160a01b037f000000000000000000000000000000000000000000000000000000000000000016836105a6565b50505090505f610218837f00000000000000000000000000000000000000000000000000000000000000006001600160a01b031661065890919063ffffffff16565b9050806001600160801b03165f0361023857505f96879650945050505050565b5f6102496401000276a360016109ad565b90505f61026b600173fffd8963efd1fc6a506488495d951d5263988d266109cc565b90505f8061027b868585886106e4565b915091505f7f00000000000000000000000000000000000000000000000000000000000000006001600160a01b031663e1758bd86040518163ffffffff1660e01b8152600401602060405180830381865afa1580156102dc573d5f803e3d5ffd5b505050506040513d601f19601f8201168201806040525081019061030091906109eb565b6001600160a01b03168c6001600160a01b03161115905080610323578183610326565b82825b909d909c509a5050505050505050505050565b5f807f00000000000000000000000000000000000000000000000000000000000000006001600160a01b0316637ca31724856040518263ffffffff1660e01b8152600401610387919061096e565b602060405180830381865afa1580156103a2573d5f803e3d5ffd5b505050506040513d601f19601f820116820180604052508101906103c69190610982565b60405163168d85ff60e21b8152600481018290529091505f906001600160a01b037f00000000000000000000000000000000000000000000000000000000000000001690635a3617fc90602401602060405180830381865afa15801561042e573d5f803e3d5ffd5b505050506040513d601f19601f820116820180604052508101906104529190610982565b90505f6104886001600160a01b037f000000000000000000000000000000000000000000000000000000000000000016836105a6565b50505090505f6104af826001600160a01b0316836001600160a01b0316600160601b61077f565b90505f7f00000000000000000000000000000000000000000000000000000000000000006001600160a01b031663e1758bd86040518163ffffffff1660e01b8152600401602060405180830381865afa15801561050e573d5f803e3d5ffd5b505050506040513d601f19601f8201168201806040525081019061053291906109eb565b6001600160a01b0316886001600160a01b0316111590505f8161056b57610566670de0b6b3a764000084600160601b61077f565b610582565b610582670de0b6b3a7640000600160601b8561077f565b905061059788670de0b6b3a76400008361077f565b96505050505050505b92915050565b5f805f805f6105b48661081c565b604051631e2eaeaf60e01b8152600481018290529091505f906001600160a01b03891690631e2eaeaf90602401602060405180830381865afa1580156105fc573d5f803e3d5ffd5b505050506040513d601f19601f820116820180604052508101906106209190610982565b90506001600160a01b03811695508060a01c60020b945062ffffff8160b81c16935062ffffff8160d01c169250505092959194509250565b5f806106638361081c565b90505f610671600383610a06565b604051631e2eaeaf60e01b8152600481018290529091506001600160a01b03861690631e2eaeaf90602401602060405180830381865afa1580156106b7573d5f803e3d5ffd5b505050506040513d601f19601f820116820180604052508101906106db9190610982565b95945050505050565b5f80836001600160a01b0316856001600160a01b03161115610704579293925b846001600160a01b0316866001600160a01b03161161072f57610728858585610858565b9150610776565b836001600160a01b0316866001600160a01b0316101561076857610754868585610858565b91506107618587856108c9565b9050610776565b6107738585856108c9565b90505b94509492505050565b5f838302815f198587098281108382030391505080841161079e575f80fd5b805f036107b057508290049050610815565b5f848688095f868103871696879004966002600389028118808a02820302808a02820302808a02820302808a02820302808a02820302808a02909103029181900381900460010186841190950394909402919094039290920491909117919091029150505b9392505050565b6040515f9061083b908390600690602001918252602082015260400190565b604051602081830303815290604052805190602001209050919050565b5f826001600160a01b0316846001600160a01b03161115610877579192915b6001600160a01b0384166108b7600160601b600160e01b03606085901b1661089f87876109cc565b6001600160a01b0316866001600160a01b031661077f565b6108c19190610a19565b949350505050565b5f826001600160a01b0316846001600160a01b031611156108e8579192915b6108c16001600160801b0383166108ff86866109cc565b6001600160a01b0316600160601b61077f565b6001600160a01b0381168114610926575f80fd5b50565b5f60208284031215610939575f80fd5b813561081581610912565b5f8060408385031215610955575f80fd5b823561096081610912565b946020939093013593505050565b6001600160a01b0391909116815260200190565b5f60208284031215610992575f80fd5b5051919050565b634e487b7160e01b5f52601160045260245ffd5b6001600160a01b0381811683821601908111156105a0576105a0610999565b6001600160a01b0382811682821603908111156105a0576105a0610999565b5f602082840312156109fb575f80fd5b815161081581610912565b808201808211156105a0576105a0610999565b5f82610a3357634e487b7160e01b5f52601260045260245ffd5b50049056fea26469706673582212202039e7b13ba097aa7fdf4ea3335fabcc60154db3129eb25c2074349942fe6e1c64736f6c634300081a0033","linkReferences":{}},"methodIdentifiers":{"marketCap(address,uint256)":"a337eeff","poolLiquidity(address)":"a135ef17"},"id":150}