{
  "abi": [
    {
      "type": "constructor",
      "inputs": [
        {
          "name": "_protocolOwner",
          "type": "address",
          "internalType": "address"
        },
        {
          "name": "_poolManager",
          "type": "address",
          "internalType": "address"
        },
        {
          "name": "_ethToken",
          "type": "address",
          "internalType": "address"
        },
        {
          "name": "_usdcToken",
          "type": "address",
          "internalType": "address"
        },
        {
          "name": "_flaunchFeeExemption",
          "type": "address",
          "internalType": "address"
        }
      ],
      "stateMutability": "nonpayable"
    },
    {
      "type": "function",
      "name": "MINIMUM_USDC_MARKET_CAP",
      "inputs": [],
      "outputs": [
        {
          "name": "",
          "type": "uint256",
          "internalType": "uint256"
        }
      ],
      "stateMutability": "view"
    },
    {
      "type": "function",
      "name": "baseLaunchPrice",
      "inputs": [],
      "outputs": [
        {
          "name": "",
          "type": "uint256",
          "internalType": "uint256"
        }
      ],
      "stateMutability": "view"
    },
    {
      "type": "function",
      "name": "cancelOwnershipHandover",
      "inputs": [],
      "outputs": [],
      "stateMutability": "payable"
    },
    {
      "type": "function",
      "name": "completeOwnershipHandover",
      "inputs": [
        {
          "name": "pendingOwner",
          "type": "address",
          "internalType": "address"
        }
      ],
      "outputs": [],
      "stateMutability": "payable"
    },
    {
      "type": "function",
      "name": "ethToken",
      "inputs": [],
      "outputs": [
        {
          "name": "",
          "type": "address",
          "internalType": "Currency"
        }
      ],
      "stateMutability": "view"
    },
    {
      "type": "function",
      "name": "flaunchFeeExemption",
      "inputs": [],
      "outputs": [
        {
          "name": "",
          "type": "address",
          "internalType": "contract FlaunchFeeExemption"
        }
      ],
      "stateMutability": "view"
    },
    {
      "type": "function",
      "name": "flaunchFeeThreshold",
      "inputs": [],
      "outputs": [
        {
          "name": "",
          "type": "uint256",
          "internalType": "uint256"
        }
      ],
      "stateMutability": "view"
    },
    {
      "type": "function",
      "name": "getFlaunchingFee",
      "inputs": [
        {
          "name": "_sender",
          "type": "address",
          "internalType": "address"
        },
        {
          "name": "_initialPriceParams",
          "type": "bytes",
          "internalType": "bytes"
        }
      ],
      "outputs": [
        {
          "name": "",
          "type": "uint256",
          "internalType": "uint256"
        }
      ],
      "stateMutability": "view"
    },
    {
      "type": "function",
      "name": "getFlippedMarketCap",
      "inputs": [
        {
          "name": "ethAmount",
          "type": "uint256",
          "internalType": "uint256"
        }
      ],
      "outputs": [
        {
          "name": "",
          "type": "uint256",
          "internalType": "uint256"
        }
      ],
      "stateMutability": "view"
    },
    {
      "type": "function",
      "name": "getMarketCap",
      "inputs": [
        {
          "name": "_initialPriceParams",
          "type": "bytes",
          "internalType": "bytes"
        }
      ],
      "outputs": [
        {
          "name": "",
          "type": "uint256",
          "internalType": "uint256"
        }
      ],
      "stateMutability": "view"
    },
    {
      "type": "function",
      "name": "getSqrtPriceX96",
      "inputs": [
        {
          "name": "",
          "type": "address",
          "internalType": "address"
        },
        {
          "name": "_flipped",
          "type": "bool",
          "internalType": "bool"
        },
        {
          "name": "_initialPriceParams",
          "type": "bytes",
          "internalType": "bytes"
        }
      ],
      "outputs": [
        {
          "name": "sqrtPriceX96_",
          "type": "uint160",
          "internalType": "uint160"
        }
      ],
      "stateMutability": "view"
    },
    {
      "type": "function",
      "name": "owner",
      "inputs": [],
      "outputs": [
        {
          "name": "result",
          "type": "address",
          "internalType": "address"
        }
      ],
      "stateMutability": "view"
    },
    {
      "type": "function",
      "name": "ownershipHandoverExpiresAt",
      "inputs": [
        {
          "name": "pendingOwner",
          "type": "address",
          "internalType": "address"
        }
      ],
      "outputs": [
        {
          "name": "result",
          "type": "uint256",
          "internalType": "uint256"
        }
      ],
      "stateMutability": "view"
    },
    {
      "type": "function",
      "name": "poolId",
      "inputs": [],
      "outputs": [
        {
          "name": "",
          "type": "bytes32",
          "internalType": "PoolId"
        }
      ],
      "stateMutability": "view"
    },
    {
      "type": "function",
      "name": "poolManager",
      "inputs": [],
      "outputs": [
        {
          "name": "",
          "type": "address",
          "internalType": "contract IPoolManager"
        }
      ],
      "stateMutability": "view"
    },
    {
      "type": "function",
      "name": "renounceOwnership",
      "inputs": [],
      "outputs": [],
      "stateMutability": "payable"
    },
    {
      "type": "function",
      "name": "requestOwnershipHandover",
      "inputs": [],
      "outputs": [],
      "stateMutability": "payable"
    },
    {
      "type": "function",
      "name": "setBaseLaunchPrice",
      "inputs": [
        {
          "name": "_baseLaunchPrice",
          "type": "uint256",
          "internalType": "uint256"
        }
      ],
      "outputs": [],
      "stateMutability": "nonpayable"
    },
    {
      "type": "function",
      "name": "setFlaunchFeeThreshold",
      "inputs": [
        {
          "name": "_flaunchFeeThreshold",
          "type": "uint256",
          "internalType": "uint256"
        }
      ],
      "outputs": [],
      "stateMutability": "nonpayable"
    },
    {
      "type": "function",
      "name": "setPool",
      "inputs": [
        {
          "name": "_poolKey",
          "type": "tuple",
          "internalType": "struct PoolKey",
          "components": [
            {
              "name": "currency0",
              "type": "address",
              "internalType": "Currency"
            },
            {
              "name": "currency1",
              "type": "address",
              "internalType": "Currency"
            },
            {
              "name": "fee",
              "type": "uint24",
              "internalType": "uint24"
            },
            {
              "name": "tickSpacing",
              "type": "int24",
              "internalType": "int24"
            },
            {
              "name": "hooks",
              "type": "address",
              "internalType": "contract IHooks"
            }
          ]
        }
      ],
      "outputs": [],
      "stateMutability": "nonpayable"
    },
    {
      "type": "function",
      "name": "transferOwnership",
      "inputs": [
        {
          "name": "newOwner",
          "type": "address",
          "internalType": "address"
        }
      ],
      "outputs": [],
      "stateMutability": "payable"
    },
    {
      "type": "function",
      "name": "usdcToken",
      "inputs": [],
      "outputs": [
        {
          "name": "",
          "type": "address",
          "internalType": "Currency"
        }
      ],
      "stateMutability": "view"
    },
    {
      "type": "function",
      "name": "usdcToken0",
      "inputs": [],
      "outputs": [
        {
          "name": "",
          "type": "bool",
          "internalType": "bool"
        }
      ],
      "stateMutability": "view"
    },
    {
      "type": "event",
      "name": "BaseLaunchPriceUpdated",
      "inputs": [
        {
          "name": "_baseLaunchPrice",
          "type": "uint256",
          "indexed": false,
          "internalType": "uint256"
        }
      ],
      "anonymous": false
    },
    {
      "type": "event",
      "name": "FlaunchFeeThresholdUpdated",
      "inputs": [
        {
          "name": "_flaunchFeeThreshold",
          "type": "uint256",
          "indexed": false,
          "internalType": "uint256"
        }
      ],
      "anonymous": false
    },
    {
      "type": "event",
      "name": "OwnershipHandoverCanceled",
      "inputs": [
        {
          "name": "pendingOwner",
          "type": "address",
          "indexed": true,
          "internalType": "address"
        }
      ],
      "anonymous": false
    },
    {
      "type": "event",
      "name": "OwnershipHandoverRequested",
      "inputs": [
        {
          "name": "pendingOwner",
          "type": "address",
          "indexed": true,
          "internalType": "address"
        }
      ],
      "anonymous": false
    },
    {
      "type": "event",
      "name": "OwnershipTransferred",
      "inputs": [
        {
          "name": "oldOwner",
          "type": "address",
          "indexed": true,
          "internalType": "address"
        },
        {
          "name": "newOwner",
          "type": "address",
          "indexed": true,
          "internalType": "address"
        }
      ],
      "anonymous": false
    },
    {
      "type": "error",
      "name": "AlreadyInitialized",
      "inputs": []
    },
    {
      "type": "error",
      "name": "MarketCapTooSmall",
      "inputs": [
        {
          "name": "_usdcMarketCap",
          "type": "uint256",
          "internalType": "uint256"
        },
        {
          "name": "_usdcMarketCapMinimum",
          "type": "uint256",
          "internalType": "uint256"
        }
      ]
    },
    {
      "type": "error",
      "name": "NewOwnerIsZeroAddress",
      "inputs": []
    },
    {
      "type": "error",
      "name": "NoHandoverRequest",
      "inputs": []
    },
    {
      "type": "error",
      "name": "Unauthorized",
      "inputs": []
    }
  ],
  "bytecode": {
    "object": "0x610100604052348015610010575f80fd5b506040516110db3803806110db83398101604081905261002f916100df565b660110d9316ec0006003556001600160a01b0380851660805283811660a05282811660c052811660e0526100628561006c565b5050505050610140565b638b78c6d81980541561008657630dc149f05f526004601cfd5b6001600160a01b03909116801560ff1b8117909155805f7f8be0079c531659141344cd1fd0a4f28419497f9722a3daafe3b4186f6b6457e08180a350565b80516001600160a01b03811681146100da575f80fd5b919050565b5f805f805f60a086880312156100f3575f80fd5b6100fc866100c4565b945061010a602087016100c4565b9350610118604087016100c4565b9250610126606087016100c4565b9150610134608087016100c4565b90509295509295909350565b60805160a05160c05160e051610f4c61018f5f395f818161034601526104ef01525f8181610152015261061801525f8181610256015261065801525f8181610313015261083b0152610f4c5ff3fe60806040526004361061010f575f3560e01c80630c7324d31461011357806311eac8551461014157806325692962146101815780632a81c4f81461018b57806334745e01146101b8578063355c7371146101cd5780633e0dc34e146101e35780633eaad494146101f757806342d8c2c01461021657806354d1f13d14610235578063715018a61461023d5780637bf1a627146102455780638207cb481461027857806384273b33146102975780638da5cb5b146102ac5780639ac0507e146102c4578063acfefb8e146102e3578063dc4c90d314610302578063e13ce80d14610335578063f04e283e14610368578063f2fde38b1461037b578063fc87f3f61461038e578063fee81cf4146103ad575b5f80fd5b34801561011e575f80fd5b5060015461012c9060ff1681565b60405190151581526020015b60405180910390f35b34801561014c575f80fd5b506101747f000000000000000000000000000000000000000000000000000000000000000081565b6040516101389190610bde565b6101896103de565b005b348015610196575f80fd5b506101aa6101a5366004610c36565b61042a565b604051908152602001610138565b3480156101c3575f80fd5b506101aa60025481565b3480156101d8575f80fd5b506101aa620f424081565b3480156101ee575f80fd5b506101aa5f5481565b348015610202575f80fd5b506101aa610211366004610c74565b6104a1565b348015610221575f80fd5b506101aa610230366004610c9f565b6104c7565b6101896105b2565b6101896105eb565b348015610250575f80fd5b506101747f000000000000000000000000000000000000000000000000000000000000000081565b348015610283575f80fd5b50610189610292366004610cef565b6105fe565b3480156102a2575f80fd5b506101aa60035481565b3480156102b7575f80fd5b50638b78c6d81954610174565b3480156102cf575f80fd5b506101896102de366004610c74565b61072c565b3480156102ee575f80fd5b506101896102fd366004610c74565b610770565b34801561030d575f80fd5b506101747f000000000000000000000000000000000000000000000000000000000000000081565b348015610340575f80fd5b506101747f000000000000000000000000000000000000000000000000000000000000000081565b610189610376366004610d08565b6107ad565b610189610389366004610d08565b6107ea565b348015610399575f80fd5b506101746103a8366004610d30565b610810565b3480156103b8575f80fd5b506101aa6103c7366004610d08565b63389a75e1600c9081525f91909152602090205490565b5f6202a3006001600160401b03164201905063389a75e1600c52335f52806020600c2055337fdbf36a107da19e49527a7176a1babf963b4b0ff8cde35ee35d6cd8f1f9ac7e1d5f80a250565b5f8061043883850185610dc4565b9050620f4240815f01511015610475578051604051630292f1cf60e01b81526004810191909152620f424060248201526044015b60405180910390fd5b5f61047e610832565b9050610496825f0151670de0b6b3a7640000836108e2565b925050505b92915050565b5f806104ab610832565b90506104c08382670de0b6b3a76400006108e2565b9392505050565b5f806104d583850185610dc4565b60405163566c40d560e01b81529091506001600160a01b037f0000000000000000000000000000000000000000000000000000000000000000169063566c40d590610524908890600401610bde565b602060405180830381865afa15801561053f573d5f803e3d5ffd5b505050506040513d601f19601f820116820180604052508101906105639190610e11565b15610571575f9150506104c0565b6002548151116105855750506003546104c0565b6103e8610592858561042a565b61059c9190610e2c565b6003546105a99190610e4b565b95945050505050565b63389a75e1600c52335f525f6020600c2055337ffa7b8eab7da67f412cc9575ed43464468f9bfbae89d1675917346ca6d8fe3c925f80a2565b6105f361097e565b6105fc5f610998565b565b61060661097e565b61063c6106166020830183610d08565b7f00000000000000000000000000000000000000000000000000000000000000006109de565b801561067c575061067c6106566040830160208401610d08565b7f00000000000000000000000000000000000000000000000000000000000000006109de565b806106ac57506106956106166040830160208401610d08565b80156106ac57506106ac6106566020830183610d08565b6106ed5760405162461bcd60e51b815260206004820152601260248201527124b73b30b634b2103a37b5b2b7103830b4b960711b604482015260640161046c565b6107066106ff36839003830183610e7a565b60a0902090565b5f556107186106166020830183610d08565b6001805460ff191691151591909117905550565b61073461097e565b60028190556040518181527febd2d9dd311f5a98975f040927956375620a0156aba9e22d8f4b27fdb4abe115906020015b60405180910390a150565b61077861097e565b60038190556040518181527f8da5d13cd06c4496f0884f8fd5c57d24f6cdfdbc00cdeb8cb03c1e05d4c648e590602001610765565b6107b561097e565b63389a75e1600c52805f526020600c2080544211156107db57636f5e88185f526004601cfd5b5f90556107e781610998565b50565b6107f261097e565b8060601b61080757637448fbae5f526004601cfd5b6107e781610998565b5f6105a961081e848461042a565b680a18f07d736b90be55601d1b86156109ef565b5f806108715f547f00000000000000000000000000000000000000000000000000000000000000006001600160a01b0316610a8a90919063ffffffff16565b50505090505f610898826001600160a01b0316836001600160a01b0316600160601b6108e2565b6001549091505f9060ff166108c3576108be670de0b6b3a764000083600160601b6108e2565b6108da565b6108da670de0b6b3a7640000600160601b846108e2565b949350505050565b5f838302815f1985870982811083820303915050808411610901575f80fd5b805f03610913575082900490506104c0565b5f848688095f868103871696879004966002600389028118808a02820302808a02820302808a02820302808a02820302808a02820302808a02909103029181900381900460010186841190950394909402919094039290920491909117919091029150509392505050565b638b78c6d8195433146105fc576382b429005f526004601cfd5b638b78c6d81980546001600160a01b039092169182907f8be0079c531659141344cd1fd0a4f28419497f9722a3daafe3b4186f6b6457e05f80a3811560ff1b8217905550565b6001600160a01b0390811691161490565b5f80841180156109fe57505f83115b610a545760405162461bcd60e51b815260206004820152602160248201527f416d6f756e7473206d7573742062652067726561746572207468616e207a65726044820152606f60f81b606482015260840161046c565b8115610a7857610a71610a6c84600160c01b876108e2565b610b3c565b90506104c0565b6108da610a6c85600160c01b866108e2565b5f805f805f610a9886610ba2565b604051631e2eaeaf60e01b8152600481018290529091505f906001600160a01b03891690631e2eaeaf90602401602060405180830381865afa158015610ae0573d5f803e3d5ffd5b505050506040513d601f19601f82011682018060405250810190610b049190610eff565b90506001600160a01b03811695508060a01c60020b945062ffffff8160b81c16935062ffffff8160d01c169250505092959194509250565b5f815f03610b4b57505f919050565b5f6002610b59846001610e4b565b610b639190610e2c565b90508291505b81811015610b9c57905080600281610b818186610e2c565b610b8b9190610e4b565b610b959190610e2c565b9050610b69565b50919050565b6040515f90610bc1908390600690602001918252602082015260400190565b604051602081830303815290604052805190602001209050919050565b6001600160a01b0391909116815260200190565b5f8083601f840112610c02575f80fd5b5081356001600160401b03811115610c18575f80fd5b602083019150836020828501011115610c2f575f80fd5b9250929050565b5f8060208385031215610c47575f80fd5b82356001600160401b03811115610c5c575f80fd5b610c6885828601610bf2565b90969095509350505050565b5f60208284031215610c84575f80fd5b5035919050565b6001600160a01b03811681146107e7575f80fd5b5f805f60408486031215610cb1575f80fd5b8335610cbc81610c8b565b925060208401356001600160401b03811115610cd6575f80fd5b610ce286828701610bf2565b9497909650939450505050565b5f60a0828403128015610d00575f80fd5b509092915050565b5f60208284031215610d18575f80fd5b81356104c081610c8b565b80151581146107e7575f80fd5b5f805f8060608587031215610d43575f80fd5b8435610d4e81610c8b565b93506020850135610d5e81610d23565b925060408501356001600160401b03811115610d78575f80fd5b610d8487828801610bf2565b95989497509550505050565b60405160a081016001600160401b0381118282101715610dbe57634e487b7160e01b5f52604160045260245ffd5b60405290565b5f6020828403128015610dd5575f80fd5b50604051602081016001600160401b0381118282101715610e0457634e487b7160e01b5f52604160045260245ffd5b6040529135825250919050565b5f60208284031215610e21575f80fd5b81516104c081610d23565b5f82610e4657634e487b7160e01b5f52601260045260245ffd5b500490565b8082018082111561049b57634e487b7160e01b5f52601160045260245ffd5b8035610e7581610c8b565b919050565b5f60a0828403128015610e8b575f80fd5b50610e94610d90565b8235610e9f81610c8b565b81526020830135610eaf81610c8b565b6020820152604083013562ffffff81168114610ec9575f80fd5b60408201526060830135600281900b8114610ee2575f80fd5b6060820152610ef360808401610e6a565b60808201529392505050565b5f60208284031215610f0f575f80fd5b505191905056fea2646970667358221220ed58135bfcd89c05f04f28780123201997bd3ff29be81e91729fdc449ad7d96464736f6c634300081a0033",
    "linkReferences": {}
  },
  "methodIdentifiers": {
    "MINIMUM_USDC_MARKET_CAP()": "355c7371",
    "baseLaunchPrice()": "84273b33",
    "cancelOwnershipHandover()": "54d1f13d",
    "completeOwnershipHandover(address)": "f04e283e",
    "ethToken()": "7bf1a627",
    "flaunchFeeExemption()": "e13ce80d",
    "flaunchFeeThreshold()": "34745e01",
    "getFlaunchingFee(address,bytes)": "42d8c2c0",
    "getFlippedMarketCap(uint256)": "3eaad494",
    "getMarketCap(bytes)": "2a81c4f8",
    "getSqrtPriceX96(address,bool,bytes)": "fc87f3f6",
    "owner()": "8da5cb5b",
    "ownershipHandoverExpiresAt(address)": "fee81cf4",
    "poolId()": "3e0dc34e",
    "poolManager()": "dc4c90d3",
    "renounceOwnership()": "715018a6",
    "requestOwnershipHandover()": "25692962",
    "setBaseLaunchPrice(uint256)": "acfefb8e",
    "setFlaunchFeeThreshold(uint256)": "9ac0507e",
    "setPool((address,address,uint24,int24,address))": "8207cb48",
    "transferOwnership(address)": "f2fde38b",
    "usdcToken()": "11eac855",
    "usdcToken0()": "0c7324d3"
  },
  "id": 193
}