{
  "abi": [
    {
      "type": "constructor",
      "inputs": [],
      "stateMutability": "nonpayable"
    },
    {
      "type": "function",
      "name": "CLOCK_MODE",
      "inputs": [],
      "outputs": [
        {
          "name": "",
          "type": "string",
          "internalType": "string"
        }
      ],
      "stateMutability": "view"
    },
    {
      "type": "function",
      "name": "DOMAIN_SEPARATOR",
      "inputs": [],
      "outputs": [
        {
          "name": "",
          "type": "bytes32",
          "internalType": "bytes32"
        }
      ],
      "stateMutability": "view"
    },
    {
      "type": "function",
      "name": "allowance",
      "inputs": [
        {
          "name": "owner",
          "type": "address",
          "internalType": "address"
        },
        {
          "name": "spender",
          "type": "address",
          "internalType": "address"
        }
      ],
      "outputs": [
        {
          "name": "",
          "type": "uint256",
          "internalType": "uint256"
        }
      ],
      "stateMutability": "view"
    },
    {
      "type": "function",
      "name": "approve",
      "inputs": [
        {
          "name": "spender",
          "type": "address",
          "internalType": "address"
        },
        {
          "name": "amount",
          "type": "uint256",
          "internalType": "uint256"
        }
      ],
      "outputs": [
        {
          "name": "",
          "type": "bool",
          "internalType": "bool"
        }
      ],
      "stateMutability": "nonpayable"
    },
    {
      "type": "function",
      "name": "balanceOf",
      "inputs": [
        {
          "name": "account",
          "type": "address",
          "internalType": "address"
        }
      ],
      "outputs": [
        {
          "name": "",
          "type": "uint256",
          "internalType": "uint256"
        }
      ],
      "stateMutability": "view"
    },
    {
      "type": "function",
      "name": "burn",
      "inputs": [
        {
          "name": "value",
          "type": "uint256",
          "internalType": "uint256"
        }
      ],
      "outputs": [],
      "stateMutability": "nonpayable"
    },
    {
      "type": "function",
      "name": "burnFrom",
      "inputs": [
        {
          "name": "account",
          "type": "address",
          "internalType": "address"
        },
        {
          "name": "value",
          "type": "uint256",
          "internalType": "uint256"
        }
      ],
      "outputs": [],
      "stateMutability": "nonpayable"
    },
    {
      "type": "function",
      "name": "checkpoints",
      "inputs": [
        {
          "name": "account",
          "type": "address",
          "internalType": "address"
        },
        {
          "name": "pos",
          "type": "uint32",
          "internalType": "uint32"
        }
      ],
      "outputs": [
        {
          "name": "",
          "type": "tuple",
          "internalType": "struct ERC20VotesUpgradeable.Checkpoint",
          "components": [
            {
              "name": "fromBlock",
              "type": "uint32",
              "internalType": "uint32"
            },
            {
              "name": "votes",
              "type": "uint224",
              "internalType": "uint224"
            }
          ]
        }
      ],
      "stateMutability": "view"
    },
    {
      "type": "function",
      "name": "clock",
      "inputs": [],
      "outputs": [
        {
          "name": "",
          "type": "uint48",
          "internalType": "uint48"
        }
      ],
      "stateMutability": "view"
    },
    {
      "type": "function",
      "name": "creator",
      "inputs": [],
      "outputs": [
        {
          "name": "creator_",
          "type": "address",
          "internalType": "address"
        }
      ],
      "stateMutability": "view"
    },
    {
      "type": "function",
      "name": "crosschainBurn",
      "inputs": [
        {
          "name": "_from",
          "type": "address",
          "internalType": "address"
        },
        {
          "name": "_amount",
          "type": "uint256",
          "internalType": "uint256"
        }
      ],
      "outputs": [],
      "stateMutability": "nonpayable"
    },
    {
      "type": "function",
      "name": "crosschainMint",
      "inputs": [
        {
          "name": "_to",
          "type": "address",
          "internalType": "address"
        },
        {
          "name": "_amount",
          "type": "uint256",
          "internalType": "uint256"
        }
      ],
      "outputs": [],
      "stateMutability": "nonpayable"
    },
    {
      "type": "function",
      "name": "decimals",
      "inputs": [],
      "outputs": [
        {
          "name": "",
          "type": "uint8",
          "internalType": "uint8"
        }
      ],
      "stateMutability": "view"
    },
    {
      "type": "function",
      "name": "decreaseAllowance",
      "inputs": [
        {
          "name": "spender",
          "type": "address",
          "internalType": "address"
        },
        {
          "name": "subtractedValue",
          "type": "uint256",
          "internalType": "uint256"
        }
      ],
      "outputs": [
        {
          "name": "",
          "type": "bool",
          "internalType": "bool"
        }
      ],
      "stateMutability": "nonpayable"
    },
    {
      "type": "function",
      "name": "delegate",
      "inputs": [
        {
          "name": "delegatee",
          "type": "address",
          "internalType": "address"
        }
      ],
      "outputs": [],
      "stateMutability": "nonpayable"
    },
    {
      "type": "function",
      "name": "delegateBySig",
      "inputs": [
        {
          "name": "delegatee",
          "type": "address",
          "internalType": "address"
        },
        {
          "name": "nonce",
          "type": "uint256",
          "internalType": "uint256"
        },
        {
          "name": "expiry",
          "type": "uint256",
          "internalType": "uint256"
        },
        {
          "name": "v",
          "type": "uint8",
          "internalType": "uint8"
        },
        {
          "name": "r",
          "type": "bytes32",
          "internalType": "bytes32"
        },
        {
          "name": "s",
          "type": "bytes32",
          "internalType": "bytes32"
        }
      ],
      "outputs": [],
      "stateMutability": "nonpayable"
    },
    {
      "type": "function",
      "name": "delegates",
      "inputs": [
        {
          "name": "account",
          "type": "address",
          "internalType": "address"
        }
      ],
      "outputs": [
        {
          "name": "",
          "type": "address",
          "internalType": "address"
        }
      ],
      "stateMutability": "view"
    },
    {
      "type": "function",
      "name": "eip712Domain",
      "inputs": [],
      "outputs": [
        {
          "name": "fields",
          "type": "bytes1",
          "internalType": "bytes1"
        },
        {
          "name": "name",
          "type": "string",
          "internalType": "string"
        },
        {
          "name": "version",
          "type": "string",
          "internalType": "string"
        },
        {
          "name": "chainId",
          "type": "uint256",
          "internalType": "uint256"
        },
        {
          "name": "verifyingContract",
          "type": "address",
          "internalType": "address"
        },
        {
          "name": "salt",
          "type": "bytes32",
          "internalType": "bytes32"
        },
        {
          "name": "extensions",
          "type": "uint256[]",
          "internalType": "uint256[]"
        }
      ],
      "stateMutability": "view"
    },
    {
      "type": "function",
      "name": "flaunch",
      "inputs": [],
      "outputs": [
        {
          "name": "",
          "type": "address",
          "internalType": "contract Flaunch"
        }
      ],
      "stateMutability": "view"
    },
    {
      "type": "function",
      "name": "getPastTotalSupply",
      "inputs": [
        {
          "name": "timepoint",
          "type": "uint256",
          "internalType": "uint256"
        }
      ],
      "outputs": [
        {
          "name": "",
          "type": "uint256",
          "internalType": "uint256"
        }
      ],
      "stateMutability": "view"
    },
    {
      "type": "function",
      "name": "getPastVotes",
      "inputs": [
        {
          "name": "account",
          "type": "address",
          "internalType": "address"
        },
        {
          "name": "timepoint",
          "type": "uint256",
          "internalType": "uint256"
        }
      ],
      "outputs": [
        {
          "name": "",
          "type": "uint256",
          "internalType": "uint256"
        }
      ],
      "stateMutability": "view"
    },
    {
      "type": "function",
      "name": "getVotes",
      "inputs": [
        {
          "name": "account",
          "type": "address",
          "internalType": "address"
        }
      ],
      "outputs": [
        {
          "name": "",
          "type": "uint256",
          "internalType": "uint256"
        }
      ],
      "stateMutability": "view"
    },
    {
      "type": "function",
      "name": "increaseAllowance",
      "inputs": [
        {
          "name": "spender",
          "type": "address",
          "internalType": "address"
        },
        {
          "name": "addedValue",
          "type": "uint256",
          "internalType": "uint256"
        }
      ],
      "outputs": [
        {
          "name": "",
          "type": "bool",
          "internalType": "bool"
        }
      ],
      "stateMutability": "nonpayable"
    },
    {
      "type": "function",
      "name": "initialize",
      "inputs": [
        {
          "name": "name_",
          "type": "string",
          "internalType": "string"
        },
        {
          "name": "symbol_",
          "type": "string",
          "internalType": "string"
        },
        {
          "name": "tokenUri_",
          "type": "string",
          "internalType": "string"
        }
      ],
      "outputs": [],
      "stateMutability": "nonpayable"
    },
    {
      "type": "function",
      "name": "mint",
      "inputs": [
        {
          "name": "_to",
          "type": "address",
          "internalType": "address"
        },
        {
          "name": "_amount",
          "type": "uint256",
          "internalType": "uint256"
        }
      ],
      "outputs": [],
      "stateMutability": "nonpayable"
    },
    {
      "type": "function",
      "name": "name",
      "inputs": [],
      "outputs": [
        {
          "name": "",
          "type": "string",
          "internalType": "string"
        }
      ],
      "stateMutability": "view"
    },
    {
      "type": "function",
      "name": "nonces",
      "inputs": [
        {
          "name": "owner",
          "type": "address",
          "internalType": "address"
        }
      ],
      "outputs": [
        {
          "name": "",
          "type": "uint256",
          "internalType": "uint256"
        }
      ],
      "stateMutability": "view"
    },
    {
      "type": "function",
      "name": "numCheckpoints",
      "inputs": [
        {
          "name": "account",
          "type": "address",
          "internalType": "address"
        }
      ],
      "outputs": [
        {
          "name": "",
          "type": "uint32",
          "internalType": "uint32"
        }
      ],
      "stateMutability": "view"
    },
    {
      "type": "function",
      "name": "permit",
      "inputs": [
        {
          "name": "owner",
          "type": "address",
          "internalType": "address"
        },
        {
          "name": "spender",
          "type": "address",
          "internalType": "address"
        },
        {
          "name": "value",
          "type": "uint256",
          "internalType": "uint256"
        },
        {
          "name": "deadline",
          "type": "uint256",
          "internalType": "uint256"
        },
        {
          "name": "v",
          "type": "uint8",
          "internalType": "uint8"
        },
        {
          "name": "r",
          "type": "bytes32",
          "internalType": "bytes32"
        },
        {
          "name": "s",
          "type": "bytes32",
          "internalType": "bytes32"
        }
      ],
      "outputs": [],
      "stateMutability": "nonpayable"
    },
    {
      "type": "function",
      "name": "setMetadata",
      "inputs": [
        {
          "name": "name_",
          "type": "string",
          "internalType": "string"
        },
        {
          "name": "symbol_",
          "type": "string",
          "internalType": "string"
        }
      ],
      "outputs": [],
      "stateMutability": "nonpayable"
    },
    {
      "type": "function",
      "name": "supportsInterface",
      "inputs": [
        {
          "name": "_interfaceId",
          "type": "bytes4",
          "internalType": "bytes4"
        }
      ],
      "outputs": [
        {
          "name": "",
          "type": "bool",
          "internalType": "bool"
        }
      ],
      "stateMutability": "view"
    },
    {
      "type": "function",
      "name": "symbol",
      "inputs": [],
      "outputs": [
        {
          "name": "",
          "type": "string",
          "internalType": "string"
        }
      ],
      "stateMutability": "view"
    },
    {
      "type": "function",
      "name": "tokenURI",
      "inputs": [],
      "outputs": [
        {
          "name": "",
          "type": "string",
          "internalType": "string"
        }
      ],
      "stateMutability": "view"
    },
    {
      "type": "function",
      "name": "totalSupply",
      "inputs": [],
      "outputs": [
        {
          "name": "",
          "type": "uint256",
          "internalType": "uint256"
        }
      ],
      "stateMutability": "view"
    },
    {
      "type": "function",
      "name": "transfer",
      "inputs": [
        {
          "name": "to",
          "type": "address",
          "internalType": "address"
        },
        {
          "name": "amount",
          "type": "uint256",
          "internalType": "uint256"
        }
      ],
      "outputs": [
        {
          "name": "",
          "type": "bool",
          "internalType": "bool"
        }
      ],
      "stateMutability": "nonpayable"
    },
    {
      "type": "function",
      "name": "transferFrom",
      "inputs": [
        {
          "name": "from",
          "type": "address",
          "internalType": "address"
        },
        {
          "name": "to",
          "type": "address",
          "internalType": "address"
        },
        {
          "name": "amount",
          "type": "uint256",
          "internalType": "uint256"
        }
      ],
      "outputs": [
        {
          "name": "",
          "type": "bool",
          "internalType": "bool"
        }
      ],
      "stateMutability": "nonpayable"
    },
    {
      "type": "function",
      "name": "treasury",
      "inputs": [],
      "outputs": [
        {
          "name": "",
          "type": "address",
          "internalType": "address payable"
        }
      ],
      "stateMutability": "view"
    },
    {
      "type": "function",
      "name": "version",
      "inputs": [],
      "outputs": [
        {
          "name": "",
          "type": "string",
          "internalType": "string"
        }
      ],
      "stateMutability": "view"
    },
    {
      "type": "event",
      "name": "Approval",
      "inputs": [
        {
          "name": "owner",
          "type": "address",
          "indexed": true,
          "internalType": "address"
        },
        {
          "name": "spender",
          "type": "address",
          "indexed": true,
          "internalType": "address"
        },
        {
          "name": "value",
          "type": "uint256",
          "indexed": false,
          "internalType": "uint256"
        }
      ],
      "anonymous": false
    },
    {
      "type": "event",
      "name": "CrosschainBurn",
      "inputs": [
        {
          "name": "from",
          "type": "address",
          "indexed": true,
          "internalType": "address"
        },
        {
          "name": "amount",
          "type": "uint256",
          "indexed": false,
          "internalType": "uint256"
        },
        {
          "name": "sender",
          "type": "address",
          "indexed": true,
          "internalType": "address"
        }
      ],
      "anonymous": false
    },
    {
      "type": "event",
      "name": "CrosschainMint",
      "inputs": [
        {
          "name": "to",
          "type": "address",
          "indexed": true,
          "internalType": "address"
        },
        {
          "name": "amount",
          "type": "uint256",
          "indexed": false,
          "internalType": "uint256"
        },
        {
          "name": "sender",
          "type": "address",
          "indexed": true,
          "internalType": "address"
        }
      ],
      "anonymous": false
    },
    {
      "type": "event",
      "name": "DelegateChanged",
      "inputs": [
        {
          "name": "delegator",
          "type": "address",
          "indexed": true,
          "internalType": "address"
        },
        {
          "name": "fromDelegate",
          "type": "address",
          "indexed": true,
          "internalType": "address"
        },
        {
          "name": "toDelegate",
          "type": "address",
          "indexed": true,
          "internalType": "address"
        }
      ],
      "anonymous": false
    },
    {
      "type": "event",
      "name": "DelegateVotesChanged",
      "inputs": [
        {
          "name": "delegate",
          "type": "address",
          "indexed": true,
          "internalType": "address"
        },
        {
          "name": "previousBalance",
          "type": "uint256",
          "indexed": false,
          "internalType": "uint256"
        },
        {
          "name": "newBalance",
          "type": "uint256",
          "indexed": false,
          "internalType": "uint256"
        }
      ],
      "anonymous": false
    },
    {
      "type": "event",
      "name": "EIP712DomainChanged",
      "inputs": [],
      "anonymous": false
    },
    {
      "type": "event",
      "name": "Initialized",
      "inputs": [
        {
          "name": "version",
          "type": "uint8",
          "indexed": false,
          "internalType": "uint8"
        }
      ],
      "anonymous": false
    },
    {
      "type": "event",
      "name": "MetadataUpdated",
      "inputs": [
        {
          "name": "_name",
          "type": "string",
          "indexed": false,
          "internalType": "string"
        },
        {
          "name": "_symbol",
          "type": "string",
          "indexed": false,
          "internalType": "string"
        }
      ],
      "anonymous": false
    },
    {
      "type": "event",
      "name": "Transfer",
      "inputs": [
        {
          "name": "from",
          "type": "address",
          "indexed": true,
          "internalType": "address"
        },
        {
          "name": "to",
          "type": "address",
          "indexed": true,
          "internalType": "address"
        },
        {
          "name": "value",
          "type": "uint256",
          "indexed": false,
          "internalType": "uint256"
        }
      ],
      "anonymous": false
    },
    {
      "type": "error",
      "name": "CallerNotFlaunch",
      "inputs": []
    },
    {
      "type": "error",
      "name": "MintAddressIsZero",
      "inputs": []
    },
    {
      "type": "error",
      "name": "Permit2AllowanceIsFixedAtInfinity",
      "inputs": []
    },
    {
      "type": "error",
      "name": "Unauthorized",
      "inputs": []
    }
  ],
  "bytecode": {
    "object": "0x6080604052348015600e575f80fd5b5060156019565b60d3565b5f54610100900460ff161560835760405162461bcd60e51b815260206004820152602760248201527f496e697469616c697a61626c653a20636f6e747261637420697320696e697469604482015266616c697a696e6760c81b606482015260840160405180910390fd5b5f5460ff9081161460d1575f805460ff191660ff9081179091556040519081527f7f26b83ff96e1f2b6a682f133852f6798a09c465da95921460cefb38474024989060200160405180910390a15b565b612de9806100e05f395ff3fe608060405234801561000f575f80fd5b50600436106101c0575f3560e01c806301ffc9a7146101c457806302d05d3f146101ec57806306fdde0314610201578063095ea7b31461021657806318160ddd1461022957806318bf50771461023b57806323b872dd146102505780632b8c49e314610263578063313ce567146102765780633644e51514610285578063395093511461028d5780633a46b1a8146102a05780633c130d90146102b357806340c10f19146102bb57806342966c68146102ce5780634bf5d7e9146102e157806351335b501461031857806354fd4d501461032b578063587cde1e1461034c5780635c19a95c1461035f57806361d027b3146103725780636fcfff451461037a57806370a08231146103a257806379cc6790146103b55780637ecebe00146103c857806384b0196e146103db57806387211ceb146103f65780638e539e8c1461040a57806391ddadf41461041d57806395d89b411461043c5780639ab24eb014610444578063a457c2d714610457578063a6487c531461046a578063a9059cbb1461047d578063c3cda52014610490578063d505accf146104a3578063dd62ed3e146104b6578063f1127ed8146104c9575b5f80fd5b6101d76101d236600461252b565b610506565b60405190151581526020015b60405180910390f35b6101f46105bb565b6040516101e39190612552565b6102096106a2565b6040516101e39190612594565b6101d76102243660046125ba565b610732565b6035545b6040519081526020016101e3565b61024e6102493660046125ba565b61078a565b005b6101d761025e3660046125e4565b6107ff565b61024e6102713660046125ba565b610822565b604051601281526020016101e3565b61022d61088f565b6101d761029b3660046125ba565b61089d565b61022d6102ae3660046125ba565b6108c8565b610209610921565b61024e6102c93660046125ba565b6109ae565b61024e6102dc366004612622565b610a0f565b60408051808201909152601b81527a1b5bd9194f5d1a5b595cdd185b5c09999c9bdb4f591959985d5b1d602a1b6020820152610209565b61024e61032636600461267d565b610a1c565b604080518082019091526005815264189718171960d91b6020820152610209565b6101f461035a3660046126e7565b610aa5565b61024e61036d3660046126e7565b610ac2565b6101f4610acc565b61038d6103883660046126e7565b610bb3565b60405163ffffffff90911681526020016101e3565b61022d6103b03660046126e7565b610bd4565b61024e6103c33660046125ba565b610bee565b61022d6103d63660046126e7565b610c03565b6103e3610c20565b6040516101e39796959493929190612702565b610101546101f4906001600160a01b031681565b61022d610418366004612622565b610cb9565b610425610cf3565b60405165ffffffffffff90911681526020016101e3565b610209610cfd565b61022d6104523660046126e7565b610d0c565b6101d76104653660046125ba565b610d88565b61024e610478366004612798565b610e02565b6101d761048b3660046125ba565b610ffe565b61024e61049e366004612849565b61100b565b61024e6104b136600461289f565b611133565b61022d6104c4366004612909565b611294565b6104dc6104d7366004612940565b6112e7565b60408051825163ffffffff1681526020928301516001600160e01b031692810192909252016101e3565b5f6001600160e01b031982166336372b0760e01b148061053657506001600160e01b031982166336372b0760e01b145b8061055157506001600160e01b03198216634ec7fbed60e11b145b8061056457506001600160e01b03198216155b8061057f57506001600160e01b03198216630cccc66560e21b145b8061059a57506001600160e01b031982166301ffc9a760e01b145b806105b557506001600160e01b03198216631a21778960e31b145b92915050565b61010154604051631f28c5c960e21b81525f9182916001600160a01b0390911690637ca31724906105f0903090600401612552565b602060405180830381865afa15801561060b573d5f803e3d5ffd5b505050506040513d601f19601f8201168201806040525081019061062f9190612974565b610101546040516331a9108f60e11b8152600481018390529192506001600160a01b031690636352211e90602401602060405180830381865afa925050508015610696575060408051601f3d908101601f191682019092526106939181019061298b565b60015b1561069e5791505b5090565b606060fe80546106b1906129a6565b80601f01602080910402602001604051908101604052809291908181526020018280546106dd906129a6565b80156107285780601f106106ff57610100808354040283529160200191610728565b820191905f5260205f20905b81548152906001019060200180831161070b57829003601f168201915b5050505050905090565b5f6001600160a01b0383166e22d473030f116ddee9f6b43ac78ba314801561075b57505f198214155b1561077957604051631fb429cd60e11b815260040160405180910390fd5b6107838383611367565b9392505050565b336028602160991b01146107b0576040516282b42960e81b815260040160405180910390fd5b6107ba8282611374565b60405181815233906001600160a01b038416907fde22baff038e3a3e08407cbdf617deed74e869a7ba517df611e33131c6e6ea04906020015b60405180910390a35050565b5f3361080c85828561137e565b6108178585856113f6565b506001949350505050565b336028602160991b0114610848576040516282b42960e81b815260040160405180910390fd5b6108528282611592565b60405181815233906001600160a01b038416907fb90795a66650155983e242cac3e1ac1a4dc26f8ed2987f3ce416a34e00111fd4906020016107f3565b5f61089861159c565b905090565b5f336108be8185856108af8383611294565b6108b991906129ec565b6115a5565b5060019392505050565b5f6108d1610cf3565b65ffffffffffff1682106109005760405162461bcd60e51b81526004016108f7906129ff565b60405180910390fd5b6001600160a01b0383165f90815260cd6020526040902061078390836116c8565b610100805461092f906129a6565b80601f016020809104026020016040519081016040528092919081815260200182805461095b906129a6565b80156109a65780601f1061097d576101008083540402835291602001916109a6565b820191905f5260205f20905b81548152906001019060200180831161098957829003601f168201915b505050505081565b610101546001600160a01b031633146109da5760405163c66bfcc360e01b815260040160405180910390fd5b6001600160a01b038216610a0157604051636462dae160e01b815260040160405180910390fd5b610a0b8282611374565b5050565b610a193382611592565b50565b610101546001600160a01b03163314610a485760405163c66bfcc360e01b815260040160405180910390fd5b60fe610a55848683612aa5565b5060ff610a63828483612aa5565b507f30f5c4b652f95e2a697bda3258896c421eee4f29adce8fe38060f47f7aed91ad60fe60ff604051610a97929190612bd8565b60405180910390a150505050565b6001600160a01b039081165f90815260cc60205260409020541690565b610a1933826117a4565b61010154604051631f28c5c960e21b81525f9182916001600160a01b0390911690637ca3172490610b01903090600401612552565b602060405180830381865afa158015610b1c573d5f803e3d5ffd5b505050506040513d601f19601f82011682018060405250810190610b409190612974565b61010154604051630f38f95560e41b8152600481018390529192506001600160a01b03169063f38f955090602401602060405180830381865afa158015610b89573d5f803e3d5ffd5b505050506040513d601f19601f82011682018060405250810190610bad919061298b565b91505090565b6001600160a01b0381165f90815260cd60205260408120546105b590611821565b6001600160a01b03165f9081526033602052604090205490565b610bf982338361137e565b610a0b8282611592565b6001600160a01b0381165f908152609960205260408120546105b5565b5f6060805f805f60606065545f801b148015610c3c5750606654155b610c805760405162461bcd60e51b81526020600482015260156024820152741152540dcc4c8e88155b9a5b9a5d1a585b1a5e9959605a1b60448201526064016108f7565b610c88611885565b610c90611894565b604080515f80825260208201909252600f60f81b9b939a50919850469750309650945092509050565b5f610cc2610cf3565b65ffffffffffff168210610ce85760405162461bcd60e51b81526004016108f7906129ff565b6105b560ce836116c8565b5f610898426118a3565b606060ff80546106b1906129a6565b6001600160a01b0381165f90815260cd60205260408120548015610d76576001600160a01b0383165f90815260cd6020526040902080545f198301908110610d5657610d56612c05565b5f91825260209091200154600160201b90046001600160e01b0316610d78565b5f5b6001600160e01b03169392505050565b5f3381610d958286611294565b905083811015610df55760405162461bcd60e51b815260206004820152602560248201527f45524332303a2064656372656173656420616c6c6f77616e63652062656c6f77604482015264207a65726f60d81b60648201526084016108f7565b61081782868684036115a5565b5f54610100900460ff1615808015610e2057505f54600160ff909116105b80610e395750303b158015610e3957505f5460ff166001145b610e9c5760405162461bcd60e51b815260206004820152602e60248201527f496e697469616c697a61626c653a20636f6e747261637420697320616c72656160448201526d191e481a5b9a5d1a585b1a5e995960921b60648201526084016108f7565b5f805460ff191660011790558015610ebd575f805461ff0019166101001790555b60fe610eca878983612aa5565b5060ff610ed8858783612aa5565b50610100610ee7838583612aa5565b5061010180546001600160a01b03191633179055604080516020601f8901819004810282018101909252878152610f6a9189908990819084018382808284375f9201919091525050604080516020601f8b0181900481028201810190925289815292508991508890819084018382808284375f9201919091525061190992505050565b610fa887878080601f0160208091040260200160405190810160405280939291908181526020018383808284375f9201919091525061193992505050565b610fb0611982565b8015610ff5575f805461ff0019169055604051600181527f7f26b83ff96e1f2b6a682f133852f6798a09c465da95921460cefb38474024989060200160405180910390a15b50505050505050565b5f336108be8185856113f6565b8342111561105b5760405162461bcd60e51b815260206004820152601d60248201527f4552433230566f7465733a207369676e6174757265206578706972656400000060448201526064016108f7565b604080517fe48329057bfd03d55e49b547132e39cffd9c1820ad7b9d4c5307691425d15adf60208201526001600160a01b0388169181019190915260608101869052608081018590525f906110d4906110cc9060a001604051602081830303815290604052805190602001206119aa565b8585856119d6565b90506110df816119fc565b86146111295760405162461bcd60e51b81526020600482015260196024820152784552433230566f7465733a20696e76616c6964206e6f6e636560381b60448201526064016108f7565b610ff581886117a4565b834211156111835760405162461bcd60e51b815260206004820152601d60248201527f45524332305065726d69743a206578706972656420646561646c696e6500000060448201526064016108f7565b5f7f6e71edae12b1b97f4d1f60370fef10105fa2faae0126114a169c64845d6126c98888886111b18c6119fc565b6040805160208101969096526001600160a01b0394851690860152929091166060840152608083015260a082015260c0810186905260e0016040516020818303038152906040528051906020012090505f61120b826119aa565b90505f61121a828787876119d6565b9050896001600160a01b0316816001600160a01b03161461127d5760405162461bcd60e51b815260206004820152601e60248201527f45524332305065726d69743a20696e76616c6964207369676e6174757265000060448201526064016108f7565b6112888a8a8a6115a5565b50505050505050505050565b5f6e22d473030f116ddee9f6b43ac78ba2196001600160a01b038316016112bd57505f196105b5565b6001600160a01b038084165f90815260346020908152604080832093861683529290522054610783565b604080518082019091525f80825260208201526001600160a01b0383165f90815260cd60205260409020805463ffffffff841690811061132957611329612c05565b5f9182526020918290206040805180820190915291015463ffffffff81168252600160201b90046001600160e01b0316918101919091529392505050565b5f336108be8185856115a5565b610a0b8282611a23565b5f6113898484611294565b90505f1981146113f057818110156113e35760405162461bcd60e51b815260206004820152601d60248201527f45524332303a20696e73756666696369656e7420616c6c6f77616e636500000060448201526064016108f7565b6113f084848484036115a5565b50505050565b6001600160a01b03831661145a5760405162461bcd60e51b815260206004820152602560248201527f45524332303a207472616e736665722066726f6d20746865207a65726f206164604482015264647265737360d81b60648201526084016108f7565b6001600160a01b0382166114bc5760405162461bcd60e51b815260206004820152602360248201527f45524332303a207472616e7366657220746f20746865207a65726f206164647260448201526265737360e81b60648201526084016108f7565b6001600160a01b0383165f90815260336020526040902054818110156115335760405162461bcd60e51b815260206004820152602660248201527f45524332303a207472616e7366657220616d6f756e7420657863656564732062604482015265616c616e636560d01b60648201526084016108f7565b6001600160a01b038085165f8181526033602052604080822086860390559286168082529083902080548601905591515f80516020612d748339815191529061157f9086815260200190565b60405180910390a36113f0848484611ab2565b610a0b8282611af4565b5f610898611b0c565b6001600160a01b0383166116075760405162461bcd60e51b8152602060048201526024808201527f45524332303a20617070726f76652066726f6d20746865207a65726f206164646044820152637265737360e01b60648201526084016108f7565b6001600160a01b0382166116685760405162461bcd60e51b815260206004820152602260248201527f45524332303a20617070726f766520746f20746865207a65726f206164647265604482015261737360f01b60648201526084016108f7565b6001600160a01b038381165f8181526034602090815260408083209487168084529482529182902085905590518481527f8c5be1e5ebec7d5bd14f71427d1e84f3dd0314c0f7b2291e5b200ac8c7c3b925910160405180910390a3505050565b81545f908181600581111561171d575f6116e184611b7f565b6116eb9085612c19565b9050856116f88883611c63565b5463ffffffff16111561170d5780915061171b565b6117188160016129ec565b92505b505b80821015611766575f6117308383611c70565b90508561173d8883611c63565b5463ffffffff16111561175257809150611760565b61175d8160016129ec565b92505b5061171d565b801561178f576117798660018303611c63565b54600160201b90046001600160e01b0316611791565b5f5b6001600160e01b03169695505050505050565b5f6117ae83610aa5565b90505f6117ba84610bd4565b6001600160a01b038581165f81815260cc602052604080822080546001600160a01b031916898616908117909155905194955093928616927f3134e8a2e6d97e929a7e54011ea5485d7d196dd5f0ba4d4ef95803e8e3fc257f9190a46113f0828483611c8a565b5f63ffffffff82111561069e5760405162461bcd60e51b815260206004820152602660248201527f53616665436173743a2076616c756520646f65736e27742066697420696e203360448201526532206269747360d01b60648201526084016108f7565b6060606780546106b1906129a6565b6060606880546106b1906129a6565b5f65ffffffffffff82111561069e5760405162461bcd60e51b815260206004820152602660248201527f53616665436173743a2076616c756520646f65736e27742066697420696e203460448201526538206269747360d01b60648201526084016108f7565b5f54610100900460ff1661192f5760405162461bcd60e51b81526004016108f790612c2c565b610a0b8282611d9e565b5f54610100900460ff1661195f5760405162461bcd60e51b81526004016108f790612c2c565b610a1981604051806040016040528060018152602001603160f81b815250611ddd565b5f54610100900460ff166119a85760405162461bcd60e51b81526004016108f790612c2c565b565b5f6105b56119b661159c565b8360405161190160f01b8152600281019290925260228201526042902090565b5f805f6119e587878787611e2a565b915091506119f281611edd565b5095945050505050565b6001600160a01b0381165f9081526099602052604090208054600181018255905b50919050565b611a2d8282612021565b6035546001600160e01b031015611a9f5760405162461bcd60e51b815260206004820152603060248201527f4552433230566f7465733a20746f74616c20737570706c79207269736b73206f60448201526f766572666c6f77696e6720766f74657360801b60648201526084016108f7565b6113f060ce6120d4836120df565b505050565b611abd838383612248565b6001600160a01b03821615801590611ae557505f611ada83610aa5565b6001600160a01b0316145b15611aad57611aad82836117a4565b611afe8282612263565b6113f060ce612388836120df565b5f7f8b73c3c69bb8fe3d512ecc4cf759cc79239f7b179b0ffacaa9a75d522b39400f611b36612393565b611b3e6123eb565b60408051602081019490945283019190915260608201524660808201523060a082015260c00160405160208183030381529060405280519060200120905090565b5f815f03611b8e57505f919050565b5f6001611b9a8461241b565b901c6001901b90506001818481611bb357611bb3612c77565b048201901c90506001818481611bcb57611bcb612c77565b048201901c90506001818481611be357611be3612c77565b048201901c90506001818481611bfb57611bfb612c77565b048201901c90506001818481611c1357611c13612c77565b048201901c90506001818481611c2b57611c2b612c77565b048201901c90506001818481611c4357611c43612c77565b048201901c905061078381828581611c5d57611c5d612c77565b046124ae565b5f91825260209091200190565b5f611c7e6002848418612c8b565b610783908484166129ec565b816001600160a01b0316836001600160a01b031614158015611cab57505f81115b15611aad576001600160a01b03831615611d25576001600160a01b0383165f90815260cd602052604081208190611ce590612388856120df565b91509150846001600160a01b03165f80516020612d948339815191528383604051611d1a929190918252602082015260400190565b60405180910390a250505b6001600160a01b03821615611aad576001600160a01b0382165f90815260cd602052604081208190611d5a906120d4856120df565b91509150836001600160a01b03165f80516020612d948339815191528383604051611d8f929190918252602082015260400190565b60405180910390a25050505050565b5f54610100900460ff16611dc45760405162461bcd60e51b81526004016108f790612c2c565b6036611dd08382612caa565b506037611aad8282612caa565b5f54610100900460ff16611e035760405162461bcd60e51b81526004016108f790612c2c565b6067611e0f8382612caa565b506068611e1c8282612caa565b50505f606581905560665550565b5f806fa2a8918ca85bafe22016d0b997e4df60600160ff1b03831115611e5557505f90506003611ed4565b604080515f8082526020820180845289905260ff881692820192909252606081018690526080810185905260019060a0016020604051602081039080840390855afa158015611ea6573d5f803e3d5ffd5b5050604051601f1901519150506001600160a01b038116611ece575f60019250925050611ed4565b91505f90505b94509492505050565b5f816004811115611ef057611ef0612d5f565b03611ef85750565b6001816004811115611f0c57611f0c612d5f565b03611f545760405162461bcd60e51b815260206004820152601860248201527745434453413a20696e76616c6964207369676e617475726560401b60448201526064016108f7565b6002816004811115611f6857611f68612d5f565b03611fb55760405162461bcd60e51b815260206004820152601f60248201527f45434453413a20696e76616c6964207369676e6174757265206c656e6774680060448201526064016108f7565b6003816004811115611fc957611fc9612d5f565b03610a195760405162461bcd60e51b815260206004820152602260248201527f45434453413a20696e76616c6964207369676e6174757265202773272076616c604482015261756560f01b60648201526084016108f7565b6001600160a01b0382166120775760405162461bcd60e51b815260206004820152601f60248201527f45524332303a206d696e7420746f20746865207a65726f20616464726573730060448201526064016108f7565b8060355f82825461208891906129ec565b90915550506001600160a01b0382165f818152603360209081526040808320805486019055518481525f80516020612d74833981519152910160405180910390a3610a0b5f8383611ab2565b5f61078382846129ec565b82545f908190818115612128576120f98760018403611c63565b60408051808201909152905463ffffffff81168252600160201b90046001600160e01b0316602082015261213c565b604080518082019091525f80825260208201525b905080602001516001600160e01b0316935061215c84868863ffffffff16565b92505f821180156121845750612170610cf3565b65ffffffffffff16815f015163ffffffff16145b156121c657612192836124c3565b61219f8860018503611c63565b80546001600160e01b0392909216600160201b0263ffffffff90921691909117905561223e565b8660405180604001604052806121ea6121dd610cf3565b65ffffffffffff16611821565b63ffffffff1681526020016121fe866124c3565b6001600160e01b0390811690915282546001810184555f93845260209384902083519490930151909116600160201b0263ffffffff909316929092179101555b5050935093915050565b611aad61225484610aa5565b61225d84610aa5565b83611c8a565b6001600160a01b0382166122c35760405162461bcd60e51b815260206004820152602160248201527f45524332303a206275726e2066726f6d20746865207a65726f206164647265736044820152607360f81b60648201526084016108f7565b6001600160a01b0382165f90815260336020526040902054818110156123365760405162461bcd60e51b815260206004820152602260248201527f45524332303a206275726e20616d6f756e7420657863656564732062616c616e604482015261636560f01b60648201526084016108f7565b6001600160a01b0383165f8181526033602090815260408083208686039055603580548790039055518581529192915f80516020612d74833981519152910160405180910390a3611aad835f84611ab2565b5f6107838284612c19565b5f8061239d611885565b8051909150156123b4578051602090910120919050565b60655480156123c35792915050565b7fc5d2460186f7233c927e7db2dcc703c0e500b653ca82273b7bfad8045d85a4709250505090565b5f806123f5611894565b80519091501561240c578051602090910120919050565b60665480156123c35792915050565b5f80608083901c1561242f57608092831c92015b604083901c1561244157604092831c92015b602083901c1561245357602092831c92015b601083901c1561246557601092831c92015b600883901c1561247757600892831c92015b600483901c1561248957600492831c92015b600283901c1561249b57600292831c92015b600183901c156105b55760010192915050565b5f8183106124bc5781610783565b5090919050565b5f6001600160e01b0382111561069e5760405162461bcd60e51b815260206004820152602760248201527f53616665436173743a2076616c756520646f65736e27742066697420696e20326044820152663234206269747360c81b60648201526084016108f7565b5f6020828403121561253b575f80fd5b81356001600160e01b031981168114610783575f80fd5b6001600160a01b0391909116815260200190565b5f81518084528060208401602086015e5f602082860101526020601f19601f83011685010191505092915050565b602081525f6107836020830184612566565b6001600160a01b0381168114610a19575f80fd5b5f80604083850312156125cb575f80fd5b82356125d6816125a6565b946020939093013593505050565b5f805f606084860312156125f6575f80fd5b8335612601816125a6565b92506020840135612611816125a6565b929592945050506040919091013590565b5f60208284031215612632575f80fd5b5035919050565b5f8083601f840112612649575f80fd5b5081356001600160401b0381111561265f575f80fd5b602083019150836020828501011115612676575f80fd5b9250929050565b5f805f8060408587031215612690575f80fd5b84356001600160401b038111156126a5575f80fd5b6126b187828801612639565b90955093505060208501356001600160401b038111156126cf575f80fd5b6126db87828801612639565b95989497509550505050565b5f602082840312156126f7575f80fd5b8135610783816125a6565b60ff60f81b8816815260e060208201525f61272060e0830189612566565b82810360408401526127328189612566565b606084018890526001600160a01b038716608085015260a0840186905283810360c0850152845180825260208087019350909101905f5b81811015612787578351835260209384019390920191600101612769565b50909b9a5050505050505050505050565b5f805f805f80606087890312156127ad575f80fd5b86356001600160401b038111156127c2575f80fd5b6127ce89828a01612639565b90975095505060208701356001600160401b038111156127ec575f80fd5b6127f889828a01612639565b90955093505060408701356001600160401b03811115612816575f80fd5b61282289828a01612639565b979a9699509497509295939492505050565b803560ff81168114612844575f80fd5b919050565b5f805f805f8060c0878903121561285e575f80fd5b8635612869816125a6565b9550602087013594506040870135935061288560608801612834565b9598949750929560808101359460a0909101359350915050565b5f805f805f805f60e0888a0312156128b5575f80fd5b87356128c0816125a6565b965060208801356128d0816125a6565b955060408801359450606088013593506128ec60808901612834565b9699959850939692959460a0840135945060c09093013592915050565b5f806040838503121561291a575f80fd5b8235612925816125a6565b91506020830135612935816125a6565b809150509250929050565b5f8060408385031215612951575f80fd5b823561295c816125a6565b9150602083013563ffffffff81168114612935575f80fd5b5f60208284031215612984575f80fd5b5051919050565b5f6020828403121561299b575f80fd5b8151610783816125a6565b600181811c908216806129ba57607f821691505b602082108103611a1d57634e487b7160e01b5f52602260045260245ffd5b634e487b7160e01b5f52601160045260245ffd5b808201808211156105b5576105b56129d8565b60208082526019908201527804552433230566f7465733a20667574757265206c6f6f6b757603c1b604082015260600190565b634e487b7160e01b5f52604160045260245ffd5b601f821115611aad57805f5260205f20601f840160051c81016020851015612a6b5750805b601f840160051c820191505b81811015612a8a575f8155600101612a77565b5050505050565b5f19600383901b1c191660019190911b1790565b6001600160401b03831115612abc57612abc612a32565b612ad083612aca83546129a6565b83612a46565b5f601f841160018114612afc575f8515612aea5750838201355b612af48682612a91565b845550612a8a565b5f83815260208120601f198716915b82811015612b2b5786850135825560209485019460019092019101612b0b565b5086821015612b47575f1960f88860031b161c19848701351681555b505060018560011b0183555050505050565b5f8154612b65816129a6565b808552600182168015612b7f5760018114612b9b57612bcf565b60ff1983166020870152602082151560051b8701019350612bcf565b845f5260205f205f5b83811015612bc65781546020828a010152600182019150602081019050612ba4565b87016020019450505b50505092915050565b604081525f612bea6040830185612b59565b8281036020840152612bfc8185612b59565b95945050505050565b634e487b7160e01b5f52603260045260245ffd5b818103818111156105b5576105b56129d8565b6020808252602b908201527f496e697469616c697a61626c653a20636f6e7472616374206973206e6f74206960408201526a6e697469616c697a696e6760a81b606082015260800190565b634e487b7160e01b5f52601260045260245ffd5b5f82612ca557634e487b7160e01b5f52601260045260245ffd5b500490565b81516001600160401b03811115612cc357612cc3612a32565b612cd781612cd184546129a6565b84612a46565b6020601f821160018114612d04575f8315612cf25750848201515b612cfc8482612a91565b855550612a8a565b5f84815260208120601f198516915b82811015612d335787850151825560209485019460019092019101612d13565b5084821015612d5057868401515f19600387901b60f8161c191681555b50505050600190811b01905550565b634e487b7160e01b5f52602160045260245ffdfeddf252ad1be2c89b69c2b068fc378daa952ba7f163c4a11628f55a4df523b3efdec2bacdd2f05b59de34da9b523dff8be42e5e38e818c82fdb0bae774387a724a26469706673582212206d9bb84b10a3a63c7a333792f5a3babaf19cdf8dd3846da1b3c315f76fc7d87164736f6c634300081a0033",
    "linkReferences": {}
  },
  "methodIdentifiers": {
    "CLOCK_MODE()": "4bf5d7e9",
    "DOMAIN_SEPARATOR()": "3644e515",
    "allowance(address,address)": "dd62ed3e",
    "approve(address,uint256)": "095ea7b3",
    "balanceOf(address)": "70a08231",
    "burn(uint256)": "42966c68",
    "burnFrom(address,uint256)": "79cc6790",
    "checkpoints(address,uint32)": "f1127ed8",
    "clock()": "91ddadf4",
    "creator()": "02d05d3f",
    "crosschainBurn(address,uint256)": "2b8c49e3",
    "crosschainMint(address,uint256)": "18bf5077",
    "decimals()": "313ce567",
    "decreaseAllowance(address,uint256)": "a457c2d7",
    "delegate(address)": "5c19a95c",
    "delegateBySig(address,uint256,uint256,uint8,bytes32,bytes32)": "c3cda520",
    "delegates(address)": "587cde1e",
    "eip712Domain()": "84b0196e",
    "flaunch()": "87211ceb",
    "getPastTotalSupply(uint256)": "8e539e8c",
    "getPastVotes(address,uint256)": "3a46b1a8",
    "getVotes(address)": "9ab24eb0",
    "increaseAllowance(address,uint256)": "39509351",
    "initialize(string,string,string)": "a6487c53",
    "mint(address,uint256)": "40c10f19",
    "name()": "06fdde03",
    "nonces(address)": "7ecebe00",
    "numCheckpoints(address)": "6fcfff45",
    "permit(address,address,uint256,uint256,uint8,bytes32,bytes32)": "d505accf",
    "setMetadata(string,string)": "51335b50",
    "supportsInterface(bytes4)": "01ffc9a7",
    "symbol()": "95d89b41",
    "tokenURI()": "3c130d90",
    "totalSupply()": "18160ddd",
    "transfer(address,uint256)": "a9059cbb",
    "transferFrom(address,address,uint256)": "23b872dd",
    "treasury()": "61d027b3",
    "version()": "54fd4d50"
  },
  "id": 165
}