{"abi":[{"type":"constructor","inputs":[{"name":"_manager","type":"address","internalType":"contract IPoolManager"},{"name":"_positionManager","type":"address","internalType":"contract PositionManager"}],"stateMutability":"nonpayable"},{"type":"function","name":"manager","inputs":[],"outputs":[{"name":"","type":"address","internalType":"contract IPoolManager"}],"stateMutability":"view"},{"type":"function","name":"positionManager","inputs":[],"outputs":[{"name":"","type":"address","internalType":"contract PositionManager"}],"stateMutability":"view"},{"type":"function","name":"swap","inputs":[{"name":"_key","type":"tuple","internalType":"struct PoolKey","components":[{"name":"currency0","type":"address","internalType":"Currency"},{"name":"currency1","type":"address","internalType":"Currency"},{"name":"fee","type":"uint24","internalType":"uint24"},{"name":"tickSpacing","type":"int24","internalType":"int24"},{"name":"hooks","type":"address","internalType":"contract IHooks"}]},{"name":"_params","type":"tuple","internalType":"struct IPoolManager.SwapParams","components":[{"name":"zeroForOne","type":"bool","internalType":"bool"},{"name":"amountSpecified","type":"int256","internalType":"int256"},{"name":"sqrtPriceLimitX96","type":"uint160","internalType":"uint160"}]}],"outputs":[{"name":"","type":"int256","internalType":"BalanceDelta"}],"stateMutability":"payable"},{"type":"function","name":"swap","inputs":[{"name":"_key","type":"tuple","internalType":"struct PoolKey","components":[{"name":"currency0","type":"address","internalType":"Currency"},{"name":"currency1","type":"address","internalType":"Currency"},{"name":"fee","type":"uint24","internalType":"uint24"},{"name":"tickSpacing","type":"int24","internalType":"int24"},{"name":"hooks","type":"address","internalType":"contract IHooks"}]},{"name":"_params","type":"tuple","internalType":"struct IPoolManager.SwapParams","components":[{"name":"zeroForOne","type":"bool","internalType":"bool"},{"name":"amountSpecified","type":"int256","internalType":"int256"},{"name":"sqrtPriceLimitX96","type":"uint160","internalType":"uint160"}]},{"name":"_hookData","type":"bytes","internalType":"bytes"}],"outputs":[{"name":"delta_","type":"int256","internalType":"BalanceDelta"}],"stateMutability":"payable"},{"type":"function","name":"swap","inputs":[{"name":"_key","type":"tuple","internalType":"struct PoolKey","components":[{"name":"currency0","type":"address","internalType":"Currency"},{"name":"currency1","type":"address","internalType":"Currency"},{"name":"fee","type":"uint24","internalType":"uint24"},{"name":"tickSpacing","type":"int24","internalType":"int24"},{"name":"hooks","type":"address","internalType":"contract IHooks"}]},{"name":"_params","type":"tuple","internalType":"struct IPoolManager.SwapParams","components":[{"name":"zeroForOne","type":"bool","internalType":"bool"},{"name":"amountSpecified","type":"int256","internalType":"int256"},{"name":"sqrtPriceLimitX96","type":"uint160","internalType":"uint160"}]},{"name":"_referrer","type":"address","internalType":"address"}],"outputs":[{"name":"delta_","type":"int256","internalType":"BalanceDelta"}],"stateMutability":"payable"},{"type":"function","name":"unlockCallback","inputs":[{"name":"rawData","type":"bytes","internalType":"bytes"}],"outputs":[{"name":"","type":"bytes","internalType":"bytes"}],"stateMutability":"nonpayable"}],"bytecode":{"object":"0x60c060405234801561000f575f80fd5b50604051611ceb380380611ceb83398101604081905261002e9161005c565b6001600160a01b039182166080521660a052610094565b6001600160a01b0381168114610059575f80fd5b50565b5f806040838503121561006d575f80fd5b825161007881610045565b602084015190925061008981610045565b809150509250929050565b60805160a051611bb36101385f395f818160cf01528181610258015281816102c601526103cb01525f8181608f01528181610163015281816101b2015281816101ec0152818161057e015281816105c6015281816106950152818161074801528181610782015281816108ed01528181610b1f01528181610c3a01528181610c8b01528181610cf001528181610d3b01528181610d920152610e840152611bb35ff3fe608060405260043610610054575f3560e01c80631e2817de14610058578063481c6a751461007e578063791b98bc146100be57806391dd7346146100f1578063f3cd914c1461011d578063f8fff19114610130575b5f80fd5b61006b6100663660046114d7565b610143565b6040519081526020015b60405180910390f35b348015610089575f80fd5b506100b17f000000000000000000000000000000000000000000000000000000000000000081565b604051610075919061150b565b3480156100c9575f80fd5b506100b17f000000000000000000000000000000000000000000000000000000000000000081565b3480156100fc575f80fd5b5061011061010b36600461151f565b610156565b60405161007591906115b9565b61006b61012b366004611643565b610d8f565b61006b61013e3660046116a0565b610e81565b5f61014f83835f610e81565b9392505050565b6060336001600160a01b037f0000000000000000000000000000000000000000000000000000000000000000161461018c575f80fd5b5f610199838501856116e8565b6020810151519091505f906101da906001600160a01b037f000000000000000000000000000000000000000000000000000000000000000016903090610f37565b90505f610223308460200151602001517f00000000000000000000000000000000000000000000000000000000000000006001600160a01b0316610f379092919063ffffffff16565b90505f610235846020015160a0902090565b604051630be8e92360e11b8152600481018290529091505f906001600160a01b037f000000000000000000000000000000000000000000000000000000000000000016906317d1d24690602401602060405180830381865afa15801561029d573d5f803e3d5ffd5b505050506040513d601f19601f820116820180604052508101906102c1919061178b565b90505f7f00000000000000000000000000000000000000000000000000000000000000006001600160a01b03166394e1cf966040518163ffffffff1660e01b8152600401602060405180830381865afa158015610320573d5f803e3d5ffd5b505050506040513d601f19601f8201168201806040525081019061034491906117a2565b6001600160a01b031663e4f203f6846040518263ffffffff1660e01b815260040161037191815260200190565b60c060405180830381865afa15801561038c573d5f803e3d5ffd5b505050506040513d601f19601f820116820180604052508101906103b091906117bd565b90505f8160a001511580156104b55750821515806104b557507f00000000000000000000000000000000000000000000000000000000000000006001600160a01b03166394e1cf966040518163ffffffff1660e01b8152600401602060405180830381865afa158015610425573d5f803e3d5ffd5b505050506040513d601f19601f8201168201806040525081019061044991906117a2565b6001600160a01b0316631cc8fb00856040518263ffffffff1660e01b815260040161047691815260200190565b602060405180830381865afa158015610491573d5f803e3d5ffd5b505050506040513d601f19601f820116820180604052508101906104b59190611843565b905080156105f1576040870151515f906104d7578760200151602001516104de565b6020880151515b8851604051636eb1769f60e11b81526001600160a01b03918216600482015230602482015291925082915f9183169063dd62ed3e906044016020604051808303815f875af1158015610532573d5f803e3d5ffd5b505050506040513d601f19601f82011682018060405250810190610556919061178b565b60408b015151909150156105aa57895160208b0151516105a5916001600160a01b03909116907f000000000000000000000000000000000000000000000000000000000000000090845f610fce565b6105ed565b89516020808c015101516105ed916001600160a01b03909116907f000000000000000000000000000000000000000000000000000000000000000090845f610fce565b5050505b85156106445760405162461bcd60e51b815260206004820152601e60248201527f64656c74614265666f726530206973206e6f7420657175616c20746f2030000060448201526064015b60405180910390fd5b84156106925760405162461bcd60e51b815260206004820152601e60248201527f64656c74614265666f726531206973206e6f7420657175616c20746f20300000604482015260640161063b565b5f7f00000000000000000000000000000000000000000000000000000000000000006001600160a01b031663f3cd914c89602001518a604001518b606001516040518463ffffffff1660e01b81526004016106ef939291906118c5565b6020604051808303815f875af115801561070b573d5f803e3d5ffd5b505050506040513d601f19601f8201168201806040525081019061072f919061178b565b6020890151519091505f90610770906001600160a01b037f000000000000000000000000000000000000000000000000000000000000000016903090610f37565b90505f6107b9308b60200151602001517f00000000000000000000000000000000000000000000000000000000000000006001600160a01b0316610f379092919063ffffffff16565b60408b015151909150156109fc575f8a604001516020015112156108c25789604001516020015182121561083f5760405162461bcd60e51b815260206004820152604760248201525f80516020611b1e83398151915260448201525f80516020611b3e8339815191526064820152661958da599a595960ca1b608482015260a40161063b565b8161084a8460801d90565b600f0b1461086a5760405162461bcd60e51b815260040161063b906118f4565b5f8112156108bd5760405162461bcd60e51b815260206004820152602d60248201525f80516020611afe83398151915260448201526c06f7220657175616c20746f203609c1b606482015260840161063b565b610c2a565b8380156108ce57505f82135b1561091857895160208b015151610914916001600160a01b03909116907f000000000000000000000000000000000000000000000000000000000000000090855f611279565b5f91505b5f82131561096b5760405162461bcd60e51b815260206004820152602d60248201525f80516020611ade83398151915260448201526c657175616c20746f207a65726f60981b606482015260840161063b565b8061097684600f0b90565b600f0b146109965760405162461bcd60e51b815260040161063b9061193f565b8960400151602001518113156108bd5760405162461bcd60e51b8152602060048201526044602482018190525f80516020611b5e833981519152908201525f80516020611abe833981519152606482015263199a595960e21b608482015260a40161063b565b5f8a60400151602001511215610af257896040015160200151811215610a745760405162461bcd60e51b815260206004820152604760248201525f80516020611afe83398151915260448201525f80516020611b3e8339815191526064820152661958da599a595960ca1b608482015260a40161063b565b80610a7f84600f0b90565b600f0b14610a9f5760405162461bcd60e51b815260040161063b9061193f565b5f8212156108bd5760405162461bcd60e51b815260206004820152602d60248201525f80516020611b1e83398151915260448201526c06f7220657175616c20746f203609c1b606482015260840161063b565b838015610afe57505f81135b15610b495789516020808c01510151610b46916001600160a01b03909116907f000000000000000000000000000000000000000000000000000000000000000090845f611279565b505f5b5f811315610b995760405162461bcd60e51b815260206004820152602a60248201525f80516020611b5e8339815191526044820152690657175616c20746f20360b41b606482015260840161063b565b81610ba48460801d90565b600f0b14610bc45760405162461bcd60e51b815260040161063b906118f4565b896040015160200151821315610c2a5760405162461bcd60e51b8152602060048201526044602482018190525f80516020611ade833981519152908201525f80516020611abe833981519152606482015263199a595960e21b608482015260a40161063b565b5f821215610c7b578951610c7b907f000000000000000000000000000000000000000000000000000000000000000090610c638561198a565b60208e0151516001600160a01b03169291905f610fce565b5f811215610cce578951610cce907f000000000000000000000000000000000000000000000000000000000000000090610cb48461198a565b6020808f015101516001600160a01b03169291905f610fce565b5f821315610d1757895160208b015151610d17916001600160a01b03909116907f000000000000000000000000000000000000000000000000000000000000000090855f611279565b5f811315610d625789516020808c01510151610d62916001600160a01b03909116907f000000000000000000000000000000000000000000000000000000000000000090845f611279565b6040805160208101859052016040516020818303038152906040529a505050505050505050505092915050565b5f7f00000000000000000000000000000000000000000000000000000000000000006001600160a01b03166348c894916040518060800160405280336001600160a01b0316815260200187815260200186815260200185815250604051602001610df991906119b0565b6040516020818303038152906040526040518263ffffffff1660e01b8152600401610e2491906115b9565b5f604051808303815f875af1158015610e3f573d5f803e3d5ffd5b505050506040513d5f823e601f3d908101601f19168201604052610e669190810190611a04565b806020019051810190610e79919061178b565b949350505050565b5f7f00000000000000000000000000000000000000000000000000000000000000006001600160a01b03166348c894916040518060800160405280336001600160a01b031681526020018781526020018681526020015f6001600160a01b0316866001600160a01b031614610f155785604051602001610f01919061150b565b604051602081830303815290604052610f25565b60405180602001604052805f8152505b9052604051610df991906020016119b0565b5f806001600160a01b0384165f526001600160a01b03831660205260405f209050846001600160a01b031663f135baaa826040518263ffffffff1660e01b8152600401610f8691815260200190565b602060405180830381865afa158015610fa1573d5f803e3d5ffd5b505050506040513d601f19601f82011682018060405250810190610fc5919061178b565b95945050505050565b801561104757836001600160a01b031663f5298aca84610ff6886001600160a01b0316611323565b856040518463ffffffff1660e01b815260040161101593929190611a78565b5f604051808303815f87803b15801561102c575f80fd5b505af115801561103e573d5f803e3d5ffd5b50505050611272565b6001600160a01b0385166110be57836001600160a01b03166311da60b4836040518263ffffffff1660e01b815260040160206040518083038185885af1158015611093573d5f803e3d5ffd5b50505050506040513d601f19601f820116820180604052508101906110b8919061178b565b50611272565b604051632961046560e21b81526001600160a01b0385169063a5841194906110ea90889060040161150b565b5f604051808303815f87803b158015611101575f80fd5b505af1158015611113573d5f803e3d5ffd5b505050506001600160a01b038316301461119d576040516323b872dd60e01b81526001600160a01b038616906323b872dd9061115790869088908790600401611a99565b6020604051808303815f875af1158015611173573d5f803e3d5ffd5b505050506040513d601f19601f820116820180604052508101906111979190611843565b5061120f565b60405163a9059cbb60e01b81526001600160a01b0385811660048301526024820184905286169063a9059cbb906044016020604051808303815f875af11580156111e9573d5f803e3d5ffd5b505050506040513d601f19601f8201168201806040525081019061120d9190611843565b505b836001600160a01b03166311da60b46040518163ffffffff1660e01b81526004016020604051808303815f875af115801561124c573d5f803e3d5ffd5b505050506040513d601f19601f82011682018060405250810190611270919061178b565b505b5050505050565b806112ae57604051630b0d9c0960e01b81526001600160a01b03851690630b0d9c099061101590889087908790600401611a99565b836001600160a01b031663156e29f6846112d0886001600160a01b0316611323565b856040518463ffffffff1660e01b81526004016112ef93929190611a78565b5f604051808303815f87803b158015611306575f80fd5b505af1158015611318573d5f803e3d5ffd5b505050505050505050565b6001600160a01b031690565b634e487b7160e01b5f52604160045260245ffd5b604051608081016001600160401b03811182821017156113655761136561132f565b60405290565b604051601f8201601f191681016001600160401b03811182821017156113935761139361132f565b604052919050565b6001600160a01b03811681146113af575f80fd5b50565b8060020b81146113af575f80fd5b5f60a082840312156113d0575f80fd5b60405160a081016001600160401b03811182821017156113f2576113f261132f565b60405290508082356114038161139b565b815260208301356114138161139b565b6020820152604083013562ffffff8116811461142d575f80fd5b60408201526060830135611440816113b2565b606082015260808301356114538161139b565b6080919091015292915050565b80151581146113af575f80fd5b5f6060828403121561147d575f80fd5b604051606081016001600160401b038111828210171561149f5761149f61132f565b60405290508082356114b081611460565b81526020838101359082015260408301356114ca8161139b565b6040919091015292915050565b5f8061010083850312156114e9575f80fd5b6114f384846113c0565b91506115028460a0850161146d565b90509250929050565b6001600160a01b0391909116815260200190565b5f8060208385031215611530575f80fd5b82356001600160401b03811115611545575f80fd5b8301601f81018513611555575f80fd5b80356001600160401b0381111561156a575f80fd5b85602082840101111561157b575f80fd5b6020919091019590945092505050565b5f81518084528060208401602086015e5f602082860101526020601f19601f83011685010191505092915050565b602081525f61014f602083018461158b565b5f6001600160401b038211156115e3576115e361132f565b50601f01601f191660200190565b5f82601f830112611600575f80fd5b813561161361160e826115cb565b61136b565b818152846020838601011115611627575f80fd5b816020850160208301375f918101602001919091529392505050565b5f805f6101208486031215611656575f80fd5b61166085856113c0565b925061166f8560a0860161146d565b91506101008401356001600160401b0381111561168a575f80fd5b611696868287016115f1565b9150509250925092565b5f805f61012084860312156116b3575f80fd5b6116bd85856113c0565b92506116cc8560a0860161146d565b91506101008401356116dd8161139b565b809150509250925092565b5f602082840312156116f8575f80fd5b81356001600160401b0381111561170d575f80fd5b8201610140818503121561171f575f80fd5b611727611343565b81356117328161139b565b815261174185602084016113c0565b60208201526117538560c0840161146d565b60408201526101208201356001600160401b03811115611771575f80fd5b61177d868285016115f1565b606083015250949350505050565b5f6020828403121561179b575f80fd5b5051919050565b5f602082840312156117b2575f80fd5b815161014f8161139b565b5f60c08284031280156117ce575f80fd5b5060405160c081016001600160401b03811182821017156117f1576117f161132f565b60409081528351825260208085015190830152830151611810816113b2565b6040820152606083810151908201526080808401519082015260a083015161183781611460565b60a08201529392505050565b5f60208284031215611853575f80fd5b815161014f81611460565b80516001600160a01b03908116835260208083015182169084015260408083015162ffffff169084015260608083015160020b9084015260809182015116910152565b805115158252602080820151908301526040908101516001600160a01b0316910152565b6118cf818561185e565b6118dc60a08201846118a1565b6101206101008201525f610fc561012083018461158b565b6020808252602b908201527f64656c74612e616d6f756e74302829206973206e6f7420657175616c20746f2060408201526a064656c74614166746572360ac1b606082015260800190565b6020808252602b908201527f64656c74612e616d6f756e74312829206973206e6f7420657175616c20746f2060408201526a64656c746141667465723160a81b606082015260800190565b5f600160ff1b82016119aa57634e487b7160e01b5f52601160045260245ffd5b505f0390565b602080825282516001600160a01b0316828201528201515f906119d6604084018261185e565b5060408301516119e960e08401826118a1565b50606083015161014080840152610e7961016084018261158b565b5f60208284031215611a14575f80fd5b81516001600160401b03811115611a29575f80fd5b8201601f81018413611a39575f80fd5b8051611a4761160e826115cb565b818152856020838501011115611a5b575f80fd5b8160208401602083015e5f91810160200191909152949350505050565b6001600160a01b039390931683526020830191909152604082015260600190565b6001600160a01b03938416815291909216602082015260408101919091526060019056fe657175616c20746f20646174612e706172616d732e616d6f756e74537065636964656c7461416674657230206973206e6f74206c657373207468616e206f722064656c7461416674657231206973206e6f742067726561746572207468616e2064656c7461416674657230206973206e6f742067726561746572207468616e206f7220657175616c20746f20646174612e706172616d732e616d6f756e74537064656c7461416674657231206973206e6f74206c657373207468616e206f7220a2646970667358221220ac359293d7e9826465842843f290d6094fea2cbe3af38a975f20e4d7bfc07da564736f6c634300081a0033","linkReferences":{}},"methodIdentifiers":{"manager()":"481c6a75","positionManager()":"791b98bc","swap((address,address,uint24,int24,address),(bool,int256,uint160))":"1e2817de","swap((address,address,uint24,int24,address),(bool,int256,uint160),address)":"f8fff191","swap((address,address,uint24,int24,address),(bool,int256,uint160),bytes)":"f3cd914c","unlockCallback(bytes)":"91dd7346"},"id":191}