{
  "abi": [
    {
      "type": "constructor",
      "inputs": [
        {
          "name": "params",
          "type": "tuple",
          "internalType": "struct PositionManager.ConstructorParams",
          "components": [
            {
              "name": "nativeToken",
              "type": "address",
              "internalType": "address"
            },
            {
              "name": "poolManager",
              "type": "address",
              "internalType": "contract IPoolManager"
            },
            {
              "name": "feeDistribution",
              "type": "tuple",
              "internalType": "struct FeeDistributor.FeeDistribution",
              "components": [
                {
                  "name": "swapFee",
                  "type": "uint24",
                  "internalType": "uint24"
                },
                {
                  "name": "referrer",
                  "type": "uint24",
                  "internalType": "uint24"
                },
                {
                  "name": "protocol",
                  "type": "uint24",
                  "internalType": "uint24"
                },
                {
                  "name": "active",
                  "type": "bool",
                  "internalType": "bool"
                }
              ]
            },
            {
              "name": "initialPrice",
              "type": "address",
              "internalType": "contract IInitialPrice"
            },
            {
              "name": "protocolOwner",
              "type": "address",
              "internalType": "address"
            },
            {
              "name": "protocolFeeRecipient",
              "type": "address",
              "internalType": "address"
            },
            {
              "name": "flayGovernance",
              "type": "address",
              "internalType": "address"
            },
            {
              "name": "feeEscrow",
              "type": "address",
              "internalType": "address"
            },
            {
              "name": "feeExemptions",
              "type": "address",
              "internalType": "contract FeeExemptions"
            },
            {
              "name": "actionManager",
              "type": "address",
              "internalType": "contract TreasuryActionManager"
            },
            {
              "name": "bidWall",
              "type": "address",
              "internalType": "contract BidWall"
            },
            {
              "name": "fairLaunch",
              "type": "address",
              "internalType": "contract FairLaunch"
            }
          ]
        }
      ],
      "stateMutability": "nonpayable"
    },
    {
      "type": "receive",
      "stateMutability": "payable"
    },
    {
      "type": "function",
      "name": "MAX_PROTOCOL_ALLOCATION",
      "inputs": [],
      "outputs": [
        {
          "name": "",
          "type": "uint24",
          "internalType": "uint24"
        }
      ],
      "stateMutability": "view"
    },
    {
      "type": "function",
      "name": "actionManager",
      "inputs": [],
      "outputs": [
        {
          "name": "",
          "type": "address",
          "internalType": "contract TreasuryActionManager"
        }
      ],
      "stateMutability": "view"
    },
    {
      "type": "function",
      "name": "afterAddLiquidity",
      "inputs": [
        {
          "name": "_sender",
          "type": "address",
          "internalType": "address"
        },
        {
          "name": "_key",
          "type": "tuple",
          "internalType": "struct PoolKey",
          "components": [
            {
              "name": "currency0",
              "type": "address",
              "internalType": "Currency"
            },
            {
              "name": "currency1",
              "type": "address",
              "internalType": "Currency"
            },
            {
              "name": "fee",
              "type": "uint24",
              "internalType": "uint24"
            },
            {
              "name": "tickSpacing",
              "type": "int24",
              "internalType": "int24"
            },
            {
              "name": "hooks",
              "type": "address",
              "internalType": "contract IHooks"
            }
          ]
        },
        {
          "name": "",
          "type": "tuple",
          "internalType": "struct IPoolManager.ModifyLiquidityParams",
          "components": [
            {
              "name": "tickLower",
              "type": "int24",
              "internalType": "int24"
            },
            {
              "name": "tickUpper",
              "type": "int24",
              "internalType": "int24"
            },
            {
              "name": "liquidityDelta",
              "type": "int256",
              "internalType": "int256"
            },
            {
              "name": "salt",
              "type": "bytes32",
              "internalType": "bytes32"
            }
          ]
        },
        {
          "name": "_delta",
          "type": "int256",
          "internalType": "BalanceDelta"
        },
        {
          "name": "_feesAccrued",
          "type": "int256",
          "internalType": "BalanceDelta"
        },
        {
          "name": "",
          "type": "bytes",
          "internalType": "bytes"
        }
      ],
      "outputs": [
        {
          "name": "selector_",
          "type": "bytes4",
          "internalType": "bytes4"
        },
        {
          "name": "",
          "type": "int256",
          "internalType": "BalanceDelta"
        }
      ],
      "stateMutability": "nonpayable"
    },
    {
      "type": "function",
      "name": "afterDonate",
      "inputs": [
        {
          "name": "_sender",
          "type": "address",
          "internalType": "address"
        },
        {
          "name": "_key",
          "type": "tuple",
          "internalType": "struct PoolKey",
          "components": [
            {
              "name": "currency0",
              "type": "address",
              "internalType": "Currency"
            },
            {
              "name": "currency1",
              "type": "address",
              "internalType": "Currency"
            },
            {
              "name": "fee",
              "type": "uint24",
              "internalType": "uint24"
            },
            {
              "name": "tickSpacing",
              "type": "int24",
              "internalType": "int24"
            },
            {
              "name": "hooks",
              "type": "address",
              "internalType": "contract IHooks"
            }
          ]
        },
        {
          "name": "_amount0",
          "type": "uint256",
          "internalType": "uint256"
        },
        {
          "name": "_amount1",
          "type": "uint256",
          "internalType": "uint256"
        },
        {
          "name": "",
          "type": "bytes",
          "internalType": "bytes"
        }
      ],
      "outputs": [
        {
          "name": "selector_",
          "type": "bytes4",
          "internalType": "bytes4"
        }
      ],
      "stateMutability": "nonpayable"
    },
    {
      "type": "function",
      "name": "afterInitialize",
      "inputs": [
        {
          "name": "",
          "type": "address",
          "internalType": "address"
        },
        {
          "name": "",
          "type": "tuple",
          "internalType": "struct PoolKey",
          "components": [
            {
              "name": "currency0",
              "type": "address",
              "internalType": "Currency"
            },
            {
              "name": "currency1",
              "type": "address",
              "internalType": "Currency"
            },
            {
              "name": "fee",
              "type": "uint24",
              "internalType": "uint24"
            },
            {
              "name": "tickSpacing",
              "type": "int24",
              "internalType": "int24"
            },
            {
              "name": "hooks",
              "type": "address",
              "internalType": "contract IHooks"
            }
          ]
        },
        {
          "name": "",
          "type": "uint160",
          "internalType": "uint160"
        },
        {
          "name": "",
          "type": "int24",
          "internalType": "int24"
        }
      ],
      "outputs": [
        {
          "name": "",
          "type": "bytes4",
          "internalType": "bytes4"
        }
      ],
      "stateMutability": "nonpayable"
    },
    {
      "type": "function",
      "name": "afterRemoveLiquidity",
      "inputs": [
        {
          "name": "_sender",
          "type": "address",
          "internalType": "address"
        },
        {
          "name": "_key",
          "type": "tuple",
          "internalType": "struct PoolKey",
          "components": [
            {
              "name": "currency0",
              "type": "address",
              "internalType": "Currency"
            },
            {
              "name": "currency1",
              "type": "address",
              "internalType": "Currency"
            },
            {
              "name": "fee",
              "type": "uint24",
              "internalType": "uint24"
            },
            {
              "name": "tickSpacing",
              "type": "int24",
              "internalType": "int24"
            },
            {
              "name": "hooks",
              "type": "address",
              "internalType": "contract IHooks"
            }
          ]
        },
        {
          "name": "",
          "type": "tuple",
          "internalType": "struct IPoolManager.ModifyLiquidityParams",
          "components": [
            {
              "name": "tickLower",
              "type": "int24",
              "internalType": "int24"
            },
            {
              "name": "tickUpper",
              "type": "int24",
              "internalType": "int24"
            },
            {
              "name": "liquidityDelta",
              "type": "int256",
              "internalType": "int256"
            },
            {
              "name": "salt",
              "type": "bytes32",
              "internalType": "bytes32"
            }
          ]
        },
        {
          "name": "_delta",
          "type": "int256",
          "internalType": "BalanceDelta"
        },
        {
          "name": "_feesAccrued",
          "type": "int256",
          "internalType": "BalanceDelta"
        },
        {
          "name": "",
          "type": "bytes",
          "internalType": "bytes"
        }
      ],
      "outputs": [
        {
          "name": "selector_",
          "type": "bytes4",
          "internalType": "bytes4"
        },
        {
          "name": "",
          "type": "int256",
          "internalType": "BalanceDelta"
        }
      ],
      "stateMutability": "nonpayable"
    },
    {
      "type": "function",
      "name": "afterSwap",
      "inputs": [
        {
          "name": "_sender",
          "type": "address",
          "internalType": "address"
        },
        {
          "name": "_key",
          "type": "tuple",
          "internalType": "struct PoolKey",
          "components": [
            {
              "name": "currency0",
              "type": "address",
              "internalType": "Currency"
            },
            {
              "name": "currency1",
              "type": "address",
              "internalType": "Currency"
            },
            {
              "name": "fee",
              "type": "uint24",
              "internalType": "uint24"
            },
            {
              "name": "tickSpacing",
              "type": "int24",
              "internalType": "int24"
            },
            {
              "name": "hooks",
              "type": "address",
              "internalType": "contract IHooks"
            }
          ]
        },
        {
          "name": "_params",
          "type": "tuple",
          "internalType": "struct IPoolManager.SwapParams",
          "components": [
            {
              "name": "zeroForOne",
              "type": "bool",
              "internalType": "bool"
            },
            {
              "name": "amountSpecified",
              "type": "int256",
              "internalType": "int256"
            },
            {
              "name": "sqrtPriceLimitX96",
              "type": "uint160",
              "internalType": "uint160"
            }
          ]
        },
        {
          "name": "_delta",
          "type": "int256",
          "internalType": "BalanceDelta"
        },
        {
          "name": "_hookData",
          "type": "bytes",
          "internalType": "bytes"
        }
      ],
      "outputs": [
        {
          "name": "selector_",
          "type": "bytes4",
          "internalType": "bytes4"
        },
        {
          "name": "hookDeltaUnspecified_",
          "type": "int128",
          "internalType": "int128"
        }
      ],
      "stateMutability": "nonpayable"
    },
    {
      "type": "function",
      "name": "beforeAddLiquidity",
      "inputs": [
        {
          "name": "_sender",
          "type": "address",
          "internalType": "address"
        },
        {
          "name": "_key",
          "type": "tuple",
          "internalType": "struct PoolKey",
          "components": [
            {
              "name": "currency0",
              "type": "address",
              "internalType": "Currency"
            },
            {
              "name": "currency1",
              "type": "address",
              "internalType": "Currency"
            },
            {
              "name": "fee",
              "type": "uint24",
              "internalType": "uint24"
            },
            {
              "name": "tickSpacing",
              "type": "int24",
              "internalType": "int24"
            },
            {
              "name": "hooks",
              "type": "address",
              "internalType": "contract IHooks"
            }
          ]
        },
        {
          "name": "",
          "type": "tuple",
          "internalType": "struct IPoolManager.ModifyLiquidityParams",
          "components": [
            {
              "name": "tickLower",
              "type": "int24",
              "internalType": "int24"
            },
            {
              "name": "tickUpper",
              "type": "int24",
              "internalType": "int24"
            },
            {
              "name": "liquidityDelta",
              "type": "int256",
              "internalType": "int256"
            },
            {
              "name": "salt",
              "type": "bytes32",
              "internalType": "bytes32"
            }
          ]
        },
        {
          "name": "",
          "type": "bytes",
          "internalType": "bytes"
        }
      ],
      "outputs": [
        {
          "name": "selector_",
          "type": "bytes4",
          "internalType": "bytes4"
        }
      ],
      "stateMutability": "view"
    },
    {
      "type": "function",
      "name": "beforeDonate",
      "inputs": [
        {
          "name": "",
          "type": "address",
          "internalType": "address"
        },
        {
          "name": "",
          "type": "tuple",
          "internalType": "struct PoolKey",
          "components": [
            {
              "name": "currency0",
              "type": "address",
              "internalType": "Currency"
            },
            {
              "name": "currency1",
              "type": "address",
              "internalType": "Currency"
            },
            {
              "name": "fee",
              "type": "uint24",
              "internalType": "uint24"
            },
            {
              "name": "tickSpacing",
              "type": "int24",
              "internalType": "int24"
            },
            {
              "name": "hooks",
              "type": "address",
              "internalType": "contract IHooks"
            }
          ]
        },
        {
          "name": "",
          "type": "uint256",
          "internalType": "uint256"
        },
        {
          "name": "",
          "type": "uint256",
          "internalType": "uint256"
        },
        {
          "name": "",
          "type": "bytes",
          "internalType": "bytes"
        }
      ],
      "outputs": [
        {
          "name": "",
          "type": "bytes4",
          "internalType": "bytes4"
        }
      ],
      "stateMutability": "nonpayable"
    },
    {
      "type": "function",
      "name": "beforeInitialize",
      "inputs": [
        {
          "name": "",
          "type": "address",
          "internalType": "address"
        },
        {
          "name": "",
          "type": "tuple",
          "internalType": "struct PoolKey",
          "components": [
            {
              "name": "currency0",
              "type": "address",
              "internalType": "Currency"
            },
            {
              "name": "currency1",
              "type": "address",
              "internalType": "Currency"
            },
            {
              "name": "fee",
              "type": "uint24",
              "internalType": "uint24"
            },
            {
              "name": "tickSpacing",
              "type": "int24",
              "internalType": "int24"
            },
            {
              "name": "hooks",
              "type": "address",
              "internalType": "contract IHooks"
            }
          ]
        },
        {
          "name": "",
          "type": "uint160",
          "internalType": "uint160"
        }
      ],
      "outputs": [
        {
          "name": "",
          "type": "bytes4",
          "internalType": "bytes4"
        }
      ],
      "stateMutability": "view"
    },
    {
      "type": "function",
      "name": "beforeRemoveLiquidity",
      "inputs": [
        {
          "name": "_sender",
          "type": "address",
          "internalType": "address"
        },
        {
          "name": "_key",
          "type": "tuple",
          "internalType": "struct PoolKey",
          "components": [
            {
              "name": "currency0",
              "type": "address",
              "internalType": "Currency"
            },
            {
              "name": "currency1",
              "type": "address",
              "internalType": "Currency"
            },
            {
              "name": "fee",
              "type": "uint24",
              "internalType": "uint24"
            },
            {
              "name": "tickSpacing",
              "type": "int24",
              "internalType": "int24"
            },
            {
              "name": "hooks",
              "type": "address",
              "internalType": "contract IHooks"
            }
          ]
        },
        {
          "name": "",
          "type": "tuple",
          "internalType": "struct IPoolManager.ModifyLiquidityParams",
          "components": [
            {
              "name": "tickLower",
              "type": "int24",
              "internalType": "int24"
            },
            {
              "name": "tickUpper",
              "type": "int24",
              "internalType": "int24"
            },
            {
              "name": "liquidityDelta",
              "type": "int256",
              "internalType": "int256"
            },
            {
              "name": "salt",
              "type": "bytes32",
              "internalType": "bytes32"
            }
          ]
        },
        {
          "name": "",
          "type": "bytes",
          "internalType": "bytes"
        }
      ],
      "outputs": [
        {
          "name": "selector_",
          "type": "bytes4",
          "internalType": "bytes4"
        }
      ],
      "stateMutability": "view"
    },
    {
      "type": "function",
      "name": "beforeSwap",
      "inputs": [
        {
          "name": "_sender",
          "type": "address",
          "internalType": "address"
        },
        {
          "name": "_key",
          "type": "tuple",
          "internalType": "struct PoolKey",
          "components": [
            {
              "name": "currency0",
              "type": "address",
              "internalType": "Currency"
            },
            {
              "name": "currency1",
              "type": "address",
              "internalType": "Currency"
            },
            {
              "name": "fee",
              "type": "uint24",
              "internalType": "uint24"
            },
            {
              "name": "tickSpacing",
              "type": "int24",
              "internalType": "int24"
            },
            {
              "name": "hooks",
              "type": "address",
              "internalType": "contract IHooks"
            }
          ]
        },
        {
          "name": "_params",
          "type": "tuple",
          "internalType": "struct IPoolManager.SwapParams",
          "components": [
            {
              "name": "zeroForOne",
              "type": "bool",
              "internalType": "bool"
            },
            {
              "name": "amountSpecified",
              "type": "int256",
              "internalType": "int256"
            },
            {
              "name": "sqrtPriceLimitX96",
              "type": "uint160",
              "internalType": "uint160"
            }
          ]
        },
        {
          "name": "_hookData",
          "type": "bytes",
          "internalType": "bytes"
        }
      ],
      "outputs": [
        {
          "name": "selector_",
          "type": "bytes4",
          "internalType": "bytes4"
        },
        {
          "name": "beforeSwapDelta_",
          "type": "int256",
          "internalType": "BeforeSwapDelta"
        },
        {
          "name": "",
          "type": "uint24",
          "internalType": "uint24"
        }
      ],
      "stateMutability": "nonpayable"
    },
    {
      "type": "function",
      "name": "bidWall",
      "inputs": [],
      "outputs": [
        {
          "name": "",
          "type": "address",
          "internalType": "contract BidWall"
        }
      ],
      "stateMutability": "view"
    },
    {
      "type": "function",
      "name": "cancelOwnershipHandover",
      "inputs": [],
      "outputs": [],
      "stateMutability": "payable"
    },
    {
      "type": "function",
      "name": "closeBidWall",
      "inputs": [
        {
          "name": "_key",
          "type": "tuple",
          "internalType": "struct PoolKey",
          "components": [
            {
              "name": "currency0",
              "type": "address",
              "internalType": "Currency"
            },
            {
              "name": "currency1",
              "type": "address",
              "internalType": "Currency"
            },
            {
              "name": "fee",
              "type": "uint24",
              "internalType": "uint24"
            },
            {
              "name": "tickSpacing",
              "type": "int24",
              "internalType": "int24"
            },
            {
              "name": "hooks",
              "type": "address",
              "internalType": "contract IHooks"
            }
          ]
        }
      ],
      "outputs": [],
      "stateMutability": "nonpayable"
    },
    {
      "type": "function",
      "name": "completeOwnershipHandover",
      "inputs": [
        {
          "name": "pendingOwner",
          "type": "address",
          "internalType": "address"
        }
      ],
      "outputs": [],
      "stateMutability": "payable"
    },
    {
      "type": "function",
      "name": "fairLaunch",
      "inputs": [],
      "outputs": [
        {
          "name": "",
          "type": "address",
          "internalType": "contract FairLaunch"
        }
      ],
      "stateMutability": "view"
    },
    {
      "type": "function",
      "name": "fairLaunchFeeCalculator",
      "inputs": [],
      "outputs": [
        {
          "name": "",
          "type": "address",
          "internalType": "contract IFeeCalculator"
        }
      ],
      "stateMutability": "view"
    },
    {
      "type": "function",
      "name": "feeCalculator",
      "inputs": [],
      "outputs": [
        {
          "name": "",
          "type": "address",
          "internalType": "contract IFeeCalculator"
        }
      ],
      "stateMutability": "view"
    },
    {
      "type": "function",
      "name": "feeEscrow",
      "inputs": [],
      "outputs": [
        {
          "name": "",
          "type": "address",
          "internalType": "contract FeeEscrow"
        }
      ],
      "stateMutability": "view"
    },
    {
      "type": "function",
      "name": "feeExemptions",
      "inputs": [],
      "outputs": [
        {
          "name": "",
          "type": "address",
          "internalType": "contract FeeExemptions"
        }
      ],
      "stateMutability": "view"
    },
    {
      "type": "function",
      "name": "feeSplit",
      "inputs": [
        {
          "name": "_poolId",
          "type": "bytes32",
          "internalType": "PoolId"
        },
        {
          "name": "_amount",
          "type": "uint256",
          "internalType": "uint256"
        }
      ],
      "outputs": [
        {
          "name": "bidWall_",
          "type": "uint256",
          "internalType": "uint256"
        },
        {
          "name": "creator_",
          "type": "uint256",
          "internalType": "uint256"
        },
        {
          "name": "protocol_",
          "type": "uint256",
          "internalType": "uint256"
        }
      ],
      "stateMutability": "view"
    },
    {
      "type": "function",
      "name": "flaunch",
      "inputs": [
        {
          "name": "_params",
          "type": "tuple",
          "internalType": "struct PositionManager.FlaunchParams",
          "components": [
            {
              "name": "name",
              "type": "string",
              "internalType": "string"
            },
            {
              "name": "symbol",
              "type": "string",
              "internalType": "string"
            },
            {
              "name": "tokenUri",
              "type": "string",
              "internalType": "string"
            },
            {
              "name": "initialTokenFairLaunch",
              "type": "uint256",
              "internalType": "uint256"
            },
            {
              "name": "fairLaunchDuration",
              "type": "uint256",
              "internalType": "uint256"
            },
            {
              "name": "premineAmount",
              "type": "uint256",
              "internalType": "uint256"
            },
            {
              "name": "creator",
              "type": "address",
              "internalType": "address"
            },
            {
              "name": "creatorFeeAllocation",
              "type": "uint24",
              "internalType": "uint24"
            },
            {
              "name": "flaunchAt",
              "type": "uint256",
              "internalType": "uint256"
            },
            {
              "name": "initialPriceParams",
              "type": "bytes",
              "internalType": "bytes"
            },
            {
              "name": "feeCalculatorParams",
              "type": "bytes",
              "internalType": "bytes"
            },
            {
              "name": "creatorVestingParams",
              "type": "bytes",
              "internalType": "bytes"
            }
          ]
        }
      ],
      "outputs": [
        {
          "name": "memecoin_",
          "type": "address",
          "internalType": "address"
        }
      ],
      "stateMutability": "payable"
    },
    {
      "type": "function",
      "name": "flaunchContract",
      "inputs": [],
      "outputs": [
        {
          "name": "",
          "type": "address",
          "internalType": "contract IFlaunch"
        }
      ],
      "stateMutability": "view"
    },
    {
      "type": "function",
      "name": "flaunchesAt",
      "inputs": [
        {
          "name": "_poolId",
          "type": "bytes32",
          "internalType": "PoolId"
        }
      ],
      "outputs": [
        {
          "name": "_flaunchTime",
          "type": "uint256",
          "internalType": "uint256"
        }
      ],
      "stateMutability": "view"
    },
    {
      "type": "function",
      "name": "flayGovernance",
      "inputs": [],
      "outputs": [
        {
          "name": "",
          "type": "address",
          "internalType": "address"
        }
      ],
      "stateMutability": "view"
    },
    {
      "type": "function",
      "name": "getFeeCalculator",
      "inputs": [
        {
          "name": "_isFairLaunch",
          "type": "bool",
          "internalType": "bool"
        }
      ],
      "outputs": [
        {
          "name": "",
          "type": "address",
          "internalType": "contract IFeeCalculator"
        }
      ],
      "stateMutability": "view"
    },
    {
      "type": "function",
      "name": "getFlaunchingFee",
      "inputs": [
        {
          "name": "_initialPriceParams",
          "type": "bytes",
          "internalType": "bytes"
        }
      ],
      "outputs": [
        {
          "name": "",
          "type": "uint256",
          "internalType": "uint256"
        }
      ],
      "stateMutability": "view"
    },
    {
      "type": "function",
      "name": "getFlaunchingMarketCap",
      "inputs": [
        {
          "name": "_initialPriceParams",
          "type": "bytes",
          "internalType": "bytes"
        }
      ],
      "outputs": [
        {
          "name": "",
          "type": "uint256",
          "internalType": "uint256"
        }
      ],
      "stateMutability": "view"
    },
    {
      "type": "function",
      "name": "getHookPermissions",
      "inputs": [],
      "outputs": [
        {
          "name": "",
          "type": "tuple",
          "internalType": "struct Hooks.Permissions",
          "components": [
            {
              "name": "beforeInitialize",
              "type": "bool",
              "internalType": "bool"
            },
            {
              "name": "afterInitialize",
              "type": "bool",
              "internalType": "bool"
            },
            {
              "name": "beforeAddLiquidity",
              "type": "bool",
              "internalType": "bool"
            },
            {
              "name": "afterAddLiquidity",
              "type": "bool",
              "internalType": "bool"
            },
            {
              "name": "beforeRemoveLiquidity",
              "type": "bool",
              "internalType": "bool"
            },
            {
              "name": "afterRemoveLiquidity",
              "type": "bool",
              "internalType": "bool"
            },
            {
              "name": "beforeSwap",
              "type": "bool",
              "internalType": "bool"
            },
            {
              "name": "afterSwap",
              "type": "bool",
              "internalType": "bool"
            },
            {
              "name": "beforeDonate",
              "type": "bool",
              "internalType": "bool"
            },
            {
              "name": "afterDonate",
              "type": "bool",
              "internalType": "bool"
            },
            {
              "name": "beforeSwapReturnDelta",
              "type": "bool",
              "internalType": "bool"
            },
            {
              "name": "afterSwapReturnDelta",
              "type": "bool",
              "internalType": "bool"
            },
            {
              "name": "afterAddLiquidityReturnDelta",
              "type": "bool",
              "internalType": "bool"
            },
            {
              "name": "afterRemoveLiquidityReturnDelta",
              "type": "bool",
              "internalType": "bool"
            }
          ]
        }
      ],
      "stateMutability": "pure"
    },
    {
      "type": "function",
      "name": "getPoolFeeDistribution",
      "inputs": [
        {
          "name": "_poolId",
          "type": "bytes32",
          "internalType": "PoolId"
        }
      ],
      "outputs": [
        {
          "name": "feeDistribution_",
          "type": "tuple",
          "internalType": "struct FeeDistributor.FeeDistribution",
          "components": [
            {
              "name": "swapFee",
              "type": "uint24",
              "internalType": "uint24"
            },
            {
              "name": "referrer",
              "type": "uint24",
              "internalType": "uint24"
            },
            {
              "name": "protocol",
              "type": "uint24",
              "internalType": "uint24"
            },
            {
              "name": "active",
              "type": "bool",
              "internalType": "bool"
            }
          ]
        }
      ],
      "stateMutability": "view"
    },
    {
      "type": "function",
      "name": "initialPrice",
      "inputs": [],
      "outputs": [
        {
          "name": "",
          "type": "address",
          "internalType": "contract IInitialPrice"
        }
      ],
      "stateMutability": "view"
    },
    {
      "type": "function",
      "name": "nativeToken",
      "inputs": [],
      "outputs": [
        {
          "name": "",
          "type": "address",
          "internalType": "address"
        }
      ],
      "stateMutability": "view"
    },
    {
      "type": "function",
      "name": "notifier",
      "inputs": [],
      "outputs": [
        {
          "name": "",
          "type": "address",
          "internalType": "contract Notifier"
        }
      ],
      "stateMutability": "view"
    },
    {
      "type": "function",
      "name": "owner",
      "inputs": [],
      "outputs": [
        {
          "name": "result",
          "type": "address",
          "internalType": "address"
        }
      ],
      "stateMutability": "view"
    },
    {
      "type": "function",
      "name": "ownershipHandoverExpiresAt",
      "inputs": [
        {
          "name": "pendingOwner",
          "type": "address",
          "internalType": "address"
        }
      ],
      "outputs": [
        {
          "name": "result",
          "type": "uint256",
          "internalType": "uint256"
        }
      ],
      "stateMutability": "view"
    },
    {
      "type": "function",
      "name": "poolFees",
      "inputs": [
        {
          "name": "_poolKey",
          "type": "tuple",
          "internalType": "struct PoolKey",
          "components": [
            {
              "name": "currency0",
              "type": "address",
              "internalType": "Currency"
            },
            {
              "name": "currency1",
              "type": "address",
              "internalType": "Currency"
            },
            {
              "name": "fee",
              "type": "uint24",
              "internalType": "uint24"
            },
            {
              "name": "tickSpacing",
              "type": "int24",
              "internalType": "int24"
            },
            {
              "name": "hooks",
              "type": "address",
              "internalType": "contract IHooks"
            }
          ]
        }
      ],
      "outputs": [
        {
          "name": "",
          "type": "tuple",
          "internalType": "struct InternalSwapPool.ClaimableFees",
          "components": [
            {
              "name": "amount0",
              "type": "uint256",
              "internalType": "uint256"
            },
            {
              "name": "amount1",
              "type": "uint256",
              "internalType": "uint256"
            }
          ]
        }
      ],
      "stateMutability": "view"
    },
    {
      "type": "function",
      "name": "poolKey",
      "inputs": [
        {
          "name": "_token",
          "type": "address",
          "internalType": "address"
        }
      ],
      "outputs": [
        {
          "name": "",
          "type": "tuple",
          "internalType": "struct PoolKey",
          "components": [
            {
              "name": "currency0",
              "type": "address",
              "internalType": "Currency"
            },
            {
              "name": "currency1",
              "type": "address",
              "internalType": "Currency"
            },
            {
              "name": "fee",
              "type": "uint24",
              "internalType": "uint24"
            },
            {
              "name": "tickSpacing",
              "type": "int24",
              "internalType": "int24"
            },
            {
              "name": "hooks",
              "type": "address",
              "internalType": "contract IHooks"
            }
          ]
        }
      ],
      "stateMutability": "view"
    },
    {
      "type": "function",
      "name": "poolManager",
      "inputs": [],
      "outputs": [
        {
          "name": "",
          "type": "address",
          "internalType": "contract IPoolManager"
        }
      ],
      "stateMutability": "view"
    },
    {
      "type": "function",
      "name": "referralEscrow",
      "inputs": [],
      "outputs": [
        {
          "name": "",
          "type": "address",
          "internalType": "contract ReferralEscrow"
        }
      ],
      "stateMutability": "view"
    },
    {
      "type": "function",
      "name": "renounceOwnership",
      "inputs": [],
      "outputs": [],
      "stateMutability": "payable"
    },
    {
      "type": "function",
      "name": "requestOwnershipHandover",
      "inputs": [],
      "outputs": [],
      "stateMutability": "payable"
    },
    {
      "type": "function",
      "name": "setFairLaunchFeeCalculator",
      "inputs": [
        {
          "name": "_feeCalculator",
          "type": "address",
          "internalType": "contract IFeeCalculator"
        }
      ],
      "outputs": [],
      "stateMutability": "nonpayable"
    },
    {
      "type": "function",
      "name": "setFeeCalculator",
      "inputs": [
        {
          "name": "_feeCalculator",
          "type": "address",
          "internalType": "contract IFeeCalculator"
        }
      ],
      "outputs": [],
      "stateMutability": "nonpayable"
    },
    {
      "type": "function",
      "name": "setFeeDistribution",
      "inputs": [
        {
          "name": "_feeDistribution",
          "type": "tuple",
          "internalType": "struct FeeDistributor.FeeDistribution",
          "components": [
            {
              "name": "swapFee",
              "type": "uint24",
              "internalType": "uint24"
            },
            {
              "name": "referrer",
              "type": "uint24",
              "internalType": "uint24"
            },
            {
              "name": "protocol",
              "type": "uint24",
              "internalType": "uint24"
            },
            {
              "name": "active",
              "type": "bool",
              "internalType": "bool"
            }
          ]
        }
      ],
      "outputs": [],
      "stateMutability": "nonpayable"
    },
    {
      "type": "function",
      "name": "setFlaunch",
      "inputs": [
        {
          "name": "_flaunchContract",
          "type": "address",
          "internalType": "address"
        }
      ],
      "outputs": [],
      "stateMutability": "nonpayable"
    },
    {
      "type": "function",
      "name": "setInitialPrice",
      "inputs": [
        {
          "name": "_initialPrice",
          "type": "address",
          "internalType": "address"
        }
      ],
      "outputs": [],
      "stateMutability": "nonpayable"
    },
    {
      "type": "function",
      "name": "setPoolFeeDistribution",
      "inputs": [
        {
          "name": "_poolId",
          "type": "bytes32",
          "internalType": "PoolId"
        },
        {
          "name": "_feeDistribution",
          "type": "tuple",
          "internalType": "struct FeeDistributor.FeeDistribution",
          "components": [
            {
              "name": "swapFee",
              "type": "uint24",
              "internalType": "uint24"
            },
            {
              "name": "referrer",
              "type": "uint24",
              "internalType": "uint24"
            },
            {
              "name": "protocol",
              "type": "uint24",
              "internalType": "uint24"
            },
            {
              "name": "active",
              "type": "bool",
              "internalType": "bool"
            }
          ]
        }
      ],
      "outputs": [],
      "stateMutability": "nonpayable"
    },
    {
      "type": "function",
      "name": "setProtocolFeeDistribution",
      "inputs": [
        {
          "name": "_protocol",
          "type": "uint24",
          "internalType": "uint24"
        }
      ],
      "outputs": [],
      "stateMutability": "nonpayable"
    },
    {
      "type": "function",
      "name": "setReferralEscrow",
      "inputs": [
        {
          "name": "_referralEscrow",
          "type": "address",
          "internalType": "address payable"
        }
      ],
      "outputs": [],
      "stateMutability": "nonpayable"
    },
    {
      "type": "function",
      "name": "transferOwnership",
      "inputs": [
        {
          "name": "newOwner",
          "type": "address",
          "internalType": "address"
        }
      ],
      "outputs": [],
      "stateMutability": "payable"
    },
    {
      "type": "function",
      "name": "unlockCallback",
      "inputs": [
        {
          "name": "data",
          "type": "bytes",
          "internalType": "bytes"
        }
      ],
      "outputs": [
        {
          "name": "",
          "type": "bytes",
          "internalType": "bytes"
        }
      ],
      "stateMutability": "nonpayable"
    },
    {
      "type": "event",
      "name": "CreatorFeeAllocationUpdated",
      "inputs": [
        {
          "name": "_poolId",
          "type": "bytes32",
          "indexed": true,
          "internalType": "PoolId"
        },
        {
          "name": "_allocation",
          "type": "uint24",
          "indexed": false,
          "internalType": "uint24"
        }
      ],
      "anonymous": false
    },
    {
      "type": "event",
      "name": "FairLaunchBurn",
      "inputs": [
        {
          "name": "_poolId",
          "type": "bytes32",
          "indexed": true,
          "internalType": "PoolId"
        },
        {
          "name": "_unsoldSupply",
          "type": "uint256",
          "indexed": false,
          "internalType": "uint256"
        }
      ],
      "anonymous": false
    },
    {
      "type": "event",
      "name": "FairLaunchFeeCalculatorUpdated",
      "inputs": [
        {
          "name": "_feeCalculator",
          "type": "address",
          "indexed": false,
          "internalType": "address"
        }
      ],
      "anonymous": false
    },
    {
      "type": "event",
      "name": "FeeCalculatorUpdated",
      "inputs": [
        {
          "name": "_feeCalculator",
          "type": "address",
          "indexed": false,
          "internalType": "address"
        }
      ],
      "anonymous": false
    },
    {
      "type": "event",
      "name": "FeeDistributionUpdated",
      "inputs": [
        {
          "name": "_feeDistribution",
          "type": "tuple",
          "indexed": false,
          "internalType": "struct FeeDistributor.FeeDistribution",
          "components": [
            {
              "name": "swapFee",
              "type": "uint24",
              "internalType": "uint24"
            },
            {
              "name": "referrer",
              "type": "uint24",
              "internalType": "uint24"
            },
            {
              "name": "protocol",
              "type": "uint24",
              "internalType": "uint24"
            },
            {
              "name": "active",
              "type": "bool",
              "internalType": "bool"
            }
          ]
        }
      ],
      "anonymous": false
    },
    {
      "type": "event",
      "name": "HookFee",
      "inputs": [
        {
          "name": "id",
          "type": "bytes32",
          "indexed": true,
          "internalType": "bytes32"
        },
        {
          "name": "sender",
          "type": "address",
          "indexed": true,
          "internalType": "address"
        },
        {
          "name": "feeAmount0",
          "type": "uint128",
          "indexed": false,
          "internalType": "uint128"
        },
        {
          "name": "feeAmount1",
          "type": "uint128",
          "indexed": false,
          "internalType": "uint128"
        }
      ],
      "anonymous": false
    },
    {
      "type": "event",
      "name": "HookSwap",
      "inputs": [
        {
          "name": "id",
          "type": "bytes32",
          "indexed": true,
          "internalType": "bytes32"
        },
        {
          "name": "sender",
          "type": "address",
          "indexed": true,
          "internalType": "address"
        },
        {
          "name": "amount0",
          "type": "int128",
          "indexed": false,
          "internalType": "int128"
        },
        {
          "name": "amount1",
          "type": "int128",
          "indexed": false,
          "internalType": "int128"
        },
        {
          "name": "hookLPfeeAmount0",
          "type": "uint128",
          "indexed": false,
          "internalType": "uint128"
        },
        {
          "name": "hookLPfeeAmount1",
          "type": "uint128",
          "indexed": false,
          "internalType": "uint128"
        }
      ],
      "anonymous": false
    },
    {
      "type": "event",
      "name": "InitialPriceUpdated",
      "inputs": [
        {
          "name": "_initialPrice",
          "type": "address",
          "indexed": false,
          "internalType": "address"
        }
      ],
      "anonymous": false
    },
    {
      "type": "event",
      "name": "OwnershipHandoverCanceled",
      "inputs": [
        {
          "name": "pendingOwner",
          "type": "address",
          "indexed": true,
          "internalType": "address"
        }
      ],
      "anonymous": false
    },
    {
      "type": "event",
      "name": "OwnershipHandoverRequested",
      "inputs": [
        {
          "name": "pendingOwner",
          "type": "address",
          "indexed": true,
          "internalType": "address"
        }
      ],
      "anonymous": false
    },
    {
      "type": "event",
      "name": "OwnershipTransferred",
      "inputs": [
        {
          "name": "oldOwner",
          "type": "address",
          "indexed": true,
          "internalType": "address"
        },
        {
          "name": "newOwner",
          "type": "address",
          "indexed": true,
          "internalType": "address"
        }
      ],
      "anonymous": false
    },
    {
      "type": "event",
      "name": "PoolCreated",
      "inputs": [
        {
          "name": "_poolId",
          "type": "bytes32",
          "indexed": true,
          "internalType": "PoolId"
        },
        {
          "name": "_memecoin",
          "type": "address",
          "indexed": false,
          "internalType": "address"
        },
        {
          "name": "_memecoinTreasury",
          "type": "address",
          "indexed": false,
          "internalType": "address"
        },
        {
          "name": "_tokenId",
          "type": "uint256",
          "indexed": false,
          "internalType": "uint256"
        },
        {
          "name": "_currencyFlipped",
          "type": "bool",
          "indexed": false,
          "internalType": "bool"
        },
        {
          "name": "_flaunchFee",
          "type": "uint256",
          "indexed": false,
          "internalType": "uint256"
        },
        {
          "name": "_params",
          "type": "tuple",
          "indexed": false,
          "internalType": "struct PositionManager.FlaunchParams",
          "components": [
            {
              "name": "name",
              "type": "string",
              "internalType": "string"
            },
            {
              "name": "symbol",
              "type": "string",
              "internalType": "string"
            },
            {
              "name": "tokenUri",
              "type": "string",
              "internalType": "string"
            },
            {
              "name": "initialTokenFairLaunch",
              "type": "uint256",
              "internalType": "uint256"
            },
            {
              "name": "fairLaunchDuration",
              "type": "uint256",
              "internalType": "uint256"
            },
            {
              "name": "premineAmount",
              "type": "uint256",
              "internalType": "uint256"
            },
            {
              "name": "creator",
              "type": "address",
              "internalType": "address"
            },
            {
              "name": "creatorFeeAllocation",
              "type": "uint24",
              "internalType": "uint24"
            },
            {
              "name": "flaunchAt",
              "type": "uint256",
              "internalType": "uint256"
            },
            {
              "name": "initialPriceParams",
              "type": "bytes",
              "internalType": "bytes"
            },
            {
              "name": "feeCalculatorParams",
              "type": "bytes",
              "internalType": "bytes"
            },
            {
              "name": "creatorVestingParams",
              "type": "bytes",
              "internalType": "bytes"
            }
          ]
        }
      ],
      "anonymous": false
    },
    {
      "type": "event",
      "name": "PoolFeeDistributionUpdated",
      "inputs": [
        {
          "name": "_poolId",
          "type": "bytes32",
          "indexed": true,
          "internalType": "PoolId"
        },
        {
          "name": "_feeDistribution",
          "type": "tuple",
          "indexed": false,
          "internalType": "struct FeeDistributor.FeeDistribution",
          "components": [
            {
              "name": "swapFee",
              "type": "uint24",
              "internalType": "uint24"
            },
            {
              "name": "referrer",
              "type": "uint24",
              "internalType": "uint24"
            },
            {
              "name": "protocol",
              "type": "uint24",
              "internalType": "uint24"
            },
            {
              "name": "active",
              "type": "bool",
              "internalType": "bool"
            }
          ]
        }
      ],
      "anonymous": false
    },
    {
      "type": "event",
      "name": "PoolFeesDistributed",
      "inputs": [
        {
          "name": "_poolId",
          "type": "bytes32",
          "indexed": true,
          "internalType": "PoolId"
        },
        {
          "name": "_donateAmount",
          "type": "uint256",
          "indexed": false,
          "internalType": "uint256"
        },
        {
          "name": "_creatorAmount",
          "type": "uint256",
          "indexed": false,
          "internalType": "uint256"
        },
        {
          "name": "_bidWallAmount",
          "type": "uint256",
          "indexed": false,
          "internalType": "uint256"
        },
        {
          "name": "_governanceAmount",
          "type": "uint256",
          "indexed": false,
          "internalType": "uint256"
        },
        {
          "name": "_protocolAmount",
          "type": "uint256",
          "indexed": false,
          "internalType": "uint256"
        }
      ],
      "anonymous": false
    },
    {
      "type": "event",
      "name": "PoolFeesReceived",
      "inputs": [
        {
          "name": "_poolId",
          "type": "bytes32",
          "indexed": true,
          "internalType": "PoolId"
        },
        {
          "name": "_amount0",
          "type": "uint256",
          "indexed": false,
          "internalType": "uint256"
        },
        {
          "name": "_amount1",
          "type": "uint256",
          "indexed": false,
          "internalType": "uint256"
        }
      ],
      "anonymous": false
    },
    {
      "type": "event",
      "name": "PoolFeesSwapped",
      "inputs": [
        {
          "name": "_poolId",
          "type": "bytes32",
          "indexed": true,
          "internalType": "PoolId"
        },
        {
          "name": "zeroForOne",
          "type": "bool",
          "indexed": false,
          "internalType": "bool"
        },
        {
          "name": "_amount0",
          "type": "uint256",
          "indexed": false,
          "internalType": "uint256"
        },
        {
          "name": "_amount1",
          "type": "uint256",
          "indexed": false,
          "internalType": "uint256"
        }
      ],
      "anonymous": false
    },
    {
      "type": "event",
      "name": "PoolPremine",
      "inputs": [
        {
          "name": "_poolId",
          "type": "bytes32",
          "indexed": true,
          "internalType": "PoolId"
        },
        {
          "name": "_premineAmount",
          "type": "int256",
          "indexed": false,
          "internalType": "int256"
        }
      ],
      "anonymous": false
    },
    {
      "type": "event",
      "name": "PoolScheduled",
      "inputs": [
        {
          "name": "_poolId",
          "type": "bytes32",
          "indexed": true,
          "internalType": "PoolId"
        },
        {
          "name": "_flaunchesAt",
          "type": "uint256",
          "indexed": false,
          "internalType": "uint256"
        }
      ],
      "anonymous": false
    },
    {
      "type": "event",
      "name": "PoolStateUpdated",
      "inputs": [
        {
          "name": "_poolId",
          "type": "bytes32",
          "indexed": true,
          "internalType": "PoolId"
        },
        {
          "name": "_sqrtPriceX96",
          "type": "uint160",
          "indexed": false,
          "internalType": "uint160"
        },
        {
          "name": "_tick",
          "type": "int24",
          "indexed": false,
          "internalType": "int24"
        },
        {
          "name": "_protocolFee",
          "type": "uint24",
          "indexed": false,
          "internalType": "uint24"
        },
        {
          "name": "_swapFee",
          "type": "uint24",
          "indexed": false,
          "internalType": "uint24"
        },
        {
          "name": "_liquidity",
          "type": "uint128",
          "indexed": false,
          "internalType": "uint128"
        }
      ],
      "anonymous": false
    },
    {
      "type": "event",
      "name": "PoolSwap",
      "inputs": [
        {
          "name": "poolId",
          "type": "bytes32",
          "indexed": true,
          "internalType": "PoolId"
        },
        {
          "name": "flAmount0",
          "type": "int256",
          "indexed": false,
          "internalType": "int256"
        },
        {
          "name": "flAmount1",
          "type": "int256",
          "indexed": false,
          "internalType": "int256"
        },
        {
          "name": "flFee0",
          "type": "int256",
          "indexed": false,
          "internalType": "int256"
        },
        {
          "name": "flFee1",
          "type": "int256",
          "indexed": false,
          "internalType": "int256"
        },
        {
          "name": "ispAmount0",
          "type": "int256",
          "indexed": false,
          "internalType": "int256"
        },
        {
          "name": "ispAmount1",
          "type": "int256",
          "indexed": false,
          "internalType": "int256"
        },
        {
          "name": "ispFee0",
          "type": "int256",
          "indexed": false,
          "internalType": "int256"
        },
        {
          "name": "ispFee1",
          "type": "int256",
          "indexed": false,
          "internalType": "int256"
        },
        {
          "name": "uniAmount0",
          "type": "int256",
          "indexed": false,
          "internalType": "int256"
        },
        {
          "name": "uniAmount1",
          "type": "int256",
          "indexed": false,
          "internalType": "int256"
        },
        {
          "name": "uniFee0",
          "type": "int256",
          "indexed": false,
          "internalType": "int256"
        },
        {
          "name": "uniFee1",
          "type": "int256",
          "indexed": false,
          "internalType": "int256"
        }
      ],
      "anonymous": false
    },
    {
      "type": "event",
      "name": "ReferralEscrowUpdated",
      "inputs": [
        {
          "name": "_referralEscrow",
          "type": "address",
          "indexed": false,
          "internalType": "address"
        }
      ],
      "anonymous": false
    },
    {
      "type": "event",
      "name": "ReferrerFeePaid",
      "inputs": [
        {
          "name": "_poolId",
          "type": "bytes32",
          "indexed": true,
          "internalType": "PoolId"
        },
        {
          "name": "_recipient",
          "type": "address",
          "indexed": false,
          "internalType": "address"
        },
        {
          "name": "_token",
          "type": "address",
          "indexed": false,
          "internalType": "address"
        },
        {
          "name": "_amount",
          "type": "uint256",
          "indexed": false,
          "internalType": "uint256"
        }
      ],
      "anonymous": false
    },
    {
      "type": "error",
      "name": "AlreadyInitialized",
      "inputs": []
    },
    {
      "type": "error",
      "name": "CallerIsNotBidWall",
      "inputs": []
    },
    {
      "type": "error",
      "name": "CallerNotCreator",
      "inputs": [
        {
          "name": "_caller",
          "type": "address",
          "internalType": "address"
        }
      ]
    },
    {
      "type": "error",
      "name": "CannotBeInitializedDirectly",
      "inputs": []
    },
    {
      "type": "error",
      "name": "CannotModifyLiquidityDuringFairLaunch",
      "inputs": []
    },
    {
      "type": "error",
      "name": "CannotSellTokenDuringFairLaunch",
      "inputs": []
    },
    {
      "type": "error",
      "name": "HookNotImplemented",
      "inputs": []
    },
    {
      "type": "error",
      "name": "InsufficientFlaunchFee",
      "inputs": [
        {
          "name": "_paid",
          "type": "uint256",
          "internalType": "uint256"
        },
        {
          "name": "_required",
          "type": "uint256",
          "internalType": "uint256"
        }
      ]
    },
    {
      "type": "error",
      "name": "InvalidPool",
      "inputs": []
    },
    {
      "type": "error",
      "name": "LockFailure",
      "inputs": []
    },
    {
      "type": "error",
      "name": "NewOwnerIsZeroAddress",
      "inputs": []
    },
    {
      "type": "error",
      "name": "NoHandoverRequest",
      "inputs": []
    },
    {
      "type": "error",
      "name": "NotPoolManager",
      "inputs": []
    },
    {
      "type": "error",
      "name": "NotSelf",
      "inputs": []
    },
    {
      "type": "error",
      "name": "ProtocolFeeInvalid",
      "inputs": []
    },
    {
      "type": "error",
      "name": "RecipientZeroAddress",
      "inputs": []
    },
    {
      "type": "error",
      "name": "ReferrerFeeInvalid",
      "inputs": []
    },
    {
      "type": "error",
      "name": "SwapFeeInvalid",
      "inputs": []
    },
    {
      "type": "error",
      "name": "TokenNotFlaunched",
      "inputs": [
        {
          "name": "_flaunchesAt",
          "type": "uint256",
          "internalType": "uint256"
        }
      ]
    },
    {
      "type": "error",
      "name": "Unauthorized",
      "inputs": []
    },
    {
      "type": "error",
      "name": "UnknownPool",
      "inputs": [
        {
          "name": "_poolId",
          "type": "bytes32",
          "internalType": "PoolId"
        }
      ]
    }
  ],
  "bytecode": {
    "object": "0x60a060405234801561000f575f80fd5b5060405161743738038061743783398101604081905261002e916108c3565b8051604082015160808084015160c085015160e086015160208701516001600160a01b038116909452919290919061006530610394565b50600880546001600160a01b0319166001600160a01b03871617905561008a84610487565b835160038054602087015160408089015160608a0151151569010000000000000000000260ff60481b1962ffffff9283166601000000000000021663ffffffff60301b1994831663010000000265ffffffffffff199096169290971691909117939093179190911693909317179055517fca7619d8d03127c99378decb6d4c002b5b8b8d60918ea28c2300a7811e7c1300906101629086905f60808201905062ffffff835116825262ffffff602084015116602083015262ffffff604084015116604083015260608301511515606083015292915050565b60405180910390a1600980546001600160a01b038085166001600160a01b03199283161790925560058054928416929091169190911790555f6101a8638b78c6d8195490565b6001600160a01b0316036101bf576101bf8361050f565b505050506060820151600c80546001600160a01b03199081166001600160a01b039384161790915560a0840151600d80548316918416919091179055610100840151601180548316918416919091179055610140840151600e80548316918416919091179055610160840151600f80548316918416919091179055610120840151601080549092169216919091179055506080810151604051610261906107bc565b6001600160a01b039091168152602001604051809103905ff08015801561028a573d5f803e3d5ffd5b50601280546001600160a01b0319166001600160a01b039283161790558151600e5460405163095ea7b360e01b81529183169263095ea7b3926102d692909116905f19906004016109b7565b6020604051808303815f875af11580156102f2573d5f803e3d5ffd5b505050506040513d601f19601f8201168201806040525081019061031691906109d0565b508051600f5460405163095ea7b360e01b81526001600160a01b039283169263095ea7b39261034d929116905f19906004016109b7565b6020604051808303815f875af1158015610369573d5f803e3d5ffd5b505050506040513d601f19601f8201168201806040525081019061038d91906109d0565b50506109f0565b6104848161047f604080516101c0810182525f80825260208201819052918101829052606081018290526080810182905260a0810182905260c0810182905260e08101829052610100810182905261012081018290526101408101829052610160810182905261018081018290526101a081019190915250604080516101c08101825260018082525f60208301819052928201819052606082018190526080820181905260a0820181905260c0820181905260e0820181905261010082018390526101208201819052610140820181905261016082015261018081018290526101a081019190915290565b610567565b50565b612710815f015162ffffff1611156104b25760405163520fab3d60e01b815260040160405180910390fd5b612710816020015162ffffff1611156104de57604051633626bec760e01b815260040160405180910390fd5b61271062ffffff16816040015162ffffff1611156104845760405163f37b175b60e01b815260040160405180910390fd5b638b78c6d81980541561052957630dc149f05f526004601cfd5b6001600160a01b03909116801560ff1b8117909155805f7f8be0079c531659141344cd1fd0a4f28419497f9722a3daafe3b4186f6b6457e08180a350565b61057c6001600160a01b038316612000610798565b815115159015151415806105ac57506105a06001600160a01b038316611000610798565b15158160200151151514155b806105d357506105c76001600160a01b038316610800610798565b15158160400151151514155b806105fa57506105ee6001600160a01b038316610400610798565b15158160600151151514155b8061062157506106156001600160a01b038316610200610798565b15158160800151151514155b80610648575061063c6001600160a01b038316610100610798565b15158160a00151151514155b8061066e57506106626001600160a01b0383166080610798565b15158160c00151151514155b8061069457506106886001600160a01b0383166040610798565b15158160e00151151514155b806106bb57506106ae6001600160a01b0383166020610798565b1515816101000151151514155b806106e257506106d56001600160a01b0383166010610798565b1515816101200151151514155b8061070957506106fc6001600160a01b0383166008610798565b1515816101400151151514155b8061073057506107236001600160a01b0383166004610798565b1515816101600151151514155b80610757575061074a6001600160a01b0383166002610798565b1515816101800151151514155b8061077e57506107716001600160a01b0383166001610798565b1515816101a00151151514155b1561079457610794630732d7b560e51b836107a7565b5050565b166001600160a01b0316151590565b815f526001600160a01b03811660045260245ffd5b6109d380616a6483390190565b60405161018081016001600160401b03811182821017156107f857634e487b7160e01b5f52604160045260245ffd5b60405290565b80516001600160a01b0381168114610814575f80fd5b919050565b805162ffffff81168114610814575f80fd5b80518015158114610814575f80fd5b5f6080828403121561084a575f80fd5b604051608081016001600160401b038111828210171561087857634e487b7160e01b5f52604160045260245ffd5b60405290508061088783610819565b815261089560208401610819565b60208201526108a660408401610819565b60408201526108b76060840161082b565b60608201525092915050565b5f6101e08284031280156108d5575f80fd5b506108de6107c9565b6108e7836107fe565b81526108f5602084016107fe565b6020820152610907846040850161083a565b604082015261091860c084016107fe565b606082015261092960e084016107fe565b608082015261093b61010084016107fe565b60a082015261094d61012084016107fe565b60c082015261095f61014084016107fe565b60e082015261097161016084016107fe565b61010082015261098461018084016107fe565b6101208201526109976101a084016107fe565b6101408201526109aa6101c084016107fe565b6101608201529392505050565b6001600160a01b03929092168252602082015260400190565b5f602082840312156109e0575f80fd5b6109e98261082b565b9392505050565b608051615fd0610a945f395f818161095c01528181610af401528181610c8401528181610fa80152818161152201528181611b2801528181611c9b01528181611d9401528181611edf01528181611f3d015281816120df015281816122390152818161254e0152818161265701528181612a5c01528181612acf01528181612c9401528181612cf901528181612d9d01528181612e000152612ed30152615fd05ff3fe608060405260043610610251575f3560e01c806301a2cae81461025c57806309276ea4146102915780631d0806ae146102b057806321d0ee70146102cf5780632423028c146103075780632569296214610328578063259982e51461033057806338b1e7001461034f5780633fa4d9571461036e5780634875cbb8146103815780634ed0f0f5146103bb57806354d1f13d146103da57806355d1cb60146103e2578063575e24b41461049c5780636c2bbe7e146104e65780636fe7e6eb14610525578063715018a61461054457806371c4ddb01461054c57806375d252a51461056b5780637907addf1461058a57806384aa1da0146105c35780638c66d04f146105e25780638da5cb5b146106015780638f2bdf751461061957806391dd73461461063857806394e1cf96146106645780639f063efc14610683578063a1dd2d91146106a2578063a87277dd146106c1578063ad49d66e146106e0578063b00eb9fe146106ff578063b3b427951461071e578063b47b2fb11461074a578063b6a8b0fa1461078c578063ba3e69b7146107a6578063be721505146107c5578063c29c945b146107e4578063c4b7de971461080d578063c4e833ce1461082c578063d3bff7171461092c578063dc4c90d31461094b578063dc98354e1461097e578063ddb475d51461099d578063dddfecf5146109d7578063df81740e146109f6578063e1758bd814610a15578063e1b4af6914610a34578063ec876d7114610a53578063f04e283e14610a72578063f2fde38b14610a85578063fee81cf414610a98578063ff3575e414610ac9575f80fd5b3661025857005b5f80fd5b348015610267575f80fd5b5060115461027b906001600160a01b031681565b6040516102889190614bb5565b60405180910390f35b34801561029c575f80fd5b5060125461027b906001600160a01b031681565b3480156102bb575f80fd5b50600c5461027b906001600160a01b031681565b3480156102da575f80fd5b506102ee6102e9366004614c52565b610ae8565b6040516001600160e01b03199091168152602001610288565b348015610312575f80fd5b50610326610321366004614ce3565b610b66565b005b610326610c2c565b34801561033b575f80fd5b506102ee61034a366004614c52565b610c78565b34801561035a575f80fd5b50610326610369366004614cfe565b610ce9565b61027b61037c366004614d19565b610d3c565b34801561038c575f80fd5b506103a061039b366004614d50565b61137f565b60408051938452602084019290925290820152606001610288565b3480156103c6575f80fd5b506103266103d5366004614e47565b61141f565b6103266114db565b3480156103ed575f80fd5b5061048f6103fc366004614cfe565b6040805160a0810182525f80825260208201819052918101829052606081018290526080810191909152506001600160a01b039081165f90815260026020818152604092839020835160a08101855281548616815260018201548087169382019390935262ffffff600160a01b84041694810194909452600160b81b909104820b60608401520154909116608082015290565b6040516102889190614eb5565b3480156104a7575f80fd5b506104bb6104b6366004614f2d565b611514565b604080516001600160e01b03199094168452602084019290925262ffffff1690820152606001610288565b3480156104f1575f80fd5b50610505610500366004614f86565b611d87565b604080516001600160e01b03199093168352602083019190915201610288565b348015610530575f80fd5b506102ee61053f36600461501e565b611e13565b610326611e2d565b348015610557575f80fd5b5061027b610566366004615077565b611e40565b348015610576575f80fd5b5060105461027b906001600160a01b031681565b348015610595575f80fd5b506105b56105a4366004615092565b60136020525f908152604090205481565b604051908152602001610288565b3480156105ce575f80fd5b50600b5461027b906001600160a01b031681565b3480156105ed575f80fd5b506103266105fc366004614cfe565b611e7f565b34801561060c575f80fd5b50638b78c6d8195461027b565b348015610624575f80fd5b5060045461027b906001600160a01b031681565b348015610643575f80fd5b506106576106523660046150a9565b611ed2565b6040516102889190615115565b34801561066f575f80fd5b50600f5461027b906001600160a01b031681565b34801561068e575f80fd5b5061050561069d366004614f86565b611f30565b3480156106ad575f80fd5b5060075461027b906001600160a01b031681565b3480156106cc575f80fd5b506103266106db366004614cfe565b611f9a565b3480156106eb575f80fd5b506103266106fa366004615127565b611fed565b34801561070a575f80fd5b5060065461027b906001600160a01b031681565b348015610729575f80fd5b5061073d610738366004615092565b61218f565b60405161028891906151be565b348015610755575f80fd5b506107696107643660046151fe565b61222c565b604080516001600160e01b03199093168352600f9190910b602083015201610288565b348015610797575f80fd5b506102ee61053f366004615288565b3480156107b1575f80fd5b50600e5461027b906001600160a01b031681565b3480156107d0575f80fd5b506103266107df366004614cfe565b612486565b3480156107ef575f80fd5b506107f961271081565b60405162ffffff9091168152602001610288565b348015610818575f80fd5b5060055461027b906001600160a01b031681565b348015610837575f80fd5b5061091f604080516101c0810182525f80825260208201819052918101829052606081018290526080810182905260a0810182905260c0810182905260e08101829052610100810182905261012081018290526101408101829052610160810182905261018081018290526101a081019190915250604080516101c08101825260018082525f60208301819052928201819052606082018190526080820181905260a0820181905260c0820181905260e0820181905261010082018390526101208201819052610140820181905261016082015261018081018290526101a081019190915290565b60405161028891906152e1565b348015610937575f80fd5b50610326610946366004615402565b6124b0565b348015610956575f80fd5b5061027b7f000000000000000000000000000000000000000000000000000000000000000081565b348015610989575f80fd5b506102ee61099836600461541c565b612542565b3480156109a8575f80fd5b506109bc6109b7366004615127565b6125a5565b60408051825181526020928301519281019290925201610288565b3480156109e2575f80fd5b5060095461027b906001600160a01b031681565b348015610a01575f80fd5b50610326610a10366004614cfe565b6125f8565b348015610a20575f80fd5b5060085461027b906001600160a01b031681565b348015610a3f575f80fd5b506102ee610a4e366004615288565b61264b565b348015610a5e575f80fd5b506105b5610a6d3660046150a9565b6126d3565b610326610a80366004614cfe565b612746565b610326610a93366004614cfe565b612783565b348015610aa3575f80fd5b506105b5610ab2366004614cfe565b63389a75e1600c9081525f91909152602090205490565b348015610ad4575f80fd5b506105b5610ae33660046150a9565b6127a9565b5f336001600160a01b037f00000000000000000000000000000000000000000000000000000000000000001614610b325760405163570c108560e11b815260040160405180910390fd5b610b54610b4e610b4736889003880188615127565b60a0902090565b876127db565b5063021d0ee760e41b95945050505050565b6009546001600160a01b03163314610b90576040516282b42960e81b815260040160405180910390fd5b61271062ffffff82161115610bb85760405163f37b175b60e01b815260040160405180910390fd5b6003805462ffffff8316600160301b0262ffffff60301b199091161781556040515f80516020615e7b83398151915291610c2191905462ffffff8082168352601882901c81166020840152603082901c16604083015260481c60ff161515606082015260800190565b60405180910390a150565b5f6202a3006001600160401b03164201905063389a75e1600c52335f52806020600c2055337fdbf36a107da19e49527a7176a1babf963b4b0ff8cde35ee35d6cd8f1f9ac7e1d5f80a250565b5f336001600160a01b037f00000000000000000000000000000000000000000000000000000000000000001614610cc25760405163570c108560e11b815260040160405180910390fd5b610cd7610b4e610b4736889003880188615127565b5063259982e560e01b95945050505050565b610cf1612898565b600780546001600160a01b0319166001600160a01b0383161790556040517f87043577396d39ef835a9eb69bb496c219cc61bdd6e718447add3c06b6cc084490610c21908390614bb5565b600b54604051633fa4d95760e01b81525f91829182916001600160a01b031690633fa4d95790610d709087906004016155fe565b6060604051808303815f875af1158015610d8c573d5f803e3d5ffd5b505050506040513d601f19601f82011682018060405250810190610db09190615610565b6008546040805160a081019091529396509094509092506001600160a01b038086169116108015915f918190610de65786610df3565b6008546001600160a01b03165b6001600160a01b0316815260200183610e0c5786610e19565b6008546001600160a01b03165b6001600160a01b0390811682525f6020830152603c6040808401919091523060609093018390526010546008549151632095f47360e21b815294955087831694638257d1cc94610e759490939281169216908790600401615651565b5f604051808303815f87803b158015610e8c575f80fd5b505af1158015610e9e573d5f803e3d5ffd5b505050506001600160a01b038581165f908152600260208181526040808420865181546001600160a01b0319908116918816919091178255928701516001820180549389015160608a01519289166001600160b81b031990951694909417600160a01b62ffffff958616021762ffffff60b81b1916600160b81b949092169390930217909155608086015192018054909116919093161790915560a082209050610f4f610100880160e08901614ce3565b62ffffff1615610f8e57610f6a610100880160e08901614ce3565b5f828152602081905260409020805462ffffff191662ffffff929092169190911790555b610fa581610fa06101408a018a61567f565b6128b2565b5f7f00000000000000000000000000000000000000000000000000000000000000006001600160a01b0316636276cbbe84600c5f9054906101000a90046001600160a01b03166001600160a01b031663fc87f3f633898e80610120019061100c919061567f565b6040518563ffffffff1660e01b815260040161102b94939291906156c1565b602060405180830381865afa158015611046573d5f803e3d5ffd5b505050506040513d601f19601f8201168201806040525081019061106a91906156ed565b6040518363ffffffff1660e01b8152600401611087929190615708565b6020604051808303815f875af11580156110a3573d5f803e3d5ffd5b505050506040513d601f19601f820116820180604052508101906110c7919061572e565b90505f6110db610a6d6101208b018b61567f565b9050827f572052f08e5056ccbd5743d7d5178a534e8fa8e67ac908e0f8b97147e12df9ea89888a89868f60405161111796959493929190615749565b60405180910390a260a08901351561113e575f6111378a60a001356129b6565b905080845d505b600f5460405163095ea7b360e01b81526001600160a01b038a81169263095ea7b39261117392909116905f1990600401615796565b6020604051808303815f875af115801561118f573d5f803e3d5ffd5b505050506040513d601f19601f820116820180604052508101906111b391906157af565b50600f546001600160a01b0316631b5b90138484426101008e0135116111d957426111e0565b8c61010001355b6040516001600160e01b031960e086901b168152600481019390935260029190910b6024830152604482015260608c0135606482015260808c0135608482015260a40160c0604051808303815f875af115801561123f573d5f803e3d5ffd5b505050506040513d601f19601f820116820180604052508101906112639190615854565b504289610100013511156112c9575f83815260136020526040908190206101008b013590819055905184917f0a5b59cacc8ab09e32bf89cb0477200adacf9c0237786bf21d17f44cec998107916112bc91815260200190565b60405180910390a26112da565b5f8381526013602052604090204290555b8015611325578034101561130f576040516384eca25560e01b8152346004820152602481018290526044015b60405180910390fd5b600d54611325906001600160a01b0316826129d4565b80341115611340576113403361133b8334615882565b6129d4565b61137383636fe7e6eb60e01b898c60405160200161135f929190615895565b6040516020818303038152906040526129f1565b50505050505050919050565b5f805f8061138c8661218f565b9050806040015162ffffff165f146113cf57612710816040015162ffffff16866113b691906158ad565b6113c091906158d8565b91506113cc8286615882565b94505b5f8681526020819052604090205462ffffff168015611413576127106113fa62ffffff8316886158ad565b61140491906158d8565b93506114108487615882565b95505b85945050509250925092565b611427612898565b61143081612b45565b5f8281526001602090815260409182902083518154928501518486015160608701511515600160481b0260ff60481b1962ffffff928316600160301b021663ffffffff60301b1993831663010000000265ffffffffffff1990971692909416919091179490941716179190911790555182907fe1b2af81a774e1ebee3ca7c94c1e1a0df1210b236149a2079b8bba8dbc475a28906114cf9084906151be565b60405180910390a25050565b63389a75e1600c52335f525f6020600c2055337ffa7b8eab7da67f412cc9575ed43464468f9bfbae89d1675917346ca6d8fe3c925f80a2565b5f8080336001600160a01b037f000000000000000000000000000000000000000000000000000000000000000016146115605760405163570c108560e11b815260040160405180910390fd5b5f611573610b47368a90038a018a615127565b5f81815260136020526040902054909150801561161757815c801580159061159e5750808960200151145b156115e257827fdfa452364a13ecc87d8b629926a27f0b82206c68e4126e138157c5d853c71d84826040516115d591815260200190565b60405180910390a2611615565b428211156116065760405163129b67b160e21b815260048101839052602401611306565b5f838152601360205260408120555b505b5050600f545f906001600160a01b031663e4f203f661163e610b47368c90038c018c615127565b6040518263ffffffff1660e01b815260040161165c91815260200190565b60c060405180830381865afa158015611677573d5f803e3d5ffd5b505050506040513d601f19601f8201168201806040525081019061169b9190615854565b90508060a00151611b08575f6116b460208a018a614cfe565b6008546001600160a01b0390811691161490505f6116da610b47368c90038c018c615127565b9050805c1580156117525750600f54604051621cc8fb60e81b8152600481018390526001600160a01b0390911690631cc8fb0090602401602060405180830381865afa15801561172c573d5f803e3d5ffd5b505050506040513d601f19601f8201168201806040525081019061175091906157af565b155b1561186a576080830151600f545f838152600a60205260409081902060010154905163e7ea93c760e01b81526001600160a01b039092169163e7ea93c7916117a1918f9190889060040161597b565b60c0604051808303815f875af11580156117bd573d5f803e3d5ffd5b505050506040513d601f19601f820116820180604052508101906117e19190615854565b5080156118645761182961dead82856118065761180160208f018f614cfe565b611819565b8d60200160208101906118199190614cfe565b6001600160a01b03169190612bcd565b817f69a23fc084ff191b1eed2d64f95be97bef87b127d8a3e71925d4c252ae408f658260405161185b91815260200190565b60405180910390a25b50611b05565b885115158215151461188f5760405163013fa16b60e41b815260040160405180910390fd5b600f5460208a0151604051633132604760e11b81525f926001600160a01b031691636264c08e916118c6918f91889060040161597b565b610100604051808303815f875af11580156118e3573d5f803e3d5ffd5b505050506040513d601f19601f82011682018060405250810190611907919061599f565b9197509094509050611927611921368d90038d018d615127565b82612c7b565b5f61193f8c8c8f6119388b600f0b90565b8e8e612e8f565b90506119678b5f80516020615f3b8339815191525f80516020615f5b8339815191528a61306b565b61198d8b5f80516020615e9b8339815191525f80516020615dfb833981519152846130ea565b6119ca61199a8860801d90565b6119a383613121565b6119ad8a600f0b90565b6119b791906159d4565b6001600160801b031660809190911b1790565b96505f8b60200151121580156119df57508015155b15611a5d57600f546001600160a01b031663197a866b846119ff84613121565b611a0890615a01565b6040516001600160e01b031960e085901b1681526004810192909252600f0b60248201526044015f604051808303815f87803b158015611a46575f80fd5b505af1158015611a58573d5f803e3d5ffd5b505050505b84608001515f03611b0257600f5f9054906101000a90046001600160a01b03166001600160a01b031663e7ea93c78d600a5f8781526020019081526020015f2060010154876040518463ffffffff1660e01b8152600401611ac09392919061597b565b60c0604051808303815f875af1158015611adc573d5f803e3d5ffd5b505050506040513d601f19601f82011682018060405250810190611b009190615854565b505b50505b50505b5f611b1b610b47368b90038b018b615127565b90505f815d505f80611b6c7f00000000000000000000000000000000000000000000000000000000000000008b8b611b566020830183614cfe565b6008546001600160a01b03908116911614613141565b9092509050611b7b8183615a22565b15611c7c575f808a602001511215611bb057611bab611b9984613121565b611ba284613121565b6119b790615a01565b611bce565b611bce611bbc83613121565b611bc590615a01565b6119b785613121565b90505f611be18c8c8f61193886600f0b90565b9050611c098b5f80516020615f7b8339815191525f80516020615efb8339815191528561306b565b611c2f8b5f80516020615e1b8339815191525f80516020615e3b833981519152846130ea565b611c77611c3c8360801d90565b611c468960801d90565b611c5091906159d4565b611c5983613121565b611c6385600f0b90565b611c6d8b600f0b90565b6119ad91906159d4565b965050505b611cc1611c91610b47368d90038d018d615127565b6001600160a01b037f0000000000000000000000000000000000000000000000000000000000000000169061340f565b5050600c805462ffffff60a01b1916600160a01b62ffffff9390931683021790819055600e546001600160a01b0316925063ba95e274918d910460020b611d0b6020830183614cfe565b6008546040516001600160e01b031960e087901b168152611d429493926001600160a01b0392831692169190911490600401615a35565b5f604051808303815f87803b158015611d59575f80fd5b505af1158015611d6b573d5f803e3d5ffd5b5050505063575e24b460e01b9550505050955095509592505050565b5f80336001600160a01b037f00000000000000000000000000000000000000000000000000000000000000001614611dd25760405163570c108560e11b815260040160405180910390fd5b633615df3f60e11b9150611e07611df1610b47368b90038b018b615127565b838b898960405160200161135f93929190615a5c565b97509795505050505050565b5f604051630a85dc2960e01b815260040160405180910390fd5b611e35612898565b611e3e5f6134c1565b565b5f818015611e5857506007546001600160a01b031615155b15611e6e5750506007546001600160a01b031690565b50506006546001600160a01b031690565b611e87612898565b600680546001600160a01b0319166001600160a01b0383161790556040517f3e762c7e655633ce63121393b9694f9ca1883d14d18f48f1be55e5dc7a9fb6c190610c21908390614bb5565b6060336001600160a01b037f00000000000000000000000000000000000000000000000000000000000000001614611f1d5760405163570c108560e11b815260040160405180910390fd5b611f278383613507565b90505b92915050565b5f80336001600160a01b037f00000000000000000000000000000000000000000000000000000000000000001614611f7b5760405163570c108560e11b815260040160405180910390fd5b6327c18fbf60e21b9150611e07611df1610b47368b90038b018b615127565b611fa2612898565b600480546001600160a01b0319166001600160a01b0383161790556040517f9c922de256a07b4d188faacda5c1abb2cae12f74f4370d5c2f11efb37a742d7090610c21908390614bb5565b600e546001600160a01b0316331461201857604051630632844f60e31b815260040160405180910390fd5b6008545f9060029082906120369085906001600160a01b0316613576565b6001600160a01b03908116825260208083019390935260409182015f20825160a08101845281548316815260018201548084169582019590955262ffffff600160a01b86041693810193909352600160b81b909304600290810b6060840152909201549091166080820181905290915015806120b8575060a0822060a0822014155b156120dd5760a0822060405163180b855560e01b815260040161130691815260200190565b7f00000000000000000000000000000000000000000000000000000000000000006001600160a01b03166348c894918360405160200161211d9190614eb5565b6040516020818303038152906040526040518263ffffffff1660e01b81526004016121489190615115565b5f604051808303815f875af1158015612163573d5f803e3d5ffd5b505050506040513d5f823e601f3d908101601f1916820160405261218a9190810190615a7d565b505050565b604080516080810182525f8082526020820181905291810182905260608101919091525f82815260016020526040902054600160481b900460ff166121d55760036121e3565b5f8281526001602052604090205b60408051608081018252915462ffffff80821684526301000000820481166020850152600160301b82041691830191909152600160481b900460ff161515606082015292915050565b5f80336001600160a01b037f000000000000000000000000000000000000000000000000000000000000000016146122775760405163570c108560e11b815260040160405180910390fd5b5f806122838760801d90565b61228d88600f0b90565b90925090505f6122a060208a018a615077565b15155f60208b013512146122b457826122b6565b815b90505f6122d58b6122cc368d90038d018d615b0f565b8e858c8c612e8f565b9050835f80516020615e5b8339815191525d825f80516020615ebb8339815191525d61232b612309368c90038c018c615b0f565b5f80516020615f1b8339815191525f80516020615edb833981519152846130ea565b61234261233d368d90038d018d615127565b61359c565b5f612355610b47368e90038e018e615127565b600f54604051621cc8fb60e81b8152600481018390529192505f916123c7916001600160a01b031690631cc8fb00906024015b602060405180830381865afa1580156123a3573d5f803e3d5ffd5b505050506040513d601f19601f8201168201806040525081019061056691906157af565b90506001600160a01b0381161561243c57806001600160a01b03166324f961778f8f8f8f8f8f6040518763ffffffff1660e01b815260040161240e96959493929190615b66565b5f604051808303815f87803b158015612425575f80fd5b505af1158015612437573d5f803e3d5ffd5b505050505b5061244682613121565b63b47b2fb160e01b9750955061245c818e61394c565b61247681888f8e8e60405160200161135f93929190615bac565b5050505050965096945050505050565b61248e612898565b600b80546001600160a01b0319166001600160a01b0392909216919091179055565b6124b8612898565b6124c181612b45565b805160038054602084015160408086015160608701511515600160481b0260ff60481b1962ffffff928316600160301b021663ffffffff60301b1994831663010000000265ffffffffffff199096169290971691909117939093179190911693909317179055515f80516020615e7b83398151915290610c219083906151be565b5f336001600160a01b037f0000000000000000000000000000000000000000000000000000000000000000161461258c5760405163570c108560e11b815260040160405180910390fd5b604051635116b0eb60e11b815260040160405180910390fd5b604080518082019091525f8082526020820152600a5f6125c68460a0902090565b81526020019081526020015f206040518060400160405290815f82015481526020016001820154815250509050919050565b612600612898565b600c80546001600160a01b0319166001600160a01b0383161790556040517fbfad4f58ed4ffa32358e2ae423bf8a56d8adf778ad13eb9160c0fecd99ec157790610c21908390614bb5565b5f336001600160a01b037f000000000000000000000000000000000000000000000000000000000000000016146126955760405163570c108560e11b815260040160405180910390fd5b5063e1b4af6960e01b6126c96126b3610b4736899003890189615127565b8289888860405160200161135f93929190615a5c565b9695505050505050565b600c5460405163010b630b60e61b81525f916001600160a01b0316906342d8c2c09061270790339087908790600401615bd7565b602060405180830381865afa158015612722573d5f803e3d5ffd5b505050506040513d601f19601f82011682018060405250810190611f279190615bfb565b61274e612898565b63389a75e1600c52805f526020600c20805442111561277457636f5e88185f526004601cfd5b5f9055612780816134c1565b50565b61278b612898565b8060601b6127a057637448fbae5f526004601cfd5b612780816134c1565b600c54604051630550389f60e31b81525f916001600160a01b031690632a81c4f8906127079086908690600401615c12565b600e546001600160a01b03828116911614806128045750600f546001600160a01b038281169116145b1561280d575050565b600f54604051621cc8fb60e81b8152600481018490526001600160a01b0390911690631cc8fb0090602401602060405180830381865afa158015612853573d5f803e3d5ffd5b505050506040513d601f19601f8201168201806040525081019061287791906157af565b61287f575050565b604051631d3e310160e21b815260040160405180910390fd5b638b78c6d819543314611e3e576382b429005f526004601cfd5b5f6128bd6001611e40565b90506001600160a01b0381161561292c5760405163edf2ec7960e01b81526001600160a01b0382169063edf2ec79906128fe90879087908790600401615c25565b5f604051808303815f87803b158015612915575f80fd5b505af1158015612927573d5f803e3d5ffd5b505050505b5f6129365f611e40565b9050816001600160a01b0316816001600160a01b0316146129af5760405163edf2ec7960e01b81526001600160a01b0382169063edf2ec799061298190889088908890600401615c25565b5f604051808303815f87803b158015612998575f80fd5b505af11580156129aa573d5f803e3d5ffd5b505050505b5050505050565b805f8112156129cf576129cf6393dafdf160e01b613bd6565b919050565b5f385f3884865af16129ed5763b12d13eb5f526004601cfd5b5050565b60125460405163314e79ad60e01b81526001600160a01b039091169063314e79ad90612a2590869086908690600401615c3e565b5f604051808303815f87803b158015612a3c575f80fd5b505af1158015612a4e573d5f803e3d5ffd5b505050505f805f80612a92877f00000000000000000000000000000000000000000000000000000000000000006001600160a01b031661340f90919063ffffffff16565b92965090945092509050867f1a111a34a945a6d821c9dc87031a478ad3107acb9b19f2ee72d3aaa72b0849c985858585612af56001600160a01b037f00000000000000000000000000000000000000000000000000000000000000001687613bde565b604080516001600160a01b0396909616865260029490940b602086015262ffffff92831685850152911660608401526001600160801b03166080830152519081900360a00190a250505050505050565b612710815f015162ffffff161115612b705760405163520fab3d60e01b815260040160405180910390fd5b612710816020015162ffffff161115612b9c57604051633626bec760e01b815260040160405180910390fd5b61271062ffffff16816040015162ffffff1611156127805760405163f37b175b60e01b815260040160405180910390fd5b5f612be0846001600160a01b0316613c6a565b15612c0b575f805f8085875af1905080612c0657612c06835f633d2cec6f60e21b613c77565b612c75565b60405163a9059cbb60e01b81526001600160a01b038416600482015282602482015260205f6044835f895af13d15601f3d1160015f511416171691505f81525f60208201525f60408201525080612c7557612c758463a9059cbb60e01b633c9fd93960e21b613c77565b50505050565b5f612c868260801d90565b600f0b1215612ce357612cde7f000000000000000000000000000000000000000000000000000000000000000030612cbe8460801d90565b600f0b612cca90615c65565b85516001600160a01b03169291905f613cef565b612d84565b5f612cee8260801d90565b600f0b1315612d84577f00000000000000000000000000000000000000000000000000000000000000006001600160a01b0316630b0d9c09835f015130612d358560801d90565b600f0b6040518463ffffffff1660e01b8152600401612d5693929190615c7f565b5f604051808303815f87803b158015612d6d575f80fd5b505af1158015612d7f573d5f803e3d5ffd5b505050505b5f612d8f82600f0b90565b600f0b1215612dea576129ed7f000000000000000000000000000000000000000000000000000000000000000030612dc784600f0b90565b600f0b612dd390615c65565b60208601516001600160a01b03169291905f613cef565b5f612df582600f0b90565b600f0b13156129ed577f00000000000000000000000000000000000000000000000000000000000000006001600160a01b0316630b0d9c09836020015130612e3d85600f0b90565b600f0b6040518463ffffffff1660e01b8152600401612e5e93929190615c7f565b5f604051808303815f87803b158015612e75575f80fd5b505af1158015612e87573d5f803e3d5ffd5b505050505050565b5f80865f015115155f886020015112151514612eb757612eb26020890189614cfe565b612ec7565b612ec76040890160208a01614cfe565b600f54909150612fdf907f0000000000000000000000000000000000000000000000000000000000000000908a908a90612f39906001600160a01b0316631cc8fb00612f1b610b4736879003870187615127565b6040518263ffffffff1660e01b815260040161238891815260200190565b855f8b600f0b12612f4a578a612f53565b612f538b615a01565b6001600160801b031660115f9054906101000a90046001600160a01b03166001600160a01b031663f6a23d988e6040518263ffffffff1660e01b8152600401612f9c9190614bb5565b6040805180830381865afa158015612fb6573d5f803e3d5ffd5b505050506040513d601f19601f82011682018060405250810190612fda9190615ca3565b613f9f565b9150815f03612fee57506126c9565b5f612ffc89838588886140fd565b905061305f613010368b90038b018b615127565b6008546001600160a01b0385811691161461302b575f613035565b6130358386615882565b6008546001600160a01b03868116911614613059576130548487615882565b614285565b5f614285565b50509695505050505050565b5f80855f015115155f8760200151121515146130ac5761308b83600f0b90565b61309490615a01565b61309e8460801d90565b6130a790615a01565b6130d2565b6130b68360801d90565b6130bf90615a01565b6130c984600f0b90565b6130d290615a01565b600f0b9150600f0b915081855d80845d505050505050565b5f6130f482615c65565b8551602087015191925015155f90911203613114575f845d80835d6129af565b80845d5f835d5050505050565b5f6001607f1b821061313d5761313d6393dafdf160e01b613bd6565b5090565b5f8080613156610b4736889003880188615127565b5f818152600a602052604081206001810154929350919003613179575050613406565b855115158515151461318c575050613406565b5f6131a06001600160a01b038a168461340f565b50505090505f87602001511261320c575f82600101548860200151116131ca5787602001516131d0565b82600101545b90506131fe8289604001516131f7878e6001600160a01b0316613bde90919063ffffffff16565b845f614311565b5090975095506132ad915050565b61327381885f015161322d576132286401000276a36001615d01565b61324c565b61324c600173fffd8963efd1fc6a506488495d951d5263988d26615d20565b61325f6001600160a01b038d1687613bde565b8a6020015161326d90615c65565b5f614311565b50600185015490975090955085111590506132ad578385836001015461329991906158ad565b6132a391906158d8565b9450816001015493505b841580156132b9575083155b156132c657505050613406565b84825f015f8282546132d89190615a22565b9250508190555083826001015f8282546132f29190615882565b90915550506001600160a01b038916630b0d9c09871561331e5761331960208b018b614cfe565b61332e565b61332e60408b0160208c01614cfe565b30886040518463ffffffff1660e01b815260040161334e93929190615c7f565b5f604051808303815f87803b158015613365575f80fd5b505af1158015613377573d5f803e3d5ffd5b505050506133bc8930865f8a1561339d5761339860408e0160208f01614cfe565b6133aa565b6133aa60208e018e614cfe565b6001600160a01b031693929190613cef565b865160408051911515825260208201879052810185905283907fce97caf4fd0295de9544b52b4b9e79fe34c370bebb6fb71bc5baae9a702079689060600160405180910390a25050505b94509492505050565b5f805f805f61341d86614474565b604051631e2eaeaf60e01b8152600481018290529091505f906001600160a01b03891690631e2eaeaf90602401602060405180830381865afa158015613465573d5f803e3d5ffd5b505050506040513d601f19601f820116820180604052508101906134899190615bfb565b90506001600160a01b03811695508060a01c60020b945062ffffff8160b81c16935062ffffff8160d01c169250505092959194509250565b638b78c6d81980546001600160a01b039092169182907f8be0079c531659141344cd1fd0a4f28419497f9722a3daafe3b4186f6b6457e05f80a3811560ff1b8217905550565b600e546060906001600160a01b031663ad49d66e61352784860186615127565b6040518263ffffffff1660e01b81526004016135439190614eb5565b5f604051808303815f87803b15801561355a575f80fd5b505af115801561356c573d5f803e3d5ffd5b5050505092915050565b81515f906001600160a01b03808416911614613593578251611f27565b50506020015190565b60a081205f818152600a602052604090205466038d7ea4c680008110156135c257505050565b5f828152600a6020526040812081905580806135de858561137f565b60085492955090935091505f9081906136019089906001600160a01b0316613576565b90505f816001600160a01b03166302d05d3f6040518163ffffffff1660e01b8152600401602060405180830381865afa158015613640573d5f803e3d5ffd5b505050506040513d601f19601f8201168201806040525081019061366491906156ed565b90506001600160a01b03811615851561369c578061368c576136878983886144b0565b61369c565b6136968688615a22565b96505f95505b861561384757600e54604051634e944d5760e01b8152600481018b90526001600160a01b0390911690634e944d5790602401602060405180830381865afa1580156136e9573d5f803e3d5ffd5b505050506040513d601f19601f8201168201806040525081019061370d91906157af565b80156137805750600f54604051621cc8fb60e81b8152600481018b90526001600160a01b0390911690631cc8fb0090602401602060405180830381865afa15801561375a573d5f803e3d5ffd5b505050506040513d601f19601f8201168201806040525081019061377e91906157af565b155b1561383757600e5f9054906101000a90046001600160a01b03166001600160a01b031663088a80c78b89600c60149054906101000a900460020b8e5f01516001600160a01b031660085f9054906101000a90046001600160a01b03166001600160a01b0316146040518563ffffffff1660e01b81526004016138059493929190615d3f565b5f604051808303815f87803b15801561381c575f80fd5b505af115801561382e573d5f803e3d5ffd5b50505050613847565b6138418785615a22565b93505f96505b83156138d157806138c1576138bc89846001600160a01b03166361d027b36040518163ffffffff1660e01b8152600401602060405180830381865afa158015613892573d5f803e3d5ffd5b505050506040513d601f19601f820116820180604052508101906138b691906156ed565b866144b0565b6138d1565b6138cb8486615a22565b94505f93505b84156138ef57600d546138ef908a906001600160a01b0316876144b0565b6040805189815260208101889052908101889052606081018590526080810186905289907fc7241a69d3660bdfe5f36bdcca3b2da1fe8844366e46adb58be95171ab0665ad9060a00160405180910390a250505050505050505050565b604080515f80516020615f3b8339815191525c81525f80516020615f5b8339815191525c60208201525f80516020615e9b8339815191525c818301525f80516020615dfb8339815191525c60608201525f80516020615f7b8339815191525c60808201525f80516020615efb8339815191525c60a08201525f80516020615e1b8339815191525c60c08201525f80516020615e3b8339815191525c60e08201525f80516020615e5b8339815191525c6101008201525f80516020615ebb8339815191525c6101208201525f80516020615f1b8339815191525c6101408201525f80516020615edb8339815191525c610160820152905183917f35001030bac7516ed5b1daf42bbfd3eaf587acc70c90f7f00ee42d5a34d7523391908190036101800190a2613b128282613a9b5f80516020615f7b8339815191525c5f80516020615f3b8339815191525c615d6e565b613ac15f80516020615efb8339815191525c5f80516020615f5b8339815191525c615d6e565b613ae75f80516020615e1b8339815191525c5f80516020615e9b8339815191525c615d6e565b613b0d5f80516020615e3b8339815191525c5f80516020615dfb8339815191525c615d6e565b614615565b5f5f80516020615f3b8339815191525d5f5f80516020615f5b8339815191525d5f5f80516020615e9b8339815191525d5f5f80516020615dfb8339815191525d5f5f80516020615f7b8339815191525d5f5f80516020615efb8339815191525d5f5f80516020615e1b8339815191525d5f5f80516020615e3b8339815191525d5f5f80516020615e5b8339815191525d5f5f80516020615ebb8339815191525d5f5f80516020615f1b8339815191525d5f5f80516020615edb8339815191525d5050565b805f5260045ffd5b5f80613be983614474565b90505f613bf7600383615a22565b604051631e2eaeaf60e01b8152600481018290529091506001600160a01b03861690631e2eaeaf90602401602060405180830381865afa158015613c3d573d5f803e3d5ffd5b505050506040513d601f19601f82011682018060405250810190613c619190615bfb565b95945050505050565b6001600160a01b03161590565b6040516390bfb86560e01b8082526001600160a01b03851660048301526001600160e01b031984166024830152608060448301526020601f3d018190040260a0810160648401523d608484015290913d5f60a483013e60048260a4018201526001600160e01b031984168260c4018201528160e40181fd5b8015613d6f57836001600160a01b031663f5298aca84613d1e886001600160a01b03166001600160a01b031690565b856040518463ffffffff1660e01b8152600401613d3d93929190615a5c565b5f604051808303815f87803b158015613d54575f80fd5b505af1158015613d66573d5f803e3d5ffd5b505050506129af565b613d81856001600160a01b0316613c6a565b15613def57836001600160a01b03166311da60b4836040518263ffffffff1660e01b815260040160206040518083038185885af1158015613dc4573d5f803e3d5ffd5b50505050506040513d601f19601f82011682018060405250810190613de99190615bfb565b506129af565b604051632961046560e21b81526001600160a01b0385169063a584119490613e1b908890600401614bb5565b5f604051808303815f87803b158015613e32575f80fd5b505af1158015613e44573d5f803e3d5ffd5b505050506001600160a01b0383163014613ece576040516323b872dd60e01b81526001600160a01b038616906323b872dd90613e8890869088908790600401615c7f565b6020604051808303815f875af1158015613ea4573d5f803e3d5ffd5b505050506040513d601f19601f82011682018060405250810190613ec891906157af565b50613f3e565b60405163a9059cbb60e01b81526001600160a01b0386169063a9059cbb90613efc9087908690600401615796565b6020604051808303815f875af1158015613f18573d5f803e3d5ffd5b505050506040513d601f19601f82011682018060405250810190613f3c91906157af565b505b836001600160a01b03166311da60b46040518163ffffffff1660e01b81526004016020604051808303815f875af1158015613f7b573d5f803e3d5ffd5b505050506040513d601f19601f82011682018060405250810190612e879190615bfb565b5f82156140f2575f613fbc610738610b47368b90038b018b615127565b5190506001600160a01b0386161561404057604051634039108560e01b81526001600160a01b03871690634039108590613ffe908b908b908690600401615d95565b602060405180830381865afa158015614019573d5f803e3d5ffd5b505050506040513d601f19601f8201168201806040525081019061403d9190615ddf565b90505b826020015180156140595750825162ffffff8083169116105b15614062575081515b8062ffffff165f0361407457506140f2565b61271061408662ffffff8316866158ad565b61409091906158d8565b604051630b0d9c0960e01b81529092506001600160a01b038a1690630b0d9c09906140c390889030908790600401615c7f565b5f604051808303815f87803b1580156140da575f80fd5b505af11580156140ec573d5f803e3d5ffd5b50505050505b979650505050505050565b5f8115613c61575f614117610b4736899003890189615127565b90505f6141238261218f565b6020015190508062ffffff165f0361413c575050613c61565b5f61414985870187614cfe565b90506001600160a01b03811661416157505050613c61565b6003546127109061417e906301000000900462ffffff16896158ad565b61418891906158d8565b6004549094506001600160a01b03166141f0576141af6001600160a01b0389168286612bcd565b827f3ca4a7850462c23d5854e8b3e852626beb21b37354c670c0135ab46f0c4bdc31828a876040516141e393929190615c7f565b60405180910390a2614279565b60045461420a906001600160a01b038a8116911686612bcd565b6004805460405163587a617560e11b81529182018590526001600160a01b0383811660248401528a8116604484015260648301879052169063b0f4c2ea906084015f604051808303815f87803b158015614262575f80fd5b505af1158015614274573d5f803e3d5ffd5b505050505b50505095945050505050565b60a083205f818152600a6020526040812080548592906142a6908490615a22565b90915550505f818152600a6020526040812060010180548492906142cb908490615a22565b9091555050604080518481526020810184905282917fa245a9a38e8877add82f0a82c13e062ab3df16a26121977ddcca8827d46c690a910160405180910390a250505050565b5f80808062ffffff85166001600160a01b03808a16908b16101582881280156143e7575f61434a8a5f0385620f424003620f4240614717565b9050826143635761435e8d8d8d60016147b4565b614370565b6143708c8e8d6001614800565b96508681106143a4578b9750620f4240841461439b57614396878586620f4240036148c5565b61439d565b865b94506143bd565b8096506143b38d8c83866148f5565b9750868a5f030394505b826143d3576143ce8d898d5f614800565b6143df565b6143df888e8d5f6147b4565b955050614465565b816143fd576143f88c8c8c5f614800565b614409565b6144098b8d8c5f6147b4565b945084891061441a578a965061442c565b8894506144298c8b8785614943565b96505b816144435761443e8c888c60016147b4565b614450565b614450878d8c6001614800565b9550614462868485620f4240036148c5565b93505b50505095509550955095915050565b6040515f90614493908390600690602001918252602082015260400190565b604051602081830303815290604052805190602001209050919050565b600854600554604051636eb1769f60e11b81523360048201526001600160a01b0391821660248201528392919091169063dd62ed3e906044016020604051808303815f875af1158015614505573d5f803e3d5ffd5b505050506040513d601f19601f820116820180604052508101906145299190615bfb565b10156145a85760085460055460405163095ea7b360e01b81526001600160a01b039283169263095ea7b392614566929116905f1990600401615796565b6020604051808303815f875af1158015614582573d5f803e3d5ffd5b505050506040513d601f19601f820116820180604052508101906145a691906157af565b505b600554604051632c8ff5d960e21b8152600481018590526001600160a01b038481166024830152604482018490529091169063b23fd764906064015f604051808303815f87803b1580156145fa575f80fd5b505af115801561460c573d5f803e3d5ffd5b50505050505050565b8315158061462257508215155b1561469157846001600160a01b0316867f365f10e9e7ce45d7acfd986c42e0b666f8af282e440e6dafc78c1f2b2f78676061465c8761498a565b6146658761498a565b60408051600f93840b81529190920b60208201525f818301819052606082015290519081900360800190a35b8115158061469e57508015155b15612e87576001600160a01b038516867f444083dce778da1269b63671912c00569a2a58fa85827911902301f91793ffd76146e06146db86615c65565b6149a6565b6146ec6146db86615c65565b604080516001600160801b0393841681529290911660208301520160405180910390a3505050505050565b5f838302815f1985870982811083820303915050808411614736575f80fd5b805f03614748575082900490506147ad565b5f848688095f868103871696879004966002600389028118808a02820302808a02820302808a02820302808a02820302808a02820302808a02909103029181900381900460010186841190950394909402919094039290920491909117919091029150505b9392505050565b5f6001600160a01b038481169086160360ff81901d90810118600160601b6001600160801b0385166147e7818484614717565b9350845f83858409111684019350505050949350505050565b5f836001600160a01b0316856001600160a01b0316111561481f579293925b6001600160a01b0385166148395762bfc9215f526004601cfd5b600160601b600160e01b03606084901b166001600160a01b03868603168361488c57866001600160a01b03166148798383896001600160a01b0316614717565b81614886576148866158c4565b046148b8565b6148b86148a38383896001600160a01b03166148c5565b886001600160a01b0316808204910615150190565b925050505b949350505050565b5f6148d1848484614717565b905081806148e1576148e16158c4565b838509156147ad57600101806147ad575f80fd5b5f6001600160801b038416156001600160a01b03861615171561491f57634f2461b85f526004601cfd5b816149365761493185858560016149c7565b613c61565b613c618585856001614ab2565b5f6001600160801b038416156001600160a01b03861615171561496d57634f2461b85f526004601cfd5b8161497e576149318585855f614ab2565b613c618585855f6149c7565b80600f81900b81146129cf576129cf6393dafdf160e01b613bd6565b806001600160801b03811681146129cf576129cf6393dafdf160e01b613bd6565b5f8115614a37575f6001600160a01b038411156149fb576149f684600160601b876001600160801b0316614717565b614a12565b614a126001600160801b038616606086901b6158d8565b9050614a2f614a2a826001600160a01b038916615a22565b614b94565b9150506148bd565b5f6001600160a01b03841115614a6457614a5f84600160601b876001600160801b03166148c5565b614a81565b614a81606085901b6001600160801b038716808204910615150190565b9050806001600160a01b03871611614aa057634323a5555f526004601cfd5b6001600160a01b0386160390506148bd565b5f825f03614ac15750836148bd565b600160601b600160e01b03606085901b168215614b53576001600160a01b03861684810290858281614af557614af56158c4565b0403614b2557818101828110614b2357614b1983896001600160a01b0316836148c5565b93505050506148bd565b505b50614a2f8185614b3e6001600160a01b038a16836158d8565b614b489190615a22565b808204910615150190565b6001600160a01b038616848102908582041481831116614b7a5763f5c787f15f526004601cfd5b808203614b19614a2a846001600160a01b038b16846148c5565b806001600160a01b03811681146129cf576129cf6393dafdf160e01b613bd6565b6001600160a01b0391909116815260200190565b6001600160a01b0381168114612780575f80fd5b80356129cf81614bc9565b5f60a08284031215614bf8575f80fd5b50919050565b5f60808284031215614bf8575f80fd5b5f8083601f840112614c1e575f80fd5b5081356001600160401b03811115614c34575f80fd5b602083019150836020828501011115614c4b575f80fd5b9250929050565b5f805f805f6101608688031215614c67575f80fd5b8535614c7281614bc9565b9450614c818760208801614be8565b9350614c908760c08801614bfe565b92506101408601356001600160401b03811115614cab575f80fd5b614cb788828901614c0e565b969995985093965092949392505050565b62ffffff81168114612780575f80fd5b80356129cf81614cc8565b5f60208284031215614cf3575f80fd5b81356147ad81614cc8565b5f60208284031215614d0e575f80fd5b81356147ad81614bc9565b5f60208284031215614d29575f80fd5b81356001600160401b03811115614d3e575f80fd5b820161018081850312156147ad575f80fd5b5f8060408385031215614d61575f80fd5b50508035926020909101359150565b634e487b7160e01b5f52604160045260245ffd5b604051601f8201601f191681016001600160401b0381118282101715614dac57614dac614d70565b604052919050565b8015158114612780575f80fd5b5f60808284031215614dd1575f80fd5b604051608081016001600160401b0381118282101715614df357614df3614d70565b6040529050808235614e0481614cc8565b81526020830135614e1481614cc8565b60208201526040830135614e2781614cc8565b60408201526060830135614e3a81614db4565b6060919091015292915050565b5f8060a08385031215614e58575f80fd5b82359150614e698460208501614dc1565b90509250929050565b80516001600160a01b03908116835260208083015182169084015260408083015162ffffff169084015260608083015160020b9084015260809182015116910152565b60a08101611f2a8284614e72565b5f60608284031215614ed3575f80fd5b604051606081016001600160401b0381118282101715614ef557614ef5614d70565b6040529050808235614f0681614db4565b8152602083810135908201526040830135614f2081614bc9565b6040919091015292915050565b5f805f805f6101408688031215614f42575f80fd5b8535614f4d81614bc9565b9450614f5c8760208801614be8565b9350614f6b8760c08801614ec3565b92506101208601356001600160401b03811115614cab575f80fd5b5f805f805f805f6101a0888a031215614f9d575f80fd5b8735614fa881614bc9565b9650614fb78960208a01614be8565b9550614fc68960c08a01614bfe565b9450610140880135935061016088013592506101808801356001600160401b03811115614ff1575f80fd5b614ffd8a828b01614c0e565b989b979a50959850939692959293505050565b8060020b8114612780575f80fd5b5f805f806101008587031215615032575f80fd5b843561503d81614bc9565b935061504c8660208701614be8565b925060c085013561505c81614bc9565b915060e085013561506c81615010565b939692955090935050565b5f60208284031215615087575f80fd5b81356147ad81614db4565b5f602082840312156150a2575f80fd5b5035919050565b5f80602083850312156150ba575f80fd5b82356001600160401b038111156150cf575f80fd5b6150db85828601614c0e565b90969095509350505050565b5f81518084528060208401602086015e5f602082860101526020601f19601f83011685010191505092915050565b602081525f611f2760208301846150e7565b5f60a0828403128015615138575f80fd5b5060405160a081016001600160401b038111828210171561515b5761515b614d70565b604052823561516981614bc9565b8152602083013561517981614bc9565b6020820152604083013561518c81614cc8565b6040820152606083013561519f81615010565b606082015260808301356151b281614bc9565b60808201529392505050565b5f60808201905062ffffff835116825262ffffff602084015116602083015262ffffff604084015116604083015260608301511515606083015292915050565b5f805f805f80868803610160811215615215575f80fd5b873561522081614bc9565b965061522f8960208a01614be8565b9550606060bf1982011215615242575f80fd5b5060c08701935061012087013592506101408701356001600160401b0381111561526a575f80fd5b61527689828a01614c0e565b979a9699509497509295939492505050565b5f805f805f80610120878903121561529e575f80fd5b86356152a981614bc9565b95506152b88860208901614be8565b945060c0870135935060e087013592506101008701356001600160401b0381111561526a575f80fd5b8151151581526101c0810160208301516152ff602084018215159052565b506040830151615313604084018215159052565b506060830151615327606084018215159052565b50608083015161533b608084018215159052565b5060a083015161534f60a084018215159052565b5060c083015161536360c084018215159052565b5060e083015161537760e084018215159052565b5061010083015161538d61010084018215159052565b506101208301516153a361012084018215159052565b506101408301516153b961014084018215159052565b506101608301516153cf61016084018215159052565b506101808301516153e561018084018215159052565b506101a08301516153fb6101a084018215159052565b5092915050565b5f60808284031215615412575f80fd5b611f278383614dc1565b5f805f60e0848603121561542e575f80fd5b833561543981614bc9565b92506154488560208601614be8565b915060c084013561545881614bc9565b809150509250925092565b5f808335601e19843603018112615478575f80fd5b83016020810192503590506001600160401b03811115615496575f80fd5b803603821315614c4b575f80fd5b81835281816020850137505f828201602090810191909152601f909101601f19169091010190565b5f6154d78283615463565b61018085526154eb610180860182846154a4565b9150506154fb6020840184615463565b858303602087015261550e8382846154a4565b9250505061551f6040840184615463565b85830360408701526155328382846154a4565b606086810135908801526080808701359088015260a08087013590880152925061556191505060c08401614bdd565b6001600160a01b031660c085015261557b60e08401614cd8565b62ffffff1660e0850152610100838101359085015261559e610120840184615463565b8583036101208701526155b28382846154a4565b925050506155c4610140840184615463565b8583036101408701526155d88382846154a4565b925050506155ea610160840184615463565b8583036101608701526126c98382846154a4565b602081525f611f2760208301846154cc565b5f805f60608486031215615622575f80fd5b835161562d81614bc9565b602085015190935061563e81614bc9565b6040949094015192959394509192915050565b6001600160a01b0385811682528481166020830152831660408201526101008101613c616060830184614e72565b5f808335601e19843603018112615694575f80fd5b8301803591506001600160401b038211156156ad575f80fd5b602001915036819003821315614c4b575f80fd5b6001600160a01b038516815283151560208201526060604082018190525f906126c990830184866154a4565b5f602082840312156156fd575f80fd5b81516147ad81614bc9565b60c081016157168285614e72565b6001600160a01b039290921660a09190910152919050565b5f6020828403121561573e575f80fd5b81516147ad81615010565b6001600160a01b038781168252861660208201526040810185905283151560608201526080810183905260c060a082018190525f9061578a908301846154cc565b98975050505050505050565b6001600160a01b03929092168252602082015260400190565b5f602082840312156157bf575f80fd5b81516147ad81614db4565b5f60c082840312156157da575f80fd5b60405160c081016001600160401b03811182821017156157fc576157fc614d70565b60409081528351825260208085015190830152830151909150819061582081615010565b6040820152606083810151908201526080808401519082015260a083015161584781614db4565b60a0919091015292915050565b5f60c08284031215615864575f80fd5b611f2783836157ca565b634e487b7160e01b5f52601160045260245ffd5b81810381811115611f2a57611f2a61586e565b828152604060208201525f6148bd60408301846154cc565b8082028115828204841417611f2a57611f2a61586e565b634e487b7160e01b5f52601260045260245ffd5b5f826158f257634e487b7160e01b5f52601260045260245ffd5b500490565b803561590281614bc9565b6001600160a01b03168252602081013561591b81614bc9565b6001600160a01b03166020830152604081013561593781614cc8565b62ffffff166040830152606081013561594f81615010565b60020b6060830152608081013561596581614bc9565b6001600160a01b03166080929092019190915250565b60e0810161598982866158f7565b8360a083015282151560c0830152949350505050565b5f805f61010084860312156159b2575f80fd5b8351602085015190935091506159cb85604086016157ca565b90509250925092565b600f81810b9083900b0160016001607f1b03811360016001607f1b031982121715611f2a57611f2a61586e565b5f600f82900b6001607f1b8101615a1a57615a1a61586e565b5f0392915050565b80820180821115611f2a57611f2a61586e565b60e08101615a4382866158f7565b8360020b60a083015282151560c0830152949350505050565b6001600160a01b039390931683526020830191909152604082015260600190565b5f60208284031215615a8d575f80fd5b81516001600160401b03811115615aa2575f80fd5b8201601f81018413615ab2575f80fd5b80516001600160401b03811115615acb57615acb614d70565b615ade601f8201601f1916602001614d84565b818152856020838501011115615af2575f80fd5b8160208401602083015e5f91810160200191909152949350505050565b5f60608284031215615b1f575f80fd5b611f278383614ec3565b8035615b3481614db4565b15158252602081810135908301526040810135615b5081614bc9565b6001600160a01b03166040929092019190915250565b6001600160a01b0387168152615b7f60208201876158f7565b615b8c60c0820186615b29565b836101208201526101606101408201525f61578a610160830184866154a4565b6001600160a01b038416815260a08101615bc96020830185615b29565b826080830152949350505050565b6001600160a01b03841681526040602082018190525f90613c6190830184866154a4565b5f60208284031215615c0b575f80fd5b5051919050565b602081525f6148bd6020830184866154a4565b838152604060208201525f613c616040830184866154a4565b83815263ffffffff60e01b83166020820152606060408201525f613c6160608301846150e7565b5f600160ff1b8201615c7957615c7961586e565b505f0390565b6001600160a01b039384168152919092166020820152604081019190915260600190565b5f6040828403128015615cb4575f80fd5b50604080519081016001600160401b0381118282101715615cd757615cd7614d70565b6040528251615ce581614cc8565b81526020830151615cf581614db4565b60208201529392505050565b6001600160a01b038181168382160190811115611f2a57611f2a61586e565b6001600160a01b038281168282160390811115611f2a57611f2a61586e565b6101008101615d4e8287614e72565b8460a08301528360020b60c083015282151560e083015295945050505050565b8082018281125f831280158216821582161715615d8d57615d8d61586e565b505092915050565b6101208101615da482866158f7565b8351151560a0830152602084015160c08301526040909301516001600160a01b031660e082015262ffffff9190911661010090910152919050565b5f60208284031215615def575f80fd5b81516147ad81614cc856fe2153348e08952a9737a728deab496289242e3884d90dd8e5fc8362f809e843141a426dc34b0367779dd37e66c4b193647bd2fd094d26b263dccbe93433d0a25bb5692db6de7b607ce10bbcb6a38fb443823969b63ffea1591751f25f9fe7059a0f457c8132f52d9098267126b744d1c04e04ccc48dce7c5b4396b38879d8b08aca7619d8d03127c99378decb6d4c002b5b8b8d60918ea28c2300a7811e7c1300aac705f00f1df487f4863cf5b7baa49be15a9dc73d477f33ca4d694d45cac7fef5955824691119aec0d1c983542055bfb83b16d3bc8d04e6cd271bbd244e894a6bc3f16992c8e44a3018b72b6d7aec54e64e1cdec74e64c5154c782ffe8aff2dee887e5283585aea7d61ae82ec91b0d9dbc7a52caa1fbc4f511651d06967058d84457b11f2602289c00904214483ea820055ea325cc54ad9b512e76c6541dfb417cab649bf7619b4535991407dcf8f717035632cf45997a05c0f90b7baafa479170e502bdc7039c895af9c291daf6592705d439a7873ee28dbc514d2f1aa51b3859fad1dd1a8a0c97fb9e594529061ff17256ed2fd92004dfd6d47a8324651c4a26469706673582212200d22e60dead626eea00d09da08a43df4c75f944ac0c86103f5c1a9b0ad56ee4264736f6c634300081a00336080604052348015600e575f80fd5b506040516109d33803806109d3833981016040819052602b916084565b600280546001600160a01b031916331790556044816049565b5060af565b6001600160a01b0316638b78c6d819819055805f7f8be0079c531659141344cd1fd0a4f28419497f9722a3daafe3b4186f6b6457e08180a350565b5f602082840312156093575f80fd5b81516001600160a01b038116811460a8575f80fd5b9392505050565b610917806100bc5f395ff3fe608060405260043610610080575f3560e01c80632569296214610084578063314e79ad1461008e57806354d1f13d146100ad578063715018a6146100b55780637262561c146100bd5780638da5cb5b146100dc578063d5f9a39714610105578063f04e283e14610124578063f2fde38b14610137578063fee81cf41461014a575b5f80fd5b61008c610189565b005b348015610099575f80fd5b5061008c6100a836600461070d565b6101d5565b61008c61027c565b61008c6102b5565b3480156100c8575f80fd5b5061008c6100d736600461078b565b6102c8565b3480156100e7575f80fd5b50638b78c6d819546040516100fc91906107a4565b60405180910390f35b348015610110575f80fd5b5061008c61011f3660046107b8565b61036f565b61008c61013236600461078b565b61044e565b61008c61014536600461078b565b610488565b348015610155575f80fd5b5061017b61016436600461078b565b63389a75e1600c9081525f91909152602090205490565b6040519081526020016100fc565b5f6202a3006001600160401b03164201905063389a75e1600c52335f52806020600c2055337fdbf36a107da19e49527a7176a1babf963b4b0ff8cde35ee35d6cd8f1f9ac7e1d5f80a250565b6002546001600160a01b031633146101eb575f80fd5b5f6101f55f6104ae565b90505f5b818110156102745761020b5f826104bd565b6001600160a01b0316634ca1f062878787876040518563ffffffff1660e01b815260040161023c949392919061082e565b5f604051808303815f87803b158015610253575f80fd5b505af1158015610265573d5f803e3d5ffd5b505050508060010190506101f9565b505050505050565b63389a75e1600c52335f525f6020600c2055337ffa7b8eab7da67f412cc9575ed43464468f9bfbae89d1675917346ca6d8fe3c925f80a2565b6102bd6104cf565b6102c65f6104e9565b565b6102d06104cf565b6102da5f82610526565b1561036c576102e95f8261053a565b50806001600160a01b031663fcae44846040518163ffffffff1660e01b81526004015f604051808303815f87803b158015610322575f80fd5b505af1925050508015610333575060015b507f804bdbbf25e80c5635294ecf375fa16a531a4b7ffa416f74e121ae40bf4a00fe8160405161036391906107a4565b60405180910390a15b50565b6103776104cf565b6103815f8461054e565b15610449576040516323085b8560e11b81526001600160a01b03841690634610b70a906103b49085908590600401610860565b6020604051808303815f875af11580156103d0573d5f803e3d5ffd5b505050506040513d601f19601f820116820180604052508101906103f4919061087b565b61041157604051633bf9fecd60e01b815260040160405180910390fd5b7fa6610d70b57486ac216657a87c0fce7f41758dd77d526daf7974f813a9b2a46a8360405161044091906107a4565b60405180910390a15b505050565b6104566104cf565b63389a75e1600c52805f526020600c20805442111561047c57636f5e88185f526004601cfd5b5f905561036c816104e9565b6104906104cf565b8060601b6104a557637448fbae5f526004601cfd5b61036c816104e9565b5f6104b7825490565b92915050565b5f6104c88383610562565b9392505050565b638b78c6d8195433146102c6576382b429005f526004601cfd5b638b78c6d81980546001600160a01b039092169182907f8be0079c531659141344cd1fd0a4f28419497f9722a3daafe3b4186f6b6457e05f80a355565b5f6104c8836001600160a01b038416610588565b5f6104c8836001600160a01b03841661059f565b5f6104c8836001600160a01b038416610682565b5f825f0182815481106105775761057761089a565b905f5260205f200154905092915050565b5f9081526001919091016020526040902054151590565b5f8181526001830160205260408120548015610679575f6105c16001836108ae565b85549091505f906105d4906001906108ae565b9050808214610633575f865f0182815481106105f2576105f261089a565b905f5260205f200154905080875f0184815481106106125761061261089a565b5f918252602080832090910192909255918252600188019052604090208390555b8554869080610644576106446108cd565b600190038181905f5260205f20015f90559055856001015f8681526020019081526020015f205f9055600193505050506104b7565b5f9150506104b7565b5f61068d8383610588565b6106c257508154600181810184555f8481526020808220909301849055845484825282860190935260409020919091556104b7565b505f6104b7565b5f8083601f8401126106d9575f80fd5b5081356001600160401b038111156106ef575f80fd5b602083019150836020828501011115610706575f80fd5b9250929050565b5f805f8060608587031215610720575f80fd5b8435935060208501356001600160e01b03198116811461073e575f80fd5b925060408501356001600160401b03811115610758575f80fd5b610764878288016106c9565b95989497509550505050565b80356001600160a01b0381168114610786575f80fd5b919050565b5f6020828403121561079b575f80fd5b6104c882610770565b6001600160a01b0391909116815260200190565b5f805f604084860312156107ca575f80fd5b6107d384610770565b925060208401356001600160401b038111156107ed575f80fd5b6107f9868287016106c9565b9497909650939450505050565b81835281816020850137505f828201602090810191909152601f909101601f19169091010190565b84815263ffffffff60e01b84166020820152606060408201525f610856606083018486610806565b9695505050505050565b602081525f610873602083018486610806565b949350505050565b5f6020828403121561088b575f80fd5b815180151581146104c8575f80fd5b634e487b7160e01b5f52603260045260245ffd5b818103818111156104b757634e487b7160e01b5f52601160045260245ffd5b634e487b7160e01b5f52603160045260245ffdfea26469706673582212203b3e921bf6a5cb4ef856916ff4d14065ee0c729c01c0e98e97776b7cda53980e64736f6c634300081a0033",
    "linkReferences": {}
  },
  "methodIdentifiers": {
    "MAX_PROTOCOL_ALLOCATION()": "c29c945b",
    "actionManager()": "75d252a5",
    "afterAddLiquidity(address,(address,address,uint24,int24,address),(int24,int24,int256,bytes32),int256,int256,bytes)": "9f063efc",
    "afterDonate(address,(address,address,uint24,int24,address),uint256,uint256,bytes)": "e1b4af69",
    "afterInitialize(address,(address,address,uint24,int24,address),uint160,int24)": "6fe7e6eb",
    "afterRemoveLiquidity(address,(address,address,uint24,int24,address),(int24,int24,int256,bytes32),int256,int256,bytes)": "6c2bbe7e",
    "afterSwap(address,(address,address,uint24,int24,address),(bool,int256,uint160),int256,bytes)": "b47b2fb1",
    "beforeAddLiquidity(address,(address,address,uint24,int24,address),(int24,int24,int256,bytes32),bytes)": "259982e5",
    "beforeDonate(address,(address,address,uint24,int24,address),uint256,uint256,bytes)": "b6a8b0fa",
    "beforeInitialize(address,(address,address,uint24,int24,address),uint160)": "dc98354e",
    "beforeRemoveLiquidity(address,(address,address,uint24,int24,address),(int24,int24,int256,bytes32),bytes)": "21d0ee70",
    "beforeSwap(address,(address,address,uint24,int24,address),(bool,int256,uint160),bytes)": "575e24b4",
    "bidWall()": "ba3e69b7",
    "cancelOwnershipHandover()": "54d1f13d",
    "closeBidWall((address,address,uint24,int24,address))": "ad49d66e",
    "completeOwnershipHandover(address)": "f04e283e",
    "fairLaunch()": "94e1cf96",
    "fairLaunchFeeCalculator()": "a1dd2d91",
    "feeCalculator()": "b00eb9fe",
    "feeEscrow()": "c4b7de97",
    "feeExemptions()": "01a2cae8",
    "feeSplit(bytes32,uint256)": "4875cbb8",
    "flaunch((string,string,string,uint256,uint256,uint256,address,uint24,uint256,bytes,bytes,bytes))": "3fa4d957",
    "flaunchContract()": "84aa1da0",
    "flaunchesAt(bytes32)": "7907addf",
    "flayGovernance()": "dddfecf5",
    "getFeeCalculator(bool)": "71c4ddb0",
    "getFlaunchingFee(bytes)": "ec876d71",
    "getFlaunchingMarketCap(bytes)": "ff3575e4",
    "getHookPermissions()": "c4e833ce",
    "getPoolFeeDistribution(bytes32)": "b3b42795",
    "initialPrice()": "1d0806ae",
    "nativeToken()": "e1758bd8",
    "notifier()": "09276ea4",
    "owner()": "8da5cb5b",
    "ownershipHandoverExpiresAt(address)": "fee81cf4",
    "poolFees((address,address,uint24,int24,address))": "ddb475d5",
    "poolKey(address)": "55d1cb60",
    "poolManager()": "dc4c90d3",
    "referralEscrow()": "8f2bdf75",
    "renounceOwnership()": "715018a6",
    "requestOwnershipHandover()": "25692962",
    "setFairLaunchFeeCalculator(address)": "38b1e700",
    "setFeeCalculator(address)": "8c66d04f",
    "setFeeDistribution((uint24,uint24,uint24,bool))": "d3bff717",
    "setFlaunch(address)": "be721505",
    "setInitialPrice(address)": "df81740e",
    "setPoolFeeDistribution(bytes32,(uint24,uint24,uint24,bool))": "4ed0f0f5",
    "setProtocolFeeDistribution(uint24)": "2423028c",
    "setReferralEscrow(address)": "a87277dd",
    "transferOwnership(address)": "f2fde38b",
    "unlockCallback(bytes)": "91dd7346"
  },
  "id": 166
}