{
  "abi": [
    {
      "type": "constructor",
      "inputs": [
        {
          "name": "_treasuryManagerFactory",
          "type": "address",
          "internalType": "address"
        },
        {
          "name": "_feeEscrowRegistry",
          "type": "address",
          "internalType": "address"
        }
      ],
      "stateMutability": "nonpayable"
    },
    {
      "type": "receive",
      "stateMutability": "payable"
    },
    {
      "type": "function",
      "name": "MAX_CREATOR_SHARE",
      "inputs": [],
      "outputs": [
        {
          "name": "",
          "type": "uint256",
          "internalType": "uint256"
        }
      ],
      "stateMutability": "view"
    },
    {
      "type": "function",
      "name": "MAX_OWNER_SHARE",
      "inputs": [],
      "outputs": [
        {
          "name": "",
          "type": "uint256",
          "internalType": "uint256"
        }
      ],
      "stateMutability": "view"
    },
    {
      "type": "function",
      "name": "VALID_SHARE_TOTAL",
      "inputs": [],
      "outputs": [
        {
          "name": "",
          "type": "uint256",
          "internalType": "uint256"
        }
      ],
      "stateMutability": "view"
    },
    {
      "type": "function",
      "name": "balances",
      "inputs": [
        {
          "name": "_recipient",
          "type": "address",
          "internalType": "address"
        }
      ],
      "outputs": [
        {
          "name": "balance_",
          "type": "uint256",
          "internalType": "uint256"
        }
      ],
      "stateMutability": "view"
    },
    {
      "type": "function",
      "name": "claim",
      "inputs": [],
      "outputs": [
        {
          "name": "",
          "type": "uint256",
          "internalType": "uint256"
        }
      ],
      "stateMutability": "nonpayable"
    },
    {
      "type": "function",
      "name": "claimableOwnerFees",
      "inputs": [],
      "outputs": [
        {
          "name": "",
          "type": "uint256",
          "internalType": "uint256"
        }
      ],
      "stateMutability": "view"
    },
    {
      "type": "function",
      "name": "creator",
      "inputs": [
        {
          "name": "_flaunch",
          "type": "address",
          "internalType": "address"
        },
        {
          "name": "_tokenId",
          "type": "uint256",
          "internalType": "uint256"
        }
      ],
      "outputs": [
        {
          "name": "_creator",
          "type": "address",
          "internalType": "address"
        }
      ],
      "stateMutability": "view"
    },
    {
      "type": "function",
      "name": "creatorFees",
      "inputs": [],
      "outputs": [
        {
          "name": "",
          "type": "uint256",
          "internalType": "uint256"
        }
      ],
      "stateMutability": "view"
    },
    {
      "type": "function",
      "name": "creatorShare",
      "inputs": [],
      "outputs": [
        {
          "name": "",
          "type": "uint256",
          "internalType": "uint256"
        }
      ],
      "stateMutability": "view"
    },
    {
      "type": "function",
      "name": "creatorTotalClaimed",
      "inputs": [
        {
          "name": "_creator",
          "type": "address",
          "internalType": "address"
        }
      ],
      "outputs": [
        {
          "name": "_claimed",
          "type": "uint256",
          "internalType": "uint256"
        }
      ],
      "stateMutability": "view"
    },
    {
      "type": "function",
      "name": "deposit",
      "inputs": [
        {
          "name": "_flaunchToken",
          "type": "tuple",
          "internalType": "struct ITreasuryManager.FlaunchToken",
          "components": [
            {
              "name": "flaunch",
              "type": "address",
              "internalType": "contract Flaunch"
            },
            {
              "name": "tokenId",
              "type": "uint256",
              "internalType": "uint256"
            }
          ]
        },
        {
          "name": "_creator",
          "type": "address",
          "internalType": "address"
        },
        {
          "name": "_data",
          "type": "bytes",
          "internalType": "bytes"
        }
      ],
      "outputs": [],
      "stateMutability": "nonpayable"
    },
    {
      "type": "function",
      "name": "escrowWithdraw",
      "inputs": [
        {
          "name": "_flaunchToken",
          "type": "tuple",
          "internalType": "struct ITreasuryManager.FlaunchToken",
          "components": [
            {
              "name": "flaunch",
              "type": "address",
              "internalType": "contract Flaunch"
            },
            {
              "name": "tokenId",
              "type": "uint256",
              "internalType": "uint256"
            }
          ]
        }
      ],
      "outputs": [],
      "stateMutability": "nonpayable"
    },
    {
      "type": "function",
      "name": "extendEscrowDuration",
      "inputs": [
        {
          "name": "_flaunchToken",
          "type": "tuple",
          "internalType": "struct ITreasuryManager.FlaunchToken",
          "components": [
            {
              "name": "flaunch",
              "type": "address",
              "internalType": "contract Flaunch"
            },
            {
              "name": "tokenId",
              "type": "uint256",
              "internalType": "uint256"
            }
          ]
        },
        {
          "name": "_extendBy",
          "type": "uint256",
          "internalType": "uint256"
        }
      ],
      "outputs": [],
      "stateMutability": "nonpayable"
    },
    {
      "type": "function",
      "name": "feeEscrowRegistry",
      "inputs": [],
      "outputs": [
        {
          "name": "",
          "type": "address",
          "internalType": "contract IFeeEscrowRegistry"
        }
      ],
      "stateMutability": "view"
    },
    {
      "type": "function",
      "name": "flaunchTokenInternalIds",
      "inputs": [
        {
          "name": "_flaunch",
          "type": "address",
          "internalType": "address"
        },
        {
          "name": "_tokenId",
          "type": "uint256",
          "internalType": "uint256"
        }
      ],
      "outputs": [
        {
          "name": "_internalId",
          "type": "uint256",
          "internalType": "uint256"
        }
      ],
      "stateMutability": "view"
    },
    {
      "type": "function",
      "name": "getCreatorFee",
      "inputs": [
        {
          "name": "_amount",
          "type": "uint256",
          "internalType": "uint256"
        }
      ],
      "outputs": [
        {
          "name": "creatorFee_",
          "type": "uint256",
          "internalType": "uint256"
        }
      ],
      "stateMutability": "view"
    },
    {
      "type": "function",
      "name": "getOwnerFee",
      "inputs": [
        {
          "name": "_amount",
          "type": "uint256",
          "internalType": "uint256"
        }
      ],
      "outputs": [
        {
          "name": "ownerFee_",
          "type": "uint256",
          "internalType": "uint256"
        }
      ],
      "stateMutability": "view"
    },
    {
      "type": "function",
      "name": "getPoolId",
      "inputs": [
        {
          "name": "_flaunchToken",
          "type": "tuple",
          "internalType": "struct ITreasuryManager.FlaunchToken",
          "components": [
            {
              "name": "flaunch",
              "type": "address",
              "internalType": "contract Flaunch"
            },
            {
              "name": "tokenId",
              "type": "uint256",
              "internalType": "uint256"
            }
          ]
        }
      ],
      "outputs": [
        {
          "name": "poolId_",
          "type": "bytes32",
          "internalType": "PoolId"
        }
      ],
      "stateMutability": "view"
    },
    {
      "type": "function",
      "name": "getUserStakeInfo",
      "inputs": [
        {
          "name": "_user",
          "type": "address",
          "internalType": "address"
        }
      ],
      "outputs": [
        {
          "name": "amount_",
          "type": "uint256",
          "internalType": "uint256"
        },
        {
          "name": "timelockedUntil_",
          "type": "uint256",
          "internalType": "uint256"
        },
        {
          "name": "pendingETHRewards_",
          "type": "uint256",
          "internalType": "uint256"
        }
      ],
      "stateMutability": "view"
    },
    {
      "type": "function",
      "name": "globalEthRewardsPerTokenX128",
      "inputs": [],
      "outputs": [
        {
          "name": "",
          "type": "uint256",
          "internalType": "uint256"
        }
      ],
      "stateMutability": "view"
    },
    {
      "type": "function",
      "name": "initialize",
      "inputs": [
        {
          "name": "_owner",
          "type": "address",
          "internalType": "address"
        },
        {
          "name": "_data",
          "type": "bytes",
          "internalType": "bytes"
        }
      ],
      "outputs": [],
      "stateMutability": "nonpayable"
    },
    {
      "type": "function",
      "name": "initialized",
      "inputs": [],
      "outputs": [
        {
          "name": "",
          "type": "bool",
          "internalType": "bool"
        }
      ],
      "stateMutability": "view"
    },
    {
      "type": "function",
      "name": "internalIds",
      "inputs": [
        {
          "name": "_internalId",
          "type": "uint256",
          "internalType": "uint256"
        }
      ],
      "outputs": [
        {
          "name": "flaunch",
          "type": "address",
          "internalType": "contract Flaunch"
        },
        {
          "name": "tokenId",
          "type": "uint256",
          "internalType": "uint256"
        }
      ],
      "stateMutability": "view"
    },
    {
      "type": "function",
      "name": "isValidCreator",
      "inputs": [
        {
          "name": "_creator",
          "type": "address",
          "internalType": "address"
        },
        {
          "name": "_data",
          "type": "bytes",
          "internalType": "bytes"
        }
      ],
      "outputs": [
        {
          "name": "",
          "type": "bool",
          "internalType": "bool"
        }
      ],
      "stateMutability": "view"
    },
    {
      "type": "function",
      "name": "isValidRecipient",
      "inputs": [
        {
          "name": "_recipient",
          "type": "address",
          "internalType": "address"
        },
        {
          "name": "_data",
          "type": "bytes",
          "internalType": "bytes"
        }
      ],
      "outputs": [
        {
          "name": "",
          "type": "bool",
          "internalType": "bool"
        }
      ],
      "stateMutability": "view"
    },
    {
      "type": "function",
      "name": "managerFees",
      "inputs": [],
      "outputs": [
        {
          "name": "",
          "type": "uint256",
          "internalType": "uint256"
        }
      ],
      "stateMutability": "view"
    },
    {
      "type": "function",
      "name": "managerOwner",
      "inputs": [],
      "outputs": [
        {
          "name": "",
          "type": "address",
          "internalType": "address"
        }
      ],
      "stateMutability": "view"
    },
    {
      "type": "function",
      "name": "minEscrowDuration",
      "inputs": [],
      "outputs": [
        {
          "name": "",
          "type": "uint256",
          "internalType": "uint256"
        }
      ],
      "stateMutability": "view"
    },
    {
      "type": "function",
      "name": "minStakeDuration",
      "inputs": [],
      "outputs": [
        {
          "name": "",
          "type": "uint256",
          "internalType": "uint256"
        }
      ],
      "stateMutability": "view"
    },
    {
      "type": "function",
      "name": "nextInternalId",
      "inputs": [],
      "outputs": [
        {
          "name": "",
          "type": "uint256",
          "internalType": "uint256"
        }
      ],
      "stateMutability": "view"
    },
    {
      "type": "function",
      "name": "ownerFees",
      "inputs": [],
      "outputs": [
        {
          "name": "",
          "type": "uint256",
          "internalType": "uint256"
        }
      ],
      "stateMutability": "view"
    },
    {
      "type": "function",
      "name": "ownerShare",
      "inputs": [],
      "outputs": [
        {
          "name": "",
          "type": "uint256",
          "internalType": "uint256"
        }
      ],
      "stateMutability": "view"
    },
    {
      "type": "function",
      "name": "pendingCreatorFees",
      "inputs": [
        {
          "name": "_recipient",
          "type": "address",
          "internalType": "address"
        }
      ],
      "outputs": [
        {
          "name": "balance_",
          "type": "uint256",
          "internalType": "uint256"
        }
      ],
      "stateMutability": "view"
    },
    {
      "type": "function",
      "name": "pendingOwnerFees",
      "inputs": [],
      "outputs": [
        {
          "name": "",
          "type": "uint256",
          "internalType": "uint256"
        }
      ],
      "stateMutability": "view"
    },
    {
      "type": "function",
      "name": "permissions",
      "inputs": [],
      "outputs": [
        {
          "name": "",
          "type": "address",
          "internalType": "contract IManagerPermissions"
        }
      ],
      "stateMutability": "view"
    },
    {
      "type": "function",
      "name": "recipientShare",
      "inputs": [
        {
          "name": "_recipient",
          "type": "address",
          "internalType": "address"
        },
        {
          "name": "_data",
          "type": "bytes",
          "internalType": "bytes"
        }
      ],
      "outputs": [
        {
          "name": "",
          "type": "uint256",
          "internalType": "uint256"
        }
      ],
      "stateMutability": "view"
    },
    {
      "type": "function",
      "name": "rescue",
      "inputs": [
        {
          "name": "_flaunchToken",
          "type": "tuple",
          "internalType": "struct ITreasuryManager.FlaunchToken",
          "components": [
            {
              "name": "flaunch",
              "type": "address",
              "internalType": "contract Flaunch"
            },
            {
              "name": "tokenId",
              "type": "uint256",
              "internalType": "uint256"
            }
          ]
        },
        {
          "name": "_recipient",
          "type": "address",
          "internalType": "address"
        }
      ],
      "outputs": [],
      "stateMutability": "nonpayable"
    },
    {
      "type": "function",
      "name": "setCreator",
      "inputs": [
        {
          "name": "_flaunchToken",
          "type": "tuple",
          "internalType": "struct ITreasuryManager.FlaunchToken",
          "components": [
            {
              "name": "flaunch",
              "type": "address",
              "internalType": "contract Flaunch"
            },
            {
              "name": "tokenId",
              "type": "uint256",
              "internalType": "uint256"
            }
          ]
        },
        {
          "name": "_creator",
          "type": "address",
          "internalType": "address payable"
        }
      ],
      "outputs": [],
      "stateMutability": "nonpayable"
    },
    {
      "type": "function",
      "name": "setPermissions",
      "inputs": [
        {
          "name": "_permissions",
          "type": "address",
          "internalType": "address"
        }
      ],
      "outputs": [],
      "stateMutability": "nonpayable"
    },
    {
      "type": "function",
      "name": "splitFees",
      "inputs": [],
      "outputs": [
        {
          "name": "",
          "type": "uint256",
          "internalType": "uint256"
        }
      ],
      "stateMutability": "view"
    },
    {
      "type": "function",
      "name": "stake",
      "inputs": [
        {
          "name": "_amount",
          "type": "uint256",
          "internalType": "uint256"
        }
      ],
      "outputs": [],
      "stateMutability": "nonpayable"
    },
    {
      "type": "function",
      "name": "stakingToken",
      "inputs": [],
      "outputs": [
        {
          "name": "",
          "type": "address",
          "internalType": "contract IERC20"
        }
      ],
      "stateMutability": "view"
    },
    {
      "type": "function",
      "name": "tokenPoolId",
      "inputs": [
        {
          "name": "_internalId",
          "type": "uint256",
          "internalType": "uint256"
        }
      ],
      "outputs": [
        {
          "name": "_poolId",
          "type": "bytes32",
          "internalType": "PoolId"
        }
      ],
      "stateMutability": "view"
    },
    {
      "type": "function",
      "name": "tokenTimelock",
      "inputs": [
        {
          "name": "_flaunch",
          "type": "address",
          "internalType": "address"
        },
        {
          "name": "_tokenId",
          "type": "uint256",
          "internalType": "uint256"
        }
      ],
      "outputs": [
        {
          "name": "_unlockedAt",
          "type": "uint256",
          "internalType": "uint256"
        }
      ],
      "stateMutability": "view"
    },
    {
      "type": "function",
      "name": "tokenTotalClaimed",
      "inputs": [
        {
          "name": "_flaunch",
          "type": "address",
          "internalType": "address"
        },
        {
          "name": "_tokenId",
          "type": "uint256",
          "internalType": "uint256"
        }
      ],
      "outputs": [
        {
          "name": "_claimed",
          "type": "uint256",
          "internalType": "uint256"
        }
      ],
      "stateMutability": "view"
    },
    {
      "type": "function",
      "name": "tokens",
      "inputs": [
        {
          "name": "_creator",
          "type": "address",
          "internalType": "address"
        }
      ],
      "outputs": [
        {
          "name": "flaunchTokens_",
          "type": "tuple[]",
          "internalType": "struct ITreasuryManager.FlaunchToken[]",
          "components": [
            {
              "name": "flaunch",
              "type": "address",
              "internalType": "contract Flaunch"
            },
            {
              "name": "tokenId",
              "type": "uint256",
              "internalType": "uint256"
            }
          ]
        }
      ],
      "stateMutability": "view"
    },
    {
      "type": "function",
      "name": "totalDeposited",
      "inputs": [],
      "outputs": [
        {
          "name": "",
          "type": "uint256",
          "internalType": "uint256"
        }
      ],
      "stateMutability": "view"
    },
    {
      "type": "function",
      "name": "transferManagerOwnership",
      "inputs": [
        {
          "name": "_newManagerOwner",
          "type": "address",
          "internalType": "address"
        }
      ],
      "outputs": [],
      "stateMutability": "nonpayable"
    },
    {
      "type": "function",
      "name": "treasuryManagerFactory",
      "inputs": [],
      "outputs": [
        {
          "name": "",
          "type": "address",
          "internalType": "contract TreasuryManagerFactory"
        }
      ],
      "stateMutability": "view"
    },
    {
      "type": "function",
      "name": "unstake",
      "inputs": [
        {
          "name": "_amount",
          "type": "uint256",
          "internalType": "uint256"
        }
      ],
      "outputs": [],
      "stateMutability": "nonpayable"
    },
    {
      "type": "function",
      "name": "userPositions",
      "inputs": [
        {
          "name": "user",
          "type": "address",
          "internalType": "address"
        }
      ],
      "outputs": [
        {
          "name": "amount",
          "type": "uint256",
          "internalType": "uint256"
        },
        {
          "name": "timelockedUntil",
          "type": "uint256",
          "internalType": "uint256"
        },
        {
          "name": "ethRewardsPerTokenSnapshotX128",
          "type": "uint256",
          "internalType": "uint256"
        },
        {
          "name": "ethOwed",
          "type": "uint256",
          "internalType": "uint256"
        }
      ],
      "stateMutability": "view"
    },
    {
      "type": "event",
      "name": "Claim",
      "inputs": [
        {
          "name": "_sender",
          "type": "address",
          "indexed": false,
          "internalType": "address"
        },
        {
          "name": "_amount",
          "type": "uint256",
          "indexed": false,
          "internalType": "uint256"
        }
      ],
      "anonymous": false
    },
    {
      "type": "event",
      "name": "CreatorShareInitialized",
      "inputs": [
        {
          "name": "_creatorShare",
          "type": "uint256",
          "indexed": false,
          "internalType": "uint256"
        }
      ],
      "anonymous": false
    },
    {
      "type": "event",
      "name": "CreatorUpdated",
      "inputs": [
        {
          "name": "_flaunch",
          "type": "address",
          "indexed": true,
          "internalType": "address"
        },
        {
          "name": "_tokenId",
          "type": "uint256",
          "indexed": true,
          "internalType": "uint256"
        },
        {
          "name": "_creator",
          "type": "address",
          "indexed": false,
          "internalType": "address"
        }
      ],
      "anonymous": false
    },
    {
      "type": "event",
      "name": "ETHReceivedFromUnknownSource",
      "inputs": [
        {
          "name": "_sender",
          "type": "address",
          "indexed": true,
          "internalType": "address"
        },
        {
          "name": "_amount",
          "type": "uint256",
          "indexed": false,
          "internalType": "uint256"
        }
      ],
      "anonymous": false
    },
    {
      "type": "event",
      "name": "EscrowDurationExtended",
      "inputs": [
        {
          "name": "_flaunch",
          "type": "address",
          "indexed": false,
          "internalType": "address"
        },
        {
          "name": "_tokenId",
          "type": "uint256",
          "indexed": false,
          "internalType": "uint256"
        },
        {
          "name": "_newDuration",
          "type": "uint256",
          "indexed": false,
          "internalType": "uint256"
        }
      ],
      "anonymous": false
    },
    {
      "type": "event",
      "name": "ManagerInitialized",
      "inputs": [
        {
          "name": "_owner",
          "type": "address",
          "indexed": false,
          "internalType": "address"
        },
        {
          "name": "_params",
          "type": "tuple",
          "indexed": false,
          "internalType": "struct StakingManager.InitializeParams",
          "components": [
            {
              "name": "stakingToken",
              "type": "address",
              "internalType": "address"
            },
            {
              "name": "minEscrowDuration",
              "type": "uint256",
              "internalType": "uint256"
            },
            {
              "name": "minStakeDuration",
              "type": "uint256",
              "internalType": "uint256"
            },
            {
              "name": "creatorShare",
              "type": "uint256",
              "internalType": "uint256"
            },
            {
              "name": "ownerShare",
              "type": "uint256",
              "internalType": "uint256"
            }
          ]
        }
      ],
      "anonymous": false
    },
    {
      "type": "event",
      "name": "ManagerOwnershipTransferred",
      "inputs": [
        {
          "name": "_previousOwner",
          "type": "address",
          "indexed": true,
          "internalType": "address"
        },
        {
          "name": "_newOwner",
          "type": "address",
          "indexed": true,
          "internalType": "address"
        }
      ],
      "anonymous": false
    },
    {
      "type": "event",
      "name": "OwnerShareInitialized",
      "inputs": [
        {
          "name": "_ownerShare",
          "type": "uint256",
          "indexed": false,
          "internalType": "uint256"
        }
      ],
      "anonymous": false
    },
    {
      "type": "event",
      "name": "PermissionsUpdated",
      "inputs": [
        {
          "name": "_permissions",
          "type": "address",
          "indexed": false,
          "internalType": "address"
        }
      ],
      "anonymous": false
    },
    {
      "type": "event",
      "name": "Stake",
      "inputs": [
        {
          "name": "_sender",
          "type": "address",
          "indexed": false,
          "internalType": "address"
        },
        {
          "name": "_amount",
          "type": "uint256",
          "indexed": false,
          "internalType": "uint256"
        },
        {
          "name": "_position",
          "type": "tuple",
          "indexed": false,
          "internalType": "struct StakingManager.Position",
          "components": [
            {
              "name": "amount",
              "type": "uint256",
              "internalType": "uint256"
            },
            {
              "name": "timelockedUntil",
              "type": "uint256",
              "internalType": "uint256"
            },
            {
              "name": "ethRewardsPerTokenSnapshotX128",
              "type": "uint256",
              "internalType": "uint256"
            },
            {
              "name": "ethOwed",
              "type": "uint256",
              "internalType": "uint256"
            }
          ]
        }
      ],
      "anonymous": false
    },
    {
      "type": "event",
      "name": "TreasuryEscrowed",
      "inputs": [
        {
          "name": "_flaunch",
          "type": "address",
          "indexed": true,
          "internalType": "address"
        },
        {
          "name": "_tokenId",
          "type": "uint256",
          "indexed": true,
          "internalType": "uint256"
        },
        {
          "name": "_owner",
          "type": "address",
          "indexed": false,
          "internalType": "address"
        },
        {
          "name": "_sender",
          "type": "address",
          "indexed": false,
          "internalType": "address"
        }
      ],
      "anonymous": false
    },
    {
      "type": "event",
      "name": "TreasuryReclaimed",
      "inputs": [
        {
          "name": "_flaunch",
          "type": "address",
          "indexed": true,
          "internalType": "address"
        },
        {
          "name": "_tokenId",
          "type": "uint256",
          "indexed": true,
          "internalType": "uint256"
        },
        {
          "name": "_sender",
          "type": "address",
          "indexed": false,
          "internalType": "address"
        },
        {
          "name": "_recipient",
          "type": "address",
          "indexed": false,
          "internalType": "address"
        }
      ],
      "anonymous": false
    },
    {
      "type": "event",
      "name": "TreasuryTimelocked",
      "inputs": [
        {
          "name": "_flaunch",
          "type": "address",
          "indexed": true,
          "internalType": "address"
        },
        {
          "name": "_tokenId",
          "type": "uint256",
          "indexed": true,
          "internalType": "uint256"
        },
        {
          "name": "_unlockedAt",
          "type": "uint256",
          "indexed": false,
          "internalType": "uint256"
        }
      ],
      "anonymous": false
    },
    {
      "type": "event",
      "name": "Unstake",
      "inputs": [
        {
          "name": "_sender",
          "type": "address",
          "indexed": false,
          "internalType": "address"
        },
        {
          "name": "_amount",
          "type": "uint256",
          "indexed": false,
          "internalType": "uint256"
        },
        {
          "name": "_position",
          "type": "tuple",
          "indexed": false,
          "internalType": "struct StakingManager.Position",
          "components": [
            {
              "name": "amount",
              "type": "uint256",
              "internalType": "uint256"
            },
            {
              "name": "timelockedUntil",
              "type": "uint256",
              "internalType": "uint256"
            },
            {
              "name": "ethRewardsPerTokenSnapshotX128",
              "type": "uint256",
              "internalType": "uint256"
            },
            {
              "name": "ethOwed",
              "type": "uint256",
              "internalType": "uint256"
            }
          ]
        }
      ],
      "anonymous": false
    },
    {
      "type": "error",
      "name": "AlreadyInitialized",
      "inputs": []
    },
    {
      "type": "error",
      "name": "CreatorShareAlreadyInitialized",
      "inputs": []
    },
    {
      "type": "error",
      "name": "FlaunchContractNotValid",
      "inputs": []
    },
    {
      "type": "error",
      "name": "InsufficientBalance",
      "inputs": []
    },
    {
      "type": "error",
      "name": "InvalidClaimer",
      "inputs": []
    },
    {
      "type": "error",
      "name": "InvalidCreator",
      "inputs": []
    },
    {
      "type": "error",
      "name": "InvalidCreatorAddress",
      "inputs": []
    },
    {
      "type": "error",
      "name": "InvalidCreatorShare",
      "inputs": []
    },
    {
      "type": "error",
      "name": "InvalidOwnerShare",
      "inputs": []
    },
    {
      "type": "error",
      "name": "InvalidRecipient",
      "inputs": []
    },
    {
      "type": "error",
      "name": "InvalidRecipientShareTotal",
      "inputs": [
        {
          "name": "_share",
          "type": "uint256",
          "internalType": "uint256"
        },
        {
          "name": "_validShare",
          "type": "uint256",
          "internalType": "uint256"
        }
      ]
    },
    {
      "type": "error",
      "name": "InvalidShareTotal",
      "inputs": []
    },
    {
      "type": "error",
      "name": "InvalidStakeAmount",
      "inputs": []
    },
    {
      "type": "error",
      "name": "InvalidStakingToken",
      "inputs": []
    },
    {
      "type": "error",
      "name": "InvalidUnstakeAmount",
      "inputs": []
    },
    {
      "type": "error",
      "name": "NotInitialized",
      "inputs": []
    },
    {
      "type": "error",
      "name": "NotManagerOwner",
      "inputs": []
    },
    {
      "type": "error",
      "name": "OwnerShareAlreadyInitialized",
      "inputs": []
    },
    {
      "type": "error",
      "name": "Reentrancy",
      "inputs": []
    },
    {
      "type": "error",
      "name": "StakeLocked",
      "inputs": []
    },
    {
      "type": "error",
      "name": "TokenTimelocked",
      "inputs": [
        {
          "name": "_unlockedAt",
          "type": "uint256",
          "internalType": "uint256"
        }
      ]
    },
    {
      "type": "error",
      "name": "UnableToSendRevenue",
      "inputs": [
        {
          "name": "_reason",
          "type": "bytes",
          "internalType": "bytes"
        }
      ]
    },
    {
      "type": "error",
      "name": "UnknownFlaunchToken",
      "inputs": []
    },
    {
      "type": "error",
      "name": "UnknownPoolId",
      "inputs": []
    }
  ],
  "bytecode": {
    "object": "0x610100604052348015610010575f80fd5b506040516136df3803806136df83398101604081905261002f9161006b565b6001600160a01b0390811660a05216608081905260c081905260e05261009c565b80516001600160a01b0381168114610066575f80fd5b919050565b5f806040838503121561007c575f80fd5b61008583610050565b915061009360208401610050565b90509250929050565b60805160a05160c05160e0516136086100d75f395f50505f50505f81816103b701526128e801525f818161094401526120e201526136085ff3fe608060405260043610610246575f3560e01c8063158ef93e146103715780631d5e565e146103a6578063251c6ab3146103e657806327e235e31461040957806329d62b80146104285780632e17de7814610453578063317a5d7314610472578063352f64f91461048757806336cac733146104a6578063386cd8f1146104dc578063423abf62146104f0578063456d28d91461050f5780634b59c5531461052e5780634e71d92d1461056457806354dad46e146105785780635889d0e2146105975780635895d690146105cd5780635cdc291e146105ec5780635e788533146106025780635fec5c6414610616578063613cf4201461062b5780636694ba611461068b5780636abf2376146105ec57806372f702f31461069f5780638badaf01146105ec5780638d87eda2146106be5780638f1c3151146106dd57806392974e49146106f2578063929f91d81461070657806397feeecc146107255780639f704ce614610771578063a12567b914610792578063a44ca289146107ac578063a694fc3a146107c0578063ab8c71c0146107df578063aca20207146107fd578063c32d3ae21461081c578063c598b2f914610856578063c870e74f14610875578063d1f578941461088a578063d5364783146108a9578063dd89e3d2146108bd578063de1886e3146108dc578063e486033914610907578063ea799e4e14610933578063f1af9d3f14610966578063f27b80cd14610985578063f60abaab146109a4578063f6151089146109c3578063f8b5f2a8146109d8578063ff50abdc14610a17575f80fd5b3661036d575f8061025633610a2c565b9150915081156102e9575f8161028e5761026f34610c33565b9050801561028e578060145f8282546102889190612e1c565b90915550505b5f61029834610c80565b905080156102b7578060115f8282546102b19190612e1c565b90915550505b806102c28334612e2f565b6102cc9190612e2f565b60155f8282546102dc9190612e1c565b9091555061036b92505050565b5f6102f334610c80565b90508060115f8282546103069190612e1c565b9091555061031690508134612e2f565b60155f8282546103269190612e1c565b909155503390507f563f2cc118bf82c8ed8a9fd5a59653e589a5797d5011ed9cc9841568c314f0f66103588334612e2f565b60405190815260200160405180910390a2505b005b5f80fd5b34801561037c575f80fd5b5060035461039190600160a01b900460ff1681565b60405190151581526020015b60405180910390f35b3480156103b1575f80fd5b506103d97f000000000000000000000000000000000000000000000000000000000000000081565b60405161039d9190612e42565b3480156103f1575f80fd5b506103fb60065481565b60405190815260200161039d565b348015610414575f80fd5b506103fb610423366004612e6d565b610ca1565b348015610433575f80fd5b506103fb610442366004612e6d565b600c6020525f908152604090205481565b34801561045e575f80fd5b5061036b61046d366004612e88565b610cd3565b34801561047d575f80fd5b506103fb601a5481565b348015610492575f80fd5b506103fb6104a1366004612e88565b610c80565b3480156104b1575f80fd5b506103fb6104c0366004612e9f565b600d60209081525f928352604080842090915290825290205481565b3480156104e7575f80fd5b506103fb610dd6565b3480156104fb575f80fd5b5061036b61050a366004612ed9565b610df1565b34801561051a575f80fd5b5061036b610529366004612e6d565b610fbd565b348015610539575f80fd5b506103fb610548366004612e9f565b600a60209081525f928352604080842090915290825290205481565b34801561056f575f80fd5b506103fb61103d565b348015610583575f80fd5b5061036b610592366004612e6d565b6111d0565b3480156105a2575f80fd5b506103fb6105b1366004612e9f565b600460209081525f928352604080842090915290825290205481565b3480156105d8575f80fd5b5061036b6105e7366004612ed9565b611256565b3480156105f7575f80fd5b506103fb6298968081565b34801561060d575f80fd5b506103fb611413565b348015610621575f80fd5b506103fb60185481565b348015610636575f80fd5b5061066b610645366004612e6d565b601c6020525f908152604090208054600182015460028301546003909301549192909184565b60408051948552602085019390935291830152606082015260800161039d565b348015610696575f80fd5b506103fb611423565b3480156106aa575f80fd5b506016546103d9906001600160a01b031681565b3480156106c9575f80fd5b506103fb6106d8366004612f7b565b61145a565b3480156106e8575f80fd5b506103fb60105481565b3480156106fd575f80fd5b506103fb6114b5565b348015610711575f80fd5b506003546103d9906001600160a01b031681565b348015610730575f80fd5b5061076361073f366004612e88565b60096020525f9081526040902080546001909101546001600160a01b039091169082565b60405161039d929190612fd2565b34801561077c575f80fd5b506103fb61078b366004612feb565b5f92915050565b34801561079d575f80fd5b5061039161078b366004612feb565b3480156107b7575f80fd5b506103fb6114cb565b3480156107cb575f80fd5b5061036b6107da366004612e88565b61150c565b3480156107ea575f80fd5b505f546103d9906001600160a01b031681565b348015610808575f80fd5b5061036b610817366004613090565b61162d565b348015610827575f80fd5b5061083b610836366004612e6d565b61177f565b6040805193845260208401929092529082015260600161039d565b348015610861575f80fd5b506103fb610870366004612e6d565b6117f0565b348015610880575f80fd5b506103fb60175481565b348015610895575f80fd5b5061036b6108a43660046130ee565b6118da565b3480156108b4575f80fd5b506103fb611937565b3480156108c8575f80fd5b5061036b6108d736600461313e565b611944565b3480156108e7575f80fd5b506103fb6108f6366004612e88565b600f6020525f908152604090205481565b348015610912575f80fd5b50610926610921366004612e6d565b611b0d565b60405161039d919061319d565b34801561093e575f80fd5b506103d97f000000000000000000000000000000000000000000000000000000000000000081565b348015610971575f80fd5b506103fb610980366004612e88565b610c33565b348015610990575f80fd5b5061039161099f3660046130ee565b611c21565b3480156109af575f80fd5b5061036b6109be3660046131f4565b611cd4565b3480156109ce575f80fd5b506103fb60155481565b3480156109e3575f80fd5b506103d96109f2366004612e9f565b600b60209081525f92835260408084209091529082529020546001600160a01b031681565b348015610a22575f80fd5b506103fb60195481565b5f805f306001600160a01b0316631d5e565e6040518163ffffffff1660e01b8152600401602060405180830381865afa158015610a6b573d5f803e3d5ffd5b505050506040513d601f19601f82011682018060405250810190610a8f919061321d565b6001600160a01b031663e6e5ce616040518163ffffffff1660e01b81526004015f60405180830381865afa158015610ac9573d5f803e3d5ffd5b505050506040513d5f823e601f3d908101601f19168201604052610af09190810190613238565b90505f5b8151811015610c2757818181518110610b0f57610b0f6132ea565b60200260200101516001600160a01b0316856001600160a01b031603610c1f576001306001600160a01b0316631d5e565e6040518163ffffffff1660e01b8152600401602060405180830381865afa158015610b6d573d5f803e3d5ffd5b505050506040513d601f19601f82011682018060405250810190610b91919061321d565b6001600160a01b0316632aec79a0848481518110610bb157610bb16132ea565b60200260200101516040518263ffffffff1660e01b8152600401610bd59190612e42565b602060405180830381865afa158015610bf0573d5f803e3d5ffd5b505050506040513d601f19601f82011682018060405250810190610c1491906132fe565b935093505050915091565b600101610af4565b505f9485945092505050565b5f6006545f03610c4457505f919050565b6298968060016298968060065485610c5c919061331d565b610c669190612e1c565b610c709190612e2f565b610c7a9190613334565b92915050565b5f6010545f03610c9157505f919050565b610c7a8260105462989680611da8565b5f805f80610cae85611e44565b9194509250905080610cc08385612e1c565b610cca9190612e1c565b95945050505050565b805f03610cf3576040516314fea1a960e11b815260040160405180910390fd5b335f908152601c602052604090206001810154421015610d2657604051630a68850160e11b815260040160405180910390fd5b8054821115610d4857604051631e9acf1760e31b815260040160405180910390fd5b610d5061103d565b5081815f015f828254610d639190612e2f565b925050819055508160195f828254610d7b9190612e2f565b9091555050601654610d97906001600160a01b03163384611e84565b7f8f6f600a5f14befd59790444768ed4506404e49e4eeea7d3c37db2e121164fd8338383604051610dca93929190613353565b60405180910390a15050565b5f610ddf611937565b601154610dec9190612e1c565b905090565b6003546001600160a01b03163314610e1c5760405163055c69b360e21b815260040160405180910390fd5b6001600160a01b038116610e4357604051632953f2b160e11b815260040160405180910390fd5b5f600a81610e546020860186612e6d565b6001600160a01b03166001600160a01b031681526020019081526020015f205f846020013581526020019081526020015f20549050805f03610ea957604051631817ca2f60e21b815260040160405180910390fd5b5f600b81610eba6020870187612e6d565b6001600160a01b03908116825260208083019390935260409182015f908120888501358252845282812054909116808252600890935220909150610efe9083611ece565b5082600b5f610f106020880188612e6d565b6001600160a01b03908116825260208083019390935260409182015f908120898501358252845282812080546001600160a01b031916958316959095179094558616835260089091529020610f659083611ed9565b5060208401803590610f779086612e6d565b6001600160a01b03167ff158a30e07f6136b9000a3846b6b2636e806252bdbd77fffa0de8b8acb8e5c9685604051610faf9190612e42565b60405180910390a350505050565b6003546001600160a01b03163314610fe85760405163055c69b360e21b815260040160405180910390fd5b5f80546001600160a01b0319166001600160a01b0383161790556040517f5a69bc901a3721ad12ec7fe5205ec8f834cf1e9789c050df579f3f056b20609390611032908390612e42565b60405180910390a150565b5f3068929eee149b4bd21268540361105c5763ab143c065f526004601cfd5b3068929eee149b4bd2126855611070611ee4565b5f805f61107c33611e44565b919450925090505f8161108f8486612e1c565b6110999190612e1c565b9050805f036110ae575f9450505050506111c1565b83156110d457335f908152601c602052604081206003810191909155601a546002909101555b821561115b575f5b335f9081526008602052604090206110f390611f52565b81101561115957335f908152600860205260408120611150916009916111199085611f5b565b815260208082019290925260409081015f20815180830190925280546001600160a01b031682526001015491810191909152611f66565b506001016110dc565b505b8115611178578160125f8282546111729190612e1c565b90915550505b611182338261207e565b7f47cee97cb7acd717b3c0aa1435d004cd5b3c8c57d70dbceb4e4458bbd60e39d433826040516111b3929190612fd2565b60405180910390a193505050505b3868929eee149b4bd212685590565b6003546001600160a01b031633146111fb5760405163055c69b360e21b815260040160405180910390fd5b6003546040516001600160a01b038084169216907fa5a2dd3431597064e923a3012e8282ad3d41e471c0e85d12a3463adf5a91d614905f90a3600380546001600160a01b0319166001600160a01b0392909216919091179055565b6003546001600160a01b031633146112815760405163055c69b360e21b815260040160405180910390fd5b6112966112916020840184612e6d565b61209b565b6112b357604051631301884560e31b815260040160405180910390fd5b5f6004816112c46020860186612e6d565b6001600160a01b03166001600160a01b031681526020019081526020015f205f846020013581526020019081526020015f20549050804210156113225760405163257f948b60e21b8152600481018290526024015b60405180910390fd5b60045f6113326020860186612e6d565b6001600160a01b0316815260208082019290925260409081015f908120868401803583529352908120556113669084612e6d565b6001600160a01b03166323b872dd308486602001356040518463ffffffff1660e01b815260040161139993929190613393565b5f604051808303815f87803b1580156113b0575f80fd5b505af11580156113c2573d5f803e3d5ffd5b50505060208401803591506113d79085612e6d565b6003546040516001600160a01b03928316925f80516020613593833981519152926114069291169087906133b7565b60405180910390a3505050565b5f6005546001610dec9190612e1c565b5f6006545f0361143257505f90565b5f61143c3061214d565b905061144781610c33565b6014546114549190612e1c565b91505090565b80516001600160a01b03165f908152600a602090815260408083208285015184529091528120548082036114a15760405163c1ad708960e01b815260040160405180910390fd5b5f908152600f602052604090205492915050565b5f6012546114c1610dd6565b610dec9190612e2f565b5f806114d63061214d565b90506114e181610c80565b6114ea82610c33565b826015546114f89190612e1c565b6115029190612e2f565b6114549190612e2f565b3068929eee149b4bd21268540361152a5763ab143c065f526004601cfd5b3068929eee149b4bd2126855805f0361155657604051630103be3b60e21b815260040160405180910390fd5b61155e611ee4565b601654611576906001600160a01b03163330846122b5565b8060195f8282546115879190612e1c565b9091555050335f908152601c602052604090208054156115b0576115aa3361230e565b60038201555b81815f015f8282546115c29190612e1c565b90915550506018546115d49042612e1c565b6001820155601a5460028201556040517f3d0465ebcffba0f6f0a087528ab69d79a95f0c273af602bf7331a0c1d88c91ba9061161590339085908590613353565b60405180910390a1503868929eee149b4bd212685550565b5f611637826123c8565b90505f60048161164a6020860186612e6d565b6001600160a01b03166001600160a01b031681526020019081526020015f205f846020013581526020019081526020015f20549050804210156116a35760405163257f948b60e21b815260048101829052602401611319565b60045f6116b36020860186612e6d565b6001600160a01b0316815260208082019290925260409081015f908120868401803583529352908120556116e79084612e6d565b6001600160a01b03166323b872dd308486602001356040518463ffffffff1660e01b815260040161171a93929190613393565b5f604051808303815f87803b158015611731575f80fd5b505af1158015611743573d5f803e3d5ffd5b50505060208401803591506117589085612e6d565b6001600160a01b03165f8051602061359383398151915284856040516114069291906133b7565b6001600160a01b0381165f908152601c6020908152604080832081516080810183528154815260018201549381019390935260028101549183019190915260030154606082015281908190816117d486611e44565b50508251602090930151929550919350909150505b9193909250565b5f6006545f0361180157505f919050565b5f5b6001600160a01b0383165f90815260086020526040902061182390611f52565b8110156118d4576001600160a01b0383165f90815260086020526040812061188b9060099083906118549086611f5b565b815260208082019290925260409081015f20815180830190925280546001600160a01b03168252600101549181019190915261145a565b5f818152600e6020526040812054919250906118a68361242c565b6118b09190612e2f565b90506118bb81610c33565b6118c59085612e1c565b93505050806001019050611803565b50919050565b600354600160a01b900460ff16156119045760405162dc149f60e41b815260040160405180910390fd5b600380546001600160a01b0385166001600160a81b031990911617600160a01b17905561193283838361262b565b505050565b5f610dec6104a13061214d565b600354600160a01b900460ff1661196e576040516321c4e35760e21b815260040160405180910390fd5b61197e6112916020860186612e6d565b61199b57604051631301884560e31b815260040160405180910390fd5b6119a6338383611c21565b6119c3576040516332db94d160e21b815260040160405180910390fd5b6119d06020850185612e6d565b6001600160a01b03166323b872dd6119eb6020870187612e6d565b6040516331a9108f60e11b8152602088013560048201526001600160a01b039190911690636352211e90602401602060405180830381865afa158015611a33573d5f803e3d5ffd5b505050506040513d601f19601f82011682018060405250810190611a57919061321d565b3087602001356040518463ffffffff1660e01b8152600401611a7b93929190613393565b5f604051808303815f87803b158015611a92575f80fd5b505af1158015611aa4573d5f803e3d5ffd5b5050506020850180359150611ab99086612e6d565b6001600160a01b03167fbf935925356a4b987cf86dda3b324a29c47a45769d96b8a2089888f2c176dfd48533604051611af39291906133b7565b60405180910390a3611b0784848484612720565b50505050565b6001600160a01b0381165f90815260086020526040812060609190611b3190611f52565b9050806001600160401b03811115611b4b57611b4b612f0f565b604051908082528060200260200182016040528015611b8f57816020015b604080518082019091525f8082526020820152815260200190600190039081611b695790505b5091505f5b81811015611c1a576001600160a01b0384165f90815260086020526040812060099190611bc19084611f5b565b815260208082019290925260409081015f20815180830190925280546001600160a01b0316825260010154918101919091528351849083908110611c0757611c076132ea565b6020908102919091010152600101611b94565b5050919050565b6003545f906001600160a01b0390811690851603611c4157506001611ccd565b5f546001600160a01b0316611c5857506001611ccd565b5f5460405163f27b80cd60e01b81526001600160a01b039091169063f27b80cd90611c8b908790879087906004016133d1565b602060405180830381865afa158015611ca6573d5f803e3d5ffd5b505050506040513d601f19601f82011682018060405250810190611cca91906132fe565b90505b9392505050565b611cdd826123c8565b508060045f611cef6020860186612e6d565b6001600160a01b03166001600160a01b031681526020019081526020015f205f846020013581526020019081526020015f205f828254611d2f9190612e1c565b909155505f805160206135b38339815191529050611d506020840184612e6d565b602084018035906004905f90611d669088612e6d565b6001600160a01b03166001600160a01b031681526020019081526020015f205f866020013581526020019081526020015f2054604051610dca93929190613410565b5f838302815f1985870982811083820303915050808411611dc7575f80fd5b805f03611dd957508290049050611ccd565b5f848688095f868103871696879004966002600389028118808a02820302808a02820302808a02820302808a02820302808a02820302808a02909103029181900381900460010186841190950394909402919094039290920491909117919091029150509392505050565b5f805f611e508461230e565b9250611e5b846117f0565b6003549092506001600160a01b03908116908516036117e957611e7c6114b5565b929491935050565b816014528060345263a9059cbb60601b5f5260205f604460105f875af18060015f511416611ec457803d853b151710611ec4576390b8ec185f526004601cfd5b505f603452505050565b5f611ccd83836127b6565b5f611ccd8383612899565b611eef3060016128e5565b5f611ef86114cb565b90505f601b5482611f099190612e2f565b9050805f03611f16575050565b601b8290556019545f03611f28575050565b611f3981600160801b601954611da8565b601a5f828254611f499190612e1c565b90915550505050565b5f610c7a825490565b5f611ccd83836129fc565b80516001600160a01b039081165f908152600b602090815260408083208286015184529091528120549091163314611fb0576040516208978560e71b815260040160405180910390fd5b6006545f03611fc057505f919050565b5f611fca8361145a565b90505f611fd68261242c565b5f838152600e6020526040902054909150611ff5906109809083612e2f565b5f838152600e6020526040812083905590935083900361201857505f9392505050565b335f908152600c602052604081208054859290612036908490612e1c565b909155505083516001600160a01b03165f908152600d6020908152604080832082880151845290915281208054859290612071908490612e1c565b9091555092949350505050565b5f385f3884865af16120975763b12d13eb5f526004601cfd5b5050565b604051632474521560e21b81527ff191ef14c0cb2fac96666f4a602d2ed1e12501d0c4a95b6ee18b109463aa348260048201526001600160a01b0382811660248301525f917f0000000000000000000000000000000000000000000000000000000000000000909116906391d1485490604401602060405180830381865afa158015612129573d5f803e3d5ffd5b505050506040513d601f19601f82011682018060405250810190610c7a91906132fe565b5f80306001600160a01b0316631d5e565e6040518163ffffffff1660e01b8152600401602060405180830381865afa15801561218b573d5f803e3d5ffd5b505050506040513d601f19601f820116820180604052508101906121af919061321d565b6001600160a01b031663e6e5ce616040518163ffffffff1660e01b81526004015f60405180830381865afa1580156121e9573d5f803e3d5ffd5b505050506040513d5f823e601f3d908101601f191682016040526122109190810190613238565b90505f5b8151811015611c1a5781818151811061222f5761222f6132ea565b60200260200101516001600160a01b03166327e235e3856040518263ffffffff1660e01b81526004016122629190612e42565b602060405180830381865afa15801561227d573d5f803e3d5ffd5b505050506040513d601f19601f820116820180604052508101906122a19190613431565b6122ab9084612e1c565b9250600101612214565b60405181606052826040528360601b602c526323b872dd60601b600c5260205f6064601c5f895af18060015f51141661230057803d873b15171061230057637939f4245f526004601cfd5b505f60605260405250505050565b6001600160a01b0381165f908152601c60209081526040808320815160808101835281548152600182015493810193909352600281015491830191909152600301546060820152601a546019541561239257612385601b5461236e6114cb565b6123789190612e2f565b600160801b601954611da8565b61238f9082612e1c565b90505b81606001516123b68360400151836123aa9190612e2f565b8451600160801b611da8565b6123c09190612e1c565b949350505050565b5f600b816123d96020850185612e6d565b6001600160a01b03908116825260208083019390935260409182015f90812086850135825290935291205416905033811461242757604051632953f2b160e11b815260040160405180910390fd5b919050565b5f80306001600160a01b0316631d5e565e6040518163ffffffff1660e01b8152600401602060405180830381865afa15801561246a573d5f803e3d5ffd5b505050506040513d601f19601f8201168201806040525081019061248e919061321d565b90505f816001600160a01b031663e6e5ce616040518163ffffffff1660e01b81526004015f60405180830381865afa1580156124cc573d5f803e3d5ffd5b505050506040513d5f823e601f3d908101601f191682016040526124f39190810190613238565b90505f5b815181101561262357826001600160a01b0316632aec79a0838381518110612521576125216132ea565b60200260200101516040518263ffffffff1660e01b81526004016125459190612e42565b602060405180830381865afa158015612560573d5f803e3d5ffd5b505050506040513d601f19601f8201168201806040525081019061258491906132fe565b61261b5781818151811061259a5761259a6132ea565b60200260200101516001600160a01b031663e3d87443866040518263ffffffff1660e01b81526004016125cf91815260200190565b602060405180830381865afa1580156125ea573d5f803e3d5ffd5b505050506040513d601f19601f8201168201806040525081019061260e9190613431565b6126189085612e1c565b93505b6001016124f7565b505050919050565b5f61263882840184613448565b80519091506001600160a01b0316612663576040516330704cfd60e11b815260040160405180910390fd5b8051601680546001600160a01b0319166001600160a01b0390921691909117905560208101516017556040810151601855606081015160808201516126a89190612a22565b604080516001600160a01b038087168252835116602080830191909152830151818301529082015160608083019190915282015160808083019190915282015160a08201527f318f61a70660ec2c9a1eb5d6e68c230b89c22d8659a6c840a225eef2ffb816169060c00160405180910390a150505050565b61272c84848484612a61565b5f6017544261273b9190612e1c565b90508060045f61274e6020890189612e6d565b6001600160a01b0316815260208082019290925260409081015f90812089840180358352935220919091555f805160206135b3833981519152906127929087612e6d565b8660200135836040516127a793929190613410565b60405180910390a15050505050565b5f8181526001830160205260408120548015612890575f6127d8600183612e2f565b85549091505f906127eb90600190612e2f565b905080821461284a575f865f018281548110612809576128096132ea565b905f5260205f200154905080875f018481548110612829576128296132ea565b5f918252602080832090910192909255918252600188019052604090208390555b855486908061285b5761285b6134a0565b600190038181905f5260205f20015f90559055856001015f8681526020019081526020015f205f905560019350505050610c7a565b5f915050610c7a565b5f8181526001830160205260408120546128de57508154600181810184555f848152602080822090930184905584548482528286019093526040902091909155610c7a565b505f610c7a565b5f7f00000000000000000000000000000000000000000000000000000000000000006001600160a01b031663e6e5ce616040518163ffffffff1660e01b81526004015f60405180830381865afa158015612941573d5f803e3d5ffd5b505050506040513d5f823e601f3d908101601f191682016040526129689190810190613238565b90505f5b8151811015611b0757818181518110612987576129876132ea565b6020908102919091010151604051630130b65360e61b81526001600160a01b038681166004830152851515602483015290911690634c2d94c0906044015f604051808303815f87803b1580156129db575f80fd5b505af11580156129ed573d5f803e3d5ffd5b5050505080600101905061296c565b5f825f018281548110612a1157612a116132ea565b905f5260205f200154905092915050565b612a2b82612cf1565b612a3481612d7d565b62989680612a428284612e1c565b111561209757604051634582115960e11b815260040160405180910390fd5b6001600160a01b038316612a8857604051632953f2b160e11b815260040160405180910390fd5b82600b5f612a996020880188612e6d565b6001600160a01b03908116825260208083019390935260409182015f90812089850180358352945291822080546001600160a01b0319169490911693909317909255612c3190612ae99087612e6d565b6001600160a01b031663791b98bc6040518163ffffffff1660e01b8152600401602060405180830381865afa158015612b24573d5f803e3d5ffd5b505050506040513d601f19601f82011682018060405250810190612b48919061321d565b6001600160a01b03166355d1cb60612b636020890189612e6d565b604051633927061560e21b815260208a013560048201526001600160a01b03919091169063e49c185490602401602060405180830381865afa158015612bab573d5f803e3d5ffd5b505050506040513d601f19601f82011682018060405250810190612bcf919061321d565b6040518263ffffffff1660e01b8152600401612beb9190612e42565b60a060405180830381865afa158015612c06573d5f803e3d5ffd5b505050506040513d601f19601f82011682018060405250810190612c2a91906134bf565b60a0902090565b9050612c3c8161242c565b5f828152600e602052604081209190915560058054909190612c5d90613544565b909155506005545f9081526009602052604090208590612c7d828261355c565b5050600554600a5f612c926020890189612e6d565b6001600160a01b03908116825260208083019390935260409182015f9081208a850135825284528281209490945560055490881684526008909252909120612cd991611ed9565b506005545f908152600f602052604090205550505050565b60075460ff1615612d155760405163f8b46e0f60e01b815260040160405180910390fd5b62989680811115612d395760405163127ba7bd60e21b815260040160405180910390fd5b60068190556007805460ff191660011790556040517fa6a016bcbe48c83e07e413d7785f1b5258be5fee55effccf0fdb4f6a8505b11a906110329083815260200190565b60135460ff1615612da1576040516335115f5f60e11b815260040160405180910390fd5b62989680811115612dc55760405163ce4c60d960e01b815260040160405180910390fd5b60108190556013805460ff191660011790556040517e5c41aab46a9cc5c4de626580e2ccc2789b16896fe8d21405825cc8db0573b9906110329083815260200190565b634e487b7160e01b5f52601160045260245ffd5b80820180821115610c7a57610c7a612e08565b81810381811115610c7a57610c7a612e08565b6001600160a01b0391909116815260200190565b6001600160a01b0381168114612e6a575f80fd5b50565b5f60208284031215612e7d575f80fd5b8135611ccd81612e56565b5f60208284031215612e98575f80fd5b5035919050565b5f8060408385031215612eb0575f80fd5b8235612ebb81612e56565b946020939093013593505050565b5f604082840312156118d4575f80fd5b5f8060608385031215612eea575f80fd5b612ef48484612ec9565b91506040830135612f0481612e56565b809150509250929050565b634e487b7160e01b5f52604160045260245ffd5b60405160a081016001600160401b0381118282101715612f4557612f45612f0f565b60405290565b604051601f8201601f191681016001600160401b0381118282101715612f7357612f73612f0f565b604052919050565b5f6040828403128015612f8c575f80fd5b50604080519081016001600160401b0381118282101715612faf57612faf612f0f565b6040528235612fbd81612e56565b81526020928301359281019290925250919050565b6001600160a01b03929092168252602082015260400190565b5f8060408385031215612ffc575f80fd5b823561300781612e56565b915060208301356001600160401b03811115613021575f80fd5b8301601f81018513613031575f80fd5b80356001600160401b0381111561304a5761304a612f0f565b61305d601f8201601f1916602001612f4b565b818152866020838501011115613071575f80fd5b816020840160208301375f602083830101528093505050509250929050565b5f604082840312156130a0575f80fd5b611ccd8383612ec9565b5f8083601f8401126130ba575f80fd5b5081356001600160401b038111156130d0575f80fd5b6020830191508360208285010111156130e7575f80fd5b9250929050565b5f805f60408486031215613100575f80fd5b833561310b81612e56565b925060208401356001600160401b03811115613125575f80fd5b613131868287016130aa565b9497909650939450505050565b5f805f8060808587031215613151575f80fd5b61315b8686612ec9565b9350604085013561316b81612e56565b925060608501356001600160401b03811115613185575f80fd5b613191878288016130aa565b95989497509550505050565b602080825282518282018190525f918401906040840190835b818110156131e957835180516001600160a01b0316845260209081015181850152909301926040909201916001016131b6565b509095945050505050565b5f8060608385031215613205575f80fd5b61320f8484612ec9565b946040939093013593505050565b5f6020828403121561322d575f80fd5b8151611ccd81612e56565b5f60208284031215613248575f80fd5b81516001600160401b0381111561325d575f80fd5b8201601f8101841361326d575f80fd5b80516001600160401b0381111561328657613286612f0f565b8060051b61329660208201612f4b565b918252602081840181019290810190878411156132b1575f80fd5b6020850194505b838510156132df57845192506132cd83612e56565b828252602094850194909101906132b8565b979650505050505050565b634e487b7160e01b5f52603260045260245ffd5b5f6020828403121561330e575f80fd5b81518015158114611ccd575f80fd5b8082028115828204841417610c7a57610c7a612e08565b5f8261334e57634e487b7160e01b5f52601260045260245ffd5b500490565b6001600160a01b0393909316835260208301919091528054604083015260018101546060830152600281015460808301526003015460a082015260c00190565b6001600160a01b039384168152919092166020820152604081019190915260600190565b6001600160a01b0392831681529116602082015260400190565b6001600160a01b03841681526040602082018190528101829052818360608301375f818301606090810191909152601f909201601f1916010192915050565b6001600160a01b039390931683526020830191909152604082015260600190565b5f60208284031215613441575f80fd5b5051919050565b5f60a0828403128015613459575f80fd5b50613462612f23565b823561346d81612e56565b81526020838101359082015260408084013590820152606080840135908201526080928301359281019290925250919050565b634e487b7160e01b5f52603160045260245ffd5b805161242781612e56565b5f60a08284031280156134d0575f80fd5b506134d9612f23565b82516134e481612e56565b815260208301516134f481612e56565b6020820152604083015162ffffff8116811461350e575f80fd5b60408201526060830151600281900b8114613527575f80fd5b6060820152613538608084016134b4565b60808201529392505050565b5f6001820161355557613555612e08565b5060010190565b813561356781612e56565b81546001600160a01b0319166001600160a01b0391909116178155602091909101356001919091015556fec1c54a50cf096ff9557a0fd7b5dbd56bc541a68ae794a3b4648b2ac87128b97da0179cdcd0358e2f48fa123ed506884428ee86b9fd0f47485588143d460cfe43a2646970667358221220254f0308b84069079677d66113188c3634b8341286a95394f5bb3f0b8fc1c49364736f6c634300081a0033",
    "linkReferences": {}
  },
  "methodIdentifiers": {
    "MAX_CREATOR_SHARE()": "6abf2376",
    "MAX_OWNER_SHARE()": "8badaf01",
    "VALID_SHARE_TOTAL()": "5cdc291e",
    "balances(address)": "27e235e3",
    "claim()": "4e71d92d",
    "claimableOwnerFees()": "92974e49",
    "creator(address,uint256)": "f8b5f2a8",
    "creatorFees()": "6694ba61",
    "creatorShare()": "251c6ab3",
    "creatorTotalClaimed(address)": "29d62b80",
    "deposit((address,uint256),address,bytes)": "dd89e3d2",
    "escrowWithdraw((address,uint256))": "aca20207",
    "extendEscrowDuration((address,uint256),uint256)": "f60abaab",
    "feeEscrowRegistry()": "1d5e565e",
    "flaunchTokenInternalIds(address,uint256)": "4b59c553",
    "getCreatorFee(uint256)": "f1af9d3f",
    "getOwnerFee(uint256)": "352f64f9",
    "getPoolId((address,uint256))": "8d87eda2",
    "getUserStakeInfo(address)": "c32d3ae2",
    "globalEthRewardsPerTokenX128()": "317a5d73",
    "initialize(address,bytes)": "d1f57894",
    "initialized()": "158ef93e",
    "internalIds(uint256)": "97feeecc",
    "isValidCreator(address,bytes)": "f27b80cd",
    "isValidRecipient(address,bytes)": "a12567b9",
    "managerFees()": "a44ca289",
    "managerOwner()": "929f91d8",
    "minEscrowDuration()": "c870e74f",
    "minStakeDuration()": "5fec5c64",
    "nextInternalId()": "5e788533",
    "ownerFees()": "386cd8f1",
    "ownerShare()": "8f1c3151",
    "pendingCreatorFees(address)": "c598b2f9",
    "pendingOwnerFees()": "d5364783",
    "permissions()": "ab8c71c0",
    "recipientShare(address,bytes)": "9f704ce6",
    "rescue((address,uint256),address)": "5895d690",
    "setCreator((address,uint256),address)": "423abf62",
    "setPermissions(address)": "456d28d9",
    "splitFees()": "f6151089",
    "stake(uint256)": "a694fc3a",
    "stakingToken()": "72f702f3",
    "tokenPoolId(uint256)": "de1886e3",
    "tokenTimelock(address,uint256)": "5889d0e2",
    "tokenTotalClaimed(address,uint256)": "36cac733",
    "tokens(address)": "e4860339",
    "totalDeposited()": "ff50abdc",
    "transferManagerOwnership(address)": "54dad46e",
    "treasuryManagerFactory()": "ea799e4e",
    "unstake(uint256)": "2e17de78",
    "userPositions(address)": "613cf420"
  },
  "id": 231
}