{
  "abi": [
    {
      "type": "constructor",
      "inputs": [
        {
          "name": "_protocolOwner",
          "type": "address",
          "internalType": "address"
        },
        {
          "name": "_feeEscrow",
          "type": "address",
          "internalType": "address"
        }
      ],
      "stateMutability": "nonpayable"
    },
    {
      "type": "function",
      "name": "DEFAULT_ADMIN_ROLE",
      "inputs": [],
      "outputs": [
        {
          "name": "",
          "type": "bytes32",
          "internalType": "bytes32"
        }
      ],
      "stateMutability": "view"
    },
    {
      "type": "function",
      "name": "approveManager",
      "inputs": [
        {
          "name": "_managerImplementation",
          "type": "address",
          "internalType": "address"
        }
      ],
      "outputs": [],
      "stateMutability": "nonpayable"
    },
    {
      "type": "function",
      "name": "approvedManagerImplementation",
      "inputs": [
        {
          "name": "_managerImplementation",
          "type": "address",
          "internalType": "address"
        }
      ],
      "outputs": [
        {
          "name": "_approved",
          "type": "bool",
          "internalType": "bool"
        }
      ],
      "stateMutability": "view"
    },
    {
      "type": "function",
      "name": "cancelOwnershipHandover",
      "inputs": [],
      "outputs": [],
      "stateMutability": "payable"
    },
    {
      "type": "function",
      "name": "completeOwnershipHandover",
      "inputs": [
        {
          "name": "pendingOwner",
          "type": "address",
          "internalType": "address"
        }
      ],
      "outputs": [],
      "stateMutability": "payable"
    },
    {
      "type": "function",
      "name": "deployAndInitializeManager",
      "inputs": [
        {
          "name": "_managerImplementation",
          "type": "address",
          "internalType": "address"
        },
        {
          "name": "_owner",
          "type": "address",
          "internalType": "address"
        },
        {
          "name": "_data",
          "type": "bytes",
          "internalType": "bytes"
        }
      ],
      "outputs": [
        {
          "name": "manager_",
          "type": "address",
          "internalType": "address payable"
        }
      ],
      "stateMutability": "nonpayable"
    },
    {
      "type": "function",
      "name": "deployManager",
      "inputs": [
        {
          "name": "_managerImplementation",
          "type": "address",
          "internalType": "address"
        }
      ],
      "outputs": [
        {
          "name": "manager_",
          "type": "address",
          "internalType": "address payable"
        }
      ],
      "stateMutability": "nonpayable"
    },
    {
      "type": "function",
      "name": "feeEscrow",
      "inputs": [],
      "outputs": [
        {
          "name": "",
          "type": "address",
          "internalType": "contract IFeeEscrow"
        }
      ],
      "stateMutability": "view"
    },
    {
      "type": "function",
      "name": "getRoleAdmin",
      "inputs": [
        {
          "name": "role",
          "type": "bytes32",
          "internalType": "bytes32"
        }
      ],
      "outputs": [
        {
          "name": "",
          "type": "bytes32",
          "internalType": "bytes32"
        }
      ],
      "stateMutability": "view"
    },
    {
      "type": "function",
      "name": "grantRole",
      "inputs": [
        {
          "name": "role",
          "type": "bytes32",
          "internalType": "bytes32"
        },
        {
          "name": "account",
          "type": "address",
          "internalType": "address"
        }
      ],
      "outputs": [],
      "stateMutability": "nonpayable"
    },
    {
      "type": "function",
      "name": "hasRole",
      "inputs": [
        {
          "name": "role",
          "type": "bytes32",
          "internalType": "bytes32"
        },
        {
          "name": "account",
          "type": "address",
          "internalType": "address"
        }
      ],
      "outputs": [
        {
          "name": "",
          "type": "bool",
          "internalType": "bool"
        }
      ],
      "stateMutability": "view"
    },
    {
      "type": "function",
      "name": "managerImplementation",
      "inputs": [
        {
          "name": "_manager",
          "type": "address",
          "internalType": "address"
        }
      ],
      "outputs": [
        {
          "name": "_managerImplementation",
          "type": "address",
          "internalType": "address"
        }
      ],
      "stateMutability": "view"
    },
    {
      "type": "function",
      "name": "owner",
      "inputs": [],
      "outputs": [
        {
          "name": "result",
          "type": "address",
          "internalType": "address"
        }
      ],
      "stateMutability": "view"
    },
    {
      "type": "function",
      "name": "ownershipHandoverExpiresAt",
      "inputs": [
        {
          "name": "pendingOwner",
          "type": "address",
          "internalType": "address"
        }
      ],
      "outputs": [
        {
          "name": "result",
          "type": "uint256",
          "internalType": "uint256"
        }
      ],
      "stateMutability": "view"
    },
    {
      "type": "function",
      "name": "renounceOwnership",
      "inputs": [],
      "outputs": [],
      "stateMutability": "payable"
    },
    {
      "type": "function",
      "name": "renounceRole",
      "inputs": [
        {
          "name": "role",
          "type": "bytes32",
          "internalType": "bytes32"
        },
        {
          "name": "callerConfirmation",
          "type": "address",
          "internalType": "address"
        }
      ],
      "outputs": [],
      "stateMutability": "nonpayable"
    },
    {
      "type": "function",
      "name": "requestOwnershipHandover",
      "inputs": [],
      "outputs": [],
      "stateMutability": "payable"
    },
    {
      "type": "function",
      "name": "revokeRole",
      "inputs": [
        {
          "name": "role",
          "type": "bytes32",
          "internalType": "bytes32"
        },
        {
          "name": "account",
          "type": "address",
          "internalType": "address"
        }
      ],
      "outputs": [],
      "stateMutability": "nonpayable"
    },
    {
      "type": "function",
      "name": "supportsInterface",
      "inputs": [
        {
          "name": "interfaceId",
          "type": "bytes4",
          "internalType": "bytes4"
        }
      ],
      "outputs": [
        {
          "name": "",
          "type": "bool",
          "internalType": "bool"
        }
      ],
      "stateMutability": "view"
    },
    {
      "type": "function",
      "name": "transferOwnership",
      "inputs": [
        {
          "name": "newOwner",
          "type": "address",
          "internalType": "address"
        }
      ],
      "outputs": [],
      "stateMutability": "payable"
    },
    {
      "type": "function",
      "name": "unapproveManager",
      "inputs": [
        {
          "name": "_managerImplementation",
          "type": "address",
          "internalType": "address"
        }
      ],
      "outputs": [],
      "stateMutability": "nonpayable"
    },
    {
      "type": "event",
      "name": "ManagerDeployed",
      "inputs": [
        {
          "name": "_manager",
          "type": "address",
          "indexed": true,
          "internalType": "address"
        },
        {
          "name": "_managerImplementation",
          "type": "address",
          "indexed": true,
          "internalType": "address"
        }
      ],
      "anonymous": false
    },
    {
      "type": "event",
      "name": "ManagerImplementationApproved",
      "inputs": [
        {
          "name": "_managerImplementation",
          "type": "address",
          "indexed": true,
          "internalType": "address"
        }
      ],
      "anonymous": false
    },
    {
      "type": "event",
      "name": "ManagerImplementationUnapproved",
      "inputs": [
        {
          "name": "_managerImplementation",
          "type": "address",
          "indexed": true,
          "internalType": "address"
        }
      ],
      "anonymous": false
    },
    {
      "type": "event",
      "name": "OwnershipHandoverCanceled",
      "inputs": [
        {
          "name": "pendingOwner",
          "type": "address",
          "indexed": true,
          "internalType": "address"
        }
      ],
      "anonymous": false
    },
    {
      "type": "event",
      "name": "OwnershipHandoverRequested",
      "inputs": [
        {
          "name": "pendingOwner",
          "type": "address",
          "indexed": true,
          "internalType": "address"
        }
      ],
      "anonymous": false
    },
    {
      "type": "event",
      "name": "OwnershipTransferred",
      "inputs": [
        {
          "name": "oldOwner",
          "type": "address",
          "indexed": true,
          "internalType": "address"
        },
        {
          "name": "newOwner",
          "type": "address",
          "indexed": true,
          "internalType": "address"
        }
      ],
      "anonymous": false
    },
    {
      "type": "event",
      "name": "RoleAdminChanged",
      "inputs": [
        {
          "name": "role",
          "type": "bytes32",
          "indexed": true,
          "internalType": "bytes32"
        },
        {
          "name": "previousAdminRole",
          "type": "bytes32",
          "indexed": true,
          "internalType": "bytes32"
        },
        {
          "name": "newAdminRole",
          "type": "bytes32",
          "indexed": true,
          "internalType": "bytes32"
        }
      ],
      "anonymous": false
    },
    {
      "type": "event",
      "name": "RoleGranted",
      "inputs": [
        {
          "name": "role",
          "type": "bytes32",
          "indexed": true,
          "internalType": "bytes32"
        },
        {
          "name": "account",
          "type": "address",
          "indexed": true,
          "internalType": "address"
        },
        {
          "name": "sender",
          "type": "address",
          "indexed": true,
          "internalType": "address"
        }
      ],
      "anonymous": false
    },
    {
      "type": "event",
      "name": "RoleRevoked",
      "inputs": [
        {
          "name": "role",
          "type": "bytes32",
          "indexed": true,
          "internalType": "bytes32"
        },
        {
          "name": "account",
          "type": "address",
          "indexed": true,
          "internalType": "address"
        },
        {
          "name": "sender",
          "type": "address",
          "indexed": true,
          "internalType": "address"
        }
      ],
      "anonymous": false
    },
    {
      "type": "error",
      "name": "AccessControlBadConfirmation",
      "inputs": []
    },
    {
      "type": "error",
      "name": "AccessControlUnauthorizedAccount",
      "inputs": [
        {
          "name": "account",
          "type": "address",
          "internalType": "address"
        },
        {
          "name": "neededRole",
          "type": "bytes32",
          "internalType": "bytes32"
        }
      ]
    },
    {
      "type": "error",
      "name": "AlreadyInitialized",
      "inputs": []
    },
    {
      "type": "error",
      "name": "NewOwnerIsZeroAddress",
      "inputs": []
    },
    {
      "type": "error",
      "name": "NoHandoverRequest",
      "inputs": []
    },
    {
      "type": "error",
      "name": "Unauthorized",
      "inputs": []
    },
    {
      "type": "error",
      "name": "UnknownManagerImplemention",
      "inputs": []
    }
  ],
  "bytecode": {
    "object": "0x60a060405234801561000f575f80fd5b50604051610cca380380610cca83398101604081905261002e91610172565b6001600160a01b03811660805261004482610056565b61004e5f836100ae565b5050506101a3565b638b78c6d81980541561007057630dc149f05f526004601cfd5b6001600160a01b03909116801560ff1b8117909155805f7f8be0079c531659141344cd1fd0a4f28419497f9722a3daafe3b4186f6b6457e08180a350565b5f828152602081815260408083206001600160a01b038516845290915281205460ff1661014e575f838152602081815260408083206001600160a01b03861684529091529020805460ff191660011790556101063390565b6001600160a01b0316826001600160a01b0316847f2f8788117e7eff1d82e926ec794901d17c78024a50270940304540a733656f0d60405160405180910390a4506001610151565b505f5b92915050565b80516001600160a01b038116811461016d575f80fd5b919050565b5f8060408385031215610183575f80fd5b61018c83610157565b915061019a60208401610157565b90509250929050565b608051610b0f6101bb5f395f6102ba0152610b0f5ff3fe6080604052600436106100f9575f3560e01c806301ffc9a7146100fd578063241ecfa714610131578063248a9ca314610152578063256929621461017f5780632f2ff15d1461018757806336568abe146101a657806354d1f13d146101c55780636eefb952146101cd578063715018a6146102195780638da5cb5b1461022157806391d1485414610239578063a217fddf14610258578063b5eee7221461026b578063b78a7fd61461028a578063c4b7de97146102a9578063d547741f146102dc578063ebe62d90146102fb578063ec485b1b1461031a578063f04e283e14610348578063f2fde38b1461035b578063fee81cf41461036e575b5f80fd5b348015610108575f80fd5b5061011c61011736600461096f565b61039f565b60405190151581526020015b60405180910390f35b34801561013c575f80fd5b5061015061014b3660046109b8565b6103d5565b005b34801561015d575f80fd5b5061017161016c3660046109d1565b61045d565b604051908152602001610128565b610150610471565b348015610192575f80fd5b506101506101a13660046109e8565b6104bd565b3480156101b1575f80fd5b506101506101c03660046109e8565b6104df565b610150610517565b3480156101d8575f80fd5b506102016101e73660046109b8565b60026020525f90815260409020546001600160a01b031681565b6040516001600160a01b039091168152602001610128565b610150610550565b34801561022c575f80fd5b50638b78c6d81954610201565b348015610244575f80fd5b5061011c6102533660046109e8565b610563565b348015610263575f80fd5b506101715f81565b348015610276575f80fd5b506101506102853660046109b8565b61058b565b348015610295575f80fd5b506102016102a4366004610a12565b6105e1565b3480156102b4575f80fd5b506102017f000000000000000000000000000000000000000000000000000000000000000081565b3480156102e7575f80fd5b506101506102f63660046109e8565b610653565b348015610306575f80fd5b506102016103153660046109b8565b61066f565b348015610325575f80fd5b5061011c6103343660046109b8565b60016020525f908152604090205460ff1681565b6101506103563660046109b8565b61070d565b6101506103693660046109b8565b61074a565b348015610379575f80fd5b506101716103883660046109b8565b63389a75e1600c9081525f91909152602090205490565b5f6001600160e01b03198216637965db0b60e01b14806103cf57506301ffc9a760e01b6001600160e01b03198316145b92915050565b6103dd610770565b6001600160a01b0381165f9081526001602052604090205460ff166104155760405163600fd44b60e01b815260040160405180910390fd5b6001600160a01b0381165f81815260016020526040808220805460ff19169055517f6a1a01a5ef5ef64c7c0d9123c065c84e7448b6f53735620b01b5eb3e3b6144a39190a250565b5f9081526020819052604090206001015490565b5f6202a3006001600160401b03164201905063389a75e1600c52335f52806020600c2055337fdbf36a107da19e49527a7176a1babf963b4b0ff8cde35ee35d6cd8f1f9ac7e1d5f80a250565b6104c68261045d565b6104cf8161078a565b6104d98383610794565b50505050565b6001600160a01b03811633146105085760405163334bd91960e11b815260040160405180910390fd5b6105128282610823565b505050565b63389a75e1600c52335f525f6020600c2055337ffa7b8eab7da67f412cc9575ed43464468f9bfbae89d1675917346ca6d8fe3c925f80a2565b610558610770565b6105615f61088c565b565b5f918252602082815260408084206001600160a01b0393909316845291905290205460ff1690565b610593610770565b6001600160a01b0381165f818152600160208190526040808320805460ff1916909217909155517f4287052986e40ee3d219ca67fc41602baee0f7492bf42d76957514f4230bbbab9190a250565b5f6105eb8561066f565b60405163347d5e2560e21b81529091506001600160a01b0382169063d1f578949061061e90879087908790600401610a9a565b5f604051808303815f87803b158015610635575f80fd5b505af1158015610647573d5f803e3d5ffd5b50505050949350505050565b61065c8261045d565b6106658161078a565b6104d98383610823565b6001600160a01b0381165f9081526001602052604081205460ff166106a75760405163600fd44b60e01b815260040160405180910390fd5b6106b0826108d2565b6001600160a01b038181165f8181526002602052604080822080546001600160a01b031916948816948517905551939450919290917fb9eeb0ca3259038acb2879e65ccb1f2a6433df58eefa491654cc6607b01944d491a3919050565b610715610770565b63389a75e1600c52805f526020600c20805442111561073b57636f5e88185f526004601cfd5b5f90556107478161088c565b50565b610752610770565b8060601b61076757637448fbae5f526004601cfd5b6107478161088c565b638b78c6d819543314610561576382b429005f526004601cfd5b61074781336108dd565b5f61079f8383610563565b61081c575f838152602081815260408083206001600160a01b03861684529091529020805460ff191660011790556107d43390565b6001600160a01b0316826001600160a01b0316847f2f8788117e7eff1d82e926ec794901d17c78024a50270940304540a733656f0d60405160405180910390a45060016103cf565b505f6103cf565b5f61082e8383610563565b1561081c575f838152602081815260408083206001600160a01b0386168085529252808320805460ff1916905551339286917ff6391f5c32d9c69d2a47ea670b442974b53935d1edc7fd64eb21e047a839171b9190a45060016103cf565b638b78c6d81980546001600160a01b039092169182907f8be0079c531659141344cd1fd0a4f28419497f9722a3daafe3b4186f6b6457e05f80a3811560ff1b8217905550565b5f6103cf5f8361091e565b6108e78282610563565b61091a5760405163e2517d3f60e01b81526001600160a01b03821660048201526024810183905260440160405180910390fd5b5050565b5f6c5af43d3d93803e602a57fd5bf36021528160145273602c3d8160093d39f33d3d3d3d363d3d37363d735f526035600c84f09050806109655763301164255f526004601cfd5b5f60215292915050565b5f6020828403121561097f575f80fd5b81356001600160e01b031981168114610996575f80fd5b9392505050565b80356001600160a01b03811681146109b3575f80fd5b919050565b5f602082840312156109c8575f80fd5b6109968261099d565b5f602082840312156109e1575f80fd5b5035919050565b5f80604083850312156109f9575f80fd5b82359150610a096020840161099d565b90509250929050565b5f805f8060608587031215610a25575f80fd5b610a2e8561099d565b9350610a3c6020860161099d565b925060408501356001600160401b03811115610a56575f80fd5b8501601f81018713610a66575f80fd5b80356001600160401b03811115610a7b575f80fd5b876020828401011115610a8c575f80fd5b949793965060200194505050565b6001600160a01b03841681526040602082018190528101829052818360608301375f818301606090810191909152601f909201601f191601019291505056fea2646970667358221220c43b44d18062f1acd19e5b4832e8e359fbc9cda85af46ae667a335b52cc0767a64736f6c634300081a0033",
    "linkReferences": {}
  },
  "methodIdentifiers": {
    "DEFAULT_ADMIN_ROLE()": "a217fddf",
    "approveManager(address)": "b5eee722",
    "approvedManagerImplementation(address)": "ec485b1b",
    "cancelOwnershipHandover()": "54d1f13d",
    "completeOwnershipHandover(address)": "f04e283e",
    "deployAndInitializeManager(address,address,bytes)": "b78a7fd6",
    "deployManager(address)": "ebe62d90",
    "feeEscrow()": "c4b7de97",
    "getRoleAdmin(bytes32)": "248a9ca3",
    "grantRole(bytes32,address)": "2f2ff15d",
    "hasRole(bytes32,address)": "91d14854",
    "managerImplementation(address)": "6eefb952",
    "owner()": "8da5cb5b",
    "ownershipHandoverExpiresAt(address)": "fee81cf4",
    "renounceOwnership()": "715018a6",
    "renounceRole(bytes32,address)": "36568abe",
    "requestOwnershipHandover()": "25692962",
    "revokeRole(bytes32,address)": "d547741f",
    "supportsInterface(bytes4)": "01ffc9a7",
    "transferOwnership(address)": "f2fde38b",
    "unapproveManager(address)": "241ecfa7"
  },
  "id": 235
}